{
  "contractName": "Factory",
  "abi": [
    {
      "anonymous": false,
      "inputs": [
        {
          "indexed": false,
          "internalType": "address",
          "name": "sender",
          "type": "address"
        },
        {
          "indexed": false,
          "internalType": "address",
          "name": "instantiation",
          "type": "address"
        }
      ],
      "name": "ContractInstantiation",
      "type": "event"
    },
    {
      "inputs": [
        {
          "internalType": "address",
          "name": "",
          "type": "address"
        },
        {
          "internalType": "uint256",
          "name": "",
          "type": "uint256"
        }
      ],
      "name": "instantiations",
      "outputs": [
        {
          "internalType": "address",
          "name": "",
          "type": "address"
        }
      ],
      "stateMutability": "view",
      "type": "function"
    },
    {
      "inputs": [
        {
          "internalType": "address",
          "name": "",
          "type": "address"
        }
      ],
      "name": "isInstantiation",
      "outputs": [
        {
          "internalType": "bool",
          "name": "",
          "type": "bool"
        }
      ],
      "stateMutability": "view",
      "type": "function"
    },
    {
      "inputs": [
        {
          "internalType": "address",
          "name": "creator",
          "type": "address"
        }
      ],
      "name": "getInstantiationCount",
      "outputs": [
        {
          "internalType": "uint256",
          "name": "",
          "type": "uint256"
        }
      ],
      "stateMutability": "view",
      "type": "function"
    }
  ],
  "bytecode": "0x608060405234801561001057600080fd5b50610292806100206000396000f3fe608060405234801561001057600080fd5b506004361061005e576000357c0100000000000000000000000000000000000000000000000000000000900480632f4f33161461006357806357183c82146100bf5780638f8384781461014d575b600080fd5b6100a56004803603602081101561007957600080fd5b81019080803573ffffffffffffffffffffffffffffffffffffffff1690602001909291905050506101a5565b604051808215151515815260200191505060405180910390f35b61010b600480360360408110156100d557600080fd5b81019080803573ffffffffffffffffffffffffffffffffffffffff169060200190929190803590602001909291905050506101c5565b604051808273ffffffffffffffffffffffffffffffffffffffff1673ffffffffffffffffffffffffffffffffffffffff16815260200191505060405180910390f35b61018f6004803603602081101561016357600080fd5b81019080803573ffffffffffffffffffffffffffffffffffffffff169060200190929190505050610210565b6040518082815260200191505060405180910390f35b60006020528060005260406000206000915054906101000a900460ff1681565b600160205281600052604060002081815481106101de57fe5b906000526020600020016000915091509054906101000a900473ffffffffffffffffffffffffffffffffffffffff1681565b6000600160008373ffffffffffffffffffffffffffffffffffffffff1673ffffffffffffffffffffffffffffffffffffffff16815260200190815260200160002080549050905091905056fea264697066735822122089d56718f316f4a95c8506891c3e05c03145295c1d9eb6604e57796c6be58dca64736f6c63430006020033",
  "source": "// SPDX-License-Identifier: MIT\npragma solidity >0.6.0;\n\ncontract Factory {\n    // Events\n    event ContractInstantiation(address sender, address instantiation);\n\n    // Storage\n    mapping(address => bool) public isInstantiation;\n    mapping(address => address[]) public instantiations;\n\n    // Public functions\n    /**\n     * @param creator Contract creator address.\n     * @return Returns number of instantiations by creator.\n     */\n    function getInstantiationCount(address creator)\n        public\n        view\n        returns (uint256)\n    {\n        return instantiations[creator].length;\n    }\n\n    // Internal functions\n    /**\n     * @dev @dev Registers contract in factory registry.\n     * @param instantiation Address of contract instantiation.\n     */\n    function register(address instantiation) internal {\n        isInstantiation[instantiation] = true;\n        instantiations[msg.sender].push(instantiation);\n        emit ContractInstantiation(msg.sender, instantiation);\n    }\n}\n",
  "sourcePath": "/Users/konstantin/dev/consensys/final-project/startup-3.0/contracts/Factory.sol",
  "compiler": {
    "name": "solc",
    "version": "0.6.2+commit.bacdbe57.Emscripten.clang"
  },
  "schemaVersion": "3.2.5",
  "updatedAt": "2020-11-26T21:39:00.118Z",
  "devdoc": {
    "methods": {
      "getInstantiationCount(address)": {
        "params": {
          "creator": "Contract creator address."
        },
        "returns": {
          "_0": "Returns number of instantiations by creator."
        }
      }
    }
  },
  "userdoc": {
    "methods": {}
  }
}