{
  "contractName": "PrivateCompanyFactory",
  "abi": [
    {
      "anonymous": false,
      "inputs": [
        {
          "indexed": false,
          "internalType": "address",
          "name": "sender",
          "type": "address"
        },
        {
          "indexed": false,
          "internalType": "address",
          "name": "instantiation",
          "type": "address"
        }
      ],
      "name": "ContractInstantiation",
      "type": "event"
    },
    {
      "inputs": [
        {
          "internalType": "address",
          "name": "creator",
          "type": "address"
        }
      ],
      "name": "getInstantiationCount",
      "outputs": [
        {
          "internalType": "uint256",
          "name": "",
          "type": "uint256"
        }
      ],
      "stateMutability": "view",
      "type": "function",
      "constant": true
    },
    {
      "inputs": [
        {
          "internalType": "address",
          "name": "",
          "type": "address"
        },
        {
          "internalType": "uint256",
          "name": "",
          "type": "uint256"
        }
      ],
      "name": "instantiations",
      "outputs": [
        {
          "internalType": "address",
          "name": "",
          "type": "address"
        }
      ],
      "stateMutability": "view",
      "type": "function",
      "constant": true
    },
    {
      "inputs": [
        {
          "internalType": "address",
          "name": "",
          "type": "address"
        }
      ],
      "name": "isInstantiation",
      "outputs": [
        {
          "internalType": "bool",
          "name": "",
          "type": "bool"
        }
      ],
      "stateMutability": "view",
      "type": "function",
      "constant": true
    },
    {
      "inputs": [
        {
          "internalType": "string",
          "name": "_companyName",
          "type": "string"
        },
        {
          "internalType": "string",
          "name": "_token",
          "type": "string"
        }
      ],
      "name": "create",
      "outputs": [
        {
          "internalType": "address",
          "name": "companyAddress",
          "type": "address"
        }
      ],
      "stateMutability": "nonpayable",
      "type": "function"
    }
  ],
  "bytecode": "0x608060405234801561001057600080fd5b506159d9806100206000396000f3fe608060405234801561001057600080fd5b5060043610610069576000357c010000000000000000000000000000000000000000000000000000000090048063198e2b8a1461006e5780632f4f33161461020057806357183c821461025c5780638f838478146102ea575b600080fd5b6101be6004803603604081101561008457600080fd5b81019080803590602001906401000000008111156100a157600080fd5b8201836020820111156100b357600080fd5b803590602001918460018302840111640100000000831117156100d557600080fd5b91908080601f016020809104026020016040519081016040528093929190818152602001838380828437600081840152601f19601f8201169050808301925050505050505091929192908035906020019064010000000081111561013857600080fd5b82018360208201111561014a57600080fd5b8035906020019184600183028401116401000000008311171561016c57600080fd5b91908080601f016020809104026020016040519081016040528093929190818152602001838380828437600081840152601f19601f820116905080830192505050505050509192919290505050610342565b604051808273ffffffffffffffffffffffffffffffffffffffff1673ffffffffffffffffffffffffffffffffffffffff16815260200191505060405180910390f35b6102426004803603602081101561021657600080fd5b81019080803573ffffffffffffffffffffffffffffffffffffffff169060200190929190505050610492565b604051808215151515815260200191505060405180910390f35b6102a86004803603604081101561027257600080fd5b81019080803573ffffffffffffffffffffffffffffffffffffffff169060200190929190803590602001909291905050506104b2565b604051808273ffffffffffffffffffffffffffffffffffffffff1673ffffffffffffffffffffffffffffffffffffffff16815260200191505060405180910390f35b61032c6004803603602081101561030057600080fd5b81019080803573ffffffffffffffffffffffffffffffffffffffff1690602001909291905050506104fd565b6040518082815260200191505060405180910390f35b6000828233604051610353906106da565b8080602001806020018473ffffffffffffffffffffffffffffffffffffffff1673ffffffffffffffffffffffffffffffffffffffff168152602001838103835286818151815260200191508051906020019080838360005b838110156103c65780820151818401526020810190506103ab565b50505050905090810190601f1680156103f35780820380516001836020036101000a031916815260200191505b50838103825285818151815260200191508051906020019080838360005b8381101561042c578082015181840152602081019050610411565b50505050905090810190601f1680156104595780820380516001836020036101000a031916815260200191505b5095505050505050604051809103906000f08015801561047d573d6000803e3d6000fd5b50905061048981610549565b80905092915050565b60006020528060005260406000206000915054906101000a900460ff1681565b600160205281600052604060002081815481106104cb57fe5b906000526020600020016000915091509054906101000a900473ffffffffffffffffffffffffffffffffffffffff1681565b6000600160008373ffffffffffffffffffffffffffffffffffffffff1673ffffffffffffffffffffffffffffffffffffffff168152602001908152602001600020805490509050919050565b60016000808373ffffffffffffffffffffffffffffffffffffffff1673ffffffffffffffffffffffffffffffffffffffff16815260200190815260200160002060006101000a81548160ff021916908315150217905550600160003373ffffffffffffffffffffffffffffffffffffffff1673ffffffffffffffffffffffffffffffffffffffff168152602001908152602001600020819080600181540180825580915050600190039060005260206000200160009091909190916101000a81548173ffffffffffffffffffffffffffffffffffffffff021916908373ffffffffffffffffffffffffffffffffffffffff1602179055507f4fb057ad4a26ed17a57957fa69c306f11987596069b89521c511fc9a894e61613382604051808373ffffffffffffffffffffffffffffffffffffffff1673ffffffffffffffffffffffffffffffffffffffff1681526020018273ffffffffffffffffffffffffffffffffffffffff1673ffffffffffffffffffffffffffffffffffffffff1681526020019250505060405180910390a150565b6152bb80620006e98339019056fe60806040526000600d60006101000a81548160ff0219169083151502179055506000600d60016101000a81548160ff021916908315150217905550604051620052bb380380620052bb833981810160405260608110156200005f57600080fd5b81019080805160405193929190846401000000008211156200008057600080fd5b838201915060208201858111156200009757600080fd5b8251866001820283011164010000000082111715620000b557600080fd5b8083526020830192505050908051906020019080838360005b83811015620000eb578082015181840152602081019050620000ce565b50505050905090810190601f168015620001195780820380516001836020036101000a031916815260200191505b50604052602001805160405193929190846401000000008211156200013d57600080fd5b838201915060208201858111156200015457600080fd5b82518660018202830111640100000000821117156200017257600080fd5b8083526020830192505050908051906020019080838360005b83811015620001a85780820151818401526020810190506200018b565b50505050905090810190601f168015620001d65780820380516001836020036101000a031916815260200191505b5060405260200180519060200190929190505050808383816003908051906020019062000205929190620005a7565b5080600490805190602001906200021e929190620005a7565b506012600560006101000a81548160ff021916908360ff16021790555050506200028d60405180807f4f574e455200000000000000000000000000000000000000000000000000000081525060050190506040518091039020826200037f640100000000026401000000009004565b6200031260405180807f4f574e45520000000000000000000000000000000000000000000000000000008152506005019050604051809103902060405180807f4f574e4552000000000000000000000000000000000000000000000000000000815250600501905060405180910390206200039e640100000000026401000000009004565b506008819080600181540180825580915050600190039060005260206000200160009091909190916101000a81548173ffffffffffffffffffffffffffffffffffffffff021916908373ffffffffffffffffffffffffffffffffffffffff16021790555050505062000656565b6200039a828262000402640100000000026401000000009004565b5050565b806006600084815260200190815260200160002060020154837fbd79b86ffe0ab8e8776151514217cd7cacd52c909f66475c3af44e129f0b00ff60405160405180910390a48060066000848152602001908152602001600020600201819055505050565b6200043a8160066000858152602001908152602001600020600001620004b86401000000000262003f6d179091906401000000009004565b15620004b45762000459620004f9640100000000026401000000009004565b73ffffffffffffffffffffffffffffffffffffffff168173ffffffffffffffffffffffffffffffffffffffff16837f2f8788117e7eff1d82e926ec794901d17c78024a50270940304540a733656f0d60405160405180910390a45b5050565b6000620004f1836000018373ffffffffffffffffffffffffffffffffffffffff1660010262000501640100000000026401000000009004565b905092915050565b600033905090565b60006200051e838362000584640100000000026401000000009004565b620005795782600001829080600181540180825580915050600190039060005260206000200160009091909190915055826000018054905083600101600084815260200190815260200160002081905550600190506200057e565b600090505b92915050565b600080836001016000848152602001908152602001600020541415905092915050565b828054600181600116156101000203166002900490600052602060002090601f016020900481019282601f10620005ea57805160ff19168380011785556200061b565b828001600101855582156200061b579182015b828111156200061a578251825591602001919060010190620005fd565b5b5090506200062a91906200062e565b5090565b6200065391905b808211156200064f57600081600090555060010162000635565b5090565b90565b614c5580620006666000396000f3fe608060405260043610610230576000357c0100000000000000000000000000000000000000000000000000000000900480639010d07c11610135578063c01a8c84116100bd578063d547741f1161008c578063d547741f146110a7578063d8e75f6214611102578063dd62ed3e1461117d578063e58378bb14611202578063ee22610b1461122d5761028f565b8063c01a8c8414610f93578063c4bc5da514610fce578063c99e06c314610fe5578063ca15c873146110585761028f565b8063a217fddf11610104578063a217fddf14610e40578063a457c2d714610e6b578063a9059cbb14610ede578063b500aaed14610f51578063b77bf60014610f685761028f565b80639010d07c14610b9f57806391d1485414610c2457806395d89b4114610c975780639ace38c214610d275761028f565b80632f54bf6e116101b857806339509351116101875780633950935114610895578063476a4b58146109085780634b68044414610adc57806370a0823114610b0b57806375f12b2114610b705761028f565b80632f54bf6e1461072d578063313ce567146107965780633411c81c146107c757806336568abe1461083a5761028f565b806318160ddd116101ff57806318160ddd1461042857806323b872dd14610453578063248a9ca3146104e6578063281a9956146105355780632f2ff15d146106d25761028f565b806306fdde0314610294578063095ea7b3146103245780630fa683d31461039757806312253a6c146104115761028f565b3661028f57600034111561028d573373ffffffffffffffffffffffffffffffffffffffff167f1b851e1031ef35a238e6c67d0c7991162390df915f70eaf9098dbf0b175a6198346040518082815260200191505060405180910390a25b005b600080fd5b3480156102a057600080fd5b506102a9611268565b6040518080602001828103825283818151815260200191508051906020019080838360005b838110156102e95780820151818401526020810190506102ce565b50505050905090810190601f1680156103165780820380516001836020036101000a031916815260200191505b509250505060405180910390f35b34801561033057600080fd5b5061037d6004803603604081101561034757600080fd5b81019080803573ffffffffffffffffffffffffffffffffffffffff1690602001909291908035906020019092919050505061130a565b604051808215151515815260200191505060405180910390f35b3480156103a357600080fd5b506103d0600480360360208110156103ba57600080fd5b8101908080359060200190929190505050611328565b6040518085151515158152602001841515151581526020018360038111156103f457fe5b60ff16815260200182815260200194505050505060405180910390f35b34801561041d57600080fd5b5061042661164f565b005b34801561043457600080fd5b5061043d61172c565b6040518082815260200191505060405180910390f35b34801561045f57600080fd5b506104cc6004803603606081101561047657600080fd5b81019080803573ffffffffffffffffffffffffffffffffffffffff169060200190929190803573ffffffffffffffffffffffffffffffffffffffff16906020019092919080359060200190929190505050611736565b604051808215151515815260200191505060405180910390f35b3480156104f257600080fd5b5061051f6004803603602081101561050957600080fd5b810190808035906020019092919050505061180f565b6040518082815260200191505060405180910390f35b34801561054157600080fd5b506106bc6004803603608081101561055857600080fd5b810190808035906020019064010000000081111561057557600080fd5b82018360208201111561058757600080fd5b803590602001918460018302840111640100000000831117156105a957600080fd5b91908080601f016020809104026020016040519081016040528093929190818152602001838380828437600081840152601f19601f820116905080830192505050505050509192919290803573ffffffffffffffffffffffffffffffffffffffff169060200190929190803590602001909291908035906020019064010000000081111561063657600080fd5b82018360208201111561064857600080fd5b8035906020019184600183028401116401000000008311171561066a57600080fd5b91908080601f016020809104026020016040519081016040528093929190818152602001838380828437600081840152601f19601f82011690508083019250505050505050919291929050505061182f565b6040518082815260200191505060405180910390f35b3480156106de57600080fd5b5061072b600480360360408110156106f557600080fd5b8101908080359060200190929190803573ffffffffffffffffffffffffffffffffffffffff16906020019092919050505061190c565b005b34801561073957600080fd5b5061077c6004803603602081101561075057600080fd5b81019080803573ffffffffffffffffffffffffffffffffffffffff169060200190929190505050611996565b604051808215151515815260200191505060405180910390f35b3480156107a257600080fd5b506107ab6119de565b604051808260ff1660ff16815260200191505060405180910390f35b3480156107d357600080fd5b50610820600480360360408110156107ea57600080fd5b8101908080359060200190929190803573ffffffffffffffffffffffffffffffffffffffff1690602001909291905050506119f5565b604051808215151515815260200191505060405180910390f35b34801561084657600080fd5b506108936004803603604081101561085d57600080fd5b8101908080359060200190929190803573ffffffffffffffffffffffffffffffffffffffff169060200190929190505050611a24565b005b3480156108a157600080fd5b506108ee600480360360408110156108b857600080fd5b81019080803573ffffffffffffffffffffffffffffffffffffffff16906020019092919080359060200190929190505050611abd565b604051808215151515815260200191505060405180910390f35b34801561091457600080fd5b5061091d611b70565b6040518080602001806020018060200180602001858103855289818151815260200191508051906020019080838360005b8381101561096957808201518184015260208101905061094e565b50505050905090810190601f1680156109965780820380516001836020036101000a031916815260200191505b50858103845288818151815260200191508051906020019080838360005b838110156109cf5780820151818401526020810190506109b4565b50505050905090810190601f1680156109fc5780820380516001836020036101000a031916815260200191505b50858103835287818151815260200191508051906020019080838360005b83811015610a35578082015181840152602081019050610a1a565b50505050905090810190601f168015610a625780820380516001836020036101000a031916815260200191505b50858103825286818151815260200191508051906020019080838360005b83811015610a9b578082015181840152602081019050610a80565b50505050905090810190601f168015610ac85780820380516001836020036101000a031916815260200191505b509850505050505050505060405180910390f35b348015610ae857600080fd5b50610af1611cfc565b604051808215151515815260200191505060405180910390f35b348015610b1757600080fd5b50610b5a60048036036020811015610b2e57600080fd5b81019080803573ffffffffffffffffffffffffffffffffffffffff169060200190929190505050611d0f565b6040518082815260200191505060405180910390f35b348015610b7c57600080fd5b50610b85611d57565b604051808215151515815260200191505060405180910390f35b348015610bab57600080fd5b50610be260048036036040811015610bc257600080fd5b810190808035906020019092919080359060200190929190505050611d6a565b604051808273ffffffffffffffffffffffffffffffffffffffff1673ffffffffffffffffffffffffffffffffffffffff16815260200191505060405180910390f35b348015610c3057600080fd5b50610c7d60048036036040811015610c4757600080fd5b8101908080359060200190929190803573ffffffffffffffffffffffffffffffffffffffff169060200190929190505050611d9c565b604051808215151515815260200191505060405180910390f35b348015610ca357600080fd5b50610cac611dce565b6040518080602001828103825283818151815260200191508051906020019080838360005b83811015610cec578082015181840152602081019050610cd1565b50505050905090810190601f168015610d195780820380516001836020036101000a031916815260200191505b509250505060405180910390f35b348015610d3357600080fd5b50610d6060048036036020811015610d4a57600080fd5b8101908080359060200190929190505050611e70565b60405180876003811115610d7057fe5b60ff1681526020018673ffffffffffffffffffffffffffffffffffffffff1673ffffffffffffffffffffffffffffffffffffffff168152602001858152602001806020018415151515815260200183151515158152602001828103825285818151815260200191508051906020019080838360005b83811015610e00578082015181840152602081019050610de5565b50505050905090810190601f168015610e2d5780820380516001836020036101000a031916815260200191505b5097505050505050505060405180910390f35b348015610e4c57600080fd5b50610e55611f8b565b6040518082815260200191505060405180910390f35b348015610e7757600080fd5b50610ec460048036036040811015610e8e57600080fd5b81019080803573ffffffffffffffffffffffffffffffffffffffff16906020019092919080359060200190929190505050611f93565b604051808215151515815260200191505060405180910390f35b348015610eea57600080fd5b50610f3760048036036040811015610f0157600080fd5b81019080803573ffffffffffffffffffffffffffffffffffffffff16906020019092919080359060200190929190505050612060565b604051808215151515815260200191505060405180910390f35b348015610f5d57600080fd5b50610f6661207e565b005b348015610f7457600080fd5b50610f7d612255565b6040518082815260200191505060405180910390f35b348015610f9f57600080fd5b50610fcc60048036036020811015610fb657600080fd5b810190808035906020019092919050505061225b565b005b348015610fda57600080fd5b50610fe36124a7565b005b348015610ff157600080fd5b506110346004803603602081101561100857600080fd5b81019080803573ffffffffffffffffffffffffffffffffffffffff169060200190929190505050612584565b60405180848152602001838152602001828152602001935050505060405180910390f35b34801561106457600080fd5b506110916004803603602081101561107b57600080fd5b8101908080359060200190929190505050612668565b6040518082815260200191505060405180910390f35b3480156110b357600080fd5b50611100600480360360408110156110ca57600080fd5b8101908080359060200190929190803573ffffffffffffffffffffffffffffffffffffffff16906020019092919050505061268f565b005b34801561110e57600080fd5b5061113b6004803603602081101561112557600080fd5b8101908080359060200190929190505050612719565b604051808273ffffffffffffffffffffffffffffffffffffffff1673ffffffffffffffffffffffffffffffffffffffff16815260200191505060405180910390f35b34801561118957600080fd5b506111ec600480360360408110156111a057600080fd5b81019080803573ffffffffffffffffffffffffffffffffffffffff169060200190929190803573ffffffffffffffffffffffffffffffffffffffff169060200190929190505050612755565b6040518082815260200191505060405180910390f35b34801561120e57600080fd5b506112176127dc565b6040518082815260200191505060405180910390f35b34801561123957600080fd5b506112666004803603602081101561125057600080fd5b8101908080359060200190929190505050612815565b005b606060038054600181600116156101000203166002900480601f0160208091040260200160405190810160405280929190818152602001828054600181600116156101000203166002900480156113005780601f106112d557610100808354040283529160200191611300565b820191906000526020600020905b8154815290600101906020018083116112e357829003601f168201915b5050505050905090565b600061131e611317612c29565b8484612c31565b6001905092915050565b60008060008061136d60405180807f4f574e45520000000000000000000000000000000000000000000000000000008152506005019050604051809103902033611d9c565b6113c2576040517f08c379a0000000000000000000000000000000000000000000000000000000008152600401808060200182810382526027815260200180614a3c6027913960400191505060405180910390fd5b84600a600082815260200190815260200160002060030160009054906101000a900460ff1661143c576040517f08c379a000000000000000000000000000000000000000000000000000000000815260040180806020018281038252602a815260200180614b7e602a913960400191505060405180910390fd5b61144461483a565b600a60008881526020019081526020016000206040518060c00160405290816000820160009054906101000a900460ff16600381111561148057fe5b600381111561148b57fe5b81526020016000820160019054906101000a900473ffffffffffffffffffffffffffffffffffffffff1673ffffffffffffffffffffffffffffffffffffffff1673ffffffffffffffffffffffffffffffffffffffff16815260200160018201548152602001600282018054600181600116156101000203166002900480601f0160208091040260200160405190810160405280929190818152602001828054600181600116156101000203166002900480156115885780601f1061155d57610100808354040283529160200191611588565b820191906000526020600020905b81548152906001019060200180831161156b57829003601f168201915b505050505081526020016003820160009054906101000a900460ff161515151581526020016003820160019054906101000a900460ff1615151515815250509050600b600088815260200190815260200160002060003373ffffffffffffffffffffffffffffffffffffffff1673ffffffffffffffffffffffffffffffffffffffff16815260200190815260200160002060009054906101000a900460ff1695508060a0015194508060000151935086925085858585955095509550955050509193509193565b61168e60405180807f4f574e45520000000000000000000000000000000000000000000000000000008152506005019050604051809103902033611d9c565b6116e3576040517f08c379a0000000000000000000000000000000000000000000000000000000008152600401808060200182810382526027815260200180614a3c6027913960400191505060405180910390fd5b6001600d60016101000a81548160ff0219169083151502179055507f271eeaa027ef2b0ef7f9c88ade99794e43f75016f0320df12ea62b72a74e268660405160405180910390a1565b6000600254905090565b6000611743848484612e28565b6118048461174f612c29565b6117ff85604051806060016040528060288152602001614b0f60289139600160008b73ffffffffffffffffffffffffffffffffffffffff1673ffffffffffffffffffffffffffffffffffffffff16815260200190815260200160002060006117b5612c29565b73ffffffffffffffffffffffffffffffffffffffff1673ffffffffffffffffffffffffffffffffffffffff168152602001908152602001600020546130e99092919063ffffffff16565b612c31565b600190509392505050565b600060066000838152602001908152602001600020600201549050919050565b6000600d60019054906101000a900460ff161561184b57600080fd5b61188a60405180807f4f574e45520000000000000000000000000000000000000000000000000000008152506005019050604051809103902033611d9c565b6118df576040517f08c379a0000000000000000000000000000000000000000000000000000000008152600401808060200182810382526027815260200180614a3c6027913960400191505060405180910390fd5b60006118ea866131a9565b90506118f8818686866132e9565b91506119038261225b565b50949350505050565b611933600660008481526020019081526020016000206002015461192e612c29565b611d9c565b611988576040517f08c379a000000000000000000000000000000000000000000000000000000000815260040180806020018281038252602f8152602001806149c5602f913960400191505060405180910390fd5b61199282826134cc565b5050565b60006119d760405180807f4f574e45520000000000000000000000000000000000000000000000000000008152506005019050604051809103902083611d9c565b9050919050565b6000600560009054906101000a900460ff16905090565b600b6020528160005260406000206020528060005260406000206000915091509054906101000a900460ff1681565b611a2c612c29565b73ffffffffffffffffffffffffffffffffffffffff168173ffffffffffffffffffffffffffffffffffffffff1614611aaf576040517f08c379a000000000000000000000000000000000000000000000000000000000815260040180806020018281038252602f815260200180614bf1602f913960400191505060405180910390fd5b611ab98282613560565b5050565b6000611b66611aca612c29565b84611b618560016000611adb612c29565b73ffffffffffffffffffffffffffffffffffffffff1673ffffffffffffffffffffffffffffffffffffffff16815260200190815260200160002060008973ffffffffffffffffffffffffffffffffffffffff1673ffffffffffffffffffffffffffffffffffffffff168152602001908152602001600020546135f490919063ffffffff16565b612c31565b6001905092915050565b606080606080611bb560405180807f4f574e45520000000000000000000000000000000000000000000000000000008152506005019050604051809103902033611d9c565b611c0a576040517f08c379a0000000000000000000000000000000000000000000000000000000008152600401808060200182810382526027815260200180614a3c6027913960400191505060405180910390fd5b6040518060400160405280600881526020017f45787465726e616c00000000000000000000000000000000000000000000000081525093506040518060400160405280600a81526020017f4e6577466f756e6465720000000000000000000000000000000000000000000081525092506040518060400160405280601581526020017f4c61756e636856657374696e675363686564756c65000000000000000000000081525091506040518060400160405280600e81526020017f44657374726f79436f6d70616e79000000000000000000000000000000000000815250905083838383935093509350935090919293565b600d60009054906101000a900460ff1681565b60008060008373ffffffffffffffffffffffffffffffffffffffff1673ffffffffffffffffffffffffffffffffffffffff168152602001908152602001600020549050919050565b600d60019054906101000a900460ff1681565b6000611d94826006600086815260200190815260200160002060000161367c90919063ffffffff16565b905092915050565b6000611dc6826006600086815260200190815260200160002060000161369790919063ffffffff16565b905092915050565b606060048054600181600116156101000203166002900480601f016020809104026020016040519081016040528092919081815260200182805460018160011615610100020316600290048015611e665780601f10611e3b57610100808354040283529160200191611e66565b820191906000526020600020905b815481529060010190602001808311611e4957829003601f168201915b5050505050905090565b600a6020528060005260406000206000915090508060000160009054906101000a900460ff16908060000160019054906101000a900473ffffffffffffffffffffffffffffffffffffffff1690806001015490806002018054600181600116156101000203166002900480601f016020809104026020016040519081016040528092919081815260200182805460018160011615610100020316600290048015611f5b5780601f10611f3057610100808354040283529160200191611f5b565b820191906000526020600020905b815481529060010190602001808311611f3e57829003601f168201915b5050505050908060030160009054906101000a900460ff16908060030160019054906101000a900460ff16905086565b600060010281565b6000612056611fa0612c29565b8461205185604051806060016040528060258152602001614bcc6025913960016000611fca612c29565b73ffffffffffffffffffffffffffffffffffffffff1673ffffffffffffffffffffffffffffffffffffffff16815260200190815260200160002060008a73ffffffffffffffffffffffffffffffffffffffff1673ffffffffffffffffffffffffffffffffffffffff168152602001908152602001600020546130e99092919063ffffffff16565b612c31565b6001905092915050565b600061207461206d612c29565b8484612e28565b6001905092915050565b6120bd60405180807f4f574e45520000000000000000000000000000000000000000000000000000008152506005019050604051809103902033611d9c565b612112576040517f08c379a0000000000000000000000000000000000000000000000000000000008152600401808060200182810382526027815260200180614a3c6027913960400191505060405180910390fd5b600061211d336136c7565b905060008111612178576040517f08c379a0000000000000000000000000000000000000000000000000000000008152600401808060200182810382526031815260200180614a936031913960400191505060405180910390fd5b6000600960003373ffffffffffffffffffffffffffffffffffffffff1673ffffffffffffffffffffffffffffffffffffffff16815260200190815260200160002090506121d28282600101546135f490919063ffffffff16565b81600101819055506121f18282600201546137c890919063ffffffff16565b81600201819055506122033383613812565b3373ffffffffffffffffffffffffffffffffffffffff167fdbc1569abc705e4dab3d58f5fffbdd0ff2ec1982e69899a2c699d7a452081fa8836040518082815260200191505060405180910390a25050565b600c5481565b600d60019054906101000a900460ff161561227557600080fd5b6122b460405180807f4f574e45520000000000000000000000000000000000000000000000000000008152506005019050604051809103902033611d9c565b612309576040517f08c379a0000000000000000000000000000000000000000000000000000000008152600401808060200182810382526027815260200180614a3c6027913960400191505060405180910390fd5b80600a600082815260200190815260200160002060030160009054906101000a900460ff16612383576040517f08c379a000000000000000000000000000000000000000000000000000000000815260040180806020018281038252602a815260200180614b7e602a913960400191505060405180910390fd5b81600b600082815260200190815260200160002060003373ffffffffffffffffffffffffffffffffffffffff1673ffffffffffffffffffffffffffffffffffffffff16815260200190815260200160002060009054906101000a900460ff16156123ec57600080fd5b6001600b600085815260200190815260200160002060003373ffffffffffffffffffffffffffffffffffffffff1673ffffffffffffffffffffffffffffffffffffffff16815260200190815260200160002060006101000a81548160ff021916908315150217905550823373ffffffffffffffffffffffffffffffffffffffff167f284a31f48de0c7baa130a1acbe4773f4c39ef557ddcd0b2d6b6ef539af10531b60405160405180910390a36124a283612815565b505050565b6124e660405180807f4f574e45520000000000000000000000000000000000000000000000000000008152506005019050604051809103902033611d9c565b61253b576040517f08c379a0000000000000000000000000000000000000000000000000000000008152600401808060200182810382526027815260200180614a3c6027913960400191505060405180910390fd5b6000600d60016101000a81548160ff0219169083151502179055507f7a0eb486a5792abc0f3f90bb2e49d363e653c325fa01b4e115eb8454f884b92660405160405180910390a1565b6000806000600960008573ffffffffffffffffffffffffffffffffffffffff1673ffffffffffffffffffffffffffffffffffffffff168152602001908152602001600020600101549250600960008573ffffffffffffffffffffffffffffffffffffffff1673ffffffffffffffffffffffffffffffffffffffff168152602001908152602001600020600201549150600960008573ffffffffffffffffffffffffffffffffffffffff1673ffffffffffffffffffffffffffffffffffffffff1681526020019081526020016000206003015490508282829250925092509193909250565b6000612688600660008481526020019081526020016000206000016139d9565b9050919050565b6126b660066000848152602001908152602001600020600201546126b1612c29565b611d9c565b61270b576040517f08c379a0000000000000000000000000000000000000000000000000000000008152600401808060200182810382526030815260200180614a636030913960400191505060405180910390fd5b6127158282613560565b5050565b6008818154811061272657fe5b906000526020600020016000915054906101000a900473ffffffffffffffffffffffffffffffffffffffff1681565b6000600160008473ffffffffffffffffffffffffffffffffffffffff1673ffffffffffffffffffffffffffffffffffffffff16815260200190815260200160002060008373ffffffffffffffffffffffffffffffffffffffff1673ffffffffffffffffffffffffffffffffffffffff16815260200190815260200160002054905092915050565b60405180807f4f574e45520000000000000000000000000000000000000000000000000000008152506005019050604051809103902081565b600d60019054906101000a900460ff161561282f57600080fd5b61286e60405180807f4f574e45520000000000000000000000000000000000000000000000000000008152506005019050604051809103902033611d9c565b6128c3576040517f08c379a0000000000000000000000000000000000000000000000000000000008152600401808060200182810382526027815260200180614a3c6027913960400191505060405180910390fd5b80600b600082815260200190815260200160002060003373ffffffffffffffffffffffffffffffffffffffff1673ffffffffffffffffffffffffffffffffffffffff16815260200190815260200160002060009054906101000a900460ff1661292b57600080fd5b81600a600082815260200190815260200160002060030160019054906101000a900460ff161561295a57600080fd5b612963836139ee565b15612c24576000600a6000858152602001908152602001600020905060018160030160016101000a81548160ff021916908315150217905550600060038111156129a957fe5b8160000160009054906101000a900460ff1660038111156129c657fe5b1415612b1e57612a9b8160000160019054906101000a900473ffffffffffffffffffffffffffffffffffffffff168260010154836002018054600181600116156101000203166002900480601f016020809104026020016040519081016040528092919081815260200182805460018160011615610100020316600290048015612a915780601f10612a6657610100808354040283529160200191612a91565b820191906000526020600020905b815481529060010190602001808311612a7457829003601f168201915b5050505050613ad6565b15612ad257837f036687fd39b346666ddc60de603092dbfccf1f0dfef3848eacaf6556f155274960405160405180910390a2612b1d565b837fe6be4216c17a494bd52020b62596f189bf4552ad23cbae4913db8f0d9693ec9360405160405180910390a260008160030160016101000a81548160ff0219169083151502179055505b5b60016003811115612b2b57fe5b8160000160009054906101000a900460ff166003811115612b4857fe5b1415612b7d57612b7b8160000160019054906101000a900473ffffffffffffffffffffffffffffffffffffffff16613af3565b505b60026003811115612b8a57fe5b8160000160009054906101000a900460ff166003811115612ba757fe5b1415612bb657612bb5613b9f565b5b600380811115612bc257fe5b8160000160009054906101000a900460ff166003811115612bdf57fe5b1415612c22578060000160019054906101000a900473ffffffffffffffffffffffffffffffffffffffff1673ffffffffffffffffffffffffffffffffffffffff16ff5b505b505050565b600033905090565b600073ffffffffffffffffffffffffffffffffffffffff168373ffffffffffffffffffffffffffffffffffffffff161415612cb7576040517f08c379a0000000000000000000000000000000000000000000000000000000008152600401808060200182810382526024815260200180614ba86024913960400191505060405180910390fd5b600073ffffffffffffffffffffffffffffffffffffffff168273ffffffffffffffffffffffffffffffffffffffff161415612d3d576040517f08c379a00000000000000000000000000000000000000000000000000000000081526004018080602001828103825260228152602001806149f46022913960400191505060405180910390fd5b80600160008573ffffffffffffffffffffffffffffffffffffffff1673ffffffffffffffffffffffffffffffffffffffff16815260200190815260200160002060008473ffffffffffffffffffffffffffffffffffffffff1673ffffffffffffffffffffffffffffffffffffffff168152602001908152602001600020819055508173ffffffffffffffffffffffffffffffffffffffff168373ffffffffffffffffffffffffffffffffffffffff167f8c5be1e5ebec7d5bd14f71427d1e84f3dd0314c0f7b2291e5b200ac8c7c3b925836040518082815260200191505060405180910390a3505050565b600073ffffffffffffffffffffffffffffffffffffffff168373ffffffffffffffffffffffffffffffffffffffff161415612eae576040517f08c379a0000000000000000000000000000000000000000000000000000000008152600401808060200182810382526025815260200180614b596025913960400191505060405180910390fd5b600073ffffffffffffffffffffffffffffffffffffffff168273ffffffffffffffffffffffffffffffffffffffff161415612f34576040517f08c379a00000000000000000000000000000000000000000000000000000000081526004018080602001828103825260238152602001806149a26023913960400191505060405180910390fd5b612f3f838383613eff565b612faa81604051806060016040528060268152602001614a16602691396000808773ffffffffffffffffffffffffffffffffffffffff1673ffffffffffffffffffffffffffffffffffffffff168152602001908152602001600020546130e99092919063ffffffff16565b6000808573ffffffffffffffffffffffffffffffffffffffff1673ffffffffffffffffffffffffffffffffffffffff1681526020019081526020016000208190555061303d816000808573ffffffffffffffffffffffffffffffffffffffff1673ffffffffffffffffffffffffffffffffffffffff168152602001908152602001600020546135f490919063ffffffff16565b6000808473ffffffffffffffffffffffffffffffffffffffff1673ffffffffffffffffffffffffffffffffffffffff168152602001908152602001600020819055508173ffffffffffffffffffffffffffffffffffffffff168373ffffffffffffffffffffffffffffffffffffffff167fddf252ad1be2c89b69c2b068fc378daa952ba7f163c4a11628f55a4df523b3ef836040518082815260200191505060405180910390a3505050565b6000838311158290613196576040517f08c379a00000000000000000000000000000000000000000000000000000000081526004018080602001828103825283818151815260200191508051906020019080838360005b8381101561315b578082015181840152602081019050613140565b50505050905090810190601f1680156131885780820380516001836020036101000a031916815260200191505b509250505060405180910390fd5b5060008385039050809150509392505050565b600060405180807f45787465726e616c00000000000000000000000000000000000000000000000081525060080190506040518091039020828051906020012014156131f857600090506132e4565b60405180807f4e6577466f756e64657200000000000000000000000000000000000000000000815250600a01905060405180910390208280519060200120141561324557600190506132e4565b60405180807f4c61756e636856657374696e675363686564756c650000000000000000000000815250601501905060405180910390208280519060200120141561329257600290506132e4565b60405180807f44657374726f79436f6d70616e79000000000000000000000000000000000000815250600e0190506040518091039020828051906020012014156132df57600390506132e4565b600080fd5b919050565b600083600073ffffffffffffffffffffffffffffffffffffffff168173ffffffffffffffffffffffffffffffffffffffff16141561332657600080fd5b600c5491506040518060c0016040528087600381111561334257fe5b81526020018673ffffffffffffffffffffffffffffffffffffffff16815260200185815260200184815260200160011515815260200160001515815250600a600084815260200190815260200160002060008201518160000160006101000a81548160ff021916908360038111156133b657fe5b021790555060208201518160000160016101000a81548173ffffffffffffffffffffffffffffffffffffffff021916908373ffffffffffffffffffffffffffffffffffffffff160217905550604082015181600101556060820151816002019080519060200190613428929190614895565b5060808201518160030160006101000a81548160ff02191690831515021790555060a08201518160030160016101000a81548160ff0219169083151502179055509050506001600c60008282540192505081905550817fdebc10a4c5b3a068a33d09a2e738b39000cf7a983ba8ade2c06798ba8eb2857387604051808260038111156134b057fe5b60ff16815260200191505060405180910390a250949350505050565b6134f48160066000858152602001908152602001600020600001613f6d90919063ffffffff16565b1561355c57613501612c29565b73ffffffffffffffffffffffffffffffffffffffff168173ffffffffffffffffffffffffffffffffffffffff16837f2f8788117e7eff1d82e926ec794901d17c78024a50270940304540a733656f0d60405160405180910390a45b5050565b6135888160066000858152602001908152602001600020600001613f9d90919063ffffffff16565b156135f057613595612c29565b73ffffffffffffffffffffffffffffffffffffffff168173ffffffffffffffffffffffffffffffffffffffff16837ff6391f5c32d9c69d2a47ea670b442974b53935d1edc7fd64eb21e047a839171b60405160405180910390a45b5050565b600080828401905083811015613672576040517f08c379a000000000000000000000000000000000000000000000000000000000815260040180806020018281038252601b8152602001807f536166654d6174683a206164646974696f6e206f766572666c6f77000000000081525060200191505060405180910390fd5b8091505092915050565b600061368b8360000183613fcd565b60019004905092915050565b60006136bf836000018373ffffffffffffffffffffffffffffffffffffffff16600102614050565b905092915050565b60006136d1614915565b600960008473ffffffffffffffffffffffffffffffffffffffff1673ffffffffffffffffffffffffffffffffffffffff1681526020019081526020016000206040518060a0016040529081600082015481526020016001820154815260200160028201548152602001600382015481526020016004820160009054906101000a900473ffffffffffffffffffffffffffffffffffffffff1673ffffffffffffffffffffffffffffffffffffffff1673ffffffffffffffffffffffffffffffffffffffff168152505090506000816020015190506137bf816137b186614073565b6137c890919063ffffffff16565b92505050919050565b600061380a83836040518060400160405280601e81526020017f536166654d6174683a207375627472616374696f6e206f766572666c6f7700008152506130e9565b905092915050565b600073ffffffffffffffffffffffffffffffffffffffff168273ffffffffffffffffffffffffffffffffffffffff1614156138b5576040517f08c379a000000000000000000000000000000000000000000000000000000000815260040180806020018281038252601f8152602001807f45524332303a206d696e7420746f20746865207a65726f20616464726573730081525060200191505060405180910390fd5b6138c160008383613eff565b6138d6816002546135f490919063ffffffff16565b60028190555061392d816000808573ffffffffffffffffffffffffffffffffffffffff1673ffffffffffffffffffffffffffffffffffffffff168152602001908152602001600020546135f490919063ffffffff16565b6000808473ffffffffffffffffffffffffffffffffffffffff1673ffffffffffffffffffffffffffffffffffffffff168152602001908152602001600020819055508173ffffffffffffffffffffffffffffffffffffffff16600073ffffffffffffffffffffffffffffffffffffffff167fddf252ad1be2c89b69c2b068fc378daa952ba7f163c4a11628f55a4df523b3ef836040518082815260200191505060405180910390a35050565b60006139e7826000016141ce565b9050919050565b6000806000905060008090505b600880549050811015613ace57600b6000858152602001908152602001600020600060088381548110613a2a57fe5b9060005260206000200160009054906101000a900473ffffffffffffffffffffffffffffffffffffffff1673ffffffffffffffffffffffffffffffffffffffff1673ffffffffffffffffffffffffffffffffffffffff16815260200190815260200160002060009054906101000a900460ff1615613aa9576001820191505b600880549050821415613ac157600192505050613ad1565b80806001019150506139fb565b50505b919050565b60008060008084516020860187895af19050809150509392505050565b60008073ffffffffffffffffffffffffffffffffffffffff168273ffffffffffffffffffffffffffffffffffffffff161415613b2e57600080fd5b613b37826141df565b6008829080600181540180825580915050600190039060005260206000200160009091909190916101000a81548173ffffffffffffffffffffffffffffffffffffffff021916908373ffffffffffffffffffffffffffffffffffffffff160217905550919050565b613bde60405180807f4f574e45520000000000000000000000000000000000000000000000000000008152506005019050604051809103902033611d9c565b613c33576040517f08c379a0000000000000000000000000000000000000000000000000000000008152600401808060200182810382526027815260200180614a3c6027913960400191505060405180910390fd5b600d60009054906101000a900460ff1615613c4d57600080fd5b6000613c71613c5a6119de565b60ff16600a0a61271061427f90919063ffffffff16565b90506000613c9c6064613c8e605a8561427f90919063ffffffff16565b61430590919063ffffffff16565b9050613cb181836137c890919063ffffffff16565b6007819055506000613cd16008805490508361430590919063ffffffff16565b905060008090505b600880549050811015613ede576040518060a001604052804281526020016000815260200183815260200183815260200160088381548110613d1757fe5b9060005260206000200160009054906101000a900473ffffffffffffffffffffffffffffffffffffffff1673ffffffffffffffffffffffffffffffffffffffff168152506009600060088481548110613d6c57fe5b9060005260206000200160009054906101000a900473ffffffffffffffffffffffffffffffffffffffff1673ffffffffffffffffffffffffffffffffffffffff1673ffffffffffffffffffffffffffffffffffffffff1681526020019081526020016000206000820151816000015560208201518160010155604082015181600201556060820151816003015560808201518160040160006101000a81548173ffffffffffffffffffffffffffffffffffffffff021916908373ffffffffffffffffffffffffffffffffffffffff16021790555090505060088181548110613e5057fe5b9060005260206000200160009054906101000a900473ffffffffffffffffffffffffffffffffffffffff1673ffffffffffffffffffffffffffffffffffffffff167f6f1aaf30d5ebfa3a12caac074c49b1c2d49c30cc9107817ca035a011ef935937836004604051808381526020018281526020019250505060405180910390a28080600101915050613cd9565b506001600d60006101000a81548160ff021916908315150217905550505050565b613f0a83838361434f565b613f1382611996565b613f68576040517f08c379a000000000000000000000000000000000000000000000000000000000815260040180806020018281038252602a815260200180614ac4602a913960400191505060405180910390fd5b505050565b6000613f95836000018373ffffffffffffffffffffffffffffffffffffffff16600102614354565b905092915050565b6000613fc5836000018373ffffffffffffffffffffffffffffffffffffffff166001026143c4565b905092915050565b60008183600001805490501161402e576040517f08c379a00000000000000000000000000000000000000000000000000000000081526004018080602001828103825260228152602001806149806022913960400191505060405180910390fd5b82600001828154811061403d57fe5b9060005260206000200154905092915050565b600080836001016000848152602001908152602001600020541415905092915050565b600061407d614915565b600960008473ffffffffffffffffffffffffffffffffffffffff1673ffffffffffffffffffffffffffffffffffffffff1681526020019081526020016000206040518060a0016040529081600082015481526020016001820154815260200160028201548152602001600382015481526020016004820160009054906101000a900473ffffffffffffffffffffffffffffffffffffffff1673ffffffffffffffffffffffffffffffffffffffff1673ffffffffffffffffffffffffffffffffffffffff16815250509050600081606001519050600082600001519050600061416e82426137c890919063ffffffff16565b905060006141866004846144ac90919063ffffffff16565b905080421061419c5783955050505050506141c9565b6141c1816141b3848761427f90919063ffffffff16565b61430590919063ffffffff16565b955050505050505b919050565b600081600001805490509050919050565b6141e833611996565b61423d576040517f08c379a0000000000000000000000000000000000000000000000000000000008152600401808060200182810382526022815260200180614b376022913960400191505060405180910390fd5b61427c60405180807f4f574e4552000000000000000000000000000000000000000000000000000000815250600501905060405180910390208261190c565b50565b60008083141561429257600090506142ff565b60008284029050828482816142a357fe5b04146142fa576040517f08c379a0000000000000000000000000000000000000000000000000000000008152600401808060200182810382526021815260200180614aee6021913960400191505060405180910390fd5b809150505b92915050565b600061434783836040518060400160405280601a81526020017f536166654d6174683a206469766973696f6e206279207a65726f000000000000815250614523565b905092915050565b505050565b60006143608383614050565b6143b95782600001829080600181540180825580915050600190039060005260206000200160009091909190915055826000018054905083600101600084815260200190815260200160002081905550600190506143be565b600090505b92915050565b600080836001016000848152602001908152602001600020549050600081146144a0576000600182039050600060018660000180549050039050600086600001828154811061440f57fe5b906000526020600020015490508087600001848154811061442c57fe5b906000526020600020018190555060018301876001016000838152602001908152602001600020819055508660000180548061446457fe5b600190038181906000526020600020016000905590558660010160008781526020019081526020016000206000905560019450505050506144a6565b60009150505b92915050565b6000806000806144c76201518087816144c157fe5b046145e9565b925092509250848301925060006144de84846146bd565b9050808211156144ec578091505b6201518087816144f857fe5b0662015180614508868686614748565b020194508685101561451957600080fd5b5050505092915050565b600080831182906145cf576040517f08c379a00000000000000000000000000000000000000000000000000000000081526004018080602001828103825283818151815260200191508051906020019080838360005b83811015614594578082015181840152602081019050614579565b50505050905090810190601f1680156145c15780820380516001836020036101000a031916815260200191505b509250505060405180910390fd5b5060008385816145db57fe5b049050809150509392505050565b600080600080849050600062253d8c62010bd98301019050600062023ab1826004028161461257fe5b059050600460038262023ab102018161462757fe5b0582039150600062164b0960018401610fa0028161464157fe5b059050601f6004826105b5028161465457fe5b058403019250600061098f846050028161466a57fe5b059050600060508261098f028161467d57fe5b0585039050600b828161468c57fe5b05945084600c0260028301039150848360318603606402010192508298508197508096505050505050509193909250565b600060018214806146ce5750600382145b806146d95750600582145b806146e45750600782145b806146ef5750600882145b806146fa5750600a82145b806147055750600c82145b1561471357601f9050614742565b6002821461472457601e9050614741565b61472d836147f7565b61473857601c61473b565b601d5b60ff1690505b5b92915050565b60006107b284101561475957600080fd5b600084905060008490506000849050600062253d8c60046064600c600e87038161477f57fe5b056113248801018161478d57fe5b056003028161479857fe5b05600c80600c600e8803816147a957fe5b0502600287030361016f02816147bb57fe5b056004600c600e8803816147cb57fe5b056112c08901016105b502816147dd57fe5b05617d4b8603010103039050809450505050509392505050565b6000806004838161480457fe5b0614801561481d575060006064838161481957fe5b0614155b8061483357506000610190838161483057fe5b06145b9050919050565b6040518060c001604052806000600381111561485257fe5b8152602001600073ffffffffffffffffffffffffffffffffffffffff16815260200160008152602001606081526020016000151581526020016000151581525090565b828054600181600116156101000203166002900490600052602060002090601f016020900481019282601f106148d657805160ff1916838001178555614904565b82800160010185558215614904579182015b828111156149035782518255916020019190600101906148e8565b5b509050614911919061495a565b5090565b6040518060a0016040528060008152602001600081526020016000815260200160008152602001600073ffffffffffffffffffffffffffffffffffffffff1681525090565b61497c91905b80821115614978576000816000905550600101614960565b5090565b9056fe456e756d657261626c655365743a20696e646578206f7574206f6620626f756e647345524332303a207472616e7366657220746f20746865207a65726f2061646472657373416363657373436f6e74726f6c3a2073656e646572206d75737420626520616e2061646d696e20746f206772616e7445524332303a20617070726f766520746f20746865207a65726f206164647265737345524332303a207472616e7366657220616d6f756e7420657863656564732062616c616e636550726976617465436f6d70616e793a2073656e646572206973206e6f74206120666f756e646572416363657373436f6e74726f6c3a2073656e646572206d75737420626520616e2061646d696e20746f207265766f6b6550726976617465436f6d70616e793a206e6f20746f6b656e7320746f2072656c6561736520617420746869732074696d654552433230507269766174653a20746f6b656e207472616e7366657220746f206f776e6572206f6e6c79536166654d6174683a206d756c7469706c69636174696f6e206f766572666c6f7745524332303a207472616e7366657220616d6f756e74206578636565647320616c6c6f77616e63654552433230507269766174653a205265737472696374656420746f206f776e65727345524332303a207472616e736665722066726f6d20746865207a65726f206164647265737350726976617465436f6d70616e793a207472616e73616374696f6e20646f6573206e6f7420657869737445524332303a20617070726f76652066726f6d20746865207a65726f206164647265737345524332303a2064656372656173656420616c6c6f77616e63652062656c6f77207a65726f416363657373436f6e74726f6c3a2063616e206f6e6c792072656e6f756e636520726f6c657320666f722073656c66a2646970667358221220c6dea52daf08b1de2856cd6e4562382a8a5746d3cd0833e02a8fe0c74c1939e264736f6c63430006020033a2646970667358221220df93d822ecd771d6f467ef5de201bbc72279ca389be638028e549dcfe68907dd64736f6c63430006020033",
  "source": "// SPDX-License-Identifier: MIT\npragma solidity >0.6.0;\n\nimport \"./PrivateCompany.sol\";\nimport \"./Factory.sol\";\n\ncontract PrivateCompanyFactory is Factory {\n    // Public functions\n    /**\n     * @dev @dev Allows creation of Private Company instance.\n     * @param _companyName Company name.\n     * @param _token Company(token) ticker name.\n     */\n    function create(\n        string memory _companyName,\n        string memory _token\n    ) public returns (address companyAddress) {\n        companyAddress = address(\n            new PrivateCompany(_companyName, _token, msg.sender)\n        );\n        register(companyAddress);\n        return companyAddress;\n    }\n}\n",
  "sourcePath": "/Users/konstantin/dev/consensys/final-project/startup-3.0/contracts/PrivateCompanyFactory.sol",
  "compiler": {
    "name": "solc",
    "version": "0.6.2+commit.bacdbe57.Emscripten.clang"
  },
  "schemaVersion": "3.2.5",
  "updatedAt": "2020-12-04T13:27:17.517Z",
  "networkType": "ethereum",
  "devdoc": {
    "methods": {
      "create(string,string)": {
        "details": "@dev Allows creation of Private Company instance.",
        "params": {
          "_companyName": "Company name.",
          "_token": "Company(token) ticker name."
        }
      },
      "getInstantiationCount(address)": {
        "params": {
          "creator": "Contract creator address."
        },
        "returns": {
          "_0": "Returns number of instantiations by creator."
        }
      }
    }
  },
  "userdoc": {
    "methods": {}
  }
}