{
  "contractName": "PrivateCompany",
  "abi": [
    {
      "inputs": [
        {
          "internalType": "string",
          "name": "_companyName",
          "type": "string"
        },
        {
          "internalType": "string",
          "name": "_token",
          "type": "string"
        }
      ],
      "stateMutability": "payable",
      "type": "constructor"
    },
    {
      "anonymous": false,
      "inputs": [
        {
          "indexed": true,
          "internalType": "address",
          "name": "owner",
          "type": "address"
        },
        {
          "indexed": true,
          "internalType": "address",
          "name": "spender",
          "type": "address"
        },
        {
          "indexed": false,
          "internalType": "uint256",
          "name": "value",
          "type": "uint256"
        }
      ],
      "name": "Approval",
      "type": "event"
    },
    {
      "anonymous": false,
      "inputs": [],
      "name": "LogContractResume",
      "type": "event"
    },
    {
      "anonymous": false,
      "inputs": [],
      "name": "LogContractStopped",
      "type": "event"
    },
    {
      "anonymous": false,
      "inputs": [
        {
          "indexed": true,
          "internalType": "address",
          "name": "sender",
          "type": "address"
        },
        {
          "indexed": false,
          "internalType": "uint256",
          "name": "value",
          "type": "uint256"
        }
      ],
      "name": "LogDeposit",
      "type": "event"
    },
    {
      "anonymous": false,
      "inputs": [
        {
          "indexed": true,
          "internalType": "address",
          "name": "founderAddress",
          "type": "address"
        },
        {
          "indexed": false,
          "internalType": "uint256",
          "name": "equityAmount",
          "type": "uint256"
        },
        {
          "indexed": false,
          "internalType": "uint256",
          "name": "vestingTime",
          "type": "uint256"
        }
      ],
      "name": "LogFounderEquityDistribution",
      "type": "event"
    },
    {
      "anonymous": false,
      "inputs": [
        {
          "indexed": true,
          "internalType": "address",
          "name": "founderAddress",
          "type": "address"
        },
        {
          "indexed": false,
          "internalType": "uint256",
          "name": "equityAmount",
          "type": "uint256"
        }
      ],
      "name": "LogReleasedEquityForHolder",
      "type": "event"
    },
    {
      "anonymous": false,
      "inputs": [
        {
          "indexed": true,
          "internalType": "address",
          "name": "sender",
          "type": "address"
        },
        {
          "indexed": true,
          "internalType": "uint256",
          "name": "transactionId",
          "type": "uint256"
        }
      ],
      "name": "LogTransactionConfirmation",
      "type": "event"
    },
    {
      "anonymous": false,
      "inputs": [
        {
          "indexed": true,
          "internalType": "uint256",
          "name": "transactionId",
          "type": "uint256"
        }
      ],
      "name": "LogTransactionExecution",
      "type": "event"
    },
    {
      "anonymous": false,
      "inputs": [
        {
          "indexed": true,
          "internalType": "uint256",
          "name": "transactionId",
          "type": "uint256"
        }
      ],
      "name": "LogTransactionExecutionFailure",
      "type": "event"
    },
    {
      "anonymous": false,
      "inputs": [
        {
          "indexed": false,
          "internalType": "enum PrivateCompany.TransactionType",
          "name": "txType",
          "type": "uint8"
        },
        {
          "indexed": true,
          "internalType": "uint256",
          "name": "transactionId",
          "type": "uint256"
        }
      ],
      "name": "LogTransactionSubmission",
      "type": "event"
    },
    {
      "anonymous": false,
      "inputs": [
        {
          "indexed": true,
          "internalType": "bytes32",
          "name": "role",
          "type": "bytes32"
        },
        {
          "indexed": true,
          "internalType": "bytes32",
          "name": "previousAdminRole",
          "type": "bytes32"
        },
        {
          "indexed": true,
          "internalType": "bytes32",
          "name": "newAdminRole",
          "type": "bytes32"
        }
      ],
      "name": "RoleAdminChanged",
      "type": "event"
    },
    {
      "anonymous": false,
      "inputs": [
        {
          "indexed": true,
          "internalType": "bytes32",
          "name": "role",
          "type": "bytes32"
        },
        {
          "indexed": true,
          "internalType": "address",
          "name": "account",
          "type": "address"
        },
        {
          "indexed": true,
          "internalType": "address",
          "name": "sender",
          "type": "address"
        }
      ],
      "name": "RoleGranted",
      "type": "event"
    },
    {
      "anonymous": false,
      "inputs": [
        {
          "indexed": true,
          "internalType": "bytes32",
          "name": "role",
          "type": "bytes32"
        },
        {
          "indexed": true,
          "internalType": "address",
          "name": "account",
          "type": "address"
        },
        {
          "indexed": true,
          "internalType": "address",
          "name": "sender",
          "type": "address"
        }
      ],
      "name": "RoleRevoked",
      "type": "event"
    },
    {
      "anonymous": false,
      "inputs": [
        {
          "indexed": true,
          "internalType": "address",
          "name": "from",
          "type": "address"
        },
        {
          "indexed": true,
          "internalType": "address",
          "name": "to",
          "type": "address"
        },
        {
          "indexed": false,
          "internalType": "uint256",
          "name": "value",
          "type": "uint256"
        }
      ],
      "name": "Transfer",
      "type": "event"
    },
    {
      "inputs": [],
      "name": "DEFAULT_ADMIN_ROLE",
      "outputs": [
        {
          "internalType": "bytes32",
          "name": "",
          "type": "bytes32"
        }
      ],
      "stateMutability": "view",
      "type": "function"
    },
    {
      "inputs": [],
      "name": "OWNER_ROLE",
      "outputs": [
        {
          "internalType": "bytes32",
          "name": "",
          "type": "bytes32"
        }
      ],
      "stateMutability": "view",
      "type": "function"
    },
    {
      "inputs": [
        {
          "internalType": "address",
          "name": "owner",
          "type": "address"
        },
        {
          "internalType": "address",
          "name": "spender",
          "type": "address"
        }
      ],
      "name": "allowance",
      "outputs": [
        {
          "internalType": "uint256",
          "name": "",
          "type": "uint256"
        }
      ],
      "stateMutability": "view",
      "type": "function"
    },
    {
      "inputs": [
        {
          "internalType": "address",
          "name": "spender",
          "type": "address"
        },
        {
          "internalType": "uint256",
          "name": "amount",
          "type": "uint256"
        }
      ],
      "name": "approve",
      "outputs": [
        {
          "internalType": "bool",
          "name": "",
          "type": "bool"
        }
      ],
      "stateMutability": "nonpayable",
      "type": "function"
    },
    {
      "inputs": [
        {
          "internalType": "address",
          "name": "account",
          "type": "address"
        }
      ],
      "name": "balanceOf",
      "outputs": [
        {
          "internalType": "uint256",
          "name": "",
          "type": "uint256"
        }
      ],
      "stateMutability": "view",
      "type": "function"
    },
    {
      "inputs": [
        {
          "internalType": "uint256",
          "name": "",
          "type": "uint256"
        },
        {
          "internalType": "address",
          "name": "",
          "type": "address"
        }
      ],
      "name": "confirmations",
      "outputs": [
        {
          "internalType": "bool",
          "name": "",
          "type": "bool"
        }
      ],
      "stateMutability": "view",
      "type": "function"
    },
    {
      "inputs": [],
      "name": "decimals",
      "outputs": [
        {
          "internalType": "uint8",
          "name": "",
          "type": "uint8"
        }
      ],
      "stateMutability": "view",
      "type": "function"
    },
    {
      "inputs": [
        {
          "internalType": "address",
          "name": "spender",
          "type": "address"
        },
        {
          "internalType": "uint256",
          "name": "subtractedValue",
          "type": "uint256"
        }
      ],
      "name": "decreaseAllowance",
      "outputs": [
        {
          "internalType": "bool",
          "name": "",
          "type": "bool"
        }
      ],
      "stateMutability": "nonpayable",
      "type": "function"
    },
    {
      "inputs": [
        {
          "internalType": "uint256",
          "name": "",
          "type": "uint256"
        }
      ],
      "name": "founders",
      "outputs": [
        {
          "internalType": "address",
          "name": "",
          "type": "address"
        }
      ],
      "stateMutability": "view",
      "type": "function"
    },
    {
      "inputs": [
        {
          "internalType": "bytes32",
          "name": "role",
          "type": "bytes32"
        }
      ],
      "name": "getRoleAdmin",
      "outputs": [
        {
          "internalType": "bytes32",
          "name": "",
          "type": "bytes32"
        }
      ],
      "stateMutability": "view",
      "type": "function"
    },
    {
      "inputs": [
        {
          "internalType": "bytes32",
          "name": "role",
          "type": "bytes32"
        },
        {
          "internalType": "uint256",
          "name": "index",
          "type": "uint256"
        }
      ],
      "name": "getRoleMember",
      "outputs": [
        {
          "internalType": "address",
          "name": "",
          "type": "address"
        }
      ],
      "stateMutability": "view",
      "type": "function"
    },
    {
      "inputs": [
        {
          "internalType": "bytes32",
          "name": "role",
          "type": "bytes32"
        }
      ],
      "name": "getRoleMemberCount",
      "outputs": [
        {
          "internalType": "uint256",
          "name": "",
          "type": "uint256"
        }
      ],
      "stateMutability": "view",
      "type": "function"
    },
    {
      "inputs": [
        {
          "internalType": "bytes32",
          "name": "role",
          "type": "bytes32"
        },
        {
          "internalType": "address",
          "name": "account",
          "type": "address"
        }
      ],
      "name": "grantRole",
      "outputs": [],
      "stateMutability": "nonpayable",
      "type": "function"
    },
    {
      "inputs": [
        {
          "internalType": "bytes32",
          "name": "role",
          "type": "bytes32"
        },
        {
          "internalType": "address",
          "name": "account",
          "type": "address"
        }
      ],
      "name": "hasRole",
      "outputs": [
        {
          "internalType": "bool",
          "name": "",
          "type": "bool"
        }
      ],
      "stateMutability": "view",
      "type": "function"
    },
    {
      "inputs": [
        {
          "internalType": "address",
          "name": "spender",
          "type": "address"
        },
        {
          "internalType": "uint256",
          "name": "addedValue",
          "type": "uint256"
        }
      ],
      "name": "increaseAllowance",
      "outputs": [
        {
          "internalType": "bool",
          "name": "",
          "type": "bool"
        }
      ],
      "stateMutability": "nonpayable",
      "type": "function"
    },
    {
      "inputs": [
        {
          "internalType": "address",
          "name": "account",
          "type": "address"
        }
      ],
      "name": "isOwner",
      "outputs": [
        {
          "internalType": "bool",
          "name": "",
          "type": "bool"
        }
      ],
      "stateMutability": "view",
      "type": "function"
    },
    {
      "inputs": [],
      "name": "name",
      "outputs": [
        {
          "internalType": "string",
          "name": "",
          "type": "string"
        }
      ],
      "stateMutability": "view",
      "type": "function"
    },
    {
      "inputs": [
        {
          "internalType": "bytes32",
          "name": "role",
          "type": "bytes32"
        },
        {
          "internalType": "address",
          "name": "account",
          "type": "address"
        }
      ],
      "name": "renounceRole",
      "outputs": [],
      "stateMutability": "nonpayable",
      "type": "function"
    },
    {
      "inputs": [
        {
          "internalType": "bytes32",
          "name": "role",
          "type": "bytes32"
        },
        {
          "internalType": "address",
          "name": "account",
          "type": "address"
        }
      ],
      "name": "revokeRole",
      "outputs": [],
      "stateMutability": "nonpayable",
      "type": "function"
    },
    {
      "inputs": [],
      "name": "stopped",
      "outputs": [
        {
          "internalType": "bool",
          "name": "",
          "type": "bool"
        }
      ],
      "stateMutability": "view",
      "type": "function"
    },
    {
      "inputs": [],
      "name": "symbol",
      "outputs": [
        {
          "internalType": "string",
          "name": "",
          "type": "string"
        }
      ],
      "stateMutability": "view",
      "type": "function"
    },
    {
      "inputs": [],
      "name": "totalSupply",
      "outputs": [
        {
          "internalType": "uint256",
          "name": "",
          "type": "uint256"
        }
      ],
      "stateMutability": "view",
      "type": "function"
    },
    {
      "inputs": [
        {
          "internalType": "uint256",
          "name": "",
          "type": "uint256"
        }
      ],
      "name": "transactions",
      "outputs": [
        {
          "internalType": "enum PrivateCompany.TransactionType",
          "name": "txType",
          "type": "uint8"
        },
        {
          "internalType": "address",
          "name": "destination",
          "type": "address"
        },
        {
          "internalType": "uint256",
          "name": "value",
          "type": "uint256"
        },
        {
          "internalType": "bytes",
          "name": "data",
          "type": "bytes"
        },
        {
          "internalType": "bool",
          "name": "executed",
          "type": "bool"
        }
      ],
      "stateMutability": "view",
      "type": "function"
    },
    {
      "inputs": [
        {
          "internalType": "address",
          "name": "recipient",
          "type": "address"
        },
        {
          "internalType": "uint256",
          "name": "amount",
          "type": "uint256"
        }
      ],
      "name": "transfer",
      "outputs": [
        {
          "internalType": "bool",
          "name": "",
          "type": "bool"
        }
      ],
      "stateMutability": "nonpayable",
      "type": "function"
    },
    {
      "inputs": [
        {
          "internalType": "address",
          "name": "sender",
          "type": "address"
        },
        {
          "internalType": "address",
          "name": "recipient",
          "type": "address"
        },
        {
          "internalType": "uint256",
          "name": "amount",
          "type": "uint256"
        }
      ],
      "name": "transferFrom",
      "outputs": [
        {
          "internalType": "bool",
          "name": "",
          "type": "bool"
        }
      ],
      "stateMutability": "nonpayable",
      "type": "function"
    },
    {
      "stateMutability": "payable",
      "type": "receive"
    },
    {
      "inputs": [],
      "name": "stopContract",
      "outputs": [],
      "stateMutability": "nonpayable",
      "type": "function"
    },
    {
      "inputs": [],
      "name": "resumeContract",
      "outputs": [],
      "stateMutability": "nonpayable",
      "type": "function"
    },
    {
      "inputs": [],
      "name": "getTransactionTypes",
      "outputs": [
        {
          "internalType": "string",
          "name": "externalType",
          "type": "string"
        },
        {
          "internalType": "string",
          "name": "newFounderType",
          "type": "string"
        },
        {
          "internalType": "string",
          "name": "launchVestingScheduleType",
          "type": "string"
        },
        {
          "internalType": "string",
          "name": "destroyCompanyType",
          "type": "string"
        }
      ],
      "stateMutability": "pure",
      "type": "function"
    },
    {
      "inputs": [
        {
          "internalType": "address",
          "name": "holderAddress",
          "type": "address"
        }
      ],
      "name": "getEquityHolderBalance",
      "outputs": [
        {
          "internalType": "uint256",
          "name": "currentBalance",
          "type": "uint256"
        },
        {
          "internalType": "uint256",
          "name": "lockedBalance",
          "type": "uint256"
        },
        {
          "internalType": "uint256",
          "name": "totalBalance",
          "type": "uint256"
        }
      ],
      "stateMutability": "view",
      "type": "function"
    },
    {
      "inputs": [],
      "name": "releaseVestedEquity",
      "outputs": [],
      "stateMutability": "nonpayable",
      "type": "function"
    },
    {
      "inputs": [
        {
          "internalType": "string",
          "name": "txTypeKey",
          "type": "string"
        },
        {
          "internalType": "address",
          "name": "destination",
          "type": "address"
        },
        {
          "internalType": "uint256",
          "name": "value",
          "type": "uint256"
        },
        {
          "internalType": "bytes",
          "name": "data",
          "type": "bytes"
        }
      ],
      "name": "submitTransaction",
      "outputs": [
        {
          "internalType": "uint256",
          "name": "transactionId",
          "type": "uint256"
        }
      ],
      "stateMutability": "nonpayable",
      "type": "function"
    },
    {
      "inputs": [
        {
          "internalType": "uint256",
          "name": "transactionId",
          "type": "uint256"
        }
      ],
      "name": "confirmTransaction",
      "outputs": [],
      "stateMutability": "nonpayable",
      "type": "function"
    },
    {
      "inputs": [
        {
          "internalType": "uint256",
          "name": "transactionId",
          "type": "uint256"
        }
      ],
      "name": "executeTransaction",
      "outputs": [],
      "stateMutability": "nonpayable",
      "type": "function"
    },
    {
      "inputs": [
        {
          "internalType": "uint256",
          "name": "transactionId",
          "type": "uint256"
        }
      ],
      "name": "isConfirmed",
      "outputs": [
        {
          "internalType": "bool",
          "name": "",
          "type": "bool"
        }
      ],
      "stateMutability": "view",
      "type": "function"
    }
  ],
  "bytecode": "0x60806040526000600d60006101000a81548160ff02191690831515021790555060405162004d1b38038062004d1b833981810160405260408110156200004457600080fd5b81019080805160405193929190846401000000008211156200006557600080fd5b838201915060208201858111156200007c57600080fd5b82518660018202830111640100000000821117156200009a57600080fd5b8083526020830192505050908051906020019080838360005b83811015620000d0578082015181840152602081019050620000b3565b50505050905090810190601f168015620000fe5780820380516001836020036101000a031916815260200191505b50604052602001805160405193929190846401000000008211156200012257600080fd5b838201915060208201858111156200013957600080fd5b82518660018202830111640100000000821117156200015757600080fd5b8083526020830192505050908051906020019080838360005b838110156200018d57808201518184015260208101905062000170565b50505050905090810190601f168015620001bb5780820380516001836020036101000a031916815260200191505b5060405250505081818160039080519060200190620001dc9291906200057c565b508060049080519060200190620001f59291906200057c565b506012600560006101000a81548160ff021916908360ff16021790555050506200026460405180807f4f574e4552000000000000000000000000000000000000000000000000000000815250600501905060405180910390203362000354640100000000026401000000009004565b620002e960405180807f4f574e45520000000000000000000000000000000000000000000000000000008152506005019050604051809103902060405180807f4f574e45520000000000000000000000000000000000000000000000000000008152506005019050604051809103902062000373640100000000026401000000009004565b6008339080600181540180825580915050600190039060005260206000200160009091909190916101000a81548173ffffffffffffffffffffffffffffffffffffffff021916908373ffffffffffffffffffffffffffffffffffffffff16021790555050506200062b565b6200036f8282620003d7640100000000026401000000009004565b5050565b806006600084815260200190815260200160002060020154837fbd79b86ffe0ab8e8776151514217cd7cacd52c909f66475c3af44e129f0b00ff60405160405180910390a48060066000848152602001908152602001600020600201819055505050565b6200040f81600660008581526020019081526020016000206000016200048d6401000000000262003a7d179091906401000000009004565b1562000489576200042e620004ce640100000000026401000000009004565b73ffffffffffffffffffffffffffffffffffffffff168173ffffffffffffffffffffffffffffffffffffffff16837f2f8788117e7eff1d82e926ec794901d17c78024a50270940304540a733656f0d60405160405180910390a45b5050565b6000620004c6836000018373ffffffffffffffffffffffffffffffffffffffff16600102620004d6640100000000026401000000009004565b905092915050565b600033905090565b6000620004f3838362000559640100000000026401000000009004565b6200054e57826000018290806001815401808255809150506001900390600052602060002001600090919091909150558260000180549050836001016000848152602001908152602001600020819055506001905062000553565b600090505b92915050565b600080836001016000848152602001908152602001600020541415905092915050565b828054600181600116156101000203166002900490600052602060002090601f016020900481019282601f10620005bf57805160ff1916838001178555620005f0565b82800160010185558215620005f0579182015b82811115620005ef578251825591602001919060010190620005d2565b5b509050620005ff919062000603565b5090565b6200062891905b80821115620006245760008160009055506001016200060a565b5090565b90565b6146e0806200063b6000396000f3fe60806040526004361061021a576000357c0100000000000000000000000000000000000000000000000000000000900480639010d07c1161012a578063c01a8c84116100bd578063d547741f1161008c578063d547741f14611005578063d8e75f6214611060578063dd62ed3e146110db578063e58378bb14611160578063ee22610b1461118b57610279565b8063c01a8c8414610ef1578063c4bc5da514610f2c578063c99e06c314610f43578063ca15c87314610fb657610279565b8063a217fddf116100f9578063a217fddf14610dc9578063a457c2d714610df4578063a9059cbb14610e67578063b500aaed14610eda57610279565b80639010d07c14610b3357806391d1485414610bb857806395d89b4114610c2b5780639ace38c214610cbb57610279565b80632f54bf6e116101ad578063395093511161017c5780633950935114610805578063476a4b581461087857806370a0823114610a4c57806375f12b2114610ab1578063784547a714610ae057610279565b80632f54bf6e1461069d578063313ce567146107065780633411c81c1461073757806336568abe146107aa57610279565b806323b872dd116101e957806323b872dd146103c3578063248a9ca314610456578063281a9956146104a55780632f2ff15d1461064257610279565b806306fdde031461027e578063095ea7b31461030e57806312253a6c1461038157806318160ddd1461039857610279565b36610279576000341115610277573373ffffffffffffffffffffffffffffffffffffffff167f1b851e1031ef35a238e6c67d0c7991162390df915f70eaf9098dbf0b175a6198346040518082815260200191505060405180910390a25b005b600080fd5b34801561028a57600080fd5b506102936111c6565b6040518080602001828103825283818151815260200191508051906020019080838360005b838110156102d35780820151818401526020810190506102b8565b50505050905090810190601f1680156103005780820380516001836020036101000a031916815260200191505b509250505060405180910390f35b34801561031a57600080fd5b506103676004803603604081101561033157600080fd5b81019080803573ffffffffffffffffffffffffffffffffffffffff16906020019092919080359060200190929190505050611268565b604051808215151515815260200191505060405180910390f35b34801561038d57600080fd5b50610396611286565b005b3480156103a457600080fd5b506103ad611363565b6040518082815260200191505060405180910390f35b3480156103cf57600080fd5b5061043c600480360360608110156103e657600080fd5b81019080803573ffffffffffffffffffffffffffffffffffffffff169060200190929190803573ffffffffffffffffffffffffffffffffffffffff1690602001909291908035906020019092919050505061136d565b604051808215151515815260200191505060405180910390f35b34801561046257600080fd5b5061048f6004803603602081101561047957600080fd5b8101908080359060200190929190505050611446565b6040518082815260200191505060405180910390f35b3480156104b157600080fd5b5061062c600480360360808110156104c857600080fd5b81019080803590602001906401000000008111156104e557600080fd5b8201836020820111156104f757600080fd5b8035906020019184600183028401116401000000008311171561051957600080fd5b91908080601f016020809104026020016040519081016040528093929190818152602001838380828437600081840152601f19601f820116905080830192505050505050509192919290803573ffffffffffffffffffffffffffffffffffffffff16906020019092919080359060200190929190803590602001906401000000008111156105a657600080fd5b8201836020820111156105b857600080fd5b803590602001918460018302840111640100000000831117156105da57600080fd5b91908080601f016020809104026020016040519081016040528093929190818152602001838380828437600081840152601f19601f820116905080830192505050505050509192919290505050611466565b6040518082815260200191505060405180910390f35b34801561064e57600080fd5b5061069b6004803603604081101561066557600080fd5b8101908080359060200190929190803573ffffffffffffffffffffffffffffffffffffffff169060200190929190505050611543565b005b3480156106a957600080fd5b506106ec600480360360208110156106c057600080fd5b81019080803573ffffffffffffffffffffffffffffffffffffffff1690602001909291905050506115cd565b604051808215151515815260200191505060405180910390f35b34801561071257600080fd5b5061071b611615565b604051808260ff1660ff16815260200191505060405180910390f35b34801561074357600080fd5b506107906004803603604081101561075a57600080fd5b8101908080359060200190929190803573ffffffffffffffffffffffffffffffffffffffff16906020019092919050505061162c565b604051808215151515815260200191505060405180910390f35b3480156107b657600080fd5b50610803600480360360408110156107cd57600080fd5b8101908080359060200190929190803573ffffffffffffffffffffffffffffffffffffffff16906020019092919050505061165b565b005b34801561081157600080fd5b5061085e6004803603604081101561082857600080fd5b81019080803573ffffffffffffffffffffffffffffffffffffffff169060200190929190803590602001909291905050506116f4565b604051808215151515815260200191505060405180910390f35b34801561088457600080fd5b5061088d6117a7565b6040518080602001806020018060200180602001858103855289818151815260200191508051906020019080838360005b838110156108d95780820151818401526020810190506108be565b50505050905090810190601f1680156109065780820380516001836020036101000a031916815260200191505b50858103845288818151815260200191508051906020019080838360005b8381101561093f578082015181840152602081019050610924565b50505050905090810190601f16801561096c5780820380516001836020036101000a031916815260200191505b50858103835287818151815260200191508051906020019080838360005b838110156109a557808201518184015260208101905061098a565b50505050905090810190601f1680156109d25780820380516001836020036101000a031916815260200191505b50858103825286818151815260200191508051906020019080838360005b83811015610a0b5780820151818401526020810190506109f0565b50505050905090810190601f168015610a385780820380516001836020036101000a031916815260200191505b509850505050505050505060405180910390f35b348015610a5857600080fd5b50610a9b60048036036020811015610a6f57600080fd5b81019080803573ffffffffffffffffffffffffffffffffffffffff16906020019092919050505061189f565b6040518082815260200191505060405180910390f35b348015610abd57600080fd5b50610ac66118e7565b604051808215151515815260200191505060405180910390f35b348015610aec57600080fd5b50610b1960048036036020811015610b0357600080fd5b81019080803590602001909291905050506118fa565b604051808215151515815260200191505060405180910390f35b348015610b3f57600080fd5b50610b7660048036036040811015610b5657600080fd5b8101908080359060200190929190803590602001909291905050506119e2565b604051808273ffffffffffffffffffffffffffffffffffffffff1673ffffffffffffffffffffffffffffffffffffffff16815260200191505060405180910390f35b348015610bc457600080fd5b50610c1160048036036040811015610bdb57600080fd5b8101908080359060200190929190803573ffffffffffffffffffffffffffffffffffffffff169060200190929190505050611a14565b604051808215151515815260200191505060405180910390f35b348015610c3757600080fd5b50610c40611a46565b6040518080602001828103825283818151815260200191508051906020019080838360005b83811015610c80578082015181840152602081019050610c65565b50505050905090810190601f168015610cad5780820380516001836020036101000a031916815260200191505b509250505060405180910390f35b348015610cc757600080fd5b50610cf460048036036020811015610cde57600080fd5b8101908080359060200190929190505050611ae8565b60405180866003811115610d0457fe5b60ff1681526020018573ffffffffffffffffffffffffffffffffffffffff1673ffffffffffffffffffffffffffffffffffffffff1681526020018481526020018060200183151515158152602001828103825284818151815260200191508051906020019080838360005b83811015610d8a578082015181840152602081019050610d6f565b50505050905090810190601f168015610db75780820380516001836020036101000a031916815260200191505b50965050505050505060405180910390f35b348015610dd557600080fd5b50610dde611bf0565b6040518082815260200191505060405180910390f35b348015610e0057600080fd5b50610e4d60048036036040811015610e1757600080fd5b81019080803573ffffffffffffffffffffffffffffffffffffffff16906020019092919080359060200190929190505050611bf8565b604051808215151515815260200191505060405180910390f35b348015610e7357600080fd5b50610ec060048036036040811015610e8a57600080fd5b81019080803573ffffffffffffffffffffffffffffffffffffffff16906020019092919080359060200190929190505050611cc5565b604051808215151515815260200191505060405180910390f35b348015610ee657600080fd5b50610eef611ce3565b005b348015610efd57600080fd5b50610f2a60048036036020811015610f1457600080fd5b8101908080359060200190929190505050611eba565b005b348015610f3857600080fd5b50610f416120fd565b005b348015610f4f57600080fd5b50610f9260048036036020811015610f6657600080fd5b81019080803573ffffffffffffffffffffffffffffffffffffffff1690602001909291905050506121da565b60405180848152602001838152602001828152602001935050505060405180910390f35b348015610fc257600080fd5b50610fef60048036036020811015610fd957600080fd5b81019080803590602001909291905050506122be565b6040518082815260200191505060405180910390f35b34801561101157600080fd5b5061105e6004803603604081101561102857600080fd5b8101908080359060200190929190803573ffffffffffffffffffffffffffffffffffffffff1690602001909291905050506122e5565b005b34801561106c57600080fd5b506110996004803603602081101561108357600080fd5b810190808035906020019092919050505061236f565b604051808273ffffffffffffffffffffffffffffffffffffffff1673ffffffffffffffffffffffffffffffffffffffff16815260200191505060405180910390f35b3480156110e757600080fd5b5061114a600480360360408110156110fe57600080fd5b81019080803573ffffffffffffffffffffffffffffffffffffffff169060200190929190803573ffffffffffffffffffffffffffffffffffffffff1690602001909291905050506123ab565b6040518082815260200191505060405180910390f35b34801561116c57600080fd5b50611175612432565b6040518082815260200191505060405180910390f35b34801561119757600080fd5b506111c4600480360360208110156111ae57600080fd5b810190808035906020019092919050505061246b565b005b606060038054600181600116156101000203166002900480601f01602080910402602001604051908101604052809291908181526020018280546001816001161561010002031660029004801561125e5780601f106112335761010080835404028352916020019161125e565b820191906000526020600020905b81548152906001019060200180831161124157829003601f168201915b5050505050905090565b600061127c61127561287f565b8484612887565b6001905092915050565b6112c560405180807f4f574e45520000000000000000000000000000000000000000000000000000008152506005019050604051809103902033611a14565b61131a576040517f08c379a00000000000000000000000000000000000000000000000000000000081526004018080602001828103825260278152602001806144f16027913960400191505060405180910390fd5b6001600d60006101000a81548160ff0219169083151502179055507f271eeaa027ef2b0ef7f9c88ade99794e43f75016f0320df12ea62b72a74e268660405160405180910390a1565b6000600254905090565b600061137a848484612a7e565b61143b8461138661287f565b611436856040518060600160405280602881526020016145c460289139600160008b73ffffffffffffffffffffffffffffffffffffffff1673ffffffffffffffffffffffffffffffffffffffff16815260200190815260200160002060006113ec61287f565b73ffffffffffffffffffffffffffffffffffffffff1673ffffffffffffffffffffffffffffffffffffffff16815260200190815260200160002054612d3f9092919063ffffffff16565b612887565b600190509392505050565b600060066000838152602001908152602001600020600201549050919050565b6000600d60009054906101000a900460ff161561148257600080fd5b6114c160405180807f4f574e45520000000000000000000000000000000000000000000000000000008152506005019050604051809103902033611a14565b611516576040517f08c379a00000000000000000000000000000000000000000000000000000000081526004018080602001828103825260278152602001806144f16027913960400191505060405180910390fd5b600061152186612dff565b905061152f81868686612f3f565b915061153a82611eba565b50949350505050565b61156a600660008481526020019081526020016000206002015461156561287f565b611a14565b6115bf576040517f08c379a000000000000000000000000000000000000000000000000000000000815260040180806020018281038252602f81526020018061447a602f913960400191505060405180910390fd5b6115c982826130f9565b5050565b600061160e60405180807f4f574e45520000000000000000000000000000000000000000000000000000008152506005019050604051809103902083611a14565b9050919050565b6000600560009054906101000a900460ff16905090565b600b6020528160005260406000206020528060005260406000206000915091509054906101000a900460ff1681565b61166361287f565b73ffffffffffffffffffffffffffffffffffffffff168173ffffffffffffffffffffffffffffffffffffffff16146116e6576040517f08c379a000000000000000000000000000000000000000000000000000000000815260040180806020018281038252602f81526020018061467c602f913960400191505060405180910390fd5b6116f0828261318d565b5050565b600061179d61170161287f565b84611798856001600061171261287f565b73ffffffffffffffffffffffffffffffffffffffff1673ffffffffffffffffffffffffffffffffffffffff16815260200190815260200160002060008973ffffffffffffffffffffffffffffffffffffffff1673ffffffffffffffffffffffffffffffffffffffff1681526020019081526020016000205461322190919063ffffffff16565b612887565b6001905092915050565b6060806060806040518060400160405280600881526020017f45787465726e616c00000000000000000000000000000000000000000000000081525093506040518060400160405280600a81526020017f4e6577466f756e6465720000000000000000000000000000000000000000000081525092506040518060400160405280601581526020017f4c61756e636856657374696e675363686564756c65000000000000000000000081525091506040518060400160405280600e81526020017f44657374726f79436f6d70616e79000000000000000000000000000000000000815250905083838383935093509350935090919293565b60008060008373ffffffffffffffffffffffffffffffffffffffff1673ffffffffffffffffffffffffffffffffffffffff168152602001908152602001600020549050919050565b600d60009054906101000a900460ff1681565b6000806000905060008090505b6008805490508110156119da57600b600085815260200190815260200160002060006008838154811061193657fe5b9060005260206000200160009054906101000a900473ffffffffffffffffffffffffffffffffffffffff1673ffffffffffffffffffffffffffffffffffffffff1673ffffffffffffffffffffffffffffffffffffffff16815260200190815260200160002060009054906101000a900460ff16156119b5576001820191505b6008805490508214156119cd576001925050506119dd565b8080600101915050611907565b50505b919050565b6000611a0c82600660008681526020019081526020016000206000016132a990919063ffffffff16565b905092915050565b6000611a3e82600660008681526020019081526020016000206000016132c490919063ffffffff16565b905092915050565b606060048054600181600116156101000203166002900480601f016020809104026020016040519081016040528092919081815260200182805460018160011615610100020316600290048015611ade5780601f10611ab357610100808354040283529160200191611ade565b820191906000526020600020905b815481529060010190602001808311611ac157829003601f168201915b5050505050905090565b600a6020528060005260406000206000915090508060000160009054906101000a900460ff16908060000160019054906101000a900473ffffffffffffffffffffffffffffffffffffffff1690806001015490806002018054600181600116156101000203166002900480601f016020809104026020016040519081016040528092919081815260200182805460018160011615610100020316600290048015611bd35780601f10611ba857610100808354040283529160200191611bd3565b820191906000526020600020905b815481529060010190602001808311611bb657829003601f168201915b5050505050908060030160009054906101000a900460ff16905085565b600060010281565b6000611cbb611c0561287f565b84611cb6856040518060600160405280602581526020016146576025913960016000611c2f61287f565b73ffffffffffffffffffffffffffffffffffffffff1673ffffffffffffffffffffffffffffffffffffffff16815260200190815260200160002060008a73ffffffffffffffffffffffffffffffffffffffff1673ffffffffffffffffffffffffffffffffffffffff16815260200190815260200160002054612d3f9092919063ffffffff16565b612887565b6001905092915050565b6000611cd9611cd261287f565b8484612a7e565b6001905092915050565b611d2260405180807f4f574e45520000000000000000000000000000000000000000000000000000008152506005019050604051809103902033611a14565b611d77576040517f08c379a00000000000000000000000000000000000000000000000000000000081526004018080602001828103825260278152602001806144f16027913960400191505060405180910390fd5b6000611d82336132f4565b905060008111611ddd576040517f08c379a00000000000000000000000000000000000000000000000000000000081526004018080602001828103825260318152602001806145486031913960400191505060405180910390fd5b6000600960003373ffffffffffffffffffffffffffffffffffffffff1673ffffffffffffffffffffffffffffffffffffffff1681526020019081526020016000209050611e3782826001015461322190919063ffffffff16565b8160010181905550611e568282600201546133f590919063ffffffff16565b8160020181905550611e68338361343f565b3373ffffffffffffffffffffffffffffffffffffffff167fdbc1569abc705e4dab3d58f5fffbdd0ff2ec1982e69899a2c699d7a452081fa8836040518082815260200191505060405180910390a25050565b600d60009054906101000a900460ff1615611ed457600080fd5b611f1360405180807f4f574e45520000000000000000000000000000000000000000000000000000008152506005019050604051809103902033611a14565b611f68576040517f08c379a00000000000000000000000000000000000000000000000000000000081526004018080602001828103825260278152602001806144f16027913960400191505060405180910390fd5b80600073ffffffffffffffffffffffffffffffffffffffff16600a600083815260200190815260200160002060000160019054906101000a900473ffffffffffffffffffffffffffffffffffffffff1673ffffffffffffffffffffffffffffffffffffffff161415611fd957600080fd5b81600b600082815260200190815260200160002060003373ffffffffffffffffffffffffffffffffffffffff1673ffffffffffffffffffffffffffffffffffffffff16815260200190815260200160002060009054906101000a900460ff161561204257600080fd5b6001600b600085815260200190815260200160002060003373ffffffffffffffffffffffffffffffffffffffff1673ffffffffffffffffffffffffffffffffffffffff16815260200190815260200160002060006101000a81548160ff021916908315150217905550823373ffffffffffffffffffffffffffffffffffffffff167f284a31f48de0c7baa130a1acbe4773f4c39ef557ddcd0b2d6b6ef539af10531b60405160405180910390a36120f88361246b565b505050565b61213c60405180807f4f574e45520000000000000000000000000000000000000000000000000000008152506005019050604051809103902033611a14565b612191576040517f08c379a00000000000000000000000000000000000000000000000000000000081526004018080602001828103825260278152602001806144f16027913960400191505060405180910390fd5b6000600d60006101000a81548160ff0219169083151502179055507f7a0eb486a5792abc0f3f90bb2e49d363e653c325fa01b4e115eb8454f884b92660405160405180910390a1565b6000806000600960008573ffffffffffffffffffffffffffffffffffffffff1673ffffffffffffffffffffffffffffffffffffffff168152602001908152602001600020600101549250600960008573ffffffffffffffffffffffffffffffffffffffff1673ffffffffffffffffffffffffffffffffffffffff168152602001908152602001600020600201549150600960008573ffffffffffffffffffffffffffffffffffffffff1673ffffffffffffffffffffffffffffffffffffffff1681526020019081526020016000206003015490508282829250925092509193909250565b60006122de60066000848152602001908152602001600020600001613606565b9050919050565b61230c600660008481526020019081526020016000206002015461230761287f565b611a14565b612361576040517f08c379a00000000000000000000000000000000000000000000000000000000081526004018080602001828103825260308152602001806145186030913960400191505060405180910390fd5b61236b828261318d565b5050565b6008818154811061237c57fe5b906000526020600020016000915054906101000a900473ffffffffffffffffffffffffffffffffffffffff1681565b6000600160008473ffffffffffffffffffffffffffffffffffffffff1673ffffffffffffffffffffffffffffffffffffffff16815260200190815260200160002060008373ffffffffffffffffffffffffffffffffffffffff1673ffffffffffffffffffffffffffffffffffffffff16815260200190815260200160002054905092915050565b60405180807f4f574e45520000000000000000000000000000000000000000000000000000008152506005019050604051809103902081565b600d60009054906101000a900460ff161561248557600080fd5b6124c460405180807f4f574e45520000000000000000000000000000000000000000000000000000008152506005019050604051809103902033611a14565b612519576040517f08c379a00000000000000000000000000000000000000000000000000000000081526004018080602001828103825260278152602001806144f16027913960400191505060405180910390fd5b80600b600082815260200190815260200160002060003373ffffffffffffffffffffffffffffffffffffffff1673ffffffffffffffffffffffffffffffffffffffff16815260200190815260200160002060009054906101000a900460ff1661258157600080fd5b81600a600082815260200190815260200160002060030160009054906101000a900460ff16156125b057600080fd5b6125b9836118fa565b1561287a576000600a6000858152602001908152602001600020905060018160030160006101000a81548160ff021916908315150217905550600060038111156125ff57fe5b8160000160009054906101000a900460ff16600381111561261c57fe5b1415612774576126f18160000160019054906101000a900473ffffffffffffffffffffffffffffffffffffffff168260010154836002018054600181600116156101000203166002900480601f0160208091040260200160405190810160405280929190818152602001828054600181600116156101000203166002900480156126e75780601f106126bc576101008083540402835291602001916126e7565b820191906000526020600020905b8154815290600101906020018083116126ca57829003601f168201915b505050505061361b565b1561272857837f036687fd39b346666ddc60de603092dbfccf1f0dfef3848eacaf6556f155274960405160405180910390a2612773565b837fe6be4216c17a494bd52020b62596f189bf4552ad23cbae4913db8f0d9693ec9360405160405180910390a260008160030160006101000a81548160ff0219169083151502179055505b5b6001600381111561278157fe5b8160000160009054906101000a900460ff16600381111561279e57fe5b14156127d3576127d18160000160019054906101000a900473ffffffffffffffffffffffffffffffffffffffff16613638565b505b600260038111156127e057fe5b8160000160009054906101000a900460ff1660038111156127fd57fe5b141561280c5761280b6136e4565b5b60038081111561281857fe5b8160000160009054906101000a900460ff16600381111561283557fe5b1415612878578060000160019054906101000a900473ffffffffffffffffffffffffffffffffffffffff1673ffffffffffffffffffffffffffffffffffffffff16ff5b505b505050565b600033905090565b600073ffffffffffffffffffffffffffffffffffffffff168373ffffffffffffffffffffffffffffffffffffffff16141561290d576040517f08c379a00000000000000000000000000000000000000000000000000000000081526004018080602001828103825260248152602001806146336024913960400191505060405180910390fd5b600073ffffffffffffffffffffffffffffffffffffffff168273ffffffffffffffffffffffffffffffffffffffff161415612993576040517f08c379a00000000000000000000000000000000000000000000000000000000081526004018080602001828103825260228152602001806144a96022913960400191505060405180910390fd5b80600160008573ffffffffffffffffffffffffffffffffffffffff1673ffffffffffffffffffffffffffffffffffffffff16815260200190815260200160002060008473ffffffffffffffffffffffffffffffffffffffff1673ffffffffffffffffffffffffffffffffffffffff168152602001908152602001600020819055508173ffffffffffffffffffffffffffffffffffffffff168373ffffffffffffffffffffffffffffffffffffffff167f8c5be1e5ebec7d5bd14f71427d1e84f3dd0314c0f7b2291e5b200ac8c7c3b925836040518082815260200191505060405180910390a3505050565b600073ffffffffffffffffffffffffffffffffffffffff168373ffffffffffffffffffffffffffffffffffffffff161415612b04576040517f08c379a000000000000000000000000000000000000000000000000000000000815260040180806020018281038252602581526020018061460e6025913960400191505060405180910390fd5b600073ffffffffffffffffffffffffffffffffffffffff168273ffffffffffffffffffffffffffffffffffffffff161415612b8a576040517f08c379a00000000000000000000000000000000000000000000000000000000081526004018080602001828103825260238152602001806144576023913960400191505060405180910390fd5b612b95838383613a0f565b612c00816040518060600160405280602681526020016144cb602691396000808773ffffffffffffffffffffffffffffffffffffffff1673ffffffffffffffffffffffffffffffffffffffff16815260200190815260200160002054612d3f9092919063ffffffff16565b6000808573ffffffffffffffffffffffffffffffffffffffff1673ffffffffffffffffffffffffffffffffffffffff16815260200190815260200160002081905550612c93816000808573ffffffffffffffffffffffffffffffffffffffff1673ffffffffffffffffffffffffffffffffffffffff1681526020019081526020016000205461322190919063ffffffff16565b6000808473ffffffffffffffffffffffffffffffffffffffff1673ffffffffffffffffffffffffffffffffffffffff168152602001908152602001600020819055508173ffffffffffffffffffffffffffffffffffffffff168373ffffffffffffffffffffffffffffffffffffffff167fddf252ad1be2c89b69c2b068fc378daa952ba7f163c4a11628f55a4df523b3ef836040518082815260200191505060405180910390a3505050565b6000838311158290612dec576040517f08c379a00000000000000000000000000000000000000000000000000000000081526004018080602001828103825283818151815260200191508051906020019080838360005b83811015612db1578082015181840152602081019050612d96565b50505050905090810190601f168015612dde5780820380516001836020036101000a031916815260200191505b509250505060405180910390fd5b5060008385039050809150509392505050565b600060405180807f45787465726e616c0000000000000000000000000000000000000000000000008152506008019050604051809103902082805190602001201415612e4e5760009050612f3a565b60405180807f4e6577466f756e64657200000000000000000000000000000000000000000000815250600a019050604051809103902082805190602001201415612e9b5760019050612f3a565b60405180807f4c61756e636856657374696e675363686564756c6500000000000000000000008152506015019050604051809103902082805190602001201415612ee85760029050612f3a565b60405180807f44657374726f79436f6d70616e79000000000000000000000000000000000000815250600e019050604051809103902082805190602001201415612f355760039050612f3a565b600080fd5b919050565b600083600073ffffffffffffffffffffffffffffffffffffffff168173ffffffffffffffffffffffffffffffffffffffff161415612f7c57600080fd5b600c5491506040518060a00160405280876003811115612f9857fe5b81526020018673ffffffffffffffffffffffffffffffffffffffff16815260200185815260200184815260200160001515815250600a600084815260200190815260200160002060008201518160000160006101000a81548160ff0219169083600381111561300357fe5b021790555060208201518160000160016101000a81548173ffffffffffffffffffffffffffffffffffffffff021916908373ffffffffffffffffffffffffffffffffffffffff16021790555060408201518160010155606082015181600201908051906020019061307592919061434a565b5060808201518160030160006101000a81548160ff0219169083151502179055509050506001600c60008282540192505081905550817fdebc10a4c5b3a068a33d09a2e738b39000cf7a983ba8ade2c06798ba8eb2857387604051808260038111156130dd57fe5b60ff16815260200191505060405180910390a250949350505050565b6131218160066000858152602001908152602001600020600001613a7d90919063ffffffff16565b156131895761312e61287f565b73ffffffffffffffffffffffffffffffffffffffff168173ffffffffffffffffffffffffffffffffffffffff16837f2f8788117e7eff1d82e926ec794901d17c78024a50270940304540a733656f0d60405160405180910390a45b5050565b6131b58160066000858152602001908152602001600020600001613aad90919063ffffffff16565b1561321d576131c261287f565b73ffffffffffffffffffffffffffffffffffffffff168173ffffffffffffffffffffffffffffffffffffffff16837ff6391f5c32d9c69d2a47ea670b442974b53935d1edc7fd64eb21e047a839171b60405160405180910390a45b5050565b60008082840190508381101561329f576040517f08c379a000000000000000000000000000000000000000000000000000000000815260040180806020018281038252601b8152602001807f536166654d6174683a206164646974696f6e206f766572666c6f77000000000081525060200191505060405180910390fd5b8091505092915050565b60006132b88360000183613add565b60019004905092915050565b60006132ec836000018373ffffffffffffffffffffffffffffffffffffffff16600102613b60565b905092915050565b60006132fe6143ca565b600960008473ffffffffffffffffffffffffffffffffffffffff1673ffffffffffffffffffffffffffffffffffffffff1681526020019081526020016000206040518060a0016040529081600082015481526020016001820154815260200160028201548152602001600382015481526020016004820160009054906101000a900473ffffffffffffffffffffffffffffffffffffffff1673ffffffffffffffffffffffffffffffffffffffff1673ffffffffffffffffffffffffffffffffffffffff168152505090506000816020015190506133ec816133de86613b83565b6133f590919063ffffffff16565b92505050919050565b600061343783836040518060400160405280601e81526020017f536166654d6174683a207375627472616374696f6e206f766572666c6f770000815250612d3f565b905092915050565b600073ffffffffffffffffffffffffffffffffffffffff168273ffffffffffffffffffffffffffffffffffffffff1614156134e2576040517f08c379a000000000000000000000000000000000000000000000000000000000815260040180806020018281038252601f8152602001807f45524332303a206d696e7420746f20746865207a65726f20616464726573730081525060200191505060405180910390fd5b6134ee60008383613a0f565b6135038160025461322190919063ffffffff16565b60028190555061355a816000808573ffffffffffffffffffffffffffffffffffffffff1673ffffffffffffffffffffffffffffffffffffffff1681526020019081526020016000205461322190919063ffffffff16565b6000808473ffffffffffffffffffffffffffffffffffffffff1673ffffffffffffffffffffffffffffffffffffffff168152602001908152602001600020819055508173ffffffffffffffffffffffffffffffffffffffff16600073ffffffffffffffffffffffffffffffffffffffff167fddf252ad1be2c89b69c2b068fc378daa952ba7f163c4a11628f55a4df523b3ef836040518082815260200191505060405180910390a35050565b600061361482600001613cde565b9050919050565b60008060008084516020860187895af19050809150509392505050565b60008073ffffffffffffffffffffffffffffffffffffffff168273ffffffffffffffffffffffffffffffffffffffff16141561367357600080fd5b61367c82613cef565b6008829080600181540180825580915050600190039060005260206000200160009091909190916101000a81548173ffffffffffffffffffffffffffffffffffffffff021916908373ffffffffffffffffffffffffffffffffffffffff160217905550919050565b61372360405180807f4f574e45520000000000000000000000000000000000000000000000000000008152506005019050604051809103902033611a14565b613778576040517f08c379a00000000000000000000000000000000000000000000000000000000081526004018080602001828103825260278152602001806144f16027913960400191505060405180910390fd5b600061379c613785611615565b60ff16600a0a612710613d8f90919063ffffffff16565b905060006137c760646137b9605a85613d8f90919063ffffffff16565b613e1590919063ffffffff16565b90506137dc81836133f590919063ffffffff16565b60078190555060006137fc60088054905083613e1590919063ffffffff16565b905060008090505b600880549050811015613a09576040518060a00160405280428152602001600081526020018381526020018381526020016008838154811061384257fe5b9060005260206000200160009054906101000a900473ffffffffffffffffffffffffffffffffffffffff1673ffffffffffffffffffffffffffffffffffffffff16815250600960006008848154811061389757fe5b9060005260206000200160009054906101000a900473ffffffffffffffffffffffffffffffffffffffff1673ffffffffffffffffffffffffffffffffffffffff1673ffffffffffffffffffffffffffffffffffffffff1681526020019081526020016000206000820151816000015560208201518160010155604082015181600201556060820151816003015560808201518160040160006101000a81548173ffffffffffffffffffffffffffffffffffffffff021916908373ffffffffffffffffffffffffffffffffffffffff1602179055509050506008818154811061397b57fe5b9060005260206000200160009054906101000a900473ffffffffffffffffffffffffffffffffffffffff1673ffffffffffffffffffffffffffffffffffffffff167f6f1aaf30d5ebfa3a12caac074c49b1c2d49c30cc9107817ca035a011ef935937836004604051808381526020018281526020019250505060405180910390a28080600101915050613804565b50505050565b613a1a838383613e5f565b613a23826115cd565b613a78576040517f08c379a000000000000000000000000000000000000000000000000000000000815260040180806020018281038252602a815260200180614579602a913960400191505060405180910390fd5b505050565b6000613aa5836000018373ffffffffffffffffffffffffffffffffffffffff16600102613e64565b905092915050565b6000613ad5836000018373ffffffffffffffffffffffffffffffffffffffff16600102613ed4565b905092915050565b600081836000018054905011613b3e576040517f08c379a00000000000000000000000000000000000000000000000000000000081526004018080602001828103825260228152602001806144356022913960400191505060405180910390fd5b826000018281548110613b4d57fe5b9060005260206000200154905092915050565b600080836001016000848152602001908152602001600020541415905092915050565b6000613b8d6143ca565b600960008473ffffffffffffffffffffffffffffffffffffffff1673ffffffffffffffffffffffffffffffffffffffff1681526020019081526020016000206040518060a0016040529081600082015481526020016001820154815260200160028201548152602001600382015481526020016004820160009054906101000a900473ffffffffffffffffffffffffffffffffffffffff1673ffffffffffffffffffffffffffffffffffffffff1673ffffffffffffffffffffffffffffffffffffffff168152505090506000816060015190506000826000015190506000613c7e82426133f590919063ffffffff16565b90506000613c96600484613fbc90919063ffffffff16565b9050804210613cac578395505050505050613cd9565b613cd181613cc38487613d8f90919063ffffffff16565b613e1590919063ffffffff16565b955050505050505b919050565b600081600001805490509050919050565b613cf8336115cd565b613d4d576040517f08c379a00000000000000000000000000000000000000000000000000000000081526004018080602001828103825260228152602001806145ec6022913960400191505060405180910390fd5b613d8c60405180807f4f574e45520000000000000000000000000000000000000000000000000000008152506005019050604051809103902082611543565b50565b600080831415613da25760009050613e0f565b6000828402905082848281613db357fe5b0414613e0a576040517f08c379a00000000000000000000000000000000000000000000000000000000081526004018080602001828103825260218152602001806145a36021913960400191505060405180910390fd5b809150505b92915050565b6000613e5783836040518060400160405280601a81526020017f536166654d6174683a206469766973696f6e206279207a65726f000000000000815250614033565b905092915050565b505050565b6000613e708383613b60565b613ec9578260000182908060018154018082558091505060019003906000526020600020016000909190919091505582600001805490508360010160008481526020019081526020016000208190555060019050613ece565b600090505b92915050565b60008083600101600084815260200190815260200160002054905060008114613fb05760006001820390506000600186600001805490500390506000866000018281548110613f1f57fe5b9060005260206000200154905080876000018481548110613f3c57fe5b9060005260206000200181905550600183018760010160008381526020019081526020016000208190555086600001805480613f7457fe5b60019003818190600052602060002001600090559055866001016000878152602001908152602001600020600090556001945050505050613fb6565b60009150505b92915050565b600080600080613fd7620151808781613fd157fe5b046140f9565b92509250925084830192506000613fee84846141cd565b905080821115613ffc578091505b62015180878161400857fe5b0662015180614018868686614258565b020194508685101561402957600080fd5b5050505092915050565b600080831182906140df576040517f08c379a00000000000000000000000000000000000000000000000000000000081526004018080602001828103825283818151815260200191508051906020019080838360005b838110156140a4578082015181840152602081019050614089565b50505050905090810190601f1680156140d15780820380516001836020036101000a031916815260200191505b509250505060405180910390fd5b5060008385816140eb57fe5b049050809150509392505050565b600080600080849050600062253d8c62010bd98301019050600062023ab1826004028161412257fe5b059050600460038262023ab102018161413757fe5b0582039150600062164b0960018401610fa0028161415157fe5b059050601f6004826105b5028161416457fe5b058403019250600061098f846050028161417a57fe5b059050600060508261098f028161418d57fe5b0585039050600b828161419c57fe5b05945084600c0260028301039150848360318603606402010192508298508197508096505050505050509193909250565b600060018214806141de5750600382145b806141e95750600582145b806141f45750600782145b806141ff5750600882145b8061420a5750600a82145b806142155750600c82145b1561422357601f9050614252565b6002821461423457601e9050614251565b61423d83614307565b61424857601c61424b565b601d5b60ff1690505b5b92915050565b60006107b284101561426957600080fd5b600084905060008490506000849050600062253d8c60046064600c600e87038161428f57fe5b056113248801018161429d57fe5b05600302816142a857fe5b05600c80600c600e8803816142b957fe5b0502600287030361016f02816142cb57fe5b056004600c600e8803816142db57fe5b056112c08901016105b502816142ed57fe5b05617d4b8603010103039050809450505050509392505050565b6000806004838161431457fe5b0614801561432d575060006064838161432957fe5b0614155b8061434357506000610190838161434057fe5b06145b9050919050565b828054600181600116156101000203166002900490600052602060002090601f016020900481019282601f1061438b57805160ff19168380011785556143b9565b828001600101855582156143b9579182015b828111156143b857825182559160200191906001019061439d565b5b5090506143c6919061440f565b5090565b6040518060a0016040528060008152602001600081526020016000815260200160008152602001600073ffffffffffffffffffffffffffffffffffffffff1681525090565b61443191905b8082111561442d576000816000905550600101614415565b5090565b9056fe456e756d657261626c655365743a20696e646578206f7574206f6620626f756e647345524332303a207472616e7366657220746f20746865207a65726f2061646472657373416363657373436f6e74726f6c3a2073656e646572206d75737420626520616e2061646d696e20746f206772616e7445524332303a20617070726f766520746f20746865207a65726f206164647265737345524332303a207472616e7366657220616d6f756e7420657863656564732062616c616e636550726976617465436f6d70616e793a2073656e646572206973206e6f74206120666f756e646572416363657373436f6e74726f6c3a2073656e646572206d75737420626520616e2061646d696e20746f207265766f6b6550726976617465436f6d70616e793a206e6f20746f6b656e7320746f2072656c6561736520617420746869732074696d654552433230507269766174653a20746f6b656e207472616e7366657220746f206f776e6572206f6e6c79536166654d6174683a206d756c7469706c69636174696f6e206f766572666c6f7745524332303a207472616e7366657220616d6f756e74206578636565647320616c6c6f77616e63654552433230507269766174653a205265737472696374656420746f206f776e65727345524332303a207472616e736665722066726f6d20746865207a65726f206164647265737345524332303a20617070726f76652066726f6d20746865207a65726f206164647265737345524332303a2064656372656173656420616c6c6f77616e63652062656c6f77207a65726f416363657373436f6e74726f6c3a2063616e206f6e6c792072656e6f756e636520726f6c657320666f722073656c66a2646970667358221220e2ca9d466cd4730d4e43e6f42fa532da874d56323102baebd16ee2c8559114e364736f6c63430006020033",
  "source": "// SPDX-License-Identifier: MIT\npragma solidity >0.6.0;\n\nimport \"./ERC20Private.sol\";\nimport \"./DateTimeLibrary.sol\";\nimport \"@openzeppelin/contracts/math/SafeMath.sol\";\n\n/**\n * @title Private Company contract with predefined founders,\n * simple vesting schedule and transaction agreement between all founders.\n * @dev Internal token(equity) can only circulate between founders.\n * @author Konstantin Zamaraev\n * @notice This final project for Consensys bootcamp. DO NOT USE IN PRODUCTION.\n */\ncontract PrivateCompany is ERC20Private {\n    // Libraries\n    using SafeMath for uint256;\n    using BokkyPooBahsDateTimeLibrary for uint256;\n\n    // Constants\n    uint256 internal constant TOTAL_SUPPLY = 10000;\n    uint256 internal constant TOKEN_VESTING_TIME = 4; // 4 years for the full vesting\n\n    // Events\n    event LogDeposit(address indexed sender, uint256 value);\n    event LogFounderEquityDistribution(\n        address indexed founderAddress,\n        uint256 equityAmount,\n        uint256 vestingTime\n    );\n    event LogReleasedEquityForHolder(\n        address indexed founderAddress,\n        uint256 equityAmount\n    );\n    event LogTransactionSubmission(\n        TransactionType txType,\n        uint256 indexed transactionId\n    );\n    event LogTransactionExecution(uint256 indexed transactionId);\n    event LogTransactionExecutionFailure(uint256 indexed transactionId);\n    event LogTransactionConfirmation(\n        address indexed sender,\n        uint256 indexed transactionId\n    );\n    event LogContractStopped();\n    event LogContractResume();\n\n    // Storage\n    uint256 private equityPool;\n    address[] public founders;\n    mapping(address => EquityHolder) equityHolders;\n    mapping(uint256 => Transaction) public transactions;\n    mapping(uint256 => mapping(address => bool)) public confirmations;\n    uint256 private transactionCount;\n    bool public stopped = false;\n\n    // Enums\n    enum TransactionType {\n        External,\n        NewFounder,\n        LaunchVestingSchedule,\n        DestroyCompany\n    }\n\n    // Structs\n    struct EquityHolder {\n        uint256 lockTimeStart;\n        uint256 currentBalance;\n        uint256 lockedBalance;\n        uint256 totalBalance;\n        address holderAddress;\n    }\n\n    struct Transaction {\n        TransactionType txType;\n        address destination;\n        uint256 value;\n        bytes data;\n        bool executed;\n    }\n\n    // Modifiers\n    modifier stopInEmergency {\n        require(!stopped);\n        _;\n    }\n\n    modifier notNull(address _address) {\n        require(_address != address(0));\n        _;\n    }\n\n    modifier transactionExists(uint256 transactionId) {\n        require(transactions[transactionId].destination != address(0));\n        _;\n    }\n\n    modifier confirmed(uint256 transactionId) {\n        require(confirmations[transactionId][msg.sender]);\n        _;\n    }\n\n    modifier notConfirmed(uint256 transactionId) {\n        require(!confirmations[transactionId][msg.sender]);\n        _;\n    }\n\n    modifier notExecuted(uint256 transactionId) {\n        require(!transactions[transactionId].executed);\n        _;\n    }\n\n    modifier onlyFounder() {\n        require(\n            hasRole(OWNER_ROLE, msg.sender),\n            \"PrivateCompany: sender is not a founder\"\n        );\n        _;\n    }\n\n    /**\n     * @dev Receive function allows to deposit ether.\n     */\n    receive() external payable {\n        if (msg.value > 0) LogDeposit(msg.sender, msg.value);\n    }\n\n    // Public functions\n    /**\n     * @dev Contract constructor creates private token and sets equal amounts\n     * with the vesting schedule (4 years duration)\n     * @param _companyName Company name.\n     * @param _token Company(token) ticker name.\n     */\n    constructor(string memory _companyName, string memory _token)\n        public\n        payable\n        ERC20(_companyName, _token)\n        ERC20Private()\n    {\n        founders.push(msg.sender);\n    }\n\n    /**\n     * @dev Emergency only! Block transaction submition/confirmation/execution\n     */\n    function stopContract() public onlyFounder {\n        stopped = true;\n        emit LogContractStopped();\n    }\n\n    function resumeContract() public onlyFounder {\n        stopped = false;\n        emit LogContractResume();\n    }\n\n    function getTransactionTypes()\n        public\n        pure\n        returns (\n            string memory externalType,\n            string memory newFounderType,\n            string memory launchVestingScheduleType,\n            string memory destroyCompanyType\n        )\n    {\n        externalType = \"External\";\n        newFounderType = \"NewFounder\";\n        launchVestingScheduleType = \"LaunchVestingSchedule\";\n        destroyCompanyType = \"DestroyCompany\";\n\n        return (\n            externalType,\n            newFounderType,\n            launchVestingScheduleType,\n            destroyCompanyType\n        );\n    }\n\n    /**\n     * @param holderAddress address of equity holder.\n     */\n    function getEquityHolderBalance(address holderAddress)\n        public\n        view\n        returns (\n            uint256 currentBalance,\n            uint256 lockedBalance,\n            uint256 totalBalance\n        )\n    {\n        currentBalance = equityHolders[holderAddress].currentBalance;\n        lockedBalance = equityHolders[holderAddress].lockedBalance;\n        totalBalance = equityHolders[holderAddress].totalBalance;\n\n        return (currentBalance, lockedBalance, totalBalance);\n    }\n\n    function releaseVestedEquity() public onlyFounder {\n        uint256 unreleasedAmount = _releasableEquityAmount(msg.sender);\n\n        require(\n            unreleasedAmount > 0,\n            \"PrivateCompany: no tokens to release at this time\"\n        );\n\n        EquityHolder storage equityHolder = equityHolders[msg.sender];\n\n        equityHolder.currentBalance = equityHolder.currentBalance.add(\n            unreleasedAmount\n        );\n\n        equityHolder.lockedBalance = equityHolder.lockedBalance.sub(\n            unreleasedAmount\n        );\n\n        _mint(msg.sender, unreleasedAmount);\n        emit LogReleasedEquityForHolder(msg.sender, unreleasedAmount);\n    }\n\n    /**\n     * @dev Allows a founder to submit and confirm a transaction.\n     * @param txTypeKey Transaction type key string.\n     * @param destination Transaction target address.\n     * @param value Transaction ether value.\n     * @param data Transaction data payload.\n     */\n\n    function submitTransaction(\n        string memory txTypeKey,\n        address destination,\n        uint256 value,\n        bytes memory data\n    ) public stopInEmergency onlyFounder returns (uint256 transactionId) {\n        TransactionType txType = _getTransactionEnumValueByKey(txTypeKey);\n        transactionId = _addTransaction(txType, destination, value, data);\n        confirmTransaction(transactionId);\n    }\n\n    /**\n     * @dev Allows a founder to confirm a transaction.\n     * @param transactionId Transaction ID.\n     */\n    function confirmTransaction(uint256 transactionId)\n        public\n        stopInEmergency\n        onlyFounder\n        transactionExists(transactionId)\n        notConfirmed(transactionId)\n    {\n        confirmations[transactionId][msg.sender] = true;\n        emit LogTransactionConfirmation(msg.sender, transactionId);\n        executeTransaction(transactionId);\n    }\n\n    /**\n     * @dev Allows anyone to execute a confirmed transaction.\n     * @param transactionId Transaction ID.\n     */\n    function executeTransaction(uint256 transactionId)\n        public\n        stopInEmergency\n        onlyFounder\n        confirmed(transactionId)\n        notExecuted(transactionId)\n    {\n        if (isConfirmed(transactionId)) {\n            Transaction storage txn = transactions[transactionId];\n            txn.executed = true;\n\n            if (txn.txType == TransactionType.External) {\n                if (_externalCall(txn.destination, txn.value, txn.data)) {\n                    emit LogTransactionExecution(transactionId);\n                } else {\n                    emit LogTransactionExecutionFailure(transactionId);\n                    txn.executed = false;\n                }\n            }\n\n            if (txn.txType == TransactionType.NewFounder) {\n                _addNewFounder(txn.destination);\n            }\n\n            if (txn.txType == TransactionType.LaunchVestingSchedule) {\n                _launchVestingSchedule();\n            }\n\n            if (txn.txType == TransactionType.DestroyCompany) {\n                selfdestruct(address(uint160(txn.destination)));\n            }\n        }\n    }\n\n    /**\n     * @dev Returns the confirmation status of a transaction.\n     * @param transactionId Transaction ID.\n     * @return Confirmation status.\n     */\n    function isConfirmed(uint256 transactionId) public view returns (bool) {\n        uint256 count = 0;\n        for (uint256 i = 0; i < founders.length; i++) {\n            if (confirmations[transactionId][founders[i]]) {\n                count += 1;\n            }\n            if (count == founders.length) {\n                return true;\n            }\n        }\n    }\n\n    // Private functions\n    function _launchVestingSchedule() private onlyFounder {\n        uint256 totalSupply = TOTAL_SUPPLY.mul(10**uint256(decimals()));\n        uint256 founderDistributonSupply = totalSupply.mul(90).div(100); // 90% goes to initial founders / 10% to equity pool\n        equityPool = totalSupply.sub(founderDistributonSupply);\n        uint256 equityAmount = founderDistributonSupply.div(founders.length);\n\n        for (uint256 i = 0; i < founders.length; i++) {\n            equityHolders[founders[i]] = EquityHolder(\n                block.timestamp,\n                0,\n                equityAmount,\n                equityAmount,\n                founders[i]\n            );\n\n            emit LogFounderEquityDistribution(\n                founders[i],\n                equityAmount,\n                TOKEN_VESTING_TIME\n            );\n        }\n    }\n\n    /**\n     * @param founderAddress new founder address.\n     */\n    function _addNewFounder(address founderAddress) private returns (bool) {\n        require(founderAddress != address(0));\n\n        _addOwner(founderAddress);\n        founders.push(founderAddress);\n    }\n\n    /**\n     * @param txKey Transaction type string.\n     */\n    function _getTransactionEnumValueByKey(string memory txKey)\n        private\n        pure\n        returns (TransactionType)\n    {\n        if (keccak256(bytes(txKey)) == keccak256(\"External\"))\n            return TransactionType.External;\n        if (keccak256(bytes(txKey)) == keccak256(\"NewFounder\"))\n            return TransactionType.NewFounder;\n        if (keccak256(bytes(txKey)) == keccak256(\"LaunchVestingSchedule\"))\n            return TransactionType.LaunchVestingSchedule;\n        if (keccak256(bytes(txKey)) == keccak256(\"DestroyCompany\"))\n            return TransactionType.DestroyCompany;\n        revert();\n    }\n\n    /**\n     * @param holderAddress address of equity holder.\n     */\n    function _releasableEquityAmount(address holderAddress)\n        private\n        view\n        returns (uint256)\n    {\n        EquityHolder memory holder = equityHolders[holderAddress];\n\n        uint256 currentBalance = holder.currentBalance;\n\n        return _vestedEquityAmount(holderAddress).sub(currentBalance);\n    }\n\n    // Internal functions\n    /**\n     * @param holderAddress address of equity holder.\n     */\n    function _vestedEquityAmount(address holderAddress)\n        internal\n        view\n        returns (uint256)\n    {\n        EquityHolder memory holder = equityHolders[holderAddress];\n        uint256 totalBalance = holder.totalBalance;\n        uint256 lockTimeStart = holder.lockTimeStart;\n        uint256 durationLeft = block.timestamp.sub(lockTimeStart);\n        uint256 durationFull = lockTimeStart.addYears(TOKEN_VESTING_TIME);\n\n        if (block.timestamp >= durationFull) {\n            return totalBalance;\n        } else {\n            return totalBalance.mul(durationLeft).div(durationFull);\n        }\n    }\n\n    /**\n     * @dev Adds a new transaction to the transaction mapping, if transaction does not exist yet.\n     * @param txType Transaction type.\n     * @param destination Transaction target address.\n     * @param value Transaction ether value.\n     * @param data Transaction data payload.\n     */\n    function _addTransaction(\n        TransactionType txType,\n        address destination,\n        uint256 value,\n        bytes memory data\n    ) internal notNull(destination) returns (uint256 transactionId) {\n        transactionId = transactionCount;\n        transactions[transactionId] = Transaction({\n            txType: txType,\n            destination: destination,\n            value: value,\n            data: data,\n            executed: false\n        });\n        transactionCount += 1;\n        emit LogTransactionSubmission(txType, transactionId);\n    }\n\n    /**\n     * Call has been separated into its own function in order to take advantage\n     * of the Solidity's code generator to produce a loop that copies tx.data into memory.\n     */\n    function _externalCall(\n        address destination,\n        uint256 value,\n        bytes memory data\n    ) internal returns (bool) {\n        bool result;\n        assembly {\n            result := call(\n                gas(),\n                destination,\n                value,\n                add(data, 32), // First 32 bytes are the padded length of data, so exclude that\n                mload(data), // Size of the input (in bytes) - this is what fixes the padding problem\n                0,\n                0 // Output is ignored, therefore the output size is zero\n            )\n        }\n        return result;\n    }\n}\n",
  "sourcePath": "/Users/konstantin/dev/consensys/final-project/startup-3.0/contracts/PrivateCompany.sol",
  "compiler": {
    "name": "solc",
    "version": "0.6.2+commit.bacdbe57.Emscripten.clang"
  },
  "schemaVersion": "3.2.5",
  "updatedAt": "2020-11-29T13:15:39.493Z",
  "devdoc": {
    "author": "Konstantin Zamaraev",
    "details": "Internal token(equity) can only circulate between founders.",
    "methods": {
      "allowance(address,address)": {
        "details": "See {IERC20-allowance}."
      },
      "approve(address,uint256)": {
        "details": "See {IERC20-approve}.     * Requirements:     * - `spender` cannot be the zero address."
      },
      "balanceOf(address)": {
        "details": "See {IERC20-balanceOf}."
      },
      "confirmTransaction(uint256)": {
        "details": "Allows a founder to confirm a transaction.",
        "params": {
          "transactionId": "Transaction ID."
        }
      },
      "constructor": {
        "details": "Contract constructor creates private token and sets equal amounts with the vesting schedule (4 years duration)",
        "params": {
          "_companyName": "Company name.",
          "_token": "Company(token) ticker name."
        }
      },
      "decimals()": {
        "details": "Returns the number of decimals used to get its user representation. For example, if `decimals` equals `2`, a balance of `505` tokens should be displayed to a user as `5,05` (`505 / 10 ** 2`).     * Tokens usually opt for a value of 18, imitating the relationship between Ether and Wei. This is the value {ERC20} uses, unless {_setupDecimals} is called.     * NOTE: This information is only used for _display_ purposes: it in no way affects any of the arithmetic of the contract, including {IERC20-balanceOf} and {IERC20-transfer}."
      },
      "decreaseAllowance(address,uint256)": {
        "details": "Atomically decreases the allowance granted to `spender` by the caller.     * This is an alternative to {approve} that can be used as a mitigation for problems described in {IERC20-approve}.     * Emits an {Approval} event indicating the updated allowance.     * Requirements:     * - `spender` cannot be the zero address. - `spender` must have allowance for the caller of at least `subtractedValue`."
      },
      "executeTransaction(uint256)": {
        "details": "Allows anyone to execute a confirmed transaction.",
        "params": {
          "transactionId": "Transaction ID."
        }
      },
      "getEquityHolderBalance(address)": {
        "params": {
          "holderAddress": "address of equity holder."
        }
      },
      "getRoleAdmin(bytes32)": {
        "details": "Returns the admin role that controls `role`. See {grantRole} and {revokeRole}.     * To change a role's admin, use {_setRoleAdmin}."
      },
      "getRoleMember(bytes32,uint256)": {
        "details": "Returns one of the accounts that have `role`. `index` must be a value between 0 and {getRoleMemberCount}, non-inclusive.     * Role bearers are not sorted in any particular way, and their ordering may change at any point.     * WARNING: When using {getRoleMember} and {getRoleMemberCount}, make sure you perform all queries on the same block. See the following https://forum.openzeppelin.com/t/iterating-over-elements-on-enumerableset-in-openzeppelin-contracts/2296[forum post] for more information."
      },
      "getRoleMemberCount(bytes32)": {
        "details": "Returns the number of accounts that have `role`. Can be used together with {getRoleMember} to enumerate all bearers of a role."
      },
      "grantRole(bytes32,address)": {
        "details": "Grants `role` to `account`.     * If `account` had not been already granted `role`, emits a {RoleGranted} event.     * Requirements:     * - the caller must have ``role``'s admin role."
      },
      "hasRole(bytes32,address)": {
        "details": "Returns `true` if `account` has been granted `role`."
      },
      "increaseAllowance(address,uint256)": {
        "details": "Atomically increases the allowance granted to `spender` by the caller.     * This is an alternative to {approve} that can be used as a mitigation for problems described in {IERC20-approve}.     * Emits an {Approval} event indicating the updated allowance.     * Requirements:     * - `spender` cannot be the zero address."
      },
      "isConfirmed(uint256)": {
        "details": "Returns the confirmation status of a transaction.",
        "params": {
          "transactionId": "Transaction ID."
        },
        "returns": {
          "_0": "Confirmation status."
        }
      },
      "isOwner(address)": {
        "details": "Return `true` if the account belongs to the owner role."
      },
      "name()": {
        "details": "Returns the name of the token."
      },
      "renounceRole(bytes32,address)": {
        "details": "Revokes `role` from the calling account.     * Roles are often managed via {grantRole} and {revokeRole}: this function's purpose is to provide a mechanism for accounts to lose their privileges if they are compromised (such as when a trusted device is misplaced).     * If the calling account had been granted `role`, emits a {RoleRevoked} event.     * Requirements:     * - the caller must be `account`."
      },
      "revokeRole(bytes32,address)": {
        "details": "Revokes `role` from `account`.     * If `account` had been granted `role`, emits a {RoleRevoked} event.     * Requirements:     * - the caller must have ``role``'s admin role."
      },
      "stopContract()": {
        "details": "Emergency only! Block transaction submition/confirmation/execution"
      },
      "submitTransaction(string,address,uint256,bytes)": {
        "details": "Allows a founder to submit and confirm a transaction.",
        "params": {
          "data": "Transaction data payload.",
          "destination": "Transaction target address.",
          "txTypeKey": "Transaction type key string.",
          "value": "Transaction ether value."
        }
      },
      "symbol()": {
        "details": "Returns the symbol of the token, usually a shorter version of the name."
      },
      "totalSupply()": {
        "details": "See {IERC20-totalSupply}."
      },
      "transfer(address,uint256)": {
        "details": "See {IERC20-transfer}.     * Requirements:     * - `recipient` cannot be the zero address. - the caller must have a balance of at least `amount`."
      },
      "transferFrom(address,address,uint256)": {
        "details": "See {IERC20-transferFrom}.     * Emits an {Approval} event indicating the updated allowance. This is not required by the EIP. See the note at the beginning of {ERC20};     * Requirements: - `sender` and `recipient` cannot be the zero address. - `sender` must have a balance of at least `amount`. - the caller must have allowance for ``sender``'s tokens of at least `amount`."
      }
    },
    "title": "Private Company contract with predefined founders, simple vesting schedule and transaction agreement between all founders."
  },
  "userdoc": {
    "methods": {},
    "notice": "This final project for Consensys bootcamp. DO NOT USE IN PRODUCTION."
  }
}