{
  "contractName": "PrivateCompanyMock",
  "abi": [
    {
      "inputs": [
        {
          "internalType": "string",
          "name": "_companyName",
          "type": "string"
        },
        {
          "internalType": "string",
          "name": "_token",
          "type": "string"
        }
      ],
      "stateMutability": "nonpayable",
      "type": "constructor"
    },
    {
      "anonymous": false,
      "inputs": [
        {
          "indexed": true,
          "internalType": "address",
          "name": "owner",
          "type": "address"
        },
        {
          "indexed": true,
          "internalType": "address",
          "name": "spender",
          "type": "address"
        },
        {
          "indexed": false,
          "internalType": "uint256",
          "name": "value",
          "type": "uint256"
        }
      ],
      "name": "Approval",
      "type": "event"
    },
    {
      "anonymous": false,
      "inputs": [
        {
          "indexed": true,
          "internalType": "address",
          "name": "sender",
          "type": "address"
        },
        {
          "indexed": false,
          "internalType": "uint256",
          "name": "value",
          "type": "uint256"
        }
      ],
      "name": "LogDeposit",
      "type": "event"
    },
    {
      "anonymous": false,
      "inputs": [
        {
          "indexed": true,
          "internalType": "address",
          "name": "founderAddress",
          "type": "address"
        },
        {
          "indexed": false,
          "internalType": "uint256",
          "name": "equityAmount",
          "type": "uint256"
        },
        {
          "indexed": false,
          "internalType": "uint256",
          "name": "vestingTime",
          "type": "uint256"
        }
      ],
      "name": "LogFounderEquityDistribution",
      "type": "event"
    },
    {
      "anonymous": false,
      "inputs": [
        {
          "indexed": true,
          "internalType": "address",
          "name": "founderAddress",
          "type": "address"
        },
        {
          "indexed": false,
          "internalType": "uint256",
          "name": "equityAmount",
          "type": "uint256"
        }
      ],
      "name": "LogReleasedEquityForHolder",
      "type": "event"
    },
    {
      "anonymous": false,
      "inputs": [
        {
          "indexed": true,
          "internalType": "address",
          "name": "sender",
          "type": "address"
        },
        {
          "indexed": true,
          "internalType": "uint256",
          "name": "transactionId",
          "type": "uint256"
        }
      ],
      "name": "LogTransactionConfirmation",
      "type": "event"
    },
    {
      "anonymous": false,
      "inputs": [
        {
          "indexed": true,
          "internalType": "uint256",
          "name": "transactionId",
          "type": "uint256"
        }
      ],
      "name": "LogTransactionExecution",
      "type": "event"
    },
    {
      "anonymous": false,
      "inputs": [
        {
          "indexed": true,
          "internalType": "uint256",
          "name": "transactionId",
          "type": "uint256"
        }
      ],
      "name": "LogTransactionExecutionFailure",
      "type": "event"
    },
    {
      "anonymous": false,
      "inputs": [
        {
          "indexed": false,
          "internalType": "enum PrivateCompany.TransactionType",
          "name": "txType",
          "type": "uint8"
        },
        {
          "indexed": true,
          "internalType": "uint256",
          "name": "transactionId",
          "type": "uint256"
        }
      ],
      "name": "LogTransactionSubmission",
      "type": "event"
    },
    {
      "anonymous": false,
      "inputs": [
        {
          "indexed": true,
          "internalType": "bytes32",
          "name": "role",
          "type": "bytes32"
        },
        {
          "indexed": true,
          "internalType": "bytes32",
          "name": "previousAdminRole",
          "type": "bytes32"
        },
        {
          "indexed": true,
          "internalType": "bytes32",
          "name": "newAdminRole",
          "type": "bytes32"
        }
      ],
      "name": "RoleAdminChanged",
      "type": "event"
    },
    {
      "anonymous": false,
      "inputs": [
        {
          "indexed": true,
          "internalType": "bytes32",
          "name": "role",
          "type": "bytes32"
        },
        {
          "indexed": true,
          "internalType": "address",
          "name": "account",
          "type": "address"
        },
        {
          "indexed": true,
          "internalType": "address",
          "name": "sender",
          "type": "address"
        }
      ],
      "name": "RoleGranted",
      "type": "event"
    },
    {
      "anonymous": false,
      "inputs": [
        {
          "indexed": true,
          "internalType": "bytes32",
          "name": "role",
          "type": "bytes32"
        },
        {
          "indexed": true,
          "internalType": "address",
          "name": "account",
          "type": "address"
        },
        {
          "indexed": true,
          "internalType": "address",
          "name": "sender",
          "type": "address"
        }
      ],
      "name": "RoleRevoked",
      "type": "event"
    },
    {
      "anonymous": false,
      "inputs": [
        {
          "indexed": true,
          "internalType": "address",
          "name": "from",
          "type": "address"
        },
        {
          "indexed": true,
          "internalType": "address",
          "name": "to",
          "type": "address"
        },
        {
          "indexed": false,
          "internalType": "uint256",
          "name": "value",
          "type": "uint256"
        }
      ],
      "name": "Transfer",
      "type": "event"
    },
    {
      "inputs": [],
      "name": "DEFAULT_ADMIN_ROLE",
      "outputs": [
        {
          "internalType": "bytes32",
          "name": "",
          "type": "bytes32"
        }
      ],
      "stateMutability": "view",
      "type": "function"
    },
    {
      "inputs": [],
      "name": "OWNER_ROLE",
      "outputs": [
        {
          "internalType": "bytes32",
          "name": "",
          "type": "bytes32"
        }
      ],
      "stateMutability": "view",
      "type": "function"
    },
    {
      "inputs": [
        {
          "internalType": "address",
          "name": "owner",
          "type": "address"
        },
        {
          "internalType": "address",
          "name": "spender",
          "type": "address"
        }
      ],
      "name": "allowance",
      "outputs": [
        {
          "internalType": "uint256",
          "name": "",
          "type": "uint256"
        }
      ],
      "stateMutability": "view",
      "type": "function"
    },
    {
      "inputs": [
        {
          "internalType": "address",
          "name": "spender",
          "type": "address"
        },
        {
          "internalType": "uint256",
          "name": "amount",
          "type": "uint256"
        }
      ],
      "name": "approve",
      "outputs": [
        {
          "internalType": "bool",
          "name": "",
          "type": "bool"
        }
      ],
      "stateMutability": "nonpayable",
      "type": "function"
    },
    {
      "inputs": [
        {
          "internalType": "address",
          "name": "account",
          "type": "address"
        }
      ],
      "name": "balanceOf",
      "outputs": [
        {
          "internalType": "uint256",
          "name": "",
          "type": "uint256"
        }
      ],
      "stateMutability": "view",
      "type": "function"
    },
    {
      "inputs": [
        {
          "internalType": "uint256",
          "name": "transactionId",
          "type": "uint256"
        }
      ],
      "name": "confirmTransaction",
      "outputs": [],
      "stateMutability": "nonpayable",
      "type": "function"
    },
    {
      "inputs": [
        {
          "internalType": "uint256",
          "name": "",
          "type": "uint256"
        },
        {
          "internalType": "address",
          "name": "",
          "type": "address"
        }
      ],
      "name": "confirmations",
      "outputs": [
        {
          "internalType": "bool",
          "name": "",
          "type": "bool"
        }
      ],
      "stateMutability": "view",
      "type": "function"
    },
    {
      "inputs": [],
      "name": "decimals",
      "outputs": [
        {
          "internalType": "uint8",
          "name": "",
          "type": "uint8"
        }
      ],
      "stateMutability": "view",
      "type": "function"
    },
    {
      "inputs": [
        {
          "internalType": "address",
          "name": "spender",
          "type": "address"
        },
        {
          "internalType": "uint256",
          "name": "subtractedValue",
          "type": "uint256"
        }
      ],
      "name": "decreaseAllowance",
      "outputs": [
        {
          "internalType": "bool",
          "name": "",
          "type": "bool"
        }
      ],
      "stateMutability": "nonpayable",
      "type": "function"
    },
    {
      "inputs": [
        {
          "internalType": "uint256",
          "name": "transactionId",
          "type": "uint256"
        }
      ],
      "name": "executeTransaction",
      "outputs": [],
      "stateMutability": "nonpayable",
      "type": "function"
    },
    {
      "inputs": [
        {
          "internalType": "uint256",
          "name": "",
          "type": "uint256"
        }
      ],
      "name": "founders",
      "outputs": [
        {
          "internalType": "address",
          "name": "",
          "type": "address"
        }
      ],
      "stateMutability": "view",
      "type": "function"
    },
    {
      "inputs": [
        {
          "internalType": "address",
          "name": "holderAddress",
          "type": "address"
        }
      ],
      "name": "getEquityHolderBalance",
      "outputs": [
        {
          "internalType": "uint256",
          "name": "currentBalance",
          "type": "uint256"
        },
        {
          "internalType": "uint256",
          "name": "lockedBalance",
          "type": "uint256"
        },
        {
          "internalType": "uint256",
          "name": "totalBalance",
          "type": "uint256"
        }
      ],
      "stateMutability": "view",
      "type": "function"
    },
    {
      "inputs": [
        {
          "internalType": "bytes32",
          "name": "role",
          "type": "bytes32"
        }
      ],
      "name": "getRoleAdmin",
      "outputs": [
        {
          "internalType": "bytes32",
          "name": "",
          "type": "bytes32"
        }
      ],
      "stateMutability": "view",
      "type": "function"
    },
    {
      "inputs": [
        {
          "internalType": "bytes32",
          "name": "role",
          "type": "bytes32"
        },
        {
          "internalType": "uint256",
          "name": "index",
          "type": "uint256"
        }
      ],
      "name": "getRoleMember",
      "outputs": [
        {
          "internalType": "address",
          "name": "",
          "type": "address"
        }
      ],
      "stateMutability": "view",
      "type": "function"
    },
    {
      "inputs": [
        {
          "internalType": "bytes32",
          "name": "role",
          "type": "bytes32"
        }
      ],
      "name": "getRoleMemberCount",
      "outputs": [
        {
          "internalType": "uint256",
          "name": "",
          "type": "uint256"
        }
      ],
      "stateMutability": "view",
      "type": "function"
    },
    {
      "inputs": [],
      "name": "getTransactionTypes",
      "outputs": [
        {
          "internalType": "string",
          "name": "externalType",
          "type": "string"
        },
        {
          "internalType": "string",
          "name": "newFounderType",
          "type": "string"
        },
        {
          "internalType": "string",
          "name": "destroyCompanyType",
          "type": "string"
        }
      ],
      "stateMutability": "pure",
      "type": "function"
    },
    {
      "inputs": [
        {
          "internalType": "bytes32",
          "name": "role",
          "type": "bytes32"
        },
        {
          "internalType": "address",
          "name": "account",
          "type": "address"
        }
      ],
      "name": "grantRole",
      "outputs": [],
      "stateMutability": "nonpayable",
      "type": "function"
    },
    {
      "inputs": [
        {
          "internalType": "bytes32",
          "name": "role",
          "type": "bytes32"
        },
        {
          "internalType": "address",
          "name": "account",
          "type": "address"
        }
      ],
      "name": "hasRole",
      "outputs": [
        {
          "internalType": "bool",
          "name": "",
          "type": "bool"
        }
      ],
      "stateMutability": "view",
      "type": "function"
    },
    {
      "inputs": [
        {
          "internalType": "address",
          "name": "spender",
          "type": "address"
        },
        {
          "internalType": "uint256",
          "name": "addedValue",
          "type": "uint256"
        }
      ],
      "name": "increaseAllowance",
      "outputs": [
        {
          "internalType": "bool",
          "name": "",
          "type": "bool"
        }
      ],
      "stateMutability": "nonpayable",
      "type": "function"
    },
    {
      "inputs": [
        {
          "internalType": "uint256",
          "name": "transactionId",
          "type": "uint256"
        }
      ],
      "name": "isConfirmed",
      "outputs": [
        {
          "internalType": "bool",
          "name": "",
          "type": "bool"
        }
      ],
      "stateMutability": "view",
      "type": "function"
    },
    {
      "inputs": [
        {
          "internalType": "address",
          "name": "account",
          "type": "address"
        }
      ],
      "name": "isOwner",
      "outputs": [
        {
          "internalType": "bool",
          "name": "",
          "type": "bool"
        }
      ],
      "stateMutability": "view",
      "type": "function"
    },
    {
      "inputs": [],
      "name": "launchVestingSchedule",
      "outputs": [],
      "stateMutability": "nonpayable",
      "type": "function"
    },
    {
      "inputs": [],
      "name": "name",
      "outputs": [
        {
          "internalType": "string",
          "name": "",
          "type": "string"
        }
      ],
      "stateMutability": "view",
      "type": "function"
    },
    {
      "inputs": [],
      "name": "releaseVestedEquity",
      "outputs": [],
      "stateMutability": "nonpayable",
      "type": "function"
    },
    {
      "inputs": [
        {
          "internalType": "bytes32",
          "name": "role",
          "type": "bytes32"
        },
        {
          "internalType": "address",
          "name": "account",
          "type": "address"
        }
      ],
      "name": "renounceRole",
      "outputs": [],
      "stateMutability": "nonpayable",
      "type": "function"
    },
    {
      "inputs": [],
      "name": "resumeContract",
      "outputs": [],
      "stateMutability": "nonpayable",
      "type": "function"
    },
    {
      "inputs": [
        {
          "internalType": "bytes32",
          "name": "role",
          "type": "bytes32"
        },
        {
          "internalType": "address",
          "name": "account",
          "type": "address"
        }
      ],
      "name": "revokeRole",
      "outputs": [],
      "stateMutability": "nonpayable",
      "type": "function"
    },
    {
      "inputs": [],
      "name": "stopContract",
      "outputs": [],
      "stateMutability": "nonpayable",
      "type": "function"
    },
    {
      "inputs": [],
      "name": "stopped",
      "outputs": [
        {
          "internalType": "bool",
          "name": "",
          "type": "bool"
        }
      ],
      "stateMutability": "view",
      "type": "function"
    },
    {
      "inputs": [
        {
          "internalType": "string",
          "name": "txTypeKey",
          "type": "string"
        },
        {
          "internalType": "address",
          "name": "destination",
          "type": "address"
        },
        {
          "internalType": "uint256",
          "name": "value",
          "type": "uint256"
        },
        {
          "internalType": "bytes",
          "name": "data",
          "type": "bytes"
        }
      ],
      "name": "submitTransaction",
      "outputs": [
        {
          "internalType": "uint256",
          "name": "transactionId",
          "type": "uint256"
        }
      ],
      "stateMutability": "nonpayable",
      "type": "function"
    },
    {
      "inputs": [],
      "name": "symbol",
      "outputs": [
        {
          "internalType": "string",
          "name": "",
          "type": "string"
        }
      ],
      "stateMutability": "view",
      "type": "function"
    },
    {
      "inputs": [],
      "name": "totalSupply",
      "outputs": [
        {
          "internalType": "uint256",
          "name": "",
          "type": "uint256"
        }
      ],
      "stateMutability": "view",
      "type": "function"
    },
    {
      "inputs": [
        {
          "internalType": "uint256",
          "name": "",
          "type": "uint256"
        }
      ],
      "name": "transactions",
      "outputs": [
        {
          "internalType": "enum PrivateCompany.TransactionType",
          "name": "txType",
          "type": "uint8"
        },
        {
          "internalType": "address",
          "name": "destination",
          "type": "address"
        },
        {
          "internalType": "uint256",
          "name": "value",
          "type": "uint256"
        },
        {
          "internalType": "bytes",
          "name": "data",
          "type": "bytes"
        },
        {
          "internalType": "bool",
          "name": "executed",
          "type": "bool"
        }
      ],
      "stateMutability": "view",
      "type": "function"
    },
    {
      "inputs": [
        {
          "internalType": "address",
          "name": "recipient",
          "type": "address"
        },
        {
          "internalType": "uint256",
          "name": "amount",
          "type": "uint256"
        }
      ],
      "name": "transfer",
      "outputs": [
        {
          "internalType": "bool",
          "name": "",
          "type": "bool"
        }
      ],
      "stateMutability": "nonpayable",
      "type": "function"
    },
    {
      "inputs": [
        {
          "internalType": "address",
          "name": "sender",
          "type": "address"
        },
        {
          "internalType": "address",
          "name": "recipient",
          "type": "address"
        },
        {
          "internalType": "uint256",
          "name": "amount",
          "type": "uint256"
        }
      ],
      "name": "transferFrom",
      "outputs": [
        {
          "internalType": "bool",
          "name": "",
          "type": "bool"
        }
      ],
      "stateMutability": "nonpayable",
      "type": "function"
    },
    {
      "stateMutability": "payable",
      "type": "receive"
    },
    {
      "inputs": [
        {
          "internalType": "address",
          "name": "holderAddress",
          "type": "address"
        }
      ],
      "name": "vestedEquityAmount",
      "outputs": [],
      "stateMutability": "view",
      "type": "function"
    }
  ],
  "bytecode": "0x60806040526000600d60006101000a81548160ff0219169083151502179055503480156200002c57600080fd5b5060405162004b5438038062004b54833981810160405260408110156200005257600080fd5b81019080805160405193929190846401000000008211156200007357600080fd5b838201915060208201858111156200008a57600080fd5b8251866001820283011164010000000082111715620000a857600080fd5b8083526020830192505050908051906020019080838360005b83811015620000de578082015181840152602081019050620000c1565b50505050905090810190601f1680156200010c5780820380516001836020036101000a031916815260200191505b50604052602001805160405193929190846401000000008211156200013057600080fd5b838201915060208201858111156200014757600080fd5b82518660018202830111640100000000821117156200016557600080fd5b8083526020830192505050908051906020019080838360005b838110156200019b5780820151818401526020810190506200017e565b50505050905090810190601f168015620001c95780820380516001836020036101000a031916815260200191505b50604052505050818181818160039080519060200190620001ec9291906200058e565b508060049080519060200190620002059291906200058e565b506012600560006101000a81548160ff021916908360ff16021790555050506200027460405180807f4f574e4552000000000000000000000000000000000000000000000000000000815250600501905060405180910390203362000366640100000000026401000000009004565b620002f960405180807f4f574e45520000000000000000000000000000000000000000000000000000008152506005019050604051809103902060405180807f4f574e45520000000000000000000000000000000000000000000000000000008152506005019050604051809103902062000385640100000000026401000000009004565b6008339080600181540180825580915050600190039060005260206000200160009091909190916101000a81548173ffffffffffffffffffffffffffffffffffffffff021916908373ffffffffffffffffffffffffffffffffffffffff160217905550505050506200063d565b620003818282620003e9640100000000026401000000009004565b5050565b806006600084815260200190815260200160002060020154837fbd79b86ffe0ab8e8776151514217cd7cacd52c909f66475c3af44e129f0b00ff60405160405180910390a48060066000848152602001908152602001600020600201819055505050565b6200042181600660008581526020019081526020016000206000016200049f6401000000000262003acf179091906401000000009004565b156200049b5762000440620004e0640100000000026401000000009004565b73ffffffffffffffffffffffffffffffffffffffff168173ffffffffffffffffffffffffffffffffffffffff16837f2f8788117e7eff1d82e926ec794901d17c78024a50270940304540a733656f0d60405160405180910390a45b5050565b6000620004d8836000018373ffffffffffffffffffffffffffffffffffffffff16600102620004e8640100000000026401000000009004565b905092915050565b600033905090565b60006200050583836200056b640100000000026401000000009004565b6200056057826000018290806001815401808255809150506001900390600052602060002001600090919091909150558260000180549050836001016000848152602001908152602001600020819055506001905062000565565b600090505b92915050565b600080836001016000848152602001908152602001600020541415905092915050565b828054600181600116156101000203166002900490600052602060002090601f016020900481019282601f10620005d157805160ff191683800117855562000602565b8280016001018555821562000602579182015b8281111562000601578251825591602001919060010190620005e4565b5b50905062000611919062000615565b5090565b6200063a91905b80821115620006365760008160009055506001016200061c565b5090565b90565b614507806200064d6000396000f3fe608060405260043610610230576000357c0100000000000000000000000000000000000000000000000000000000900480638bdabc8f11610135578063c01a8c84116100bd578063d547741f1161008c578063d547741f14611017578063d8e75f6214611072578063dd62ed3e146110ed578063e58378bb14611172578063ee22610b1461119d5761028f565b8063c01a8c8414610f03578063c4bc5da514610f3e578063c99e06c314610f55578063ca15c87314610fc85761028f565b80639ace38c2116101045780639ace38c214610ccd578063a217fddf14610ddb578063a457c2d714610e06578063a9059cbb14610e79578063b500aaed14610eec5761028f565b80638bdabc8f14610b2e5780639010d07c14610b4557806391d1485414610bca57806395d89b4114610c3d5761028f565b8063313ce567116101b8578063476a4b5811610187578063476a4b581461088e57806349546444146109f657806370a0823114610a4757806375f12b2114610aac578063784547a714610adb5761028f565b8063313ce5671461071c5780633411c81c1461074d57806336568abe146107c0578063395093511461081b5761028f565b806323b872dd116101ff57806323b872dd146103d9578063248a9ca31461046c578063281a9956146104bb5780632f2ff15d146106585780632f54bf6e146106b35761028f565b806306fdde0314610294578063095ea7b31461032457806312253a6c1461039757806318160ddd146103ae5761028f565b3661028f57600034111561028d573373ffffffffffffffffffffffffffffffffffffffff167f1b851e1031ef35a238e6c67d0c7991162390df915f70eaf9098dbf0b175a6198346040518082815260200191505060405180910390a25b005b600080fd5b3480156102a057600080fd5b506102a96111d8565b6040518080602001828103825283818151815260200191508051906020019080838360005b838110156102e95780820151818401526020810190506102ce565b50505050905090810190601f1680156103165780820380516001836020036101000a031916815260200191505b509250505060405180910390f35b34801561033057600080fd5b5061037d6004803603604081101561034757600080fd5b81019080803573ffffffffffffffffffffffffffffffffffffffff1690602001909291908035906020019092919050505061127a565b604051808215151515815260200191505060405180910390f35b3480156103a357600080fd5b506103ac611298565b005b3480156103ba57600080fd5b506103c3611349565b6040518082815260200191505060405180910390f35b3480156103e557600080fd5b50610452600480360360608110156103fc57600080fd5b81019080803573ffffffffffffffffffffffffffffffffffffffff169060200190929190803573ffffffffffffffffffffffffffffffffffffffff16906020019092919080359060200190929190505050611353565b604051808215151515815260200191505060405180910390f35b34801561047857600080fd5b506104a56004803603602081101561048f57600080fd5b810190808035906020019092919050505061142c565b6040518082815260200191505060405180910390f35b3480156104c757600080fd5b50610642600480360360808110156104de57600080fd5b81019080803590602001906401000000008111156104fb57600080fd5b82018360208201111561050d57600080fd5b8035906020019184600183028401116401000000008311171561052f57600080fd5b91908080601f016020809104026020016040519081016040528093929190818152602001838380828437600081840152601f19601f820116905080830192505050505050509192919290803573ffffffffffffffffffffffffffffffffffffffff16906020019092919080359060200190929190803590602001906401000000008111156105bc57600080fd5b8201836020820111156105ce57600080fd5b803590602001918460018302840111640100000000831117156105f057600080fd5b91908080601f016020809104026020016040519081016040528093929190818152602001838380828437600081840152601f19601f82011690508083019250505050505050919291929050505061144c565b6040518082815260200191505060405180910390f35b34801561066457600080fd5b506106b16004803603604081101561067b57600080fd5b8101908080359060200190929190803573ffffffffffffffffffffffffffffffffffffffff169060200190929190505050611529565b005b3480156106bf57600080fd5b50610702600480360360208110156106d657600080fd5b81019080803573ffffffffffffffffffffffffffffffffffffffff1690602001909291905050506115b3565b604051808215151515815260200191505060405180910390f35b34801561072857600080fd5b506107316115fb565b604051808260ff1660ff16815260200191505060405180910390f35b34801561075957600080fd5b506107a66004803603604081101561077057600080fd5b8101908080359060200190929190803573ffffffffffffffffffffffffffffffffffffffff169060200190929190505050611612565b604051808215151515815260200191505060405180910390f35b3480156107cc57600080fd5b50610819600480360360408110156107e357600080fd5b8101908080359060200190929190803573ffffffffffffffffffffffffffffffffffffffff169060200190929190505050611641565b005b34801561082757600080fd5b506108746004803603604081101561083e57600080fd5b81019080803573ffffffffffffffffffffffffffffffffffffffff169060200190929190803590602001909291905050506116da565b604051808215151515815260200191505060405180910390f35b34801561089a57600080fd5b506108a361178d565b60405180806020018060200180602001848103845287818151815260200191508051906020019080838360005b838110156108eb5780820151818401526020810190506108d0565b50505050905090810190601f1680156109185780820380516001836020036101000a031916815260200191505b50848103835286818151815260200191508051906020019080838360005b83811015610951578082015181840152602081019050610936565b50505050905090810190601f16801561097e5780820380516001836020036101000a031916815260200191505b50848103825285818151815260200191508051906020019080838360005b838110156109b757808201518184015260208101905061099c565b50505050905090810190601f1680156109e45780820380516001836020036101000a031916815260200191505b50965050505050505060405180910390f35b348015610a0257600080fd5b50610a4560048036036020811015610a1957600080fd5b81019080803573ffffffffffffffffffffffffffffffffffffffff169060200190929190505050611848565b005b348015610a5357600080fd5b50610a9660048036036020811015610a6a57600080fd5b81019080803573ffffffffffffffffffffffffffffffffffffffff169060200190929190505050611855565b6040518082815260200191505060405180910390f35b348015610ab857600080fd5b50610ac161189d565b604051808215151515815260200191505060405180910390f35b348015610ae757600080fd5b50610b1460048036036020811015610afe57600080fd5b81019080803590602001909291905050506118b0565b604051808215151515815260200191505060405180910390f35b348015610b3a57600080fd5b50610b43611998565b005b348015610b5157600080fd5b50610b8860048036036040811015610b6857600080fd5b810190808035906020019092919080359060200190929190505050611c0c565b604051808273ffffffffffffffffffffffffffffffffffffffff1673ffffffffffffffffffffffffffffffffffffffff16815260200191505060405180910390f35b348015610bd657600080fd5b50610c2360048036036040811015610bed57600080fd5b8101908080359060200190929190803573ffffffffffffffffffffffffffffffffffffffff169060200190929190505050611c3e565b604051808215151515815260200191505060405180910390f35b348015610c4957600080fd5b50610c52611c70565b6040518080602001828103825283818151815260200191508051906020019080838360005b83811015610c92578082015181840152602081019050610c77565b50505050905090810190601f168015610cbf5780820380516001836020036101000a031916815260200191505b509250505060405180910390f35b348015610cd957600080fd5b50610d0660048036036020811015610cf057600080fd5b8101908080359060200190929190505050611d12565b60405180866002811115610d1657fe5b60ff1681526020018573ffffffffffffffffffffffffffffffffffffffff1673ffffffffffffffffffffffffffffffffffffffff1681526020018481526020018060200183151515158152602001828103825284818151815260200191508051906020019080838360005b83811015610d9c578082015181840152602081019050610d81565b50505050905090810190601f168015610dc95780820380516001836020036101000a031916815260200191505b50965050505050505060405180910390f35b348015610de757600080fd5b50610df0611e1a565b6040518082815260200191505060405180910390f35b348015610e1257600080fd5b50610e5f60048036036040811015610e2957600080fd5b81019080803573ffffffffffffffffffffffffffffffffffffffff16906020019092919080359060200190929190505050611e22565b604051808215151515815260200191505060405180910390f35b348015610e8557600080fd5b50610ed260048036036040811015610e9c57600080fd5b81019080803573ffffffffffffffffffffffffffffffffffffffff16906020019092919080359060200190929190505050611eef565b604051808215151515815260200191505060405180910390f35b348015610ef857600080fd5b50610f01611f0d565b005b348015610f0f57600080fd5b50610f3c60048036036020811015610f2657600080fd5b81019080803590602001909291905050506120c5565b005b348015610f4a57600080fd5b50610f53612308565b005b348015610f6157600080fd5b50610fa460048036036020811015610f7857600080fd5b81019080803573ffffffffffffffffffffffffffffffffffffffff1690602001909291905050506123b9565b60405180848152602001838152602001828152602001935050505060405180910390f35b348015610fd457600080fd5b5061100160048036036020811015610feb57600080fd5b810190808035906020019092919050505061249d565b6040518082815260200191505060405180910390f35b34801561102357600080fd5b506110706004803603604081101561103a57600080fd5b8101908080359060200190929190803573ffffffffffffffffffffffffffffffffffffffff1690602001909291905050506124c4565b005b34801561107e57600080fd5b506110ab6004803603602081101561109557600080fd5b810190808035906020019092919050505061254e565b604051808273ffffffffffffffffffffffffffffffffffffffff1673ffffffffffffffffffffffffffffffffffffffff16815260200191505060405180910390f35b3480156110f957600080fd5b5061115c6004803603604081101561111057600080fd5b81019080803573ffffffffffffffffffffffffffffffffffffffff169060200190929190803573ffffffffffffffffffffffffffffffffffffffff16906020019092919050505061258a565b6040518082815260200191505060405180910390f35b34801561117e57600080fd5b50611187612611565b6040518082815260200191505060405180910390f35b3480156111a957600080fd5b506111d6600480360360208110156111c057600080fd5b810190808035906020019092919050505061264a565b005b606060038054600181600116156101000203166002900480601f0160208091040260200160405190810160405280929190818152602001828054600181600116156101000203166002900480156112705780601f1061124557610100808354040283529160200191611270565b820191906000526020600020905b81548152906001019060200180831161125357829003601f168201915b5050505050905090565b600061128e611287612a25565b8484612a2d565b6001905092915050565b6112d760405180807f4f574e45520000000000000000000000000000000000000000000000000000008152506005019050604051809103902033611c3e565b61132c576040517f08c379a00000000000000000000000000000000000000000000000000000000081526004018080602001828103825260278152602001806143186027913960400191505060405180910390fd5b6001600d60006101000a81548160ff021916908315150217905550565b6000600254905090565b6000611360848484612c24565b6114218461136c612a25565b61141c856040518060600160405280602881526020016143eb60289139600160008b73ffffffffffffffffffffffffffffffffffffffff1673ffffffffffffffffffffffffffffffffffffffff16815260200190815260200160002060006113d2612a25565b73ffffffffffffffffffffffffffffffffffffffff1673ffffffffffffffffffffffffffffffffffffffff16815260200190815260200160002054612ee59092919063ffffffff16565b612a2d565b600190509392505050565b600060066000838152602001908152602001600020600201549050919050565b6000600d60009054906101000a900460ff161561146857600080fd5b6114a760405180807f4f574e45520000000000000000000000000000000000000000000000000000008152506005019050604051809103902033611c3e565b6114fc576040517f08c379a00000000000000000000000000000000000000000000000000000000081526004018080602001828103825260278152602001806143186027913960400191505060405180910390fd5b600061150786612fa5565b905061151581868686613098565b9150611520826120c5565b50949350505050565b611550600660008481526020019081526020016000206002015461154b612a25565b611c3e565b6115a5576040517f08c379a000000000000000000000000000000000000000000000000000000000815260040180806020018281038252602f8152602001806142a1602f913960400191505060405180910390fd5b6115af8282613252565b5050565b60006115f460405180807f4f574e45520000000000000000000000000000000000000000000000000000008152506005019050604051809103902083611c3e565b9050919050565b6000600560009054906101000a900460ff16905090565b600b6020528160005260406000206020528060005260406000206000915091509054906101000a900460ff1681565b611649612a25565b73ffffffffffffffffffffffffffffffffffffffff168173ffffffffffffffffffffffffffffffffffffffff16146116cc576040517f08c379a000000000000000000000000000000000000000000000000000000000815260040180806020018281038252602f8152602001806144a3602f913960400191505060405180910390fd5b6116d682826132e6565b5050565b60006117836116e7612a25565b8461177e85600160006116f8612a25565b73ffffffffffffffffffffffffffffffffffffffff1673ffffffffffffffffffffffffffffffffffffffff16815260200190815260200160002060008973ffffffffffffffffffffffffffffffffffffffff1673ffffffffffffffffffffffffffffffffffffffff1681526020019081526020016000205461337a90919063ffffffff16565b612a2d565b6001905092915050565b60608060606040518060400160405280600881526020017f45787465726e616c00000000000000000000000000000000000000000000000081525092506040518060400160405280600a81526020017f4e6577466f756e6465720000000000000000000000000000000000000000000081525091506040518060400160405280600e81526020017f44657374726f79436f6d70616e790000000000000000000000000000000000008152509050828282925092509250909192565b61185181613402565b5050565b60008060008373ffffffffffffffffffffffffffffffffffffffff1673ffffffffffffffffffffffffffffffffffffffff168152602001908152602001600020549050919050565b600d60009054906101000a900460ff1681565b6000806000905060008090505b60088054905081101561199057600b60008581526020019081526020016000206000600883815481106118ec57fe5b9060005260206000200160009054906101000a900473ffffffffffffffffffffffffffffffffffffffff1673ffffffffffffffffffffffffffffffffffffffff1673ffffffffffffffffffffffffffffffffffffffff16815260200190815260200160002060009054906101000a900460ff161561196b576001820191505b60088054905082141561198357600192505050611993565b80806001019150506118bd565b50505b919050565b60006119c360646119b5605a61271061355690919063ffffffff16565b6135dc90919063ffffffff16565b90506119da8161271061362690919063ffffffff16565b60078190555060008090505b600880549050811015611c08576000611a0d600880549050846135dc90919063ffffffff16565b90506040518060a001604052804281526020016000815260200182815260200182815260200160088481548110611a4057fe5b9060005260206000200160009054906101000a900473ffffffffffffffffffffffffffffffffffffffff1673ffffffffffffffffffffffffffffffffffffffff168152506009600060088581548110611a9557fe5b9060005260206000200160009054906101000a900473ffffffffffffffffffffffffffffffffffffffff1673ffffffffffffffffffffffffffffffffffffffff1673ffffffffffffffffffffffffffffffffffffffff1681526020019081526020016000206000820151816000015560208201518160010155604082015181600201556060820151816003015560808201518160040160006101000a81548173ffffffffffffffffffffffffffffffffffffffff021916908373ffffffffffffffffffffffffffffffffffffffff16021790555090505060088281548110611b7957fe5b9060005260206000200160009054906101000a900473ffffffffffffffffffffffffffffffffffffffff1673ffffffffffffffffffffffffffffffffffffffff167f6f1aaf30d5ebfa3a12caac074c49b1c2d49c30cc9107817ca035a011ef935937826004604051808381526020018281526020019250505060405180910390a25080806001019150506119e6565b5050565b6000611c36826006600086815260200190815260200160002060000161367090919063ffffffff16565b905092915050565b6000611c68826006600086815260200190815260200160002060000161368b90919063ffffffff16565b905092915050565b606060048054600181600116156101000203166002900480601f016020809104026020016040519081016040528092919081815260200182805460018160011615610100020316600290048015611d085780601f10611cdd57610100808354040283529160200191611d08565b820191906000526020600020905b815481529060010190602001808311611ceb57829003601f168201915b5050505050905090565b600a6020528060005260406000206000915090508060000160009054906101000a900460ff16908060000160019054906101000a900473ffffffffffffffffffffffffffffffffffffffff1690806001015490806002018054600181600116156101000203166002900480601f016020809104026020016040519081016040528092919081815260200182805460018160011615610100020316600290048015611dfd5780601f10611dd257610100808354040283529160200191611dfd565b820191906000526020600020905b815481529060010190602001808311611de057829003601f168201915b5050505050908060030160009054906101000a900460ff16905085565b600060010281565b6000611ee5611e2f612a25565b84611ee08560405180606001604052806025815260200161447e6025913960016000611e59612a25565b73ffffffffffffffffffffffffffffffffffffffff1673ffffffffffffffffffffffffffffffffffffffff16815260200190815260200160002060008a73ffffffffffffffffffffffffffffffffffffffff1673ffffffffffffffffffffffffffffffffffffffff16815260200190815260200160002054612ee59092919063ffffffff16565b612a2d565b6001905092915050565b6000611f03611efc612a25565b8484612c24565b6001905092915050565b611f4c60405180807f4f574e45520000000000000000000000000000000000000000000000000000008152506005019050604051809103902033611c3e565b611fa1576040517f08c379a00000000000000000000000000000000000000000000000000000000081526004018080602001828103825260278152602001806143186027913960400191505060405180910390fd5b6000611fac336136bb565b905060008111612007576040517f08c379a000000000000000000000000000000000000000000000000000000000815260040180806020018281038252603181526020018061436f6031913960400191505060405180910390fd5b6000600960003373ffffffffffffffffffffffffffffffffffffffff1673ffffffffffffffffffffffffffffffffffffffff168152602001908152602001600020905061206182826001015461337a90919063ffffffff16565b816001018190555061207333836137bc565b3373ffffffffffffffffffffffffffffffffffffffff167fdbc1569abc705e4dab3d58f5fffbdd0ff2ec1982e69899a2c699d7a452081fa8836040518082815260200191505060405180910390a25050565b600d60009054906101000a900460ff16156120df57600080fd5b61211e60405180807f4f574e45520000000000000000000000000000000000000000000000000000008152506005019050604051809103902033611c3e565b612173576040517f08c379a00000000000000000000000000000000000000000000000000000000081526004018080602001828103825260278152602001806143186027913960400191505060405180910390fd5b80600073ffffffffffffffffffffffffffffffffffffffff16600a600083815260200190815260200160002060000160019054906101000a900473ffffffffffffffffffffffffffffffffffffffff1673ffffffffffffffffffffffffffffffffffffffff1614156121e457600080fd5b81600b600082815260200190815260200160002060003373ffffffffffffffffffffffffffffffffffffffff1673ffffffffffffffffffffffffffffffffffffffff16815260200190815260200160002060009054906101000a900460ff161561224d57600080fd5b6001600b600085815260200190815260200160002060003373ffffffffffffffffffffffffffffffffffffffff1673ffffffffffffffffffffffffffffffffffffffff16815260200190815260200160002060006101000a81548160ff021916908315150217905550823373ffffffffffffffffffffffffffffffffffffffff167f284a31f48de0c7baa130a1acbe4773f4c39ef557ddcd0b2d6b6ef539af10531b60405160405180910390a36123038361264a565b505050565b61234760405180807f4f574e45520000000000000000000000000000000000000000000000000000008152506005019050604051809103902033611c3e565b61239c576040517f08c379a00000000000000000000000000000000000000000000000000000000081526004018080602001828103825260278152602001806143186027913960400191505060405180910390fd5b6000600d60006101000a81548160ff021916908315150217905550565b6000806000600960008573ffffffffffffffffffffffffffffffffffffffff1673ffffffffffffffffffffffffffffffffffffffff168152602001908152602001600020600101549250600960008573ffffffffffffffffffffffffffffffffffffffff1673ffffffffffffffffffffffffffffffffffffffff168152602001908152602001600020600201549150600960008573ffffffffffffffffffffffffffffffffffffffff1673ffffffffffffffffffffffffffffffffffffffff1681526020019081526020016000206003015490508282829250925092509193909250565b60006124bd60066000848152602001908152602001600020600001613983565b9050919050565b6124eb60066000848152602001908152602001600020600201546124e6612a25565b611c3e565b612540576040517f08c379a000000000000000000000000000000000000000000000000000000000815260040180806020018281038252603081526020018061433f6030913960400191505060405180910390fd5b61254a82826132e6565b5050565b6008818154811061255b57fe5b906000526020600020016000915054906101000a900473ffffffffffffffffffffffffffffffffffffffff1681565b6000600160008473ffffffffffffffffffffffffffffffffffffffff1673ffffffffffffffffffffffffffffffffffffffff16815260200190815260200160002060008373ffffffffffffffffffffffffffffffffffffffff1673ffffffffffffffffffffffffffffffffffffffff16815260200190815260200160002054905092915050565b60405180807f4f574e45520000000000000000000000000000000000000000000000000000008152506005019050604051809103902081565b600d60009054906101000a900460ff161561266457600080fd5b6126a360405180807f4f574e45520000000000000000000000000000000000000000000000000000008152506005019050604051809103902033611c3e565b6126f8576040517f08c379a00000000000000000000000000000000000000000000000000000000081526004018080602001828103825260278152602001806143186027913960400191505060405180910390fd5b80600b600082815260200190815260200160002060003373ffffffffffffffffffffffffffffffffffffffff1673ffffffffffffffffffffffffffffffffffffffff16815260200190815260200160002060009054906101000a900460ff1661276057600080fd5b81600a600082815260200190815260200160002060030160009054906101000a900460ff161561278f57600080fd5b612798836118b0565b15612a20576000600a6000858152602001908152602001600020905060018160030160006101000a81548160ff021916908315150217905550600060028111156127de57fe5b8160000160009054906101000a900460ff1660028111156127fb57fe5b1415612953576128d08160000160019054906101000a900473ffffffffffffffffffffffffffffffffffffffff168260010154836002018054600181600116156101000203166002900480601f0160208091040260200160405190810160405280929190818152602001828054600181600116156101000203166002900480156128c65780601f1061289b576101008083540402835291602001916128c6565b820191906000526020600020905b8154815290600101906020018083116128a957829003601f168201915b5050505050613998565b1561290757837f036687fd39b346666ddc60de603092dbfccf1f0dfef3848eacaf6556f155274960405160405180910390a2612952565b837fe6be4216c17a494bd52020b62596f189bf4552ad23cbae4913db8f0d9693ec9360405160405180910390a260008160030160006101000a81548160ff0219169083151502179055505b5b6001600281111561296057fe5b8160000160009054906101000a900460ff16600281111561297d57fe5b14156129b2576129b08160000160019054906101000a900473ffffffffffffffffffffffffffffffffffffffff166139b5565b505b6002808111156129be57fe5b8160000160009054906101000a900460ff1660028111156129db57fe5b1415612a1e578060000160019054906101000a900473ffffffffffffffffffffffffffffffffffffffff1673ffffffffffffffffffffffffffffffffffffffff16ff5b505b505050565b600033905090565b600073ffffffffffffffffffffffffffffffffffffffff168373ffffffffffffffffffffffffffffffffffffffff161415612ab3576040517f08c379a000000000000000000000000000000000000000000000000000000000815260040180806020018281038252602481526020018061445a6024913960400191505060405180910390fd5b600073ffffffffffffffffffffffffffffffffffffffff168273ffffffffffffffffffffffffffffffffffffffff161415612b39576040517f08c379a00000000000000000000000000000000000000000000000000000000081526004018080602001828103825260228152602001806142d06022913960400191505060405180910390fd5b80600160008573ffffffffffffffffffffffffffffffffffffffff1673ffffffffffffffffffffffffffffffffffffffff16815260200190815260200160002060008473ffffffffffffffffffffffffffffffffffffffff1673ffffffffffffffffffffffffffffffffffffffff168152602001908152602001600020819055508173ffffffffffffffffffffffffffffffffffffffff168373ffffffffffffffffffffffffffffffffffffffff167f8c5be1e5ebec7d5bd14f71427d1e84f3dd0314c0f7b2291e5b200ac8c7c3b925836040518082815260200191505060405180910390a3505050565b600073ffffffffffffffffffffffffffffffffffffffff168373ffffffffffffffffffffffffffffffffffffffff161415612caa576040517f08c379a00000000000000000000000000000000000000000000000000000000081526004018080602001828103825260258152602001806144356025913960400191505060405180910390fd5b600073ffffffffffffffffffffffffffffffffffffffff168273ffffffffffffffffffffffffffffffffffffffff161415612d30576040517f08c379a000000000000000000000000000000000000000000000000000000000815260040180806020018281038252602381526020018061427e6023913960400191505060405180910390fd5b612d3b838383613a61565b612da6816040518060600160405280602681526020016142f2602691396000808773ffffffffffffffffffffffffffffffffffffffff1673ffffffffffffffffffffffffffffffffffffffff16815260200190815260200160002054612ee59092919063ffffffff16565b6000808573ffffffffffffffffffffffffffffffffffffffff1673ffffffffffffffffffffffffffffffffffffffff16815260200190815260200160002081905550612e39816000808573ffffffffffffffffffffffffffffffffffffffff1673ffffffffffffffffffffffffffffffffffffffff1681526020019081526020016000205461337a90919063ffffffff16565b6000808473ffffffffffffffffffffffffffffffffffffffff1673ffffffffffffffffffffffffffffffffffffffff168152602001908152602001600020819055508173ffffffffffffffffffffffffffffffffffffffff168373ffffffffffffffffffffffffffffffffffffffff167fddf252ad1be2c89b69c2b068fc378daa952ba7f163c4a11628f55a4df523b3ef836040518082815260200191505060405180910390a3505050565b6000838311158290612f92576040517f08c379a00000000000000000000000000000000000000000000000000000000081526004018080602001828103825283818151815260200191508051906020019080838360005b83811015612f57578082015181840152602081019050612f3c565b50505050905090810190601f168015612f845780820380516001836020036101000a031916815260200191505b509250505060405180910390fd5b5060008385039050809150509392505050565b600060405180807f45787465726e616c0000000000000000000000000000000000000000000000008152506008019050604051809103902082805190602001201415612ff45760009050613093565b60405180807f4e6577466f756e64657200000000000000000000000000000000000000000000815250600a0190506040518091039020828051906020012014156130415760019050613093565b60405180807f44657374726f79436f6d70616e79000000000000000000000000000000000000815250600e01905060405180910390208280519060200120141561308e5760029050613093565b600080fd5b919050565b600083600073ffffffffffffffffffffffffffffffffffffffff168173ffffffffffffffffffffffffffffffffffffffff1614156130d557600080fd5b600c5491506040518060a001604052808760028111156130f157fe5b81526020018673ffffffffffffffffffffffffffffffffffffffff16815260200185815260200184815260200160001515815250600a600084815260200190815260200160002060008201518160000160006101000a81548160ff0219169083600281111561315c57fe5b021790555060208201518160000160016101000a81548173ffffffffffffffffffffffffffffffffffffffff021916908373ffffffffffffffffffffffffffffffffffffffff1602179055506040820151816001015560608201518160020190805190602001906131ce929190614171565b5060808201518160030160006101000a81548160ff0219169083151502179055509050506001600c60008282540192505081905550817fdebc10a4c5b3a068a33d09a2e738b39000cf7a983ba8ade2c06798ba8eb28573876040518082600281111561323657fe5b60ff16815260200191505060405180910390a250949350505050565b61327a8160066000858152602001908152602001600020600001613acf90919063ffffffff16565b156132e257613287612a25565b73ffffffffffffffffffffffffffffffffffffffff168173ffffffffffffffffffffffffffffffffffffffff16837f2f8788117e7eff1d82e926ec794901d17c78024a50270940304540a733656f0d60405160405180910390a45b5050565b61330e8160066000858152602001908152602001600020600001613aff90919063ffffffff16565b156133765761331b612a25565b73ffffffffffffffffffffffffffffffffffffffff168173ffffffffffffffffffffffffffffffffffffffff16837ff6391f5c32d9c69d2a47ea670b442974b53935d1edc7fd64eb21e047a839171b60405160405180910390a45b5050565b6000808284019050838110156133f8576040517f08c379a000000000000000000000000000000000000000000000000000000000815260040180806020018281038252601b8152602001807f536166654d6174683a206164646974696f6e206f766572666c6f77000000000081525060200191505060405180910390fd5b8091505092915050565b600061340c6141f1565b600960008473ffffffffffffffffffffffffffffffffffffffff1673ffffffffffffffffffffffffffffffffffffffff1681526020019081526020016000206040518060a0016040529081600082015481526020016001820154815260200160028201548152602001600382015481526020016004820160009054906101000a900473ffffffffffffffffffffffffffffffffffffffff1673ffffffffffffffffffffffffffffffffffffffff1673ffffffffffffffffffffffffffffffffffffffff1681525050905060008160600151905060008260000151905060006134fe600483613b2f90919063ffffffff16565b90508042106135135782945050505050613551565b61354a8161353c61352d854261362690919063ffffffff16565b8661355690919063ffffffff16565b6135dc90919063ffffffff16565b9450505050505b919050565b60008083141561356957600090506135d6565b600082840290508284828161357a57fe5b04146135d1576040517f08c379a00000000000000000000000000000000000000000000000000000000081526004018080602001828103825260218152602001806143ca6021913960400191505060405180910390fd5b809150505b92915050565b600061361e83836040518060400160405280601a81526020017f536166654d6174683a206469766973696f6e206279207a65726f000000000000815250613ba6565b905092915050565b600061366883836040518060400160405280601e81526020017f536166654d6174683a207375627472616374696f6e206f766572666c6f770000815250612ee5565b905092915050565b600061367f8360000183613c6c565b60019004905092915050565b60006136b3836000018373ffffffffffffffffffffffffffffffffffffffff16600102613cef565b905092915050565b60006136c56141f1565b600960008473ffffffffffffffffffffffffffffffffffffffff1673ffffffffffffffffffffffffffffffffffffffff1681526020019081526020016000206040518060a0016040529081600082015481526020016001820154815260200160028201548152602001600382015481526020016004820160009054906101000a900473ffffffffffffffffffffffffffffffffffffffff1673ffffffffffffffffffffffffffffffffffffffff1673ffffffffffffffffffffffffffffffffffffffff168152505090506000816020015190506137b3816137a586613402565b61362690919063ffffffff16565b92505050919050565b600073ffffffffffffffffffffffffffffffffffffffff168273ffffffffffffffffffffffffffffffffffffffff16141561385f576040517f08c379a000000000000000000000000000000000000000000000000000000000815260040180806020018281038252601f8152602001807f45524332303a206d696e7420746f20746865207a65726f20616464726573730081525060200191505060405180910390fd5b61386b60008383613a61565b6138808160025461337a90919063ffffffff16565b6002819055506138d7816000808573ffffffffffffffffffffffffffffffffffffffff1673ffffffffffffffffffffffffffffffffffffffff1681526020019081526020016000205461337a90919063ffffffff16565b6000808473ffffffffffffffffffffffffffffffffffffffff1673ffffffffffffffffffffffffffffffffffffffff168152602001908152602001600020819055508173ffffffffffffffffffffffffffffffffffffffff16600073ffffffffffffffffffffffffffffffffffffffff167fddf252ad1be2c89b69c2b068fc378daa952ba7f163c4a11628f55a4df523b3ef836040518082815260200191505060405180910390a35050565b600061399182600001613d12565b9050919050565b60008060008084516020860187895af19050809150509392505050565b60008073ffffffffffffffffffffffffffffffffffffffff168273ffffffffffffffffffffffffffffffffffffffff1614156139f057600080fd5b6139f982613d23565b6008829080600181540180825580915050600190039060005260206000200160009091909190916101000a81548173ffffffffffffffffffffffffffffffffffffffff021916908373ffffffffffffffffffffffffffffffffffffffff160217905550919050565b613a6c838383613dc3565b613a75826115b3565b613aca576040517f08c379a000000000000000000000000000000000000000000000000000000000815260040180806020018281038252602a8152602001806143a0602a913960400191505060405180910390fd5b505050565b6000613af7836000018373ffffffffffffffffffffffffffffffffffffffff16600102613dc8565b905092915050565b6000613b27836000018373ffffffffffffffffffffffffffffffffffffffff16600102613e38565b905092915050565b600080600080613b4a620151808781613b4457fe5b04613f20565b92509250925084830192506000613b618484613ff4565b905080821115613b6f578091505b620151808781613b7b57fe5b0662015180613b8b86868661407f565b0201945086851015613b9c57600080fd5b5050505092915050565b60008083118290613c52576040517f08c379a00000000000000000000000000000000000000000000000000000000081526004018080602001828103825283818151815260200191508051906020019080838360005b83811015613c17578082015181840152602081019050613bfc565b50505050905090810190601f168015613c445780820380516001836020036101000a031916815260200191505b509250505060405180910390fd5b506000838581613c5e57fe5b049050809150509392505050565b600081836000018054905011613ccd576040517f08c379a000000000000000000000000000000000000000000000000000000000815260040180806020018281038252602281526020018061425c6022913960400191505060405180910390fd5b826000018281548110613cdc57fe5b9060005260206000200154905092915050565b600080836001016000848152602001908152602001600020541415905092915050565b600081600001805490509050919050565b613d2c336115b3565b613d81576040517f08c379a00000000000000000000000000000000000000000000000000000000081526004018080602001828103825260228152602001806144136022913960400191505060405180910390fd5b613dc060405180807f4f574e45520000000000000000000000000000000000000000000000000000008152506005019050604051809103902082611529565b50565b505050565b6000613dd48383613cef565b613e2d578260000182908060018154018082558091505060019003906000526020600020016000909190919091505582600001805490508360010160008481526020019081526020016000208190555060019050613e32565b600090505b92915050565b60008083600101600084815260200190815260200160002054905060008114613f145760006001820390506000600186600001805490500390506000866000018281548110613e8357fe5b9060005260206000200154905080876000018481548110613ea057fe5b9060005260206000200181905550600183018760010160008381526020019081526020016000208190555086600001805480613ed857fe5b60019003818190600052602060002001600090559055866001016000878152602001908152602001600020600090556001945050505050613f1a565b60009150505b92915050565b600080600080849050600062253d8c62010bd98301019050600062023ab18260040281613f4957fe5b059050600460038262023ab1020181613f5e57fe5b0582039150600062164b0960018401610fa00281613f7857fe5b059050601f6004826105b50281613f8b57fe5b058403019250600061098f8460500281613fa157fe5b059050600060508261098f0281613fb457fe5b0585039050600b8281613fc357fe5b05945084600c0260028301039150848360318603606402010192508298508197508096505050505050509193909250565b600060018214806140055750600382145b806140105750600582145b8061401b5750600782145b806140265750600882145b806140315750600a82145b8061403c5750600c82145b1561404a57601f9050614079565b6002821461405b57601e9050614078565b6140648361412e565b61406f57601c614072565b601d5b60ff1690505b5b92915050565b60006107b284101561409057600080fd5b600084905060008490506000849050600062253d8c60046064600c600e8703816140b657fe5b05611324880101816140c457fe5b05600302816140cf57fe5b05600c80600c600e8803816140e057fe5b0502600287030361016f02816140f257fe5b056004600c600e88038161410257fe5b056112c08901016105b5028161411457fe5b05617d4b8603010103039050809450505050509392505050565b6000806004838161413b57fe5b06148015614154575060006064838161415057fe5b0614155b8061416a57506000610190838161416757fe5b06145b9050919050565b828054600181600116156101000203166002900490600052602060002090601f016020900481019282601f106141b257805160ff19168380011785556141e0565b828001600101855582156141e0579182015b828111156141df5782518255916020019190600101906141c4565b5b5090506141ed9190614236565b5090565b6040518060a0016040528060008152602001600081526020016000815260200160008152602001600073ffffffffffffffffffffffffffffffffffffffff1681525090565b61425891905b8082111561425457600081600090555060010161423c565b5090565b9056fe456e756d657261626c655365743a20696e646578206f7574206f6620626f756e647345524332303a207472616e7366657220746f20746865207a65726f2061646472657373416363657373436f6e74726f6c3a2073656e646572206d75737420626520616e2061646d696e20746f206772616e7445524332303a20617070726f766520746f20746865207a65726f206164647265737345524332303a207472616e7366657220616d6f756e7420657863656564732062616c616e636550726976617465436f6d70616e793a2073656e646572206973206e6f74206120666f756e646572416363657373436f6e74726f6c3a2073656e646572206d75737420626520616e2061646d696e20746f207265766f6b6550726976617465436f6d70616e793a206e6f20746f6b656e7320746f2072656c6561736520617420746869732074696d654552433230507269766174653a20746f6b656e207472616e7366657220746f206f776e6572206f6e6c79536166654d6174683a206d756c7469706c69636174696f6e206f766572666c6f7745524332303a207472616e7366657220616d6f756e74206578636565647320616c6c6f77616e63654552433230507269766174653a205265737472696374656420746f206f776e65727345524332303a207472616e736665722066726f6d20746865207a65726f206164647265737345524332303a20617070726f76652066726f6d20746865207a65726f206164647265737345524332303a2064656372656173656420616c6c6f77616e63652062656c6f77207a65726f416363657373436f6e74726f6c3a2063616e206f6e6c792072656e6f756e636520726f6c657320666f722073656c66a264697066735822122078451d27c5e3b02b4d90f6cc92e0d38e945274742ebab1df7302c40ded0492c564736f6c63430006020033",
  "source": "// SPDX-License-Identifier: MIT\n\npragma solidity >=0.6.0 <0.8.0;\n\nimport \"./PrivateCompany.sol\";\n\n// mock class using PrivateCompany\ncontract PrivateCompanyMock is PrivateCompany {\n    constructor(string memory _companyName, string memory _token)\n        public\n        PrivateCompany(_companyName, _token)\n    {}\n\n    function vestedEquityAmount(address holderAddress) external view {\n        _vestedEquityAmount(holderAddress);\n    }\n}\n",
  "sourcePath": "/Users/konstantin/dev/consensys/final-project/startup-3.0/contracts/PrivateCompanyMock.sol",
  "compiler": {
    "name": "solc",
    "version": "0.6.2+commit.bacdbe57.Emscripten.clang"
  },
  "schemaVersion": "3.2.5",
  "updatedAt": "2020-11-28T02:02:18.237Z",
  "devdoc": {
    "methods": {
      "allowance(address,address)": {
        "details": "See {IERC20-allowance}."
      },
      "approve(address,uint256)": {
        "details": "See {IERC20-approve}.     * Requirements:     * - `spender` cannot be the zero address."
      },
      "balanceOf(address)": {
        "details": "See {IERC20-balanceOf}."
      },
      "confirmTransaction(uint256)": {
        "details": "Allows a founder to confirm a transaction.",
        "params": {
          "transactionId": "Transaction ID."
        }
      },
      "decimals()": {
        "details": "Returns the number of decimals used to get its user representation. For example, if `decimals` equals `2`, a balance of `505` tokens should be displayed to a user as `5,05` (`505 / 10 ** 2`).     * Tokens usually opt for a value of 18, imitating the relationship between Ether and Wei. This is the value {ERC20} uses, unless {_setupDecimals} is called.     * NOTE: This information is only used for _display_ purposes: it in no way affects any of the arithmetic of the contract, including {IERC20-balanceOf} and {IERC20-transfer}."
      },
      "decreaseAllowance(address,uint256)": {
        "details": "Atomically decreases the allowance granted to `spender` by the caller.     * This is an alternative to {approve} that can be used as a mitigation for problems described in {IERC20-approve}.     * Emits an {Approval} event indicating the updated allowance.     * Requirements:     * - `spender` cannot be the zero address. - `spender` must have allowance for the caller of at least `subtractedValue`."
      },
      "executeTransaction(uint256)": {
        "details": "Allows anyone to execute a confirmed transaction.",
        "params": {
          "transactionId": "Transaction ID."
        }
      },
      "getEquityHolderBalance(address)": {
        "params": {
          "holderAddress": "address of equity holder."
        }
      },
      "getRoleAdmin(bytes32)": {
        "details": "Returns the admin role that controls `role`. See {grantRole} and {revokeRole}.     * To change a role's admin, use {_setRoleAdmin}."
      },
      "getRoleMember(bytes32,uint256)": {
        "details": "Returns one of the accounts that have `role`. `index` must be a value between 0 and {getRoleMemberCount}, non-inclusive.     * Role bearers are not sorted in any particular way, and their ordering may change at any point.     * WARNING: When using {getRoleMember} and {getRoleMemberCount}, make sure you perform all queries on the same block. See the following https://forum.openzeppelin.com/t/iterating-over-elements-on-enumerableset-in-openzeppelin-contracts/2296[forum post] for more information."
      },
      "getRoleMemberCount(bytes32)": {
        "details": "Returns the number of accounts that have `role`. Can be used together with {getRoleMember} to enumerate all bearers of a role."
      },
      "grantRole(bytes32,address)": {
        "details": "Grants `role` to `account`.     * If `account` had not been already granted `role`, emits a {RoleGranted} event.     * Requirements:     * - the caller must have ``role``'s admin role."
      },
      "hasRole(bytes32,address)": {
        "details": "Returns `true` if `account` has been granted `role`."
      },
      "increaseAllowance(address,uint256)": {
        "details": "Atomically increases the allowance granted to `spender` by the caller.     * This is an alternative to {approve} that can be used as a mitigation for problems described in {IERC20-approve}.     * Emits an {Approval} event indicating the updated allowance.     * Requirements:     * - `spender` cannot be the zero address."
      },
      "isConfirmed(uint256)": {
        "details": "Returns the confirmation status of a transaction.",
        "params": {
          "transactionId": "Transaction ID."
        },
        "returns": {
          "_0": "Confirmation status."
        }
      },
      "isOwner(address)": {
        "details": "Return `true` if the account belongs to the owner role."
      },
      "name()": {
        "details": "Returns the name of the token."
      },
      "renounceRole(bytes32,address)": {
        "details": "Revokes `role` from the calling account.     * Roles are often managed via {grantRole} and {revokeRole}: this function's purpose is to provide a mechanism for accounts to lose their privileges if they are compromised (such as when a trusted device is misplaced).     * If the calling account had been granted `role`, emits a {RoleRevoked} event.     * Requirements:     * - the caller must be `account`."
      },
      "revokeRole(bytes32,address)": {
        "details": "Revokes `role` from `account`.     * If `account` had been granted `role`, emits a {RoleRevoked} event.     * Requirements:     * - the caller must have ``role``'s admin role."
      },
      "stopContract()": {
        "details": "Emergency only! Block transaction submition/confirmation/execution"
      },
      "submitTransaction(string,address,uint256,bytes)": {
        "details": "Allows a founder to submit and confirm a transaction.",
        "params": {
          "data": "Transaction data payload.",
          "destination": "Transaction target address.",
          "txTypeKey": "Transaction type key string.",
          "value": "Transaction ether value."
        }
      },
      "symbol()": {
        "details": "Returns the symbol of the token, usually a shorter version of the name."
      },
      "totalSupply()": {
        "details": "See {IERC20-totalSupply}."
      },
      "transfer(address,uint256)": {
        "details": "See {IERC20-transfer}.     * Requirements:     * - `recipient` cannot be the zero address. - the caller must have a balance of at least `amount`."
      },
      "transferFrom(address,address,uint256)": {
        "details": "See {IERC20-transferFrom}.     * Emits an {Approval} event indicating the updated allowance. This is not required by the EIP. See the note at the beginning of {ERC20};     * Requirements: - `sender` and `recipient` cannot be the zero address. - `sender` must have a balance of at least `amount`. - the caller must have allowance for ``sender``'s tokens of at least `amount`."
      }
    }
  },
  "userdoc": {
    "methods": {}
  }
}