{
  "contractName": "PrivateCompany",
  "abi": [
    {
      "inputs": [
        {
          "internalType": "string",
          "name": "_companyName",
          "type": "string"
        },
        {
          "internalType": "string",
          "name": "_token",
          "type": "string"
        }
      ],
      "stateMutability": "payable",
      "type": "constructor"
    },
    {
      "anonymous": false,
      "inputs": [
        {
          "indexed": true,
          "internalType": "address",
          "name": "owner",
          "type": "address"
        },
        {
          "indexed": true,
          "internalType": "address",
          "name": "spender",
          "type": "address"
        },
        {
          "indexed": false,
          "internalType": "uint256",
          "name": "value",
          "type": "uint256"
        }
      ],
      "name": "Approval",
      "type": "event"
    },
    {
      "anonymous": false,
      "inputs": [],
      "name": "LogContractResume",
      "type": "event"
    },
    {
      "anonymous": false,
      "inputs": [],
      "name": "LogContractStopped",
      "type": "event"
    },
    {
      "anonymous": false,
      "inputs": [
        {
          "indexed": true,
          "internalType": "address",
          "name": "sender",
          "type": "address"
        },
        {
          "indexed": false,
          "internalType": "uint256",
          "name": "value",
          "type": "uint256"
        }
      ],
      "name": "LogDeposit",
      "type": "event"
    },
    {
      "anonymous": false,
      "inputs": [
        {
          "indexed": true,
          "internalType": "address",
          "name": "founderAddress",
          "type": "address"
        },
        {
          "indexed": false,
          "internalType": "uint256",
          "name": "equityAmount",
          "type": "uint256"
        },
        {
          "indexed": false,
          "internalType": "uint256",
          "name": "vestingTime",
          "type": "uint256"
        }
      ],
      "name": "LogFounderEquityDistribution",
      "type": "event"
    },
    {
      "anonymous": false,
      "inputs": [
        {
          "indexed": true,
          "internalType": "address",
          "name": "founderAddress",
          "type": "address"
        },
        {
          "indexed": false,
          "internalType": "uint256",
          "name": "equityAmount",
          "type": "uint256"
        }
      ],
      "name": "LogReleasedEquityForHolder",
      "type": "event"
    },
    {
      "anonymous": false,
      "inputs": [
        {
          "indexed": true,
          "internalType": "address",
          "name": "sender",
          "type": "address"
        },
        {
          "indexed": true,
          "internalType": "uint256",
          "name": "transactionId",
          "type": "uint256"
        }
      ],
      "name": "LogTransactionConfirmation",
      "type": "event"
    },
    {
      "anonymous": false,
      "inputs": [
        {
          "indexed": true,
          "internalType": "uint256",
          "name": "transactionId",
          "type": "uint256"
        }
      ],
      "name": "LogTransactionExecution",
      "type": "event"
    },
    {
      "anonymous": false,
      "inputs": [
        {
          "indexed": true,
          "internalType": "uint256",
          "name": "transactionId",
          "type": "uint256"
        }
      ],
      "name": "LogTransactionExecutionFailure",
      "type": "event"
    },
    {
      "anonymous": false,
      "inputs": [
        {
          "indexed": false,
          "internalType": "enum PrivateCompany.TransactionType",
          "name": "txType",
          "type": "uint8"
        },
        {
          "indexed": true,
          "internalType": "uint256",
          "name": "transactionId",
          "type": "uint256"
        }
      ],
      "name": "LogTransactionSubmission",
      "type": "event"
    },
    {
      "anonymous": false,
      "inputs": [
        {
          "indexed": true,
          "internalType": "bytes32",
          "name": "role",
          "type": "bytes32"
        },
        {
          "indexed": true,
          "internalType": "bytes32",
          "name": "previousAdminRole",
          "type": "bytes32"
        },
        {
          "indexed": true,
          "internalType": "bytes32",
          "name": "newAdminRole",
          "type": "bytes32"
        }
      ],
      "name": "RoleAdminChanged",
      "type": "event"
    },
    {
      "anonymous": false,
      "inputs": [
        {
          "indexed": true,
          "internalType": "bytes32",
          "name": "role",
          "type": "bytes32"
        },
        {
          "indexed": true,
          "internalType": "address",
          "name": "account",
          "type": "address"
        },
        {
          "indexed": true,
          "internalType": "address",
          "name": "sender",
          "type": "address"
        }
      ],
      "name": "RoleGranted",
      "type": "event"
    },
    {
      "anonymous": false,
      "inputs": [
        {
          "indexed": true,
          "internalType": "bytes32",
          "name": "role",
          "type": "bytes32"
        },
        {
          "indexed": true,
          "internalType": "address",
          "name": "account",
          "type": "address"
        },
        {
          "indexed": true,
          "internalType": "address",
          "name": "sender",
          "type": "address"
        }
      ],
      "name": "RoleRevoked",
      "type": "event"
    },
    {
      "anonymous": false,
      "inputs": [
        {
          "indexed": true,
          "internalType": "address",
          "name": "from",
          "type": "address"
        },
        {
          "indexed": true,
          "internalType": "address",
          "name": "to",
          "type": "address"
        },
        {
          "indexed": false,
          "internalType": "uint256",
          "name": "value",
          "type": "uint256"
        }
      ],
      "name": "Transfer",
      "type": "event"
    },
    {
      "inputs": [],
      "name": "DEFAULT_ADMIN_ROLE",
      "outputs": [
        {
          "internalType": "bytes32",
          "name": "",
          "type": "bytes32"
        }
      ],
      "stateMutability": "view",
      "type": "function"
    },
    {
      "inputs": [],
      "name": "OWNER_ROLE",
      "outputs": [
        {
          "internalType": "bytes32",
          "name": "",
          "type": "bytes32"
        }
      ],
      "stateMutability": "view",
      "type": "function"
    },
    {
      "inputs": [
        {
          "internalType": "address",
          "name": "owner",
          "type": "address"
        },
        {
          "internalType": "address",
          "name": "spender",
          "type": "address"
        }
      ],
      "name": "allowance",
      "outputs": [
        {
          "internalType": "uint256",
          "name": "",
          "type": "uint256"
        }
      ],
      "stateMutability": "view",
      "type": "function"
    },
    {
      "inputs": [
        {
          "internalType": "address",
          "name": "spender",
          "type": "address"
        },
        {
          "internalType": "uint256",
          "name": "amount",
          "type": "uint256"
        }
      ],
      "name": "approve",
      "outputs": [
        {
          "internalType": "bool",
          "name": "",
          "type": "bool"
        }
      ],
      "stateMutability": "nonpayable",
      "type": "function"
    },
    {
      "inputs": [
        {
          "internalType": "address",
          "name": "account",
          "type": "address"
        }
      ],
      "name": "balanceOf",
      "outputs": [
        {
          "internalType": "uint256",
          "name": "",
          "type": "uint256"
        }
      ],
      "stateMutability": "view",
      "type": "function"
    },
    {
      "inputs": [
        {
          "internalType": "uint256",
          "name": "",
          "type": "uint256"
        },
        {
          "internalType": "address",
          "name": "",
          "type": "address"
        }
      ],
      "name": "confirmations",
      "outputs": [
        {
          "internalType": "bool",
          "name": "",
          "type": "bool"
        }
      ],
      "stateMutability": "view",
      "type": "function"
    },
    {
      "inputs": [],
      "name": "decimals",
      "outputs": [
        {
          "internalType": "uint8",
          "name": "",
          "type": "uint8"
        }
      ],
      "stateMutability": "view",
      "type": "function"
    },
    {
      "inputs": [
        {
          "internalType": "address",
          "name": "spender",
          "type": "address"
        },
        {
          "internalType": "uint256",
          "name": "subtractedValue",
          "type": "uint256"
        }
      ],
      "name": "decreaseAllowance",
      "outputs": [
        {
          "internalType": "bool",
          "name": "",
          "type": "bool"
        }
      ],
      "stateMutability": "nonpayable",
      "type": "function"
    },
    {
      "inputs": [
        {
          "internalType": "uint256",
          "name": "",
          "type": "uint256"
        }
      ],
      "name": "founders",
      "outputs": [
        {
          "internalType": "address",
          "name": "",
          "type": "address"
        }
      ],
      "stateMutability": "view",
      "type": "function"
    },
    {
      "inputs": [
        {
          "internalType": "bytes32",
          "name": "role",
          "type": "bytes32"
        }
      ],
      "name": "getRoleAdmin",
      "outputs": [
        {
          "internalType": "bytes32",
          "name": "",
          "type": "bytes32"
        }
      ],
      "stateMutability": "view",
      "type": "function"
    },
    {
      "inputs": [
        {
          "internalType": "bytes32",
          "name": "role",
          "type": "bytes32"
        },
        {
          "internalType": "uint256",
          "name": "index",
          "type": "uint256"
        }
      ],
      "name": "getRoleMember",
      "outputs": [
        {
          "internalType": "address",
          "name": "",
          "type": "address"
        }
      ],
      "stateMutability": "view",
      "type": "function"
    },
    {
      "inputs": [
        {
          "internalType": "bytes32",
          "name": "role",
          "type": "bytes32"
        }
      ],
      "name": "getRoleMemberCount",
      "outputs": [
        {
          "internalType": "uint256",
          "name": "",
          "type": "uint256"
        }
      ],
      "stateMutability": "view",
      "type": "function"
    },
    {
      "inputs": [
        {
          "internalType": "bytes32",
          "name": "role",
          "type": "bytes32"
        },
        {
          "internalType": "address",
          "name": "account",
          "type": "address"
        }
      ],
      "name": "grantRole",
      "outputs": [],
      "stateMutability": "nonpayable",
      "type": "function"
    },
    {
      "inputs": [
        {
          "internalType": "bytes32",
          "name": "role",
          "type": "bytes32"
        },
        {
          "internalType": "address",
          "name": "account",
          "type": "address"
        }
      ],
      "name": "hasRole",
      "outputs": [
        {
          "internalType": "bool",
          "name": "",
          "type": "bool"
        }
      ],
      "stateMutability": "view",
      "type": "function"
    },
    {
      "inputs": [
        {
          "internalType": "address",
          "name": "spender",
          "type": "address"
        },
        {
          "internalType": "uint256",
          "name": "addedValue",
          "type": "uint256"
        }
      ],
      "name": "increaseAllowance",
      "outputs": [
        {
          "internalType": "bool",
          "name": "",
          "type": "bool"
        }
      ],
      "stateMutability": "nonpayable",
      "type": "function"
    },
    {
      "inputs": [
        {
          "internalType": "address",
          "name": "account",
          "type": "address"
        }
      ],
      "name": "isOwner",
      "outputs": [
        {
          "internalType": "bool",
          "name": "",
          "type": "bool"
        }
      ],
      "stateMutability": "view",
      "type": "function"
    },
    {
      "inputs": [],
      "name": "name",
      "outputs": [
        {
          "internalType": "string",
          "name": "",
          "type": "string"
        }
      ],
      "stateMutability": "view",
      "type": "function"
    },
    {
      "inputs": [
        {
          "internalType": "bytes32",
          "name": "role",
          "type": "bytes32"
        },
        {
          "internalType": "address",
          "name": "account",
          "type": "address"
        }
      ],
      "name": "renounceRole",
      "outputs": [],
      "stateMutability": "nonpayable",
      "type": "function"
    },
    {
      "inputs": [
        {
          "internalType": "bytes32",
          "name": "role",
          "type": "bytes32"
        },
        {
          "internalType": "address",
          "name": "account",
          "type": "address"
        }
      ],
      "name": "revokeRole",
      "outputs": [],
      "stateMutability": "nonpayable",
      "type": "function"
    },
    {
      "inputs": [],
      "name": "stopped",
      "outputs": [
        {
          "internalType": "bool",
          "name": "",
          "type": "bool"
        }
      ],
      "stateMutability": "view",
      "type": "function"
    },
    {
      "inputs": [],
      "name": "symbol",
      "outputs": [
        {
          "internalType": "string",
          "name": "",
          "type": "string"
        }
      ],
      "stateMutability": "view",
      "type": "function"
    },
    {
      "inputs": [],
      "name": "totalSupply",
      "outputs": [
        {
          "internalType": "uint256",
          "name": "",
          "type": "uint256"
        }
      ],
      "stateMutability": "view",
      "type": "function"
    },
    {
      "inputs": [],
      "name": "transactionCount",
      "outputs": [
        {
          "internalType": "uint256",
          "name": "",
          "type": "uint256"
        }
      ],
      "stateMutability": "view",
      "type": "function"
    },
    {
      "inputs": [
        {
          "internalType": "uint256",
          "name": "",
          "type": "uint256"
        }
      ],
      "name": "transactions",
      "outputs": [
        {
          "internalType": "enum PrivateCompany.TransactionType",
          "name": "txType",
          "type": "uint8"
        },
        {
          "internalType": "address",
          "name": "destination",
          "type": "address"
        },
        {
          "internalType": "uint256",
          "name": "value",
          "type": "uint256"
        },
        {
          "internalType": "bytes",
          "name": "data",
          "type": "bytes"
        },
        {
          "internalType": "bool",
          "name": "exist",
          "type": "bool"
        },
        {
          "internalType": "bool",
          "name": "executed",
          "type": "bool"
        }
      ],
      "stateMutability": "view",
      "type": "function"
    },
    {
      "inputs": [
        {
          "internalType": "address",
          "name": "recipient",
          "type": "address"
        },
        {
          "internalType": "uint256",
          "name": "amount",
          "type": "uint256"
        }
      ],
      "name": "transfer",
      "outputs": [
        {
          "internalType": "bool",
          "name": "",
          "type": "bool"
        }
      ],
      "stateMutability": "nonpayable",
      "type": "function"
    },
    {
      "inputs": [
        {
          "internalType": "address",
          "name": "sender",
          "type": "address"
        },
        {
          "internalType": "address",
          "name": "recipient",
          "type": "address"
        },
        {
          "internalType": "uint256",
          "name": "amount",
          "type": "uint256"
        }
      ],
      "name": "transferFrom",
      "outputs": [
        {
          "internalType": "bool",
          "name": "",
          "type": "bool"
        }
      ],
      "stateMutability": "nonpayable",
      "type": "function"
    },
    {
      "stateMutability": "payable",
      "type": "receive"
    },
    {
      "inputs": [],
      "name": "stopContract",
      "outputs": [],
      "stateMutability": "nonpayable",
      "type": "function"
    },
    {
      "inputs": [],
      "name": "resumeContract",
      "outputs": [],
      "stateMutability": "nonpayable",
      "type": "function"
    },
    {
      "inputs": [],
      "name": "getTransactionTypes",
      "outputs": [
        {
          "internalType": "string",
          "name": "externalType",
          "type": "string"
        },
        {
          "internalType": "string",
          "name": "newFounderType",
          "type": "string"
        },
        {
          "internalType": "string",
          "name": "launchVestingScheduleType",
          "type": "string"
        },
        {
          "internalType": "string",
          "name": "destroyCompanyType",
          "type": "string"
        }
      ],
      "stateMutability": "view",
      "type": "function"
    },
    {
      "inputs": [
        {
          "internalType": "uint256",
          "name": "transactionId",
          "type": "uint256"
        }
      ],
      "name": "getTransactionDetails",
      "outputs": [
        {
          "internalType": "bool",
          "name": "isConfirmedByMe",
          "type": "bool"
        },
        {
          "internalType": "bool",
          "name": "isExecuted",
          "type": "bool"
        },
        {
          "internalType": "enum PrivateCompany.TransactionType",
          "name": "txType",
          "type": "uint8"
        }
      ],
      "stateMutability": "view",
      "type": "function"
    },
    {
      "inputs": [
        {
          "internalType": "address",
          "name": "holderAddress",
          "type": "address"
        }
      ],
      "name": "getEquityHolderBalance",
      "outputs": [
        {
          "internalType": "uint256",
          "name": "currentBalance",
          "type": "uint256"
        },
        {
          "internalType": "uint256",
          "name": "lockedBalance",
          "type": "uint256"
        },
        {
          "internalType": "uint256",
          "name": "totalBalance",
          "type": "uint256"
        }
      ],
      "stateMutability": "view",
      "type": "function"
    },
    {
      "inputs": [],
      "name": "releaseVestedEquity",
      "outputs": [],
      "stateMutability": "nonpayable",
      "type": "function"
    },
    {
      "inputs": [
        {
          "internalType": "string",
          "name": "txTypeKey",
          "type": "string"
        },
        {
          "internalType": "address",
          "name": "destination",
          "type": "address"
        },
        {
          "internalType": "uint256",
          "name": "value",
          "type": "uint256"
        },
        {
          "internalType": "bytes",
          "name": "data",
          "type": "bytes"
        }
      ],
      "name": "submitTransaction",
      "outputs": [
        {
          "internalType": "uint256",
          "name": "transactionId",
          "type": "uint256"
        }
      ],
      "stateMutability": "nonpayable",
      "type": "function"
    },
    {
      "inputs": [
        {
          "internalType": "uint256",
          "name": "transactionId",
          "type": "uint256"
        }
      ],
      "name": "confirmTransaction",
      "outputs": [],
      "stateMutability": "nonpayable",
      "type": "function"
    },
    {
      "inputs": [
        {
          "internalType": "uint256",
          "name": "transactionId",
          "type": "uint256"
        }
      ],
      "name": "executeTransaction",
      "outputs": [],
      "stateMutability": "nonpayable",
      "type": "function"
    }
  ],
  "bytecode": "0x60806040526000600d60006101000a81548160ff0219169083151502179055506040516200516c3803806200516c833981810160405260408110156200004457600080fd5b81019080805160405193929190846401000000008211156200006557600080fd5b838201915060208201858111156200007c57600080fd5b82518660018202830111640100000000821117156200009a57600080fd5b8083526020830192505050908051906020019080838360005b83811015620000d0578082015181840152602081019050620000b3565b50505050905090810190601f168015620000fe5780820380516001836020036101000a031916815260200191505b50604052602001805160405193929190846401000000008211156200012257600080fd5b838201915060208201858111156200013957600080fd5b82518660018202830111640100000000821117156200015757600080fd5b8083526020830192505050908051906020019080838360005b838110156200018d57808201518184015260208101905062000170565b50505050905090810190601f168015620001bb5780820380516001836020036101000a031916815260200191505b5060405250505081818160039080519060200190620001dc9291906200057c565b508060049080519060200190620001f59291906200057c565b506012600560006101000a81548160ff021916908360ff16021790555050506200026460405180807f4f574e4552000000000000000000000000000000000000000000000000000000815250600501905060405180910390203362000354640100000000026401000000009004565b620002e960405180807f4f574e45520000000000000000000000000000000000000000000000000000008152506005019050604051809103902060405180807f4f574e45520000000000000000000000000000000000000000000000000000008152506005019050604051809103902062000373640100000000026401000000009004565b6008339080600181540180825580915050600190039060005260206000200160009091909190916101000a81548173ffffffffffffffffffffffffffffffffffffffff021916908373ffffffffffffffffffffffffffffffffffffffff16021790555050506200062b565b6200036f8282620003d7640100000000026401000000009004565b5050565b806006600084815260200190815260200160002060020154837fbd79b86ffe0ab8e8776151514217cd7cacd52c909f66475c3af44e129f0b00ff60405160405180910390a48060066000848152602001908152602001600020600201819055505050565b6200040f81600660008581526020019081526020016000206000016200048d6401000000000262003e49179091906401000000009004565b1562000489576200042e620004ce640100000000026401000000009004565b73ffffffffffffffffffffffffffffffffffffffff168173ffffffffffffffffffffffffffffffffffffffff16837f2f8788117e7eff1d82e926ec794901d17c78024a50270940304540a733656f0d60405160405180910390a45b5050565b6000620004c6836000018373ffffffffffffffffffffffffffffffffffffffff16600102620004d6640100000000026401000000009004565b905092915050565b600033905090565b6000620004f3838362000559640100000000026401000000009004565b6200054e57826000018290806001815401808255809150506001900390600052602060002001600090919091909150558260000180549050836001016000848152602001908152602001600020819055506001905062000553565b600090505b92915050565b600080836001016000848152602001908152602001600020541415905092915050565b828054600181600116156101000203166002900490600052602060002090601f016020900481019282601f10620005bf57805160ff1916838001178555620005f0565b82800160010185558215620005f0579182015b82811115620005ef578251825591602001919060010190620005d2565b5b509050620005ff919062000603565b5090565b6200062891905b80821115620006245760008160009055506001016200060a565b5090565b90565b614b31806200063b6000396000f3fe608060405260043610610225576000357c0100000000000000000000000000000000000000000000000000000000900480639010d07c11610135578063c01a8c84116100bd578063d547741f1161008c578063d547741f14611066578063d8e75f62146110c1578063dd62ed3e1461113c578063e58378bb146111c1578063ee22610b146111ec57610284565b8063c01a8c8414610f52578063c4bc5da514610f8d578063c99e06c314610fa4578063ca15c8731461101757610284565b8063a217fddf11610104578063a217fddf14610dff578063a457c2d714610e2a578063a9059cbb14610e9d578063b500aaed14610f10578063b77bf60014610f2757610284565b80639010d07c14610b5e57806391d1485414610be357806395d89b4114610c565780639ace38c214610ce657610284565b80632f2ff15d116101b857806336568abe1161018757806336568abe146108285780633950935114610883578063476a4b58146108f657806370a0823114610aca57806375f12b2114610b2f57610284565b80632f2ff15d146106c05780632f54bf6e1461071b578063313ce567146107845780633411c81c146107b557610284565b806318160ddd116101f457806318160ddd1461041657806323b872dd14610441578063248a9ca3146104d4578063281a99561461052357610284565b806306fdde0314610289578063095ea7b3146103195780630fa683d31461038c57806312253a6c146103ff57610284565b36610284576000341115610282573373ffffffffffffffffffffffffffffffffffffffff167f1b851e1031ef35a238e6c67d0c7991162390df915f70eaf9098dbf0b175a6198346040518082815260200191505060405180910390a25b005b600080fd5b34801561029557600080fd5b5061029e611227565b6040518080602001828103825283818151815260200191508051906020019080838360005b838110156102de5780820151818401526020810190506102c3565b50505050905090810190601f16801561030b5780820380516001836020036101000a031916815260200191505b509250505060405180910390f35b34801561032557600080fd5b506103726004803603604081101561033c57600080fd5b81019080803573ffffffffffffffffffffffffffffffffffffffff169060200190929190803590602001909291905050506112c9565b604051808215151515815260200191505060405180910390f35b34801561039857600080fd5b506103c5600480360360208110156103af57600080fd5b81019080803590602001909291905050506112e7565b6040518084151515158152602001831515151581526020018260038111156103e957fe5b60ff168152602001935050505060405180910390f35b34801561040b57600080fd5b50610414611573565b005b34801561042257600080fd5b5061042b611650565b6040518082815260200191505060405180910390f35b34801561044d57600080fd5b506104ba6004803603606081101561046457600080fd5b81019080803573ffffffffffffffffffffffffffffffffffffffff169060200190929190803573ffffffffffffffffffffffffffffffffffffffff1690602001909291908035906020019092919050505061165a565b604051808215151515815260200191505060405180910390f35b3480156104e057600080fd5b5061050d600480360360208110156104f757600080fd5b8101908080359060200190929190505050611733565b6040518082815260200191505060405180910390f35b34801561052f57600080fd5b506106aa6004803603608081101561054657600080fd5b810190808035906020019064010000000081111561056357600080fd5b82018360208201111561057557600080fd5b8035906020019184600183028401116401000000008311171561059757600080fd5b91908080601f016020809104026020016040519081016040528093929190818152602001838380828437600081840152601f19601f820116905080830192505050505050509192919290803573ffffffffffffffffffffffffffffffffffffffff169060200190929190803590602001909291908035906020019064010000000081111561062457600080fd5b82018360208201111561063657600080fd5b8035906020019184600183028401116401000000008311171561065857600080fd5b91908080601f016020809104026020016040519081016040528093929190818152602001838380828437600081840152601f19601f820116905080830192505050505050509192919290505050611753565b6040518082815260200191505060405180910390f35b3480156106cc57600080fd5b50610719600480360360408110156106e357600080fd5b8101908080359060200190929190803573ffffffffffffffffffffffffffffffffffffffff169060200190929190505050611830565b005b34801561072757600080fd5b5061076a6004803603602081101561073e57600080fd5b81019080803573ffffffffffffffffffffffffffffffffffffffff1690602001909291905050506118ba565b604051808215151515815260200191505060405180910390f35b34801561079057600080fd5b50610799611902565b604051808260ff1660ff16815260200191505060405180910390f35b3480156107c157600080fd5b5061080e600480360360408110156107d857600080fd5b8101908080359060200190929190803573ffffffffffffffffffffffffffffffffffffffff169060200190929190505050611919565b604051808215151515815260200191505060405180910390f35b34801561083457600080fd5b506108816004803603604081101561084b57600080fd5b8101908080359060200190929190803573ffffffffffffffffffffffffffffffffffffffff169060200190929190505050611948565b005b34801561088f57600080fd5b506108dc600480360360408110156108a657600080fd5b81019080803573ffffffffffffffffffffffffffffffffffffffff169060200190929190803590602001909291905050506119e1565b604051808215151515815260200191505060405180910390f35b34801561090257600080fd5b5061090b611a94565b6040518080602001806020018060200180602001858103855289818151815260200191508051906020019080838360005b8381101561095757808201518184015260208101905061093c565b50505050905090810190601f1680156109845780820380516001836020036101000a031916815260200191505b50858103845288818151815260200191508051906020019080838360005b838110156109bd5780820151818401526020810190506109a2565b50505050905090810190601f1680156109ea5780820380516001836020036101000a031916815260200191505b50858103835287818151815260200191508051906020019080838360005b83811015610a23578082015181840152602081019050610a08565b50505050905090810190601f168015610a505780820380516001836020036101000a031916815260200191505b50858103825286818151815260200191508051906020019080838360005b83811015610a89578082015181840152602081019050610a6e565b50505050905090810190601f168015610ab65780820380516001836020036101000a031916815260200191505b509850505050505050505060405180910390f35b348015610ad657600080fd5b50610b1960048036036020811015610aed57600080fd5b81019080803573ffffffffffffffffffffffffffffffffffffffff169060200190929190505050611c20565b6040518082815260200191505060405180910390f35b348015610b3b57600080fd5b50610b44611c68565b604051808215151515815260200191505060405180910390f35b348015610b6a57600080fd5b50610ba160048036036040811015610b8157600080fd5b810190808035906020019092919080359060200190929190505050611c7b565b604051808273ffffffffffffffffffffffffffffffffffffffff1673ffffffffffffffffffffffffffffffffffffffff16815260200191505060405180910390f35b348015610bef57600080fd5b50610c3c60048036036040811015610c0657600080fd5b8101908080359060200190929190803573ffffffffffffffffffffffffffffffffffffffff169060200190929190505050611cad565b604051808215151515815260200191505060405180910390f35b348015610c6257600080fd5b50610c6b611cdf565b6040518080602001828103825283818151815260200191508051906020019080838360005b83811015610cab578082015181840152602081019050610c90565b50505050905090810190601f168015610cd85780820380516001836020036101000a031916815260200191505b509250505060405180910390f35b348015610cf257600080fd5b50610d1f60048036036020811015610d0957600080fd5b8101908080359060200190929190505050611d81565b60405180876003811115610d2f57fe5b60ff1681526020018673ffffffffffffffffffffffffffffffffffffffff1673ffffffffffffffffffffffffffffffffffffffff168152602001858152602001806020018415151515815260200183151515158152602001828103825285818151815260200191508051906020019080838360005b83811015610dbf578082015181840152602081019050610da4565b50505050905090810190601f168015610dec5780820380516001836020036101000a031916815260200191505b5097505050505050505060405180910390f35b348015610e0b57600080fd5b50610e14611e9c565b6040518082815260200191505060405180910390f35b348015610e3657600080fd5b50610e8360048036036040811015610e4d57600080fd5b81019080803573ffffffffffffffffffffffffffffffffffffffff16906020019092919080359060200190929190505050611ea4565b604051808215151515815260200191505060405180910390f35b348015610ea957600080fd5b50610ef660048036036040811015610ec057600080fd5b81019080803573ffffffffffffffffffffffffffffffffffffffff16906020019092919080359060200190929190505050611f71565b604051808215151515815260200191505060405180910390f35b348015610f1c57600080fd5b50610f25611f8f565b005b348015610f3357600080fd5b50610f3c612166565b6040518082815260200191505060405180910390f35b348015610f5e57600080fd5b50610f8b60048036036020811015610f7557600080fd5b810190808035906020019092919050505061216c565b005b348015610f9957600080fd5b50610fa26123b8565b005b348015610fb057600080fd5b50610ff360048036036020811015610fc757600080fd5b81019080803573ffffffffffffffffffffffffffffffffffffffff169060200190929190505050612495565b60405180848152602001838152602001828152602001935050505060405180910390f35b34801561102357600080fd5b506110506004803603602081101561103a57600080fd5b8101908080359060200190929190505050612579565b6040518082815260200191505060405180910390f35b34801561107257600080fd5b506110bf6004803603604081101561108957600080fd5b8101908080359060200190929190803573ffffffffffffffffffffffffffffffffffffffff1690602001909291905050506125a0565b005b3480156110cd57600080fd5b506110fa600480360360208110156110e457600080fd5b810190808035906020019092919050505061262a565b604051808273ffffffffffffffffffffffffffffffffffffffff1673ffffffffffffffffffffffffffffffffffffffff16815260200191505060405180910390f35b34801561114857600080fd5b506111ab6004803603604081101561115f57600080fd5b81019080803573ffffffffffffffffffffffffffffffffffffffff169060200190929190803573ffffffffffffffffffffffffffffffffffffffff169060200190929190505050612666565b6040518082815260200191505060405180910390f35b3480156111cd57600080fd5b506111d66126ed565b6040518082815260200191505060405180910390f35b3480156111f857600080fd5b506112256004803603602081101561120f57600080fd5b8101908080359060200190929190505050612726565b005b606060038054600181600116156101000203166002900480601f0160208091040260200160405190810160405280929190818152602001828054600181600116156101000203166002900480156112bf5780601f10611294576101008083540402835291602001916112bf565b820191906000526020600020905b8154815290600101906020018083116112a257829003601f168201915b5050505050905090565b60006112dd6112d6612b3a565b8484612b42565b6001905092915050565b600080600083600a600082815260200190815260200160002060030160009054906101000a900460ff16611366576040517f08c379a000000000000000000000000000000000000000000000000000000000815260040180806020018281038252602a815260200180614a5a602a913960400191505060405180910390fd5b61136e614716565b600a60008781526020019081526020016000206040518060c00160405290816000820160009054906101000a900460ff1660038111156113aa57fe5b60038111156113b557fe5b81526020016000820160019054906101000a900473ffffffffffffffffffffffffffffffffffffffff1673ffffffffffffffffffffffffffffffffffffffff1673ffffffffffffffffffffffffffffffffffffffff16815260200160018201548152602001600282018054600181600116156101000203166002900480601f0160208091040260200160405190810160405280929190818152602001828054600181600116156101000203166002900480156114b25780601f10611487576101008083540402835291602001916114b2565b820191906000526020600020905b81548152906001019060200180831161149557829003601f168201915b505050505081526020016003820160009054906101000a900460ff161515151581526020016003820160019054906101000a900460ff1615151515815250509050600b600087815260200190815260200160002060003373ffffffffffffffffffffffffffffffffffffffff1673ffffffffffffffffffffffffffffffffffffffff16815260200190815260200160002060009054906101000a900460ff1694508060a0015193508060000151925084848494509450945050509193909250565b6115b260405180807f4f574e45520000000000000000000000000000000000000000000000000000008152506005019050604051809103902033611cad565b611607576040517f08c379a00000000000000000000000000000000000000000000000000000000081526004018080602001828103825260278152602001806149186027913960400191505060405180910390fd5b6001600d60006101000a81548160ff0219169083151502179055507f271eeaa027ef2b0ef7f9c88ade99794e43f75016f0320df12ea62b72a74e268660405160405180910390a1565b6000600254905090565b6000611667848484612d39565b61172884611673612b3a565b611723856040518060600160405280602881526020016149eb60289139600160008b73ffffffffffffffffffffffffffffffffffffffff1673ffffffffffffffffffffffffffffffffffffffff16815260200190815260200160002060006116d9612b3a565b73ffffffffffffffffffffffffffffffffffffffff1673ffffffffffffffffffffffffffffffffffffffff16815260200190815260200160002054612ffa9092919063ffffffff16565b612b42565b600190509392505050565b600060066000838152602001908152602001600020600201549050919050565b6000600d60009054906101000a900460ff161561176f57600080fd5b6117ae60405180807f4f574e45520000000000000000000000000000000000000000000000000000008152506005019050604051809103902033611cad565b611803576040517f08c379a00000000000000000000000000000000000000000000000000000000081526004018080602001828103825260278152602001806149186027913960400191505060405180910390fd5b600061180e866130ba565b905061181c818686866131fa565b91506118278261216c565b50949350505050565b6118576006600084815260200190815260200160002060020154611852612b3a565b611cad565b6118ac576040517f08c379a000000000000000000000000000000000000000000000000000000000815260040180806020018281038252602f8152602001806148a1602f913960400191505060405180910390fd5b6118b682826133dd565b5050565b60006118fb60405180807f4f574e45520000000000000000000000000000000000000000000000000000008152506005019050604051809103902083611cad565b9050919050565b6000600560009054906101000a900460ff16905090565b600b6020528160005260406000206020528060005260406000206000915091509054906101000a900460ff1681565b611950612b3a565b73ffffffffffffffffffffffffffffffffffffffff168173ffffffffffffffffffffffffffffffffffffffff16146119d3576040517f08c379a000000000000000000000000000000000000000000000000000000000815260040180806020018281038252602f815260200180614acd602f913960400191505060405180910390fd5b6119dd8282613471565b5050565b6000611a8a6119ee612b3a565b84611a8585600160006119ff612b3a565b73ffffffffffffffffffffffffffffffffffffffff1673ffffffffffffffffffffffffffffffffffffffff16815260200190815260200160002060008973ffffffffffffffffffffffffffffffffffffffff1673ffffffffffffffffffffffffffffffffffffffff1681526020019081526020016000205461350590919063ffffffff16565b612b42565b6001905092915050565b606080606080611ad960405180807f4f574e45520000000000000000000000000000000000000000000000000000008152506005019050604051809103902033611cad565b611b2e576040517f08c379a00000000000000000000000000000000000000000000000000000000081526004018080602001828103825260278152602001806149186027913960400191505060405180910390fd5b6040518060400160405280600881526020017f45787465726e616c00000000000000000000000000000000000000000000000081525093506040518060400160405280600a81526020017f4e6577466f756e6465720000000000000000000000000000000000000000000081525092506040518060400160405280601581526020017f4c61756e636856657374696e675363686564756c65000000000000000000000081525091506040518060400160405280600e81526020017f44657374726f79436f6d70616e79000000000000000000000000000000000000815250905083838383935093509350935090919293565b60008060008373ffffffffffffffffffffffffffffffffffffffff1673ffffffffffffffffffffffffffffffffffffffff168152602001908152602001600020549050919050565b600d60009054906101000a900460ff1681565b6000611ca5826006600086815260200190815260200160002060000161358d90919063ffffffff16565b905092915050565b6000611cd782600660008681526020019081526020016000206000016135a890919063ffffffff16565b905092915050565b606060048054600181600116156101000203166002900480601f016020809104026020016040519081016040528092919081815260200182805460018160011615610100020316600290048015611d775780601f10611d4c57610100808354040283529160200191611d77565b820191906000526020600020905b815481529060010190602001808311611d5a57829003601f168201915b5050505050905090565b600a6020528060005260406000206000915090508060000160009054906101000a900460ff16908060000160019054906101000a900473ffffffffffffffffffffffffffffffffffffffff1690806001015490806002018054600181600116156101000203166002900480601f016020809104026020016040519081016040528092919081815260200182805460018160011615610100020316600290048015611e6c5780601f10611e4157610100808354040283529160200191611e6c565b820191906000526020600020905b815481529060010190602001808311611e4f57829003601f168201915b5050505050908060030160009054906101000a900460ff16908060030160019054906101000a900460ff16905086565b600060010281565b6000611f67611eb1612b3a565b84611f6285604051806060016040528060258152602001614aa86025913960016000611edb612b3a565b73ffffffffffffffffffffffffffffffffffffffff1673ffffffffffffffffffffffffffffffffffffffff16815260200190815260200160002060008a73ffffffffffffffffffffffffffffffffffffffff1673ffffffffffffffffffffffffffffffffffffffff16815260200190815260200160002054612ffa9092919063ffffffff16565b612b42565b6001905092915050565b6000611f85611f7e612b3a565b8484612d39565b6001905092915050565b611fce60405180807f4f574e45520000000000000000000000000000000000000000000000000000008152506005019050604051809103902033611cad565b612023576040517f08c379a00000000000000000000000000000000000000000000000000000000081526004018080602001828103825260278152602001806149186027913960400191505060405180910390fd5b600061202e336135d8565b905060008111612089576040517f08c379a000000000000000000000000000000000000000000000000000000000815260040180806020018281038252603181526020018061496f6031913960400191505060405180910390fd5b6000600960003373ffffffffffffffffffffffffffffffffffffffff1673ffffffffffffffffffffffffffffffffffffffff16815260200190815260200160002090506120e382826001015461350590919063ffffffff16565b81600101819055506121028282600201546136d990919063ffffffff16565b81600201819055506121143383613723565b3373ffffffffffffffffffffffffffffffffffffffff167fdbc1569abc705e4dab3d58f5fffbdd0ff2ec1982e69899a2c699d7a452081fa8836040518082815260200191505060405180910390a25050565b600c5481565b600d60009054906101000a900460ff161561218657600080fd5b6121c560405180807f4f574e45520000000000000000000000000000000000000000000000000000008152506005019050604051809103902033611cad565b61221a576040517f08c379a00000000000000000000000000000000000000000000000000000000081526004018080602001828103825260278152602001806149186027913960400191505060405180910390fd5b80600a600082815260200190815260200160002060030160009054906101000a900460ff16612294576040517f08c379a000000000000000000000000000000000000000000000000000000000815260040180806020018281038252602a815260200180614a5a602a913960400191505060405180910390fd5b81600b600082815260200190815260200160002060003373ffffffffffffffffffffffffffffffffffffffff1673ffffffffffffffffffffffffffffffffffffffff16815260200190815260200160002060009054906101000a900460ff16156122fd57600080fd5b6001600b600085815260200190815260200160002060003373ffffffffffffffffffffffffffffffffffffffff1673ffffffffffffffffffffffffffffffffffffffff16815260200190815260200160002060006101000a81548160ff021916908315150217905550823373ffffffffffffffffffffffffffffffffffffffff167f284a31f48de0c7baa130a1acbe4773f4c39ef557ddcd0b2d6b6ef539af10531b60405160405180910390a36123b383612726565b505050565b6123f760405180807f4f574e45520000000000000000000000000000000000000000000000000000008152506005019050604051809103902033611cad565b61244c576040517f08c379a00000000000000000000000000000000000000000000000000000000081526004018080602001828103825260278152602001806149186027913960400191505060405180910390fd5b6000600d60006101000a81548160ff0219169083151502179055507f7a0eb486a5792abc0f3f90bb2e49d363e653c325fa01b4e115eb8454f884b92660405160405180910390a1565b6000806000600960008573ffffffffffffffffffffffffffffffffffffffff1673ffffffffffffffffffffffffffffffffffffffff168152602001908152602001600020600101549250600960008573ffffffffffffffffffffffffffffffffffffffff1673ffffffffffffffffffffffffffffffffffffffff168152602001908152602001600020600201549150600960008573ffffffffffffffffffffffffffffffffffffffff1673ffffffffffffffffffffffffffffffffffffffff1681526020019081526020016000206003015490508282829250925092509193909250565b6000612599600660008481526020019081526020016000206000016138ea565b9050919050565b6125c760066000848152602001908152602001600020600201546125c2612b3a565b611cad565b61261c576040517f08c379a000000000000000000000000000000000000000000000000000000000815260040180806020018281038252603081526020018061493f6030913960400191505060405180910390fd5b6126268282613471565b5050565b6008818154811061263757fe5b906000526020600020016000915054906101000a900473ffffffffffffffffffffffffffffffffffffffff1681565b6000600160008473ffffffffffffffffffffffffffffffffffffffff1673ffffffffffffffffffffffffffffffffffffffff16815260200190815260200160002060008373ffffffffffffffffffffffffffffffffffffffff1673ffffffffffffffffffffffffffffffffffffffff16815260200190815260200160002054905092915050565b60405180807f4f574e45520000000000000000000000000000000000000000000000000000008152506005019050604051809103902081565b600d60009054906101000a900460ff161561274057600080fd5b61277f60405180807f4f574e45520000000000000000000000000000000000000000000000000000008152506005019050604051809103902033611cad565b6127d4576040517f08c379a00000000000000000000000000000000000000000000000000000000081526004018080602001828103825260278152602001806149186027913960400191505060405180910390fd5b80600b600082815260200190815260200160002060003373ffffffffffffffffffffffffffffffffffffffff1673ffffffffffffffffffffffffffffffffffffffff16815260200190815260200160002060009054906101000a900460ff1661283c57600080fd5b81600a600082815260200190815260200160002060030160019054906101000a900460ff161561286b57600080fd5b612874836138ff565b15612b35576000600a6000858152602001908152602001600020905060018160030160016101000a81548160ff021916908315150217905550600060038111156128ba57fe5b8160000160009054906101000a900460ff1660038111156128d757fe5b1415612a2f576129ac8160000160019054906101000a900473ffffffffffffffffffffffffffffffffffffffff168260010154836002018054600181600116156101000203166002900480601f0160208091040260200160405190810160405280929190818152602001828054600181600116156101000203166002900480156129a25780601f10612977576101008083540402835291602001916129a2565b820191906000526020600020905b81548152906001019060200180831161298557829003601f168201915b50505050506139e7565b156129e357837f036687fd39b346666ddc60de603092dbfccf1f0dfef3848eacaf6556f155274960405160405180910390a2612a2e565b837fe6be4216c17a494bd52020b62596f189bf4552ad23cbae4913db8f0d9693ec9360405160405180910390a260008160030160016101000a81548160ff0219169083151502179055505b5b60016003811115612a3c57fe5b8160000160009054906101000a900460ff166003811115612a5957fe5b1415612a8e57612a8c8160000160019054906101000a900473ffffffffffffffffffffffffffffffffffffffff16613a04565b505b60026003811115612a9b57fe5b8160000160009054906101000a900460ff166003811115612ab857fe5b1415612ac757612ac6613ab0565b5b600380811115612ad357fe5b8160000160009054906101000a900460ff166003811115612af057fe5b1415612b33578060000160019054906101000a900473ffffffffffffffffffffffffffffffffffffffff1673ffffffffffffffffffffffffffffffffffffffff16ff5b505b505050565b600033905090565b600073ffffffffffffffffffffffffffffffffffffffff168373ffffffffffffffffffffffffffffffffffffffff161415612bc8576040517f08c379a0000000000000000000000000000000000000000000000000000000008152600401808060200182810382526024815260200180614a846024913960400191505060405180910390fd5b600073ffffffffffffffffffffffffffffffffffffffff168273ffffffffffffffffffffffffffffffffffffffff161415612c4e576040517f08c379a00000000000000000000000000000000000000000000000000000000081526004018080602001828103825260228152602001806148d06022913960400191505060405180910390fd5b80600160008573ffffffffffffffffffffffffffffffffffffffff1673ffffffffffffffffffffffffffffffffffffffff16815260200190815260200160002060008473ffffffffffffffffffffffffffffffffffffffff1673ffffffffffffffffffffffffffffffffffffffff168152602001908152602001600020819055508173ffffffffffffffffffffffffffffffffffffffff168373ffffffffffffffffffffffffffffffffffffffff167f8c5be1e5ebec7d5bd14f71427d1e84f3dd0314c0f7b2291e5b200ac8c7c3b925836040518082815260200191505060405180910390a3505050565b600073ffffffffffffffffffffffffffffffffffffffff168373ffffffffffffffffffffffffffffffffffffffff161415612dbf576040517f08c379a0000000000000000000000000000000000000000000000000000000008152600401808060200182810382526025815260200180614a356025913960400191505060405180910390fd5b600073ffffffffffffffffffffffffffffffffffffffff168273ffffffffffffffffffffffffffffffffffffffff161415612e45576040517f08c379a000000000000000000000000000000000000000000000000000000000815260040180806020018281038252602381526020018061487e6023913960400191505060405180910390fd5b612e50838383613ddb565b612ebb816040518060600160405280602681526020016148f2602691396000808773ffffffffffffffffffffffffffffffffffffffff1673ffffffffffffffffffffffffffffffffffffffff16815260200190815260200160002054612ffa9092919063ffffffff16565b6000808573ffffffffffffffffffffffffffffffffffffffff1673ffffffffffffffffffffffffffffffffffffffff16815260200190815260200160002081905550612f4e816000808573ffffffffffffffffffffffffffffffffffffffff1673ffffffffffffffffffffffffffffffffffffffff1681526020019081526020016000205461350590919063ffffffff16565b6000808473ffffffffffffffffffffffffffffffffffffffff1673ffffffffffffffffffffffffffffffffffffffff168152602001908152602001600020819055508173ffffffffffffffffffffffffffffffffffffffff168373ffffffffffffffffffffffffffffffffffffffff167fddf252ad1be2c89b69c2b068fc378daa952ba7f163c4a11628f55a4df523b3ef836040518082815260200191505060405180910390a3505050565b60008383111582906130a7576040517f08c379a00000000000000000000000000000000000000000000000000000000081526004018080602001828103825283818151815260200191508051906020019080838360005b8381101561306c578082015181840152602081019050613051565b50505050905090810190601f1680156130995780820380516001836020036101000a031916815260200191505b509250505060405180910390fd5b5060008385039050809150509392505050565b600060405180807f45787465726e616c000000000000000000000000000000000000000000000000815250600801905060405180910390208280519060200120141561310957600090506131f5565b60405180807f4e6577466f756e64657200000000000000000000000000000000000000000000815250600a01905060405180910390208280519060200120141561315657600190506131f5565b60405180807f4c61756e636856657374696e675363686564756c65000000000000000000000081525060150190506040518091039020828051906020012014156131a357600290506131f5565b60405180807f44657374726f79436f6d70616e79000000000000000000000000000000000000815250600e0190506040518091039020828051906020012014156131f057600390506131f5565b600080fd5b919050565b600083600073ffffffffffffffffffffffffffffffffffffffff168173ffffffffffffffffffffffffffffffffffffffff16141561323757600080fd5b600c5491506040518060c0016040528087600381111561325357fe5b81526020018673ffffffffffffffffffffffffffffffffffffffff16815260200185815260200184815260200160011515815260200160001515815250600a600084815260200190815260200160002060008201518160000160006101000a81548160ff021916908360038111156132c757fe5b021790555060208201518160000160016101000a81548173ffffffffffffffffffffffffffffffffffffffff021916908373ffffffffffffffffffffffffffffffffffffffff160217905550604082015181600101556060820151816002019080519060200190613339929190614771565b5060808201518160030160006101000a81548160ff02191690831515021790555060a08201518160030160016101000a81548160ff0219169083151502179055509050506001600c60008282540192505081905550817fdebc10a4c5b3a068a33d09a2e738b39000cf7a983ba8ade2c06798ba8eb2857387604051808260038111156133c157fe5b60ff16815260200191505060405180910390a250949350505050565b6134058160066000858152602001908152602001600020600001613e4990919063ffffffff16565b1561346d57613412612b3a565b73ffffffffffffffffffffffffffffffffffffffff168173ffffffffffffffffffffffffffffffffffffffff16837f2f8788117e7eff1d82e926ec794901d17c78024a50270940304540a733656f0d60405160405180910390a45b5050565b6134998160066000858152602001908152602001600020600001613e7990919063ffffffff16565b15613501576134a6612b3a565b73ffffffffffffffffffffffffffffffffffffffff168173ffffffffffffffffffffffffffffffffffffffff16837ff6391f5c32d9c69d2a47ea670b442974b53935d1edc7fd64eb21e047a839171b60405160405180910390a45b5050565b600080828401905083811015613583576040517f08c379a000000000000000000000000000000000000000000000000000000000815260040180806020018281038252601b8152602001807f536166654d6174683a206164646974696f6e206f766572666c6f77000000000081525060200191505060405180910390fd5b8091505092915050565b600061359c8360000183613ea9565b60019004905092915050565b60006135d0836000018373ffffffffffffffffffffffffffffffffffffffff16600102613f2c565b905092915050565b60006135e26147f1565b600960008473ffffffffffffffffffffffffffffffffffffffff1673ffffffffffffffffffffffffffffffffffffffff1681526020019081526020016000206040518060a0016040529081600082015481526020016001820154815260200160028201548152602001600382015481526020016004820160009054906101000a900473ffffffffffffffffffffffffffffffffffffffff1673ffffffffffffffffffffffffffffffffffffffff1673ffffffffffffffffffffffffffffffffffffffff168152505090506000816020015190506136d0816136c286613f4f565b6136d990919063ffffffff16565b92505050919050565b600061371b83836040518060400160405280601e81526020017f536166654d6174683a207375627472616374696f6e206f766572666c6f770000815250612ffa565b905092915050565b600073ffffffffffffffffffffffffffffffffffffffff168273ffffffffffffffffffffffffffffffffffffffff1614156137c6576040517f08c379a000000000000000000000000000000000000000000000000000000000815260040180806020018281038252601f8152602001807f45524332303a206d696e7420746f20746865207a65726f20616464726573730081525060200191505060405180910390fd5b6137d260008383613ddb565b6137e78160025461350590919063ffffffff16565b60028190555061383e816000808573ffffffffffffffffffffffffffffffffffffffff1673ffffffffffffffffffffffffffffffffffffffff1681526020019081526020016000205461350590919063ffffffff16565b6000808473ffffffffffffffffffffffffffffffffffffffff1673ffffffffffffffffffffffffffffffffffffffff168152602001908152602001600020819055508173ffffffffffffffffffffffffffffffffffffffff16600073ffffffffffffffffffffffffffffffffffffffff167fddf252ad1be2c89b69c2b068fc378daa952ba7f163c4a11628f55a4df523b3ef836040518082815260200191505060405180910390a35050565b60006138f8826000016140aa565b9050919050565b6000806000905060008090505b6008805490508110156139df57600b600085815260200190815260200160002060006008838154811061393b57fe5b9060005260206000200160009054906101000a900473ffffffffffffffffffffffffffffffffffffffff1673ffffffffffffffffffffffffffffffffffffffff1673ffffffffffffffffffffffffffffffffffffffff16815260200190815260200160002060009054906101000a900460ff16156139ba576001820191505b6008805490508214156139d2576001925050506139e2565b808060010191505061390c565b50505b919050565b60008060008084516020860187895af19050809150509392505050565b60008073ffffffffffffffffffffffffffffffffffffffff168273ffffffffffffffffffffffffffffffffffffffff161415613a3f57600080fd5b613a48826140bb565b6008829080600181540180825580915050600190039060005260206000200160009091909190916101000a81548173ffffffffffffffffffffffffffffffffffffffff021916908373ffffffffffffffffffffffffffffffffffffffff160217905550919050565b613aef60405180807f4f574e45520000000000000000000000000000000000000000000000000000008152506005019050604051809103902033611cad565b613b44576040517f08c379a00000000000000000000000000000000000000000000000000000000081526004018080602001828103825260278152602001806149186027913960400191505060405180910390fd5b6000613b68613b51611902565b60ff16600a0a61271061415b90919063ffffffff16565b90506000613b936064613b85605a8561415b90919063ffffffff16565b6141e190919063ffffffff16565b9050613ba881836136d990919063ffffffff16565b6007819055506000613bc8600880549050836141e190919063ffffffff16565b905060008090505b600880549050811015613dd5576040518060a001604052804281526020016000815260200183815260200183815260200160088381548110613c0e57fe5b9060005260206000200160009054906101000a900473ffffffffffffffffffffffffffffffffffffffff1673ffffffffffffffffffffffffffffffffffffffff168152506009600060088481548110613c6357fe5b9060005260206000200160009054906101000a900473ffffffffffffffffffffffffffffffffffffffff1673ffffffffffffffffffffffffffffffffffffffff1673ffffffffffffffffffffffffffffffffffffffff1681526020019081526020016000206000820151816000015560208201518160010155604082015181600201556060820151816003015560808201518160040160006101000a81548173ffffffffffffffffffffffffffffffffffffffff021916908373ffffffffffffffffffffffffffffffffffffffff16021790555090505060088181548110613d4757fe5b9060005260206000200160009054906101000a900473ffffffffffffffffffffffffffffffffffffffff1673ffffffffffffffffffffffffffffffffffffffff167f6f1aaf30d5ebfa3a12caac074c49b1c2d49c30cc9107817ca035a011ef935937836004604051808381526020018281526020019250505060405180910390a28080600101915050613bd0565b50505050565b613de683838361422b565b613def826118ba565b613e44576040517f08c379a000000000000000000000000000000000000000000000000000000000815260040180806020018281038252602a8152602001806149a0602a913960400191505060405180910390fd5b505050565b6000613e71836000018373ffffffffffffffffffffffffffffffffffffffff16600102614230565b905092915050565b6000613ea1836000018373ffffffffffffffffffffffffffffffffffffffff166001026142a0565b905092915050565b600081836000018054905011613f0a576040517f08c379a000000000000000000000000000000000000000000000000000000000815260040180806020018281038252602281526020018061485c6022913960400191505060405180910390fd5b826000018281548110613f1957fe5b9060005260206000200154905092915050565b600080836001016000848152602001908152602001600020541415905092915050565b6000613f596147f1565b600960008473ffffffffffffffffffffffffffffffffffffffff1673ffffffffffffffffffffffffffffffffffffffff1681526020019081526020016000206040518060a0016040529081600082015481526020016001820154815260200160028201548152602001600382015481526020016004820160009054906101000a900473ffffffffffffffffffffffffffffffffffffffff1673ffffffffffffffffffffffffffffffffffffffff1673ffffffffffffffffffffffffffffffffffffffff16815250509050600081606001519050600082600001519050600061404a82426136d990919063ffffffff16565b9050600061406260048461438890919063ffffffff16565b90508042106140785783955050505050506140a5565b61409d8161408f848761415b90919063ffffffff16565b6141e190919063ffffffff16565b955050505050505b919050565b600081600001805490509050919050565b6140c4336118ba565b614119576040517f08c379a0000000000000000000000000000000000000000000000000000000008152600401808060200182810382526022815260200180614a136022913960400191505060405180910390fd5b61415860405180807f4f574e45520000000000000000000000000000000000000000000000000000008152506005019050604051809103902082611830565b50565b60008083141561416e57600090506141db565b600082840290508284828161417f57fe5b04146141d6576040517f08c379a00000000000000000000000000000000000000000000000000000000081526004018080602001828103825260218152602001806149ca6021913960400191505060405180910390fd5b809150505b92915050565b600061422383836040518060400160405280601a81526020017f536166654d6174683a206469766973696f6e206279207a65726f0000000000008152506143ff565b905092915050565b505050565b600061423c8383613f2c565b61429557826000018290806001815401808255809150506001900390600052602060002001600090919091909150558260000180549050836001016000848152602001908152602001600020819055506001905061429a565b600090505b92915050565b6000808360010160008481526020019081526020016000205490506000811461437c57600060018203905060006001866000018054905003905060008660000182815481106142eb57fe5b906000526020600020015490508087600001848154811061430857fe5b906000526020600020018190555060018301876001016000838152602001908152602001600020819055508660000180548061434057fe5b60019003818190600052602060002001600090559055866001016000878152602001908152602001600020600090556001945050505050614382565b60009150505b92915050565b6000806000806143a362015180878161439d57fe5b046144c5565b925092509250848301925060006143ba8484614599565b9050808211156143c8578091505b6201518087816143d457fe5b06620151806143e4868686614624565b02019450868510156143f557600080fd5b5050505092915050565b600080831182906144ab576040517f08c379a00000000000000000000000000000000000000000000000000000000081526004018080602001828103825283818151815260200191508051906020019080838360005b83811015614470578082015181840152602081019050614455565b50505050905090810190601f16801561449d5780820380516001836020036101000a031916815260200191505b509250505060405180910390fd5b5060008385816144b757fe5b049050809150509392505050565b600080600080849050600062253d8c62010bd98301019050600062023ab182600402816144ee57fe5b059050600460038262023ab102018161450357fe5b0582039150600062164b0960018401610fa0028161451d57fe5b059050601f6004826105b5028161453057fe5b058403019250600061098f846050028161454657fe5b059050600060508261098f028161455957fe5b0585039050600b828161456857fe5b05945084600c0260028301039150848360318603606402010192508298508197508096505050505050509193909250565b600060018214806145aa5750600382145b806145b55750600582145b806145c05750600782145b806145cb5750600882145b806145d65750600a82145b806145e15750600c82145b156145ef57601f905061461e565b6002821461460057601e905061461d565b614609836146d3565b61461457601c614617565b601d5b60ff1690505b5b92915050565b60006107b284101561463557600080fd5b600084905060008490506000849050600062253d8c60046064600c600e87038161465b57fe5b056113248801018161466957fe5b056003028161467457fe5b05600c80600c600e88038161468557fe5b0502600287030361016f028161469757fe5b056004600c600e8803816146a757fe5b056112c08901016105b502816146b957fe5b05617d4b8603010103039050809450505050509392505050565b600080600483816146e057fe5b061480156146f957506000606483816146f557fe5b0614155b8061470f57506000610190838161470c57fe5b06145b9050919050565b6040518060c001604052806000600381111561472e57fe5b8152602001600073ffffffffffffffffffffffffffffffffffffffff16815260200160008152602001606081526020016000151581526020016000151581525090565b828054600181600116156101000203166002900490600052602060002090601f016020900481019282601f106147b257805160ff19168380011785556147e0565b828001600101855582156147e0579182015b828111156147df5782518255916020019190600101906147c4565b5b5090506147ed9190614836565b5090565b6040518060a0016040528060008152602001600081526020016000815260200160008152602001600073ffffffffffffffffffffffffffffffffffffffff1681525090565b61485891905b8082111561485457600081600090555060010161483c565b5090565b9056fe456e756d657261626c655365743a20696e646578206f7574206f6620626f756e647345524332303a207472616e7366657220746f20746865207a65726f2061646472657373416363657373436f6e74726f6c3a2073656e646572206d75737420626520616e2061646d696e20746f206772616e7445524332303a20617070726f766520746f20746865207a65726f206164647265737345524332303a207472616e7366657220616d6f756e7420657863656564732062616c616e636550726976617465436f6d70616e793a2073656e646572206973206e6f74206120666f756e646572416363657373436f6e74726f6c3a2073656e646572206d75737420626520616e2061646d696e20746f207265766f6b6550726976617465436f6d70616e793a206e6f20746f6b656e7320746f2072656c6561736520617420746869732074696d654552433230507269766174653a20746f6b656e207472616e7366657220746f206f776e6572206f6e6c79536166654d6174683a206d756c7469706c69636174696f6e206f766572666c6f7745524332303a207472616e7366657220616d6f756e74206578636565647320616c6c6f77616e63654552433230507269766174653a205265737472696374656420746f206f776e65727345524332303a207472616e736665722066726f6d20746865207a65726f206164647265737350726976617465436f6d70616e793a207472616e73616374696f6e20646f6573206e6f7420657869737445524332303a20617070726f76652066726f6d20746865207a65726f206164647265737345524332303a2064656372656173656420616c6c6f77616e63652062656c6f77207a65726f416363657373436f6e74726f6c3a2063616e206f6e6c792072656e6f756e636520726f6c657320666f722073656c66a2646970667358221220d641fefbcd2212e2d53a7fb0a0b7fe323b24884f109ffa5fd9d77721141df60864736f6c63430006020033",
  "source": "// SPDX-License-Identifier: MIT\npragma solidity >0.6.0;\n\nimport \"./ERC20Private.sol\";\nimport \"./DateTimeLibrary.sol\";\nimport \"@openzeppelin/contracts/math/SafeMath.sol\";\n\n/**\n * @title Private Company contract.\n * @dev Transaction agreement before execution between all founders.\n * @dev Simple vesting schedule of internal token.\n * @dev Internal token(equity) protected. It can only circulate between founders.\n * @author Konstantin Zamaraev\n * @notice This final project for Consensys bootcamp. DO NOT USE IN PRODUCTION.\n */\ncontract PrivateCompany is ERC20Private {\n    // Libraries\n    using SafeMath for uint256;\n    using BokkyPooBahsDateTimeLibrary for uint256;\n\n    // Constants\n    uint256 internal constant TOTAL_SUPPLY = 10000;\n    uint256 internal constant TOKEN_VESTING_TIME = 4; // 4 years for the full vesting\n\n    // Events\n    event LogDeposit(address indexed sender, uint256 value);\n    event LogFounderEquityDistribution(\n        address indexed founderAddress,\n        uint256 equityAmount,\n        uint256 vestingTime\n    );\n    event LogReleasedEquityForHolder(\n        address indexed founderAddress,\n        uint256 equityAmount\n    );\n    event LogTransactionSubmission(\n        TransactionType txType,\n        uint256 indexed transactionId\n    );\n    event LogTransactionExecution(uint256 indexed transactionId);\n    event LogTransactionExecutionFailure(uint256 indexed transactionId);\n    event LogTransactionConfirmation(\n        address indexed sender,\n        uint256 indexed transactionId\n    );\n    event LogContractStopped();\n    event LogContractResume();\n\n    // Storage\n    uint256 private equityPool;\n    address[] public founders;\n    mapping(address => EquityHolder) equityHolders;\n    mapping(uint256 => Transaction) public transactions;\n    mapping(uint256 => mapping(address => bool)) public confirmations;\n    uint256 public transactionCount;\n    bool public stopped = false;\n\n    // Enums\n    enum TransactionType {\n        External,\n        NewFounder,\n        LaunchVestingSchedule,\n        DestroyCompany\n    }\n\n    // Structs\n    struct EquityHolder {\n        uint256 lockTimeStart;\n        uint256 currentBalance;\n        uint256 lockedBalance;\n        uint256 totalBalance;\n        address holderAddress;\n    }\n\n    struct Transaction {\n        TransactionType txType;\n        address destination;\n        uint256 value;\n        bytes data;\n        bool exist;\n        bool executed;\n    }\n\n    // Modifiers\n    modifier stopInEmergency {\n        require(!stopped);\n        _;\n    }\n\n    modifier notNull(address _address) {\n        require(_address != address(0));\n        _;\n    }\n\n    modifier transactionExists(uint256 transactionId) {\n        require(\n            transactions[transactionId].exist,\n            \"PrivateCompany: transaction does not exist\"\n        );\n        _;\n    }\n\n    modifier confirmed(uint256 transactionId) {\n        require(confirmations[transactionId][msg.sender]);\n        _;\n    }\n\n    modifier notConfirmed(uint256 transactionId) {\n        require(!confirmations[transactionId][msg.sender]);\n        _;\n    }\n\n    modifier notExecuted(uint256 transactionId) {\n        require(!transactions[transactionId].executed);\n        _;\n    }\n\n    modifier onlyFounder() {\n        require(\n            hasRole(OWNER_ROLE, msg.sender),\n            \"PrivateCompany: sender is not a founder\"\n        );\n        _;\n    }\n\n    /**\n     * @dev Receive function allows to deposit ether.\n     */\n    receive() external payable {\n        if (msg.value > 0) LogDeposit(msg.sender, msg.value);\n    }\n\n    // Public functions\n    /**\n     * @dev Contract constructor creates private token and\n     * assigning sender as first founder.\n     * @param _companyName Company name.\n     * @param _token Company(token) ticker name.\n     */\n    constructor(string memory _companyName, string memory _token)\n        public\n        payable\n        ERC20(_companyName, _token)\n        ERC20Private()\n    {\n        founders.push(msg.sender);\n    }\n\n    /**\n     * @dev Emergency only! Block transaction submition/confirmation/execution\n     */\n    function stopContract() public onlyFounder {\n        stopped = true;\n        emit LogContractStopped();\n    }\n\n    function resumeContract() public onlyFounder {\n        stopped = false;\n        emit LogContractResume();\n    }\n\n    /**\n     * @dev Return all transaction type strings\n     */\n    function getTransactionTypes()\n        public\n        view\n        onlyFounder\n        returns (\n            string memory externalType,\n            string memory newFounderType,\n            string memory launchVestingScheduleType,\n            string memory destroyCompanyType\n        )\n    {\n        externalType = \"External\";\n        newFounderType = \"NewFounder\";\n        launchVestingScheduleType = \"LaunchVestingSchedule\";\n        destroyCompanyType = \"DestroyCompany\";\n\n        return (\n            externalType,\n            newFounderType,\n            launchVestingScheduleType,\n            destroyCompanyType\n        );\n    }\n\n    /**\n     * @param transactionId Transaction ID.\n     * @dev Transaction detals(type/confirmation status/execution status).\n     */\n    function getTransactionDetails(uint256 transactionId)\n        public\n        view\n        transactionExists(transactionId)\n        returns (\n            bool isConfirmedByMe,\n            bool isExecuted,\n            TransactionType txType\n        )\n    {\n        Transaction memory txById = transactions[transactionId];\n        isConfirmedByMe = confirmations[transactionId][msg.sender];\n        isExecuted = txById.executed;\n        txType = txById.txType;\n\n        return (isConfirmedByMe, isExecuted, txType);\n    }\n\n    /**\n     * @param holderAddress address of equity holder.\n     */\n    function getEquityHolderBalance(address holderAddress)\n        public\n        view\n        returns (\n            uint256 currentBalance,\n            uint256 lockedBalance,\n            uint256 totalBalance\n        )\n    {\n        currentBalance = equityHolders[holderAddress].currentBalance;\n        lockedBalance = equityHolders[holderAddress].lockedBalance;\n        totalBalance = equityHolders[holderAddress].totalBalance;\n\n        return (currentBalance, lockedBalance, totalBalance);\n    }\n\n    /**\n     * @dev Allows a founder to check if there are tokens to release and mint.\n     */\n    function releaseVestedEquity() public onlyFounder {\n        uint256 unreleasedAmount = _releasableEquityAmount(msg.sender);\n\n        require(\n            unreleasedAmount > 0,\n            \"PrivateCompany: no tokens to release at this time\"\n        );\n\n        EquityHolder storage equityHolder = equityHolders[msg.sender];\n\n        equityHolder.currentBalance = equityHolder.currentBalance.add(\n            unreleasedAmount\n        );\n\n        equityHolder.lockedBalance = equityHolder.lockedBalance.sub(\n            unreleasedAmount\n        );\n\n        _mint(msg.sender, unreleasedAmount);\n        emit LogReleasedEquityForHolder(msg.sender, unreleasedAmount);\n    }\n\n    /**\n     * @dev Allows a founder to submit and confirm a transaction.\n     * @param txTypeKey Transaction type key string.\n     * @param destination Transaction target address.\n     * @param value Transaction ether value.\n     * @param data Transaction data payload.\n     */\n    function submitTransaction(\n        string memory txTypeKey,\n        address destination,\n        uint256 value,\n        bytes memory data\n    ) public stopInEmergency onlyFounder returns (uint256 transactionId) {\n        TransactionType txType = _getTransactionEnumValueByKey(txTypeKey);\n        transactionId = _addTransaction(txType, destination, value, data);\n        confirmTransaction(transactionId);\n    }\n\n    /**\n     * @dev Allows a founder to confirm a transaction.\n     * @param transactionId Transaction ID.\n     */\n    function confirmTransaction(uint256 transactionId)\n        public\n        stopInEmergency\n        onlyFounder\n        transactionExists(transactionId)\n        notConfirmed(transactionId)\n    {\n        confirmations[transactionId][msg.sender] = true;\n        emit LogTransactionConfirmation(msg.sender, transactionId);\n        executeTransaction(transactionId);\n    }\n\n    /**\n     * @dev Allows anyone to execute a confirmed transaction.\n     * @param transactionId Transaction ID.\n     */\n    function executeTransaction(uint256 transactionId)\n        public\n        stopInEmergency\n        onlyFounder\n        confirmed(transactionId)\n        notExecuted(transactionId)\n    {\n        if (_isConfirmed(transactionId)) {\n            Transaction storage txn = transactions[transactionId];\n            txn.executed = true;\n\n            if (txn.txType == TransactionType.External) {\n                if (_externalCall(txn.destination, txn.value, txn.data)) {\n                    emit LogTransactionExecution(transactionId);\n                } else {\n                    emit LogTransactionExecutionFailure(transactionId);\n                    txn.executed = false;\n                }\n            }\n\n            if (txn.txType == TransactionType.NewFounder) {\n                _addNewFounder(txn.destination);\n            }\n\n            if (txn.txType == TransactionType.LaunchVestingSchedule) {\n                _launchVestingSchedule();\n            }\n\n            if (txn.txType == TransactionType.DestroyCompany) {\n                selfdestruct(address(uint160(txn.destination)));\n            }\n        }\n    }\n\n    // Private functions\n    /**\n     * @dev Returns the confirmation status of a transaction.\n     * @param transactionId Transaction ID.\n     * @return Confirmation status.\n     */\n    function _isConfirmed(uint256 transactionId) private view returns (bool) {\n        uint256 count = 0;\n        for (uint256 i = 0; i < founders.length; i++) {\n            if (confirmations[transactionId][founders[i]]) {\n                count += 1;\n            }\n            if (count == founders.length) {\n                return true;\n            }\n        }\n    }\n\n    /**\n     * @dev Sets equal amounts of equities for founders\n     * with the vesting schedule (4 years duration)\n     */\n    function _launchVestingSchedule() private onlyFounder {\n        uint256 totalSupply = TOTAL_SUPPLY.mul(10**uint256(decimals()));\n        uint256 founderDistributonSupply = totalSupply.mul(90).div(100); // 90% goes to initial founders / 10% to equity pool\n        equityPool = totalSupply.sub(founderDistributonSupply);\n        uint256 equityAmount = founderDistributonSupply.div(founders.length);\n\n        for (uint256 i = 0; i < founders.length; i++) {\n            equityHolders[founders[i]] = EquityHolder(\n                block.timestamp,\n                0,\n                equityAmount,\n                equityAmount,\n                founders[i]\n            );\n\n            emit LogFounderEquityDistribution(\n                founders[i],\n                equityAmount,\n                TOKEN_VESTING_TIME\n            );\n        }\n    }\n\n    /**\n     * @param founderAddress new founder address.\n     */\n    function _addNewFounder(address founderAddress) private returns (bool) {\n        require(founderAddress != address(0));\n\n        _addOwner(founderAddress);\n        founders.push(founderAddress);\n    }\n\n    /**\n     * @param txKey Transaction type string.\n     */\n    function _getTransactionEnumValueByKey(string memory txKey)\n        private\n        pure\n        returns (TransactionType)\n    {\n        if (keccak256(bytes(txKey)) == keccak256(\"External\"))\n            return TransactionType.External;\n        if (keccak256(bytes(txKey)) == keccak256(\"NewFounder\"))\n            return TransactionType.NewFounder;\n        if (keccak256(bytes(txKey)) == keccak256(\"LaunchVestingSchedule\"))\n            return TransactionType.LaunchVestingSchedule;\n        if (keccak256(bytes(txKey)) == keccak256(\"DestroyCompany\"))\n            return TransactionType.DestroyCompany;\n        revert();\n    }\n\n    /**\n     * @param holderAddress address of equity holder.\n     */\n    function _releasableEquityAmount(address holderAddress)\n        private\n        view\n        returns (uint256)\n    {\n        EquityHolder memory holder = equityHolders[holderAddress];\n\n        uint256 currentBalance = holder.currentBalance;\n\n        return _vestedEquityAmount(holderAddress).sub(currentBalance);\n    }\n\n    /**\n     * @param holderAddress address of equity holder.\n     */\n    function _vestedEquityAmount(address holderAddress)\n        private\n        view\n        returns (uint256)\n    {\n        EquityHolder memory holder = equityHolders[holderAddress];\n        uint256 totalBalance = holder.totalBalance;\n        uint256 lockTimeStart = holder.lockTimeStart;\n        uint256 durationLeft = block.timestamp.sub(lockTimeStart);\n        uint256 durationFull = lockTimeStart.addYears(TOKEN_VESTING_TIME);\n\n        if (block.timestamp >= durationFull) {\n            return totalBalance;\n        } else {\n            return totalBalance.mul(durationLeft).div(durationFull);\n        }\n    }\n\n    /**\n     * @dev Adds a new transaction to the transaction mapping, if transaction does not exist yet.\n     * @param txType Transaction type.\n     * @param destination Transaction target address.\n     * @param value Transaction ether value.\n     * @param data Transaction data payload.\n     */\n    function _addTransaction(\n        TransactionType txType,\n        address destination,\n        uint256 value,\n        bytes memory data\n    ) private notNull(destination) returns (uint256 transactionId) {\n        transactionId = transactionCount;\n        transactions[transactionId] = Transaction({\n            txType: txType,\n            destination: destination,\n            value: value,\n            data: data,\n            exist: true,\n            executed: false\n        });\n        transactionCount += 1;\n        emit LogTransactionSubmission(txType, transactionId);\n    }\n\n    /**\n     * Call has been separated into its own function in order to take advantage\n     * of the Solidity's code generator to produce a loop that copies tx.data into memory.\n     */\n    function _externalCall(\n        address destination,\n        uint256 value,\n        bytes memory data\n    ) private returns (bool) {\n        bool result;\n        assembly {\n            result := call(\n                gas(),\n                destination,\n                value,\n                add(data, 32), // First 32 bytes are the padded length of data, so exclude that\n                mload(data), // Size of the input (in bytes) - this is what fixes the padding problem\n                0,\n                0 // Output is ignored, therefore the output size is zero\n            )\n        }\n        return result;\n    }\n}\n",
  "sourcePath": "/Users/konstantin/dev/consensys/final-project/startup-3.0/contracts/PrivateCompany.sol",
  "compiler": {
    "name": "solc",
    "version": "0.6.2+commit.bacdbe57.Emscripten.clang"
  },
  "schemaVersion": "3.2.5",
  "updatedAt": "2020-12-03T13:42:14.884Z",
  "devdoc": {
    "author": "Konstantin Zamaraev",
    "details": "Transaction agreement before execution between all founders.Simple vesting schedule of internal token.Internal token(equity) protected. It can only circulate between founders.",
    "methods": {
      "allowance(address,address)": {
        "details": "See {IERC20-allowance}."
      },
      "approve(address,uint256)": {
        "details": "See {IERC20-approve}.     * Requirements:     * - `spender` cannot be the zero address."
      },
      "balanceOf(address)": {
        "details": "See {IERC20-balanceOf}."
      },
      "confirmTransaction(uint256)": {
        "details": "Allows a founder to confirm a transaction.",
        "params": {
          "transactionId": "Transaction ID."
        }
      },
      "constructor": {
        "details": "Contract constructor creates private token and assigning sender as first founder.",
        "params": {
          "_companyName": "Company name.",
          "_token": "Company(token) ticker name."
        }
      },
      "decimals()": {
        "details": "Returns the number of decimals used to get its user representation. For example, if `decimals` equals `2`, a balance of `505` tokens should be displayed to a user as `5,05` (`505 / 10 ** 2`).     * Tokens usually opt for a value of 18, imitating the relationship between Ether and Wei. This is the value {ERC20} uses, unless {_setupDecimals} is called.     * NOTE: This information is only used for _display_ purposes: it in no way affects any of the arithmetic of the contract, including {IERC20-balanceOf} and {IERC20-transfer}."
      },
      "decreaseAllowance(address,uint256)": {
        "details": "Atomically decreases the allowance granted to `spender` by the caller.     * This is an alternative to {approve} that can be used as a mitigation for problems described in {IERC20-approve}.     * Emits an {Approval} event indicating the updated allowance.     * Requirements:     * - `spender` cannot be the zero address. - `spender` must have allowance for the caller of at least `subtractedValue`."
      },
      "executeTransaction(uint256)": {
        "details": "Allows anyone to execute a confirmed transaction.",
        "params": {
          "transactionId": "Transaction ID."
        }
      },
      "getEquityHolderBalance(address)": {
        "params": {
          "holderAddress": "address of equity holder."
        }
      },
      "getRoleAdmin(bytes32)": {
        "details": "Returns the admin role that controls `role`. See {grantRole} and {revokeRole}.     * To change a role's admin, use {_setRoleAdmin}."
      },
      "getRoleMember(bytes32,uint256)": {
        "details": "Returns one of the accounts that have `role`. `index` must be a value between 0 and {getRoleMemberCount}, non-inclusive.     * Role bearers are not sorted in any particular way, and their ordering may change at any point.     * WARNING: When using {getRoleMember} and {getRoleMemberCount}, make sure you perform all queries on the same block. See the following https://forum.openzeppelin.com/t/iterating-over-elements-on-enumerableset-in-openzeppelin-contracts/2296[forum post] for more information."
      },
      "getRoleMemberCount(bytes32)": {
        "details": "Returns the number of accounts that have `role`. Can be used together with {getRoleMember} to enumerate all bearers of a role."
      },
      "getTransactionDetails(uint256)": {
        "details": "Transaction detals(type/confirmation status/execution status).",
        "params": {
          "transactionId": "Transaction ID."
        }
      },
      "getTransactionTypes()": {
        "details": "Return all transaction type strings"
      },
      "grantRole(bytes32,address)": {
        "details": "Grants `role` to `account`.     * If `account` had not been already granted `role`, emits a {RoleGranted} event.     * Requirements:     * - the caller must have ``role``'s admin role."
      },
      "hasRole(bytes32,address)": {
        "details": "Returns `true` if `account` has been granted `role`."
      },
      "increaseAllowance(address,uint256)": {
        "details": "Atomically increases the allowance granted to `spender` by the caller.     * This is an alternative to {approve} that can be used as a mitigation for problems described in {IERC20-approve}.     * Emits an {Approval} event indicating the updated allowance.     * Requirements:     * - `spender` cannot be the zero address."
      },
      "isOwner(address)": {
        "details": "Return `true` if the account belongs to the owner role."
      },
      "name()": {
        "details": "Returns the name of the token."
      },
      "releaseVestedEquity()": {
        "details": "Allows a founder to check if there are tokens to release and mint."
      },
      "renounceRole(bytes32,address)": {
        "details": "Revokes `role` from the calling account.     * Roles are often managed via {grantRole} and {revokeRole}: this function's purpose is to provide a mechanism for accounts to lose their privileges if they are compromised (such as when a trusted device is misplaced).     * If the calling account had been granted `role`, emits a {RoleRevoked} event.     * Requirements:     * - the caller must be `account`."
      },
      "revokeRole(bytes32,address)": {
        "details": "Revokes `role` from `account`.     * If `account` had been granted `role`, emits a {RoleRevoked} event.     * Requirements:     * - the caller must have ``role``'s admin role."
      },
      "stopContract()": {
        "details": "Emergency only! Block transaction submition/confirmation/execution"
      },
      "submitTransaction(string,address,uint256,bytes)": {
        "details": "Allows a founder to submit and confirm a transaction.",
        "params": {
          "data": "Transaction data payload.",
          "destination": "Transaction target address.",
          "txTypeKey": "Transaction type key string.",
          "value": "Transaction ether value."
        }
      },
      "symbol()": {
        "details": "Returns the symbol of the token, usually a shorter version of the name."
      },
      "totalSupply()": {
        "details": "See {IERC20-totalSupply}."
      },
      "transfer(address,uint256)": {
        "details": "See {IERC20-transfer}.     * Requirements:     * - `recipient` cannot be the zero address. - the caller must have a balance of at least `amount`."
      },
      "transferFrom(address,address,uint256)": {
        "details": "See {IERC20-transferFrom}.     * Emits an {Approval} event indicating the updated allowance. This is not required by the EIP. See the note at the beginning of {ERC20};     * Requirements: - `sender` and `recipient` cannot be the zero address. - `sender` must have a balance of at least `amount`. - the caller must have allowance for ``sender``'s tokens of at least `amount`."
      }
    },
    "title": "Private Company contract."
  },
  "userdoc": {
    "methods": {},
    "notice": "This final project for Consensys bootcamp. DO NOT USE IN PRODUCTION."
  }
}