{
  "contractName": "PrivateCompany",
  "abi": [
    {
      "inputs": [
        {
          "internalType": "string",
          "name": "_companyName",
          "type": "string"
        },
        {
          "internalType": "string",
          "name": "_token",
          "type": "string"
        }
      ],
      "stateMutability": "payable",
      "type": "constructor"
    },
    {
      "anonymous": false,
      "inputs": [
        {
          "indexed": true,
          "internalType": "address",
          "name": "owner",
          "type": "address"
        },
        {
          "indexed": true,
          "internalType": "address",
          "name": "spender",
          "type": "address"
        },
        {
          "indexed": false,
          "internalType": "uint256",
          "name": "value",
          "type": "uint256"
        }
      ],
      "name": "Approval",
      "type": "event"
    },
    {
      "anonymous": false,
      "inputs": [],
      "name": "LogContractResume",
      "type": "event"
    },
    {
      "anonymous": false,
      "inputs": [],
      "name": "LogContractStopped",
      "type": "event"
    },
    {
      "anonymous": false,
      "inputs": [
        {
          "indexed": true,
          "internalType": "address",
          "name": "sender",
          "type": "address"
        },
        {
          "indexed": false,
          "internalType": "uint256",
          "name": "value",
          "type": "uint256"
        }
      ],
      "name": "LogDeposit",
      "type": "event"
    },
    {
      "anonymous": false,
      "inputs": [
        {
          "indexed": true,
          "internalType": "address",
          "name": "founderAddress",
          "type": "address"
        },
        {
          "indexed": false,
          "internalType": "uint256",
          "name": "equityAmount",
          "type": "uint256"
        },
        {
          "indexed": false,
          "internalType": "uint256",
          "name": "vestingTime",
          "type": "uint256"
        }
      ],
      "name": "LogFounderEquityDistribution",
      "type": "event"
    },
    {
      "anonymous": false,
      "inputs": [
        {
          "indexed": true,
          "internalType": "address",
          "name": "founderAddress",
          "type": "address"
        },
        {
          "indexed": false,
          "internalType": "uint256",
          "name": "equityAmount",
          "type": "uint256"
        }
      ],
      "name": "LogReleasedEquityForHolder",
      "type": "event"
    },
    {
      "anonymous": false,
      "inputs": [
        {
          "indexed": true,
          "internalType": "address",
          "name": "sender",
          "type": "address"
        },
        {
          "indexed": true,
          "internalType": "uint256",
          "name": "transactionId",
          "type": "uint256"
        }
      ],
      "name": "LogTransactionConfirmation",
      "type": "event"
    },
    {
      "anonymous": false,
      "inputs": [
        {
          "indexed": true,
          "internalType": "uint256",
          "name": "transactionId",
          "type": "uint256"
        }
      ],
      "name": "LogTransactionExecution",
      "type": "event"
    },
    {
      "anonymous": false,
      "inputs": [
        {
          "indexed": true,
          "internalType": "uint256",
          "name": "transactionId",
          "type": "uint256"
        }
      ],
      "name": "LogTransactionExecutionFailure",
      "type": "event"
    },
    {
      "anonymous": false,
      "inputs": [
        {
          "indexed": false,
          "internalType": "enum PrivateCompany.TransactionType",
          "name": "txType",
          "type": "uint8"
        },
        {
          "indexed": true,
          "internalType": "uint256",
          "name": "transactionId",
          "type": "uint256"
        }
      ],
      "name": "LogTransactionSubmission",
      "type": "event"
    },
    {
      "anonymous": false,
      "inputs": [
        {
          "indexed": true,
          "internalType": "bytes32",
          "name": "role",
          "type": "bytes32"
        },
        {
          "indexed": true,
          "internalType": "bytes32",
          "name": "previousAdminRole",
          "type": "bytes32"
        },
        {
          "indexed": true,
          "internalType": "bytes32",
          "name": "newAdminRole",
          "type": "bytes32"
        }
      ],
      "name": "RoleAdminChanged",
      "type": "event"
    },
    {
      "anonymous": false,
      "inputs": [
        {
          "indexed": true,
          "internalType": "bytes32",
          "name": "role",
          "type": "bytes32"
        },
        {
          "indexed": true,
          "internalType": "address",
          "name": "account",
          "type": "address"
        },
        {
          "indexed": true,
          "internalType": "address",
          "name": "sender",
          "type": "address"
        }
      ],
      "name": "RoleGranted",
      "type": "event"
    },
    {
      "anonymous": false,
      "inputs": [
        {
          "indexed": true,
          "internalType": "bytes32",
          "name": "role",
          "type": "bytes32"
        },
        {
          "indexed": true,
          "internalType": "address",
          "name": "account",
          "type": "address"
        },
        {
          "indexed": true,
          "internalType": "address",
          "name": "sender",
          "type": "address"
        }
      ],
      "name": "RoleRevoked",
      "type": "event"
    },
    {
      "anonymous": false,
      "inputs": [
        {
          "indexed": true,
          "internalType": "address",
          "name": "from",
          "type": "address"
        },
        {
          "indexed": true,
          "internalType": "address",
          "name": "to",
          "type": "address"
        },
        {
          "indexed": false,
          "internalType": "uint256",
          "name": "value",
          "type": "uint256"
        }
      ],
      "name": "Transfer",
      "type": "event"
    },
    {
      "inputs": [],
      "name": "DEFAULT_ADMIN_ROLE",
      "outputs": [
        {
          "internalType": "bytes32",
          "name": "",
          "type": "bytes32"
        }
      ],
      "stateMutability": "view",
      "type": "function"
    },
    {
      "inputs": [],
      "name": "OWNER_ROLE",
      "outputs": [
        {
          "internalType": "bytes32",
          "name": "",
          "type": "bytes32"
        }
      ],
      "stateMutability": "view",
      "type": "function"
    },
    {
      "inputs": [
        {
          "internalType": "address",
          "name": "owner",
          "type": "address"
        },
        {
          "internalType": "address",
          "name": "spender",
          "type": "address"
        }
      ],
      "name": "allowance",
      "outputs": [
        {
          "internalType": "uint256",
          "name": "",
          "type": "uint256"
        }
      ],
      "stateMutability": "view",
      "type": "function"
    },
    {
      "inputs": [
        {
          "internalType": "address",
          "name": "spender",
          "type": "address"
        },
        {
          "internalType": "uint256",
          "name": "amount",
          "type": "uint256"
        }
      ],
      "name": "approve",
      "outputs": [
        {
          "internalType": "bool",
          "name": "",
          "type": "bool"
        }
      ],
      "stateMutability": "nonpayable",
      "type": "function"
    },
    {
      "inputs": [
        {
          "internalType": "address",
          "name": "account",
          "type": "address"
        }
      ],
      "name": "balanceOf",
      "outputs": [
        {
          "internalType": "uint256",
          "name": "",
          "type": "uint256"
        }
      ],
      "stateMutability": "view",
      "type": "function"
    },
    {
      "inputs": [
        {
          "internalType": "uint256",
          "name": "",
          "type": "uint256"
        },
        {
          "internalType": "address",
          "name": "",
          "type": "address"
        }
      ],
      "name": "confirmations",
      "outputs": [
        {
          "internalType": "bool",
          "name": "",
          "type": "bool"
        }
      ],
      "stateMutability": "view",
      "type": "function"
    },
    {
      "inputs": [],
      "name": "decimals",
      "outputs": [
        {
          "internalType": "uint8",
          "name": "",
          "type": "uint8"
        }
      ],
      "stateMutability": "view",
      "type": "function"
    },
    {
      "inputs": [
        {
          "internalType": "address",
          "name": "spender",
          "type": "address"
        },
        {
          "internalType": "uint256",
          "name": "subtractedValue",
          "type": "uint256"
        }
      ],
      "name": "decreaseAllowance",
      "outputs": [
        {
          "internalType": "bool",
          "name": "",
          "type": "bool"
        }
      ],
      "stateMutability": "nonpayable",
      "type": "function"
    },
    {
      "inputs": [
        {
          "internalType": "uint256",
          "name": "",
          "type": "uint256"
        }
      ],
      "name": "founders",
      "outputs": [
        {
          "internalType": "address",
          "name": "",
          "type": "address"
        }
      ],
      "stateMutability": "view",
      "type": "function"
    },
    {
      "inputs": [
        {
          "internalType": "bytes32",
          "name": "role",
          "type": "bytes32"
        }
      ],
      "name": "getRoleAdmin",
      "outputs": [
        {
          "internalType": "bytes32",
          "name": "",
          "type": "bytes32"
        }
      ],
      "stateMutability": "view",
      "type": "function"
    },
    {
      "inputs": [
        {
          "internalType": "bytes32",
          "name": "role",
          "type": "bytes32"
        },
        {
          "internalType": "uint256",
          "name": "index",
          "type": "uint256"
        }
      ],
      "name": "getRoleMember",
      "outputs": [
        {
          "internalType": "address",
          "name": "",
          "type": "address"
        }
      ],
      "stateMutability": "view",
      "type": "function"
    },
    {
      "inputs": [
        {
          "internalType": "bytes32",
          "name": "role",
          "type": "bytes32"
        }
      ],
      "name": "getRoleMemberCount",
      "outputs": [
        {
          "internalType": "uint256",
          "name": "",
          "type": "uint256"
        }
      ],
      "stateMutability": "view",
      "type": "function"
    },
    {
      "inputs": [
        {
          "internalType": "bytes32",
          "name": "role",
          "type": "bytes32"
        },
        {
          "internalType": "address",
          "name": "account",
          "type": "address"
        }
      ],
      "name": "grantRole",
      "outputs": [],
      "stateMutability": "nonpayable",
      "type": "function"
    },
    {
      "inputs": [
        {
          "internalType": "bytes32",
          "name": "role",
          "type": "bytes32"
        },
        {
          "internalType": "address",
          "name": "account",
          "type": "address"
        }
      ],
      "name": "hasRole",
      "outputs": [
        {
          "internalType": "bool",
          "name": "",
          "type": "bool"
        }
      ],
      "stateMutability": "view",
      "type": "function"
    },
    {
      "inputs": [
        {
          "internalType": "address",
          "name": "spender",
          "type": "address"
        },
        {
          "internalType": "uint256",
          "name": "addedValue",
          "type": "uint256"
        }
      ],
      "name": "increaseAllowance",
      "outputs": [
        {
          "internalType": "bool",
          "name": "",
          "type": "bool"
        }
      ],
      "stateMutability": "nonpayable",
      "type": "function"
    },
    {
      "inputs": [
        {
          "internalType": "address",
          "name": "account",
          "type": "address"
        }
      ],
      "name": "isOwner",
      "outputs": [
        {
          "internalType": "bool",
          "name": "",
          "type": "bool"
        }
      ],
      "stateMutability": "view",
      "type": "function"
    },
    {
      "inputs": [],
      "name": "name",
      "outputs": [
        {
          "internalType": "string",
          "name": "",
          "type": "string"
        }
      ],
      "stateMutability": "view",
      "type": "function"
    },
    {
      "inputs": [
        {
          "internalType": "bytes32",
          "name": "role",
          "type": "bytes32"
        },
        {
          "internalType": "address",
          "name": "account",
          "type": "address"
        }
      ],
      "name": "renounceRole",
      "outputs": [],
      "stateMutability": "nonpayable",
      "type": "function"
    },
    {
      "inputs": [
        {
          "internalType": "bytes32",
          "name": "role",
          "type": "bytes32"
        },
        {
          "internalType": "address",
          "name": "account",
          "type": "address"
        }
      ],
      "name": "revokeRole",
      "outputs": [],
      "stateMutability": "nonpayable",
      "type": "function"
    },
    {
      "inputs": [],
      "name": "stopped",
      "outputs": [
        {
          "internalType": "bool",
          "name": "",
          "type": "bool"
        }
      ],
      "stateMutability": "view",
      "type": "function"
    },
    {
      "inputs": [],
      "name": "symbol",
      "outputs": [
        {
          "internalType": "string",
          "name": "",
          "type": "string"
        }
      ],
      "stateMutability": "view",
      "type": "function"
    },
    {
      "inputs": [],
      "name": "totalSupply",
      "outputs": [
        {
          "internalType": "uint256",
          "name": "",
          "type": "uint256"
        }
      ],
      "stateMutability": "view",
      "type": "function"
    },
    {
      "inputs": [],
      "name": "transactionCount",
      "outputs": [
        {
          "internalType": "uint256",
          "name": "",
          "type": "uint256"
        }
      ],
      "stateMutability": "view",
      "type": "function"
    },
    {
      "inputs": [
        {
          "internalType": "uint256",
          "name": "",
          "type": "uint256"
        }
      ],
      "name": "transactions",
      "outputs": [
        {
          "internalType": "enum PrivateCompany.TransactionType",
          "name": "txType",
          "type": "uint8"
        },
        {
          "internalType": "address",
          "name": "destination",
          "type": "address"
        },
        {
          "internalType": "uint256",
          "name": "value",
          "type": "uint256"
        },
        {
          "internalType": "bytes",
          "name": "data",
          "type": "bytes"
        },
        {
          "internalType": "bool",
          "name": "exist",
          "type": "bool"
        },
        {
          "internalType": "bool",
          "name": "executed",
          "type": "bool"
        }
      ],
      "stateMutability": "view",
      "type": "function"
    },
    {
      "inputs": [
        {
          "internalType": "address",
          "name": "recipient",
          "type": "address"
        },
        {
          "internalType": "uint256",
          "name": "amount",
          "type": "uint256"
        }
      ],
      "name": "transfer",
      "outputs": [
        {
          "internalType": "bool",
          "name": "",
          "type": "bool"
        }
      ],
      "stateMutability": "nonpayable",
      "type": "function"
    },
    {
      "inputs": [
        {
          "internalType": "address",
          "name": "sender",
          "type": "address"
        },
        {
          "internalType": "address",
          "name": "recipient",
          "type": "address"
        },
        {
          "internalType": "uint256",
          "name": "amount",
          "type": "uint256"
        }
      ],
      "name": "transferFrom",
      "outputs": [
        {
          "internalType": "bool",
          "name": "",
          "type": "bool"
        }
      ],
      "stateMutability": "nonpayable",
      "type": "function"
    },
    {
      "inputs": [],
      "name": "vestingSchedule",
      "outputs": [
        {
          "internalType": "bool",
          "name": "",
          "type": "bool"
        }
      ],
      "stateMutability": "view",
      "type": "function"
    },
    {
      "stateMutability": "payable",
      "type": "receive"
    },
    {
      "inputs": [],
      "name": "stopContract",
      "outputs": [],
      "stateMutability": "nonpayable",
      "type": "function"
    },
    {
      "inputs": [],
      "name": "resumeContract",
      "outputs": [],
      "stateMutability": "nonpayable",
      "type": "function"
    },
    {
      "inputs": [],
      "name": "getTransactionTypes",
      "outputs": [
        {
          "internalType": "string",
          "name": "externalType",
          "type": "string"
        },
        {
          "internalType": "string",
          "name": "newFounderType",
          "type": "string"
        },
        {
          "internalType": "string",
          "name": "launchVestingScheduleType",
          "type": "string"
        },
        {
          "internalType": "string",
          "name": "destroyCompanyType",
          "type": "string"
        }
      ],
      "stateMutability": "view",
      "type": "function"
    },
    {
      "inputs": [
        {
          "internalType": "uint256",
          "name": "transactionId",
          "type": "uint256"
        }
      ],
      "name": "getTransactionDetails",
      "outputs": [
        {
          "internalType": "bool",
          "name": "isConfirmedByMe",
          "type": "bool"
        },
        {
          "internalType": "bool",
          "name": "isExecuted",
          "type": "bool"
        },
        {
          "internalType": "enum PrivateCompany.TransactionType",
          "name": "txType",
          "type": "uint8"
        }
      ],
      "stateMutability": "view",
      "type": "function"
    },
    {
      "inputs": [
        {
          "internalType": "address",
          "name": "holderAddress",
          "type": "address"
        }
      ],
      "name": "getEquityHolderBalance",
      "outputs": [
        {
          "internalType": "uint256",
          "name": "currentBalance",
          "type": "uint256"
        },
        {
          "internalType": "uint256",
          "name": "lockedBalance",
          "type": "uint256"
        },
        {
          "internalType": "uint256",
          "name": "totalBalance",
          "type": "uint256"
        }
      ],
      "stateMutability": "view",
      "type": "function"
    },
    {
      "inputs": [],
      "name": "releaseVestedEquity",
      "outputs": [],
      "stateMutability": "nonpayable",
      "type": "function"
    },
    {
      "inputs": [
        {
          "internalType": "string",
          "name": "txTypeKey",
          "type": "string"
        },
        {
          "internalType": "address",
          "name": "destination",
          "type": "address"
        },
        {
          "internalType": "uint256",
          "name": "value",
          "type": "uint256"
        },
        {
          "internalType": "bytes",
          "name": "data",
          "type": "bytes"
        }
      ],
      "name": "submitTransaction",
      "outputs": [
        {
          "internalType": "uint256",
          "name": "transactionId",
          "type": "uint256"
        }
      ],
      "stateMutability": "nonpayable",
      "type": "function"
    },
    {
      "inputs": [
        {
          "internalType": "uint256",
          "name": "transactionId",
          "type": "uint256"
        }
      ],
      "name": "confirmTransaction",
      "outputs": [],
      "stateMutability": "nonpayable",
      "type": "function"
    },
    {
      "inputs": [
        {
          "internalType": "uint256",
          "name": "transactionId",
          "type": "uint256"
        }
      ],
      "name": "executeTransaction",
      "outputs": [],
      "stateMutability": "nonpayable",
      "type": "function"
    }
  ],
  "bytecode": "0x60806040526000600d60006101000a81548160ff0219169083151502179055506000600d60016101000a81548160ff0219169083151502179055506040516200520938038062005209833981810160405260408110156200005f57600080fd5b81019080805160405193929190846401000000008211156200008057600080fd5b838201915060208201858111156200009757600080fd5b8251866001820283011164010000000082111715620000b557600080fd5b8083526020830192505050908051906020019080838360005b83811015620000eb578082015181840152602081019050620000ce565b50505050905090810190601f168015620001195780820380516001836020036101000a031916815260200191505b50604052602001805160405193929190846401000000008211156200013d57600080fd5b838201915060208201858111156200015457600080fd5b82518660018202830111640100000000821117156200017257600080fd5b8083526020830192505050908051906020019080838360005b83811015620001a85780820151818401526020810190506200018b565b50505050905090810190601f168015620001d65780820380516001836020036101000a031916815260200191505b5060405250505081818160039080519060200190620001f792919062000597565b5080600490805190602001906200021092919062000597565b506012600560006101000a81548160ff021916908360ff16021790555050506200027f60405180807f4f574e455200000000000000000000000000000000000000000000000000000081525060050190506040518091039020336200036f640100000000026401000000009004565b6200030460405180807f4f574e45520000000000000000000000000000000000000000000000000000008152506005019050604051809103902060405180807f4f574e4552000000000000000000000000000000000000000000000000000000815250600501905060405180910390206200038e640100000000026401000000009004565b6008339080600181540180825580915050600190039060005260206000200160009091909190916101000a81548173ffffffffffffffffffffffffffffffffffffffff021916908373ffffffffffffffffffffffffffffffffffffffff160217905550505062000646565b6200038a8282620003f2640100000000026401000000009004565b5050565b806006600084815260200190815260200160002060020154837fbd79b86ffe0ab8e8776151514217cd7cacd52c909f66475c3af44e129f0b00ff60405160405180910390a48060066000848152602001908152602001600020600201819055505050565b6200042a8160066000858152602001908152602001600020600001620004a86401000000000262003ecb179091906401000000009004565b15620004a45762000449620004e9640100000000026401000000009004565b73ffffffffffffffffffffffffffffffffffffffff168173ffffffffffffffffffffffffffffffffffffffff16837f2f8788117e7eff1d82e926ec794901d17c78024a50270940304540a733656f0d60405160405180910390a45b5050565b6000620004e1836000018373ffffffffffffffffffffffffffffffffffffffff16600102620004f1640100000000026401000000009004565b905092915050565b600033905090565b60006200050e838362000574640100000000026401000000009004565b620005695782600001829080600181540180825580915050600190039060005260206000200160009091909190915055826000018054905083600101600084815260200190815260200160002081905550600190506200056e565b600090505b92915050565b600080836001016000848152602001908152602001600020541415905092915050565b828054600181600116156101000203166002900490600052602060002090601f016020900481019282601f10620005da57805160ff19168380011785556200060b565b828001600101855582156200060b579182015b828111156200060a578251825591602001919060010190620005ed565b5b5090506200061a91906200061e565b5090565b6200064391905b808211156200063f57600081600090555060010162000625565b5090565b90565b614bb380620006566000396000f3fe608060405260043610610230576000357c0100000000000000000000000000000000000000000000000000000000900480639010d07c11610135578063c01a8c84116100bd578063d547741f1161008c578063d547741f146110a0578063d8e75f62146110fb578063dd62ed3e14611176578063e58378bb146111fb578063ee22610b146112265761028f565b8063c01a8c8414610f8c578063c4bc5da514610fc7578063c99e06c314610fde578063ca15c873146110515761028f565b8063a217fddf11610104578063a217fddf14610e39578063a457c2d714610e64578063a9059cbb14610ed7578063b500aaed14610f4a578063b77bf60014610f615761028f565b80639010d07c14610b9857806391d1485414610c1d57806395d89b4114610c905780639ace38c214610d205761028f565b80632f54bf6e116101b85780633950935111610187578063395093511461088e578063476a4b58146109015780634b68044414610ad557806370a0823114610b0457806375f12b2114610b695761028f565b80632f54bf6e14610726578063313ce5671461078f5780633411c81c146107c057806336568abe146108335761028f565b806318160ddd116101ff57806318160ddd1461042157806323b872dd1461044c578063248a9ca3146104df578063281a99561461052e5780632f2ff15d146106cb5761028f565b806306fdde0314610294578063095ea7b3146103245780630fa683d31461039757806312253a6c1461040a5761028f565b3661028f57600034111561028d573373ffffffffffffffffffffffffffffffffffffffff167f1b851e1031ef35a238e6c67d0c7991162390df915f70eaf9098dbf0b175a6198346040518082815260200191505060405180910390a25b005b600080fd5b3480156102a057600080fd5b506102a9611261565b6040518080602001828103825283818151815260200191508051906020019080838360005b838110156102e95780820151818401526020810190506102ce565b50505050905090810190601f1680156103165780820380516001836020036101000a031916815260200191505b509250505060405180910390f35b34801561033057600080fd5b5061037d6004803603604081101561034757600080fd5b81019080803573ffffffffffffffffffffffffffffffffffffffff16906020019092919080359060200190929190505050611303565b604051808215151515815260200191505060405180910390f35b3480156103a357600080fd5b506103d0600480360360208110156103ba57600080fd5b8101908080359060200190929190505050611321565b6040518084151515158152602001831515151581526020018260038111156103f457fe5b60ff168152602001935050505060405180910390f35b34801561041657600080fd5b5061041f6115ad565b005b34801561042d57600080fd5b5061043661168a565b6040518082815260200191505060405180910390f35b34801561045857600080fd5b506104c56004803603606081101561046f57600080fd5b81019080803573ffffffffffffffffffffffffffffffffffffffff169060200190929190803573ffffffffffffffffffffffffffffffffffffffff16906020019092919080359060200190929190505050611694565b604051808215151515815260200191505060405180910390f35b3480156104eb57600080fd5b506105186004803603602081101561050257600080fd5b810190808035906020019092919050505061176d565b6040518082815260200191505060405180910390f35b34801561053a57600080fd5b506106b56004803603608081101561055157600080fd5b810190808035906020019064010000000081111561056e57600080fd5b82018360208201111561058057600080fd5b803590602001918460018302840111640100000000831117156105a257600080fd5b91908080601f016020809104026020016040519081016040528093929190818152602001838380828437600081840152601f19601f820116905080830192505050505050509192919290803573ffffffffffffffffffffffffffffffffffffffff169060200190929190803590602001909291908035906020019064010000000081111561062f57600080fd5b82018360208201111561064157600080fd5b8035906020019184600183028401116401000000008311171561066357600080fd5b91908080601f016020809104026020016040519081016040528093929190818152602001838380828437600081840152601f19601f82011690508083019250505050505050919291929050505061178d565b6040518082815260200191505060405180910390f35b3480156106d757600080fd5b50610724600480360360408110156106ee57600080fd5b8101908080359060200190929190803573ffffffffffffffffffffffffffffffffffffffff16906020019092919050505061186a565b005b34801561073257600080fd5b506107756004803603602081101561074957600080fd5b81019080803573ffffffffffffffffffffffffffffffffffffffff1690602001909291905050506118f4565b604051808215151515815260200191505060405180910390f35b34801561079b57600080fd5b506107a461193c565b604051808260ff1660ff16815260200191505060405180910390f35b3480156107cc57600080fd5b50610819600480360360408110156107e357600080fd5b8101908080359060200190929190803573ffffffffffffffffffffffffffffffffffffffff169060200190929190505050611953565b604051808215151515815260200191505060405180910390f35b34801561083f57600080fd5b5061088c6004803603604081101561085657600080fd5b8101908080359060200190929190803573ffffffffffffffffffffffffffffffffffffffff169060200190929190505050611982565b005b34801561089a57600080fd5b506108e7600480360360408110156108b157600080fd5b81019080803573ffffffffffffffffffffffffffffffffffffffff16906020019092919080359060200190929190505050611a1b565b604051808215151515815260200191505060405180910390f35b34801561090d57600080fd5b50610916611ace565b6040518080602001806020018060200180602001858103855289818151815260200191508051906020019080838360005b83811015610962578082015181840152602081019050610947565b50505050905090810190601f16801561098f5780820380516001836020036101000a031916815260200191505b50858103845288818151815260200191508051906020019080838360005b838110156109c85780820151818401526020810190506109ad565b50505050905090810190601f1680156109f55780820380516001836020036101000a031916815260200191505b50858103835287818151815260200191508051906020019080838360005b83811015610a2e578082015181840152602081019050610a13565b50505050905090810190601f168015610a5b5780820380516001836020036101000a031916815260200191505b50858103825286818151815260200191508051906020019080838360005b83811015610a94578082015181840152602081019050610a79565b50505050905090810190601f168015610ac15780820380516001836020036101000a031916815260200191505b509850505050505050505060405180910390f35b348015610ae157600080fd5b50610aea611c5a565b604051808215151515815260200191505060405180910390f35b348015610b1057600080fd5b50610b5360048036036020811015610b2757600080fd5b81019080803573ffffffffffffffffffffffffffffffffffffffff169060200190929190505050611c6d565b6040518082815260200191505060405180910390f35b348015610b7557600080fd5b50610b7e611cb5565b604051808215151515815260200191505060405180910390f35b348015610ba457600080fd5b50610bdb60048036036040811015610bbb57600080fd5b810190808035906020019092919080359060200190929190505050611cc8565b604051808273ffffffffffffffffffffffffffffffffffffffff1673ffffffffffffffffffffffffffffffffffffffff16815260200191505060405180910390f35b348015610c2957600080fd5b50610c7660048036036040811015610c4057600080fd5b8101908080359060200190929190803573ffffffffffffffffffffffffffffffffffffffff169060200190929190505050611cfa565b604051808215151515815260200191505060405180910390f35b348015610c9c57600080fd5b50610ca5611d2c565b6040518080602001828103825283818151815260200191508051906020019080838360005b83811015610ce5578082015181840152602081019050610cca565b50505050905090810190601f168015610d125780820380516001836020036101000a031916815260200191505b509250505060405180910390f35b348015610d2c57600080fd5b50610d5960048036036020811015610d4357600080fd5b8101908080359060200190929190505050611dce565b60405180876003811115610d6957fe5b60ff1681526020018673ffffffffffffffffffffffffffffffffffffffff1673ffffffffffffffffffffffffffffffffffffffff168152602001858152602001806020018415151515815260200183151515158152602001828103825285818151815260200191508051906020019080838360005b83811015610df9578082015181840152602081019050610dde565b50505050905090810190601f168015610e265780820380516001836020036101000a031916815260200191505b5097505050505050505060405180910390f35b348015610e4557600080fd5b50610e4e611ee9565b6040518082815260200191505060405180910390f35b348015610e7057600080fd5b50610ebd60048036036040811015610e8757600080fd5b81019080803573ffffffffffffffffffffffffffffffffffffffff16906020019092919080359060200190929190505050611ef1565b604051808215151515815260200191505060405180910390f35b348015610ee357600080fd5b50610f3060048036036040811015610efa57600080fd5b81019080803573ffffffffffffffffffffffffffffffffffffffff16906020019092919080359060200190929190505050611fbe565b604051808215151515815260200191505060405180910390f35b348015610f5657600080fd5b50610f5f611fdc565b005b348015610f6d57600080fd5b50610f766121b3565b6040518082815260200191505060405180910390f35b348015610f9857600080fd5b50610fc560048036036020811015610faf57600080fd5b81019080803590602001909291905050506121b9565b005b348015610fd357600080fd5b50610fdc612405565b005b348015610fea57600080fd5b5061102d6004803603602081101561100157600080fd5b81019080803573ffffffffffffffffffffffffffffffffffffffff1690602001909291905050506124e2565b60405180848152602001838152602001828152602001935050505060405180910390f35b34801561105d57600080fd5b5061108a6004803603602081101561107457600080fd5b81019080803590602001909291905050506125c6565b6040518082815260200191505060405180910390f35b3480156110ac57600080fd5b506110f9600480360360408110156110c357600080fd5b8101908080359060200190929190803573ffffffffffffffffffffffffffffffffffffffff1690602001909291905050506125ed565b005b34801561110757600080fd5b506111346004803603602081101561111e57600080fd5b8101908080359060200190929190505050612677565b604051808273ffffffffffffffffffffffffffffffffffffffff1673ffffffffffffffffffffffffffffffffffffffff16815260200191505060405180910390f35b34801561118257600080fd5b506111e56004803603604081101561119957600080fd5b81019080803573ffffffffffffffffffffffffffffffffffffffff169060200190929190803573ffffffffffffffffffffffffffffffffffffffff1690602001909291905050506126b3565b6040518082815260200191505060405180910390f35b34801561120757600080fd5b5061121061273a565b6040518082815260200191505060405180910390f35b34801561123257600080fd5b5061125f6004803603602081101561124957600080fd5b8101908080359060200190929190505050612773565b005b606060038054600181600116156101000203166002900480601f0160208091040260200160405190810160405280929190818152602001828054600181600116156101000203166002900480156112f95780601f106112ce576101008083540402835291602001916112f9565b820191906000526020600020905b8154815290600101906020018083116112dc57829003601f168201915b5050505050905090565b6000611317611310612b87565b8484612b8f565b6001905092915050565b600080600083600a600082815260200190815260200160002060030160009054906101000a900460ff166113a0576040517f08c379a000000000000000000000000000000000000000000000000000000000815260040180806020018281038252602a815260200180614adc602a913960400191505060405180910390fd5b6113a8614798565b600a60008781526020019081526020016000206040518060c00160405290816000820160009054906101000a900460ff1660038111156113e457fe5b60038111156113ef57fe5b81526020016000820160019054906101000a900473ffffffffffffffffffffffffffffffffffffffff1673ffffffffffffffffffffffffffffffffffffffff1673ffffffffffffffffffffffffffffffffffffffff16815260200160018201548152602001600282018054600181600116156101000203166002900480601f0160208091040260200160405190810160405280929190818152602001828054600181600116156101000203166002900480156114ec5780601f106114c1576101008083540402835291602001916114ec565b820191906000526020600020905b8154815290600101906020018083116114cf57829003601f168201915b505050505081526020016003820160009054906101000a900460ff161515151581526020016003820160019054906101000a900460ff1615151515815250509050600b600087815260200190815260200160002060003373ffffffffffffffffffffffffffffffffffffffff1673ffffffffffffffffffffffffffffffffffffffff16815260200190815260200160002060009054906101000a900460ff1694508060a0015193508060000151925084848494509450945050509193909250565b6115ec60405180807f4f574e45520000000000000000000000000000000000000000000000000000008152506005019050604051809103902033611cfa565b611641576040517f08c379a000000000000000000000000000000000000000000000000000000000815260040180806020018281038252602781526020018061499a6027913960400191505060405180910390fd5b6001600d60016101000a81548160ff0219169083151502179055507f271eeaa027ef2b0ef7f9c88ade99794e43f75016f0320df12ea62b72a74e268660405160405180910390a1565b6000600254905090565b60006116a1848484612d86565b611762846116ad612b87565b61175d85604051806060016040528060288152602001614a6d60289139600160008b73ffffffffffffffffffffffffffffffffffffffff1673ffffffffffffffffffffffffffffffffffffffff1681526020019081526020016000206000611713612b87565b73ffffffffffffffffffffffffffffffffffffffff1673ffffffffffffffffffffffffffffffffffffffff168152602001908152602001600020546130479092919063ffffffff16565b612b8f565b600190509392505050565b600060066000838152602001908152602001600020600201549050919050565b6000600d60019054906101000a900460ff16156117a957600080fd5b6117e860405180807f4f574e45520000000000000000000000000000000000000000000000000000008152506005019050604051809103902033611cfa565b61183d576040517f08c379a000000000000000000000000000000000000000000000000000000000815260040180806020018281038252602781526020018061499a6027913960400191505060405180910390fd5b600061184886613107565b905061185681868686613247565b9150611861826121b9565b50949350505050565b611891600660008481526020019081526020016000206002015461188c612b87565b611cfa565b6118e6576040517f08c379a000000000000000000000000000000000000000000000000000000000815260040180806020018281038252602f815260200180614923602f913960400191505060405180910390fd5b6118f0828261342a565b5050565b600061193560405180807f4f574e45520000000000000000000000000000000000000000000000000000008152506005019050604051809103902083611cfa565b9050919050565b6000600560009054906101000a900460ff16905090565b600b6020528160005260406000206020528060005260406000206000915091509054906101000a900460ff1681565b61198a612b87565b73ffffffffffffffffffffffffffffffffffffffff168173ffffffffffffffffffffffffffffffffffffffff1614611a0d576040517f08c379a000000000000000000000000000000000000000000000000000000000815260040180806020018281038252602f815260200180614b4f602f913960400191505060405180910390fd5b611a1782826134be565b5050565b6000611ac4611a28612b87565b84611abf8560016000611a39612b87565b73ffffffffffffffffffffffffffffffffffffffff1673ffffffffffffffffffffffffffffffffffffffff16815260200190815260200160002060008973ffffffffffffffffffffffffffffffffffffffff1673ffffffffffffffffffffffffffffffffffffffff1681526020019081526020016000205461355290919063ffffffff16565b612b8f565b6001905092915050565b606080606080611b1360405180807f4f574e45520000000000000000000000000000000000000000000000000000008152506005019050604051809103902033611cfa565b611b68576040517f08c379a000000000000000000000000000000000000000000000000000000000815260040180806020018281038252602781526020018061499a6027913960400191505060405180910390fd5b6040518060400160405280600881526020017f45787465726e616c00000000000000000000000000000000000000000000000081525093506040518060400160405280600a81526020017f4e6577466f756e6465720000000000000000000000000000000000000000000081525092506040518060400160405280601581526020017f4c61756e636856657374696e675363686564756c65000000000000000000000081525091506040518060400160405280600e81526020017f44657374726f79436f6d70616e79000000000000000000000000000000000000815250905083838383935093509350935090919293565b600d60009054906101000a900460ff1681565b60008060008373ffffffffffffffffffffffffffffffffffffffff1673ffffffffffffffffffffffffffffffffffffffff168152602001908152602001600020549050919050565b600d60019054906101000a900460ff1681565b6000611cf282600660008681526020019081526020016000206000016135da90919063ffffffff16565b905092915050565b6000611d2482600660008681526020019081526020016000206000016135f590919063ffffffff16565b905092915050565b606060048054600181600116156101000203166002900480601f016020809104026020016040519081016040528092919081815260200182805460018160011615610100020316600290048015611dc45780601f10611d9957610100808354040283529160200191611dc4565b820191906000526020600020905b815481529060010190602001808311611da757829003601f168201915b5050505050905090565b600a6020528060005260406000206000915090508060000160009054906101000a900460ff16908060000160019054906101000a900473ffffffffffffffffffffffffffffffffffffffff1690806001015490806002018054600181600116156101000203166002900480601f016020809104026020016040519081016040528092919081815260200182805460018160011615610100020316600290048015611eb95780601f10611e8e57610100808354040283529160200191611eb9565b820191906000526020600020905b815481529060010190602001808311611e9c57829003601f168201915b5050505050908060030160009054906101000a900460ff16908060030160019054906101000a900460ff16905086565b600060010281565b6000611fb4611efe612b87565b84611faf85604051806060016040528060258152602001614b2a6025913960016000611f28612b87565b73ffffffffffffffffffffffffffffffffffffffff1673ffffffffffffffffffffffffffffffffffffffff16815260200190815260200160002060008a73ffffffffffffffffffffffffffffffffffffffff1673ffffffffffffffffffffffffffffffffffffffff168152602001908152602001600020546130479092919063ffffffff16565b612b8f565b6001905092915050565b6000611fd2611fcb612b87565b8484612d86565b6001905092915050565b61201b60405180807f4f574e45520000000000000000000000000000000000000000000000000000008152506005019050604051809103902033611cfa565b612070576040517f08c379a000000000000000000000000000000000000000000000000000000000815260040180806020018281038252602781526020018061499a6027913960400191505060405180910390fd5b600061207b33613625565b9050600081116120d6576040517f08c379a00000000000000000000000000000000000000000000000000000000081526004018080602001828103825260318152602001806149f16031913960400191505060405180910390fd5b6000600960003373ffffffffffffffffffffffffffffffffffffffff1673ffffffffffffffffffffffffffffffffffffffff168152602001908152602001600020905061213082826001015461355290919063ffffffff16565b816001018190555061214f82826002015461372690919063ffffffff16565b81600201819055506121613383613770565b3373ffffffffffffffffffffffffffffffffffffffff167fdbc1569abc705e4dab3d58f5fffbdd0ff2ec1982e69899a2c699d7a452081fa8836040518082815260200191505060405180910390a25050565b600c5481565b600d60019054906101000a900460ff16156121d357600080fd5b61221260405180807f4f574e45520000000000000000000000000000000000000000000000000000008152506005019050604051809103902033611cfa565b612267576040517f08c379a000000000000000000000000000000000000000000000000000000000815260040180806020018281038252602781526020018061499a6027913960400191505060405180910390fd5b80600a600082815260200190815260200160002060030160009054906101000a900460ff166122e1576040517f08c379a000000000000000000000000000000000000000000000000000000000815260040180806020018281038252602a815260200180614adc602a913960400191505060405180910390fd5b81600b600082815260200190815260200160002060003373ffffffffffffffffffffffffffffffffffffffff1673ffffffffffffffffffffffffffffffffffffffff16815260200190815260200160002060009054906101000a900460ff161561234a57600080fd5b6001600b600085815260200190815260200160002060003373ffffffffffffffffffffffffffffffffffffffff1673ffffffffffffffffffffffffffffffffffffffff16815260200190815260200160002060006101000a81548160ff021916908315150217905550823373ffffffffffffffffffffffffffffffffffffffff167f284a31f48de0c7baa130a1acbe4773f4c39ef557ddcd0b2d6b6ef539af10531b60405160405180910390a361240083612773565b505050565b61244460405180807f4f574e45520000000000000000000000000000000000000000000000000000008152506005019050604051809103902033611cfa565b612499576040517f08c379a000000000000000000000000000000000000000000000000000000000815260040180806020018281038252602781526020018061499a6027913960400191505060405180910390fd5b6000600d60016101000a81548160ff0219169083151502179055507f7a0eb486a5792abc0f3f90bb2e49d363e653c325fa01b4e115eb8454f884b92660405160405180910390a1565b6000806000600960008573ffffffffffffffffffffffffffffffffffffffff1673ffffffffffffffffffffffffffffffffffffffff168152602001908152602001600020600101549250600960008573ffffffffffffffffffffffffffffffffffffffff1673ffffffffffffffffffffffffffffffffffffffff168152602001908152602001600020600201549150600960008573ffffffffffffffffffffffffffffffffffffffff1673ffffffffffffffffffffffffffffffffffffffff1681526020019081526020016000206003015490508282829250925092509193909250565b60006125e660066000848152602001908152602001600020600001613937565b9050919050565b612614600660008481526020019081526020016000206002015461260f612b87565b611cfa565b612669576040517f08c379a00000000000000000000000000000000000000000000000000000000081526004018080602001828103825260308152602001806149c16030913960400191505060405180910390fd5b61267382826134be565b5050565b6008818154811061268457fe5b906000526020600020016000915054906101000a900473ffffffffffffffffffffffffffffffffffffffff1681565b6000600160008473ffffffffffffffffffffffffffffffffffffffff1673ffffffffffffffffffffffffffffffffffffffff16815260200190815260200160002060008373ffffffffffffffffffffffffffffffffffffffff1673ffffffffffffffffffffffffffffffffffffffff16815260200190815260200160002054905092915050565b60405180807f4f574e45520000000000000000000000000000000000000000000000000000008152506005019050604051809103902081565b600d60019054906101000a900460ff161561278d57600080fd5b6127cc60405180807f4f574e45520000000000000000000000000000000000000000000000000000008152506005019050604051809103902033611cfa565b612821576040517f08c379a000000000000000000000000000000000000000000000000000000000815260040180806020018281038252602781526020018061499a6027913960400191505060405180910390fd5b80600b600082815260200190815260200160002060003373ffffffffffffffffffffffffffffffffffffffff1673ffffffffffffffffffffffffffffffffffffffff16815260200190815260200160002060009054906101000a900460ff1661288957600080fd5b81600a600082815260200190815260200160002060030160019054906101000a900460ff16156128b857600080fd5b6128c18361394c565b15612b82576000600a6000858152602001908152602001600020905060018160030160016101000a81548160ff0219169083151502179055506000600381111561290757fe5b8160000160009054906101000a900460ff16600381111561292457fe5b1415612a7c576129f98160000160019054906101000a900473ffffffffffffffffffffffffffffffffffffffff168260010154836002018054600181600116156101000203166002900480601f0160208091040260200160405190810160405280929190818152602001828054600181600116156101000203166002900480156129ef5780601f106129c4576101008083540402835291602001916129ef565b820191906000526020600020905b8154815290600101906020018083116129d257829003601f168201915b5050505050613a34565b15612a3057837f036687fd39b346666ddc60de603092dbfccf1f0dfef3848eacaf6556f155274960405160405180910390a2612a7b565b837fe6be4216c17a494bd52020b62596f189bf4552ad23cbae4913db8f0d9693ec9360405160405180910390a260008160030160016101000a81548160ff0219169083151502179055505b5b60016003811115612a8957fe5b8160000160009054906101000a900460ff166003811115612aa657fe5b1415612adb57612ad98160000160019054906101000a900473ffffffffffffffffffffffffffffffffffffffff16613a51565b505b60026003811115612ae857fe5b8160000160009054906101000a900460ff166003811115612b0557fe5b1415612b1457612b13613afd565b5b600380811115612b2057fe5b8160000160009054906101000a900460ff166003811115612b3d57fe5b1415612b80578060000160019054906101000a900473ffffffffffffffffffffffffffffffffffffffff1673ffffffffffffffffffffffffffffffffffffffff16ff5b505b505050565b600033905090565b600073ffffffffffffffffffffffffffffffffffffffff168373ffffffffffffffffffffffffffffffffffffffff161415612c15576040517f08c379a0000000000000000000000000000000000000000000000000000000008152600401808060200182810382526024815260200180614b066024913960400191505060405180910390fd5b600073ffffffffffffffffffffffffffffffffffffffff168273ffffffffffffffffffffffffffffffffffffffff161415612c9b576040517f08c379a00000000000000000000000000000000000000000000000000000000081526004018080602001828103825260228152602001806149526022913960400191505060405180910390fd5b80600160008573ffffffffffffffffffffffffffffffffffffffff1673ffffffffffffffffffffffffffffffffffffffff16815260200190815260200160002060008473ffffffffffffffffffffffffffffffffffffffff1673ffffffffffffffffffffffffffffffffffffffff168152602001908152602001600020819055508173ffffffffffffffffffffffffffffffffffffffff168373ffffffffffffffffffffffffffffffffffffffff167f8c5be1e5ebec7d5bd14f71427d1e84f3dd0314c0f7b2291e5b200ac8c7c3b925836040518082815260200191505060405180910390a3505050565b600073ffffffffffffffffffffffffffffffffffffffff168373ffffffffffffffffffffffffffffffffffffffff161415612e0c576040517f08c379a0000000000000000000000000000000000000000000000000000000008152600401808060200182810382526025815260200180614ab76025913960400191505060405180910390fd5b600073ffffffffffffffffffffffffffffffffffffffff168273ffffffffffffffffffffffffffffffffffffffff161415612e92576040517f08c379a00000000000000000000000000000000000000000000000000000000081526004018080602001828103825260238152602001806149006023913960400191505060405180910390fd5b612e9d838383613e5d565b612f0881604051806060016040528060268152602001614974602691396000808773ffffffffffffffffffffffffffffffffffffffff1673ffffffffffffffffffffffffffffffffffffffff168152602001908152602001600020546130479092919063ffffffff16565b6000808573ffffffffffffffffffffffffffffffffffffffff1673ffffffffffffffffffffffffffffffffffffffff16815260200190815260200160002081905550612f9b816000808573ffffffffffffffffffffffffffffffffffffffff1673ffffffffffffffffffffffffffffffffffffffff1681526020019081526020016000205461355290919063ffffffff16565b6000808473ffffffffffffffffffffffffffffffffffffffff1673ffffffffffffffffffffffffffffffffffffffff168152602001908152602001600020819055508173ffffffffffffffffffffffffffffffffffffffff168373ffffffffffffffffffffffffffffffffffffffff167fddf252ad1be2c89b69c2b068fc378daa952ba7f163c4a11628f55a4df523b3ef836040518082815260200191505060405180910390a3505050565b60008383111582906130f4576040517f08c379a00000000000000000000000000000000000000000000000000000000081526004018080602001828103825283818151815260200191508051906020019080838360005b838110156130b957808201518184015260208101905061309e565b50505050905090810190601f1680156130e65780820380516001836020036101000a031916815260200191505b509250505060405180910390fd5b5060008385039050809150509392505050565b600060405180807f45787465726e616c00000000000000000000000000000000000000000000000081525060080190506040518091039020828051906020012014156131565760009050613242565b60405180807f4e6577466f756e64657200000000000000000000000000000000000000000000815250600a0190506040518091039020828051906020012014156131a35760019050613242565b60405180807f4c61756e636856657374696e675363686564756c65000000000000000000000081525060150190506040518091039020828051906020012014156131f05760029050613242565b60405180807f44657374726f79436f6d70616e79000000000000000000000000000000000000815250600e01905060405180910390208280519060200120141561323d5760039050613242565b600080fd5b919050565b600083600073ffffffffffffffffffffffffffffffffffffffff168173ffffffffffffffffffffffffffffffffffffffff16141561328457600080fd5b600c5491506040518060c001604052808760038111156132a057fe5b81526020018673ffffffffffffffffffffffffffffffffffffffff16815260200185815260200184815260200160011515815260200160001515815250600a600084815260200190815260200160002060008201518160000160006101000a81548160ff0219169083600381111561331457fe5b021790555060208201518160000160016101000a81548173ffffffffffffffffffffffffffffffffffffffff021916908373ffffffffffffffffffffffffffffffffffffffff1602179055506040820151816001015560608201518160020190805190602001906133869291906147f3565b5060808201518160030160006101000a81548160ff02191690831515021790555060a08201518160030160016101000a81548160ff0219169083151502179055509050506001600c60008282540192505081905550817fdebc10a4c5b3a068a33d09a2e738b39000cf7a983ba8ade2c06798ba8eb28573876040518082600381111561340e57fe5b60ff16815260200191505060405180910390a250949350505050565b6134528160066000858152602001908152602001600020600001613ecb90919063ffffffff16565b156134ba5761345f612b87565b73ffffffffffffffffffffffffffffffffffffffff168173ffffffffffffffffffffffffffffffffffffffff16837f2f8788117e7eff1d82e926ec794901d17c78024a50270940304540a733656f0d60405160405180910390a45b5050565b6134e68160066000858152602001908152602001600020600001613efb90919063ffffffff16565b1561354e576134f3612b87565b73ffffffffffffffffffffffffffffffffffffffff168173ffffffffffffffffffffffffffffffffffffffff16837ff6391f5c32d9c69d2a47ea670b442974b53935d1edc7fd64eb21e047a839171b60405160405180910390a45b5050565b6000808284019050838110156135d0576040517f08c379a000000000000000000000000000000000000000000000000000000000815260040180806020018281038252601b8152602001807f536166654d6174683a206164646974696f6e206f766572666c6f77000000000081525060200191505060405180910390fd5b8091505092915050565b60006135e98360000183613f2b565b60019004905092915050565b600061361d836000018373ffffffffffffffffffffffffffffffffffffffff16600102613fae565b905092915050565b600061362f614873565b600960008473ffffffffffffffffffffffffffffffffffffffff1673ffffffffffffffffffffffffffffffffffffffff1681526020019081526020016000206040518060a0016040529081600082015481526020016001820154815260200160028201548152602001600382015481526020016004820160009054906101000a900473ffffffffffffffffffffffffffffffffffffffff1673ffffffffffffffffffffffffffffffffffffffff1673ffffffffffffffffffffffffffffffffffffffff1681525050905060008160200151905061371d8161370f86613fd1565b61372690919063ffffffff16565b92505050919050565b600061376883836040518060400160405280601e81526020017f536166654d6174683a207375627472616374696f6e206f766572666c6f770000815250613047565b905092915050565b600073ffffffffffffffffffffffffffffffffffffffff168273ffffffffffffffffffffffffffffffffffffffff161415613813576040517f08c379a000000000000000000000000000000000000000000000000000000000815260040180806020018281038252601f8152602001807f45524332303a206d696e7420746f20746865207a65726f20616464726573730081525060200191505060405180910390fd5b61381f60008383613e5d565b6138348160025461355290919063ffffffff16565b60028190555061388b816000808573ffffffffffffffffffffffffffffffffffffffff1673ffffffffffffffffffffffffffffffffffffffff1681526020019081526020016000205461355290919063ffffffff16565b6000808473ffffffffffffffffffffffffffffffffffffffff1673ffffffffffffffffffffffffffffffffffffffff168152602001908152602001600020819055508173ffffffffffffffffffffffffffffffffffffffff16600073ffffffffffffffffffffffffffffffffffffffff167fddf252ad1be2c89b69c2b068fc378daa952ba7f163c4a11628f55a4df523b3ef836040518082815260200191505060405180910390a35050565b60006139458260000161412c565b9050919050565b6000806000905060008090505b600880549050811015613a2c57600b600085815260200190815260200160002060006008838154811061398857fe5b9060005260206000200160009054906101000a900473ffffffffffffffffffffffffffffffffffffffff1673ffffffffffffffffffffffffffffffffffffffff1673ffffffffffffffffffffffffffffffffffffffff16815260200190815260200160002060009054906101000a900460ff1615613a07576001820191505b600880549050821415613a1f57600192505050613a2f565b8080600101915050613959565b50505b919050565b60008060008084516020860187895af19050809150509392505050565b60008073ffffffffffffffffffffffffffffffffffffffff168273ffffffffffffffffffffffffffffffffffffffff161415613a8c57600080fd5b613a958261413d565b6008829080600181540180825580915050600190039060005260206000200160009091909190916101000a81548173ffffffffffffffffffffffffffffffffffffffff021916908373ffffffffffffffffffffffffffffffffffffffff160217905550919050565b613b3c60405180807f4f574e45520000000000000000000000000000000000000000000000000000008152506005019050604051809103902033611cfa565b613b91576040517f08c379a000000000000000000000000000000000000000000000000000000000815260040180806020018281038252602781526020018061499a6027913960400191505060405180910390fd5b600d60009054906101000a900460ff1615613bab57600080fd5b6000613bcf613bb861193c565b60ff16600a0a6127106141dd90919063ffffffff16565b90506000613bfa6064613bec605a856141dd90919063ffffffff16565b61426390919063ffffffff16565b9050613c0f818361372690919063ffffffff16565b6007819055506000613c2f6008805490508361426390919063ffffffff16565b905060008090505b600880549050811015613e3c576040518060a001604052804281526020016000815260200183815260200183815260200160088381548110613c7557fe5b9060005260206000200160009054906101000a900473ffffffffffffffffffffffffffffffffffffffff1673ffffffffffffffffffffffffffffffffffffffff168152506009600060088481548110613cca57fe5b9060005260206000200160009054906101000a900473ffffffffffffffffffffffffffffffffffffffff1673ffffffffffffffffffffffffffffffffffffffff1673ffffffffffffffffffffffffffffffffffffffff1681526020019081526020016000206000820151816000015560208201518160010155604082015181600201556060820151816003015560808201518160040160006101000a81548173ffffffffffffffffffffffffffffffffffffffff021916908373ffffffffffffffffffffffffffffffffffffffff16021790555090505060088181548110613dae57fe5b9060005260206000200160009054906101000a900473ffffffffffffffffffffffffffffffffffffffff1673ffffffffffffffffffffffffffffffffffffffff167f6f1aaf30d5ebfa3a12caac074c49b1c2d49c30cc9107817ca035a011ef935937836004604051808381526020018281526020019250505060405180910390a28080600101915050613c37565b506001600d60006101000a81548160ff021916908315150217905550505050565b613e688383836142ad565b613e71826118f4565b613ec6576040517f08c379a000000000000000000000000000000000000000000000000000000000815260040180806020018281038252602a815260200180614a22602a913960400191505060405180910390fd5b505050565b6000613ef3836000018373ffffffffffffffffffffffffffffffffffffffff166001026142b2565b905092915050565b6000613f23836000018373ffffffffffffffffffffffffffffffffffffffff16600102614322565b905092915050565b600081836000018054905011613f8c576040517f08c379a00000000000000000000000000000000000000000000000000000000081526004018080602001828103825260228152602001806148de6022913960400191505060405180910390fd5b826000018281548110613f9b57fe5b9060005260206000200154905092915050565b600080836001016000848152602001908152602001600020541415905092915050565b6000613fdb614873565b600960008473ffffffffffffffffffffffffffffffffffffffff1673ffffffffffffffffffffffffffffffffffffffff1681526020019081526020016000206040518060a0016040529081600082015481526020016001820154815260200160028201548152602001600382015481526020016004820160009054906101000a900473ffffffffffffffffffffffffffffffffffffffff1673ffffffffffffffffffffffffffffffffffffffff1673ffffffffffffffffffffffffffffffffffffffff1681525050905060008160600151905060008260000151905060006140cc824261372690919063ffffffff16565b905060006140e460048461440a90919063ffffffff16565b90508042106140fa578395505050505050614127565b61411f8161411184876141dd90919063ffffffff16565b61426390919063ffffffff16565b955050505050505b919050565b600081600001805490509050919050565b614146336118f4565b61419b576040517f08c379a0000000000000000000000000000000000000000000000000000000008152600401808060200182810382526022815260200180614a956022913960400191505060405180910390fd5b6141da60405180807f4f574e4552000000000000000000000000000000000000000000000000000000815250600501905060405180910390208261186a565b50565b6000808314156141f0576000905061425d565b600082840290508284828161420157fe5b0414614258576040517f08c379a0000000000000000000000000000000000000000000000000000000008152600401808060200182810382526021815260200180614a4c6021913960400191505060405180910390fd5b809150505b92915050565b60006142a583836040518060400160405280601a81526020017f536166654d6174683a206469766973696f6e206279207a65726f000000000000815250614481565b905092915050565b505050565b60006142be8383613fae565b61431757826000018290806001815401808255809150506001900390600052602060002001600090919091909150558260000180549050836001016000848152602001908152602001600020819055506001905061431c565b600090505b92915050565b600080836001016000848152602001908152602001600020549050600081146143fe576000600182039050600060018660000180549050039050600086600001828154811061436d57fe5b906000526020600020015490508087600001848154811061438a57fe5b90600052602060002001819055506001830187600101600083815260200190815260200160002081905550866000018054806143c257fe5b60019003818190600052602060002001600090559055866001016000878152602001908152602001600020600090556001945050505050614404565b60009150505b92915050565b60008060008061442562015180878161441f57fe5b04614547565b9250925092508483019250600061443c848461461b565b90508082111561444a578091505b62015180878161445657fe5b06620151806144668686866146a6565b020194508685101561447757600080fd5b5050505092915050565b6000808311829061452d576040517f08c379a00000000000000000000000000000000000000000000000000000000081526004018080602001828103825283818151815260200191508051906020019080838360005b838110156144f25780820151818401526020810190506144d7565b50505050905090810190601f16801561451f5780820380516001836020036101000a031916815260200191505b509250505060405180910390fd5b50600083858161453957fe5b049050809150509392505050565b600080600080849050600062253d8c62010bd98301019050600062023ab1826004028161457057fe5b059050600460038262023ab102018161458557fe5b0582039150600062164b0960018401610fa0028161459f57fe5b059050601f6004826105b502816145b257fe5b058403019250600061098f84605002816145c857fe5b059050600060508261098f02816145db57fe5b0585039050600b82816145ea57fe5b05945084600c0260028301039150848360318603606402010192508298508197508096505050505050509193909250565b6000600182148061462c5750600382145b806146375750600582145b806146425750600782145b8061464d5750600882145b806146585750600a82145b806146635750600c82145b1561467157601f90506146a0565b6002821461468257601e905061469f565b61468b83614755565b61469657601c614699565b601d5b60ff1690505b5b92915050565b60006107b28410156146b757600080fd5b600084905060008490506000849050600062253d8c60046064600c600e8703816146dd57fe5b05611324880101816146eb57fe5b05600302816146f657fe5b05600c80600c600e88038161470757fe5b0502600287030361016f028161471957fe5b056004600c600e88038161472957fe5b056112c08901016105b5028161473b57fe5b05617d4b8603010103039050809450505050509392505050565b6000806004838161476257fe5b0614801561477b575060006064838161477757fe5b0614155b8061479157506000610190838161478e57fe5b06145b9050919050565b6040518060c00160405280600060038111156147b057fe5b8152602001600073ffffffffffffffffffffffffffffffffffffffff16815260200160008152602001606081526020016000151581526020016000151581525090565b828054600181600116156101000203166002900490600052602060002090601f016020900481019282601f1061483457805160ff1916838001178555614862565b82800160010185558215614862579182015b82811115614861578251825591602001919060010190614846565b5b50905061486f91906148b8565b5090565b6040518060a0016040528060008152602001600081526020016000815260200160008152602001600073ffffffffffffffffffffffffffffffffffffffff1681525090565b6148da91905b808211156148d65760008160009055506001016148be565b5090565b9056fe456e756d657261626c655365743a20696e646578206f7574206f6620626f756e647345524332303a207472616e7366657220746f20746865207a65726f2061646472657373416363657373436f6e74726f6c3a2073656e646572206d75737420626520616e2061646d696e20746f206772616e7445524332303a20617070726f766520746f20746865207a65726f206164647265737345524332303a207472616e7366657220616d6f756e7420657863656564732062616c616e636550726976617465436f6d70616e793a2073656e646572206973206e6f74206120666f756e646572416363657373436f6e74726f6c3a2073656e646572206d75737420626520616e2061646d696e20746f207265766f6b6550726976617465436f6d70616e793a206e6f20746f6b656e7320746f2072656c6561736520617420746869732074696d654552433230507269766174653a20746f6b656e207472616e7366657220746f206f776e6572206f6e6c79536166654d6174683a206d756c7469706c69636174696f6e206f766572666c6f7745524332303a207472616e7366657220616d6f756e74206578636565647320616c6c6f77616e63654552433230507269766174653a205265737472696374656420746f206f776e65727345524332303a207472616e736665722066726f6d20746865207a65726f206164647265737350726976617465436f6d70616e793a207472616e73616374696f6e20646f6573206e6f7420657869737445524332303a20617070726f76652066726f6d20746865207a65726f206164647265737345524332303a2064656372656173656420616c6c6f77616e63652062656c6f77207a65726f416363657373436f6e74726f6c3a2063616e206f6e6c792072656e6f756e636520726f6c657320666f722073656c66a26469706673582212200824bbeaab3a7772afd50d4c5b600286ba558565a5c611d2b5e2950507c6aa8764736f6c63430006020033",
  "source": "// SPDX-License-Identifier: MIT\npragma solidity >0.6.0;\n\nimport \"./ERC20Private.sol\";\nimport \"./DateTimeLibrary.sol\";\nimport \"@openzeppelin/contracts/math/SafeMath.sol\";\n\n/**\n * @title Private Company contract.\n * @dev Transaction agreement before execution between all founders.\n * @dev Simple vesting schedule of internal token.\n * @dev Internal token(equity) protected. It can only circulate between founders.\n * @author Konstantin Zamaraev\n * @notice This final project for Consensys bootcamp. DO NOT USE IN PRODUCTION.\n */\ncontract PrivateCompany is ERC20Private {\n    // Libraries\n    using SafeMath for uint256;\n    using BokkyPooBahsDateTimeLibrary for uint256;\n\n    // Constants\n    uint256 internal constant TOTAL_SUPPLY = 10000;\n    uint256 internal constant TOKEN_VESTING_TIME = 4; // 4 years for the full vesting\n\n    // Events\n    event LogDeposit(address indexed sender, uint256 value);\n    event LogFounderEquityDistribution(\n        address indexed founderAddress,\n        uint256 equityAmount,\n        uint256 vestingTime\n    );\n    event LogReleasedEquityForHolder(\n        address indexed founderAddress,\n        uint256 equityAmount\n    );\n    event LogTransactionSubmission(\n        TransactionType txType,\n        uint256 indexed transactionId\n    );\n    event LogTransactionExecution(uint256 indexed transactionId);\n    event LogTransactionExecutionFailure(uint256 indexed transactionId);\n    event LogTransactionConfirmation(\n        address indexed sender,\n        uint256 indexed transactionId\n    );\n    event LogContractStopped();\n    event LogContractResume();\n\n    // Storage\n    uint256 private equityPool;\n    address[] public founders;\n    mapping(address => EquityHolder) equityHolders;\n    mapping(uint256 => Transaction) public transactions;\n    mapping(uint256 => mapping(address => bool)) public confirmations;\n    uint256 public transactionCount;\n    bool public vestingSchedule = false;\n    bool public stopped = false;\n\n    // Enums\n    enum TransactionType {\n        External,\n        NewFounder,\n        LaunchVestingSchedule,\n        DestroyCompany\n    }\n\n    // Structs\n    struct EquityHolder {\n        uint256 lockTimeStart;\n        uint256 currentBalance;\n        uint256 lockedBalance;\n        uint256 totalBalance;\n        address holderAddress;\n    }\n\n    struct Transaction {\n        TransactionType txType;\n        address destination;\n        uint256 value;\n        bytes data;\n        bool exist;\n        bool executed;\n    }\n\n    // Modifiers\n    modifier onlyIfNotLaunched {\n        require(!vestingSchedule);\n        _;\n    }\n\n    modifier stopInEmergency {\n        require(!stopped);\n        _;\n    }\n\n    modifier notNull(address _address) {\n        require(_address != address(0));\n        _;\n    }\n\n    modifier transactionExists(uint256 transactionId) {\n        require(\n            transactions[transactionId].exist,\n            \"PrivateCompany: transaction does not exist\"\n        );\n        _;\n    }\n\n    modifier confirmed(uint256 transactionId) {\n        require(confirmations[transactionId][msg.sender]);\n        _;\n    }\n\n    modifier notConfirmed(uint256 transactionId) {\n        require(!confirmations[transactionId][msg.sender]);\n        _;\n    }\n\n    modifier notExecuted(uint256 transactionId) {\n        require(!transactions[transactionId].executed);\n        _;\n    }\n\n    modifier onlyFounder() {\n        require(\n            hasRole(OWNER_ROLE, msg.sender),\n            \"PrivateCompany: sender is not a founder\"\n        );\n        _;\n    }\n\n    /**\n     * @dev Receive function allows to deposit ether.\n     */\n    receive() external payable {\n        if (msg.value > 0) LogDeposit(msg.sender, msg.value);\n    }\n\n    // Public functions\n    /**\n     * @dev Contract constructor creates private token and\n     * assigning sender as first founder.\n     * @param _companyName Company name.\n     * @param _token Company(token) ticker name.\n     */\n    constructor(string memory _companyName, string memory _token)\n        public\n        payable\n        ERC20(_companyName, _token)\n        ERC20Private()\n    {\n        founders.push(msg.sender);\n    }\n\n    /**\n     * @dev Emergency only! Block transaction submition/confirmation/execution\n     */\n    function stopContract() public onlyFounder {\n        stopped = true;\n        emit LogContractStopped();\n    }\n\n    function resumeContract() public onlyFounder {\n        stopped = false;\n        emit LogContractResume();\n    }\n\n    /**\n     * @dev Return all transaction type strings\n     */\n    function getTransactionTypes()\n        public\n        view\n        onlyFounder\n        returns (\n            string memory externalType,\n            string memory newFounderType,\n            string memory launchVestingScheduleType,\n            string memory destroyCompanyType\n        )\n    {\n        externalType = \"External\";\n        newFounderType = \"NewFounder\";\n        launchVestingScheduleType = \"LaunchVestingSchedule\";\n        destroyCompanyType = \"DestroyCompany\";\n\n        return (\n            externalType,\n            newFounderType,\n            launchVestingScheduleType,\n            destroyCompanyType\n        );\n    }\n\n    /**\n     * @param transactionId Transaction ID.\n     * @dev Transaction detals(type/confirmation status/execution status).\n     */\n    function getTransactionDetails(uint256 transactionId)\n        public\n        view\n        transactionExists(transactionId)\n        returns (\n            bool isConfirmedByMe,\n            bool isExecuted,\n            TransactionType txType\n        )\n    {\n        Transaction memory txById = transactions[transactionId];\n        isConfirmedByMe = confirmations[transactionId][msg.sender];\n        isExecuted = txById.executed;\n        txType = txById.txType;\n\n        return (isConfirmedByMe, isExecuted, txType);\n    }\n\n    /**\n     * @param holderAddress address of equity holder.\n     */\n    function getEquityHolderBalance(address holderAddress)\n        public\n        view\n        returns (\n            uint256 currentBalance,\n            uint256 lockedBalance,\n            uint256 totalBalance\n        )\n    {\n        currentBalance = equityHolders[holderAddress].currentBalance;\n        lockedBalance = equityHolders[holderAddress].lockedBalance;\n        totalBalance = equityHolders[holderAddress].totalBalance;\n\n        return (currentBalance, lockedBalance, totalBalance);\n    }\n\n    /**\n     * @dev Allows a founder to check if there are tokens to release and mint.\n     */\n    function releaseVestedEquity() public onlyFounder {\n        uint256 unreleasedAmount = _releasableEquityAmount(msg.sender);\n\n        require(\n            unreleasedAmount > 0,\n            \"PrivateCompany: no tokens to release at this time\"\n        );\n\n        EquityHolder storage equityHolder = equityHolders[msg.sender];\n\n        equityHolder.currentBalance = equityHolder.currentBalance.add(\n            unreleasedAmount\n        );\n\n        equityHolder.lockedBalance = equityHolder.lockedBalance.sub(\n            unreleasedAmount\n        );\n\n        _mint(msg.sender, unreleasedAmount);\n        emit LogReleasedEquityForHolder(msg.sender, unreleasedAmount);\n    }\n\n    /**\n     * @dev Allows a founder to submit and confirm a transaction.\n     * @param txTypeKey Transaction type key string.\n     * @param destination Transaction target address.\n     * @param value Transaction ether value.\n     * @param data Transaction data payload.\n     */\n    function submitTransaction(\n        string memory txTypeKey,\n        address destination,\n        uint256 value,\n        bytes memory data\n    ) public stopInEmergency onlyFounder returns (uint256 transactionId) {\n        TransactionType txType = _getTransactionEnumValueByKey(txTypeKey);\n        transactionId = _addTransaction(txType, destination, value, data);\n        confirmTransaction(transactionId);\n    }\n\n    /**\n     * @dev Allows a founder to confirm a transaction.\n     * @param transactionId Transaction ID.\n     */\n    function confirmTransaction(uint256 transactionId)\n        public\n        stopInEmergency\n        onlyFounder\n        transactionExists(transactionId)\n        notConfirmed(transactionId)\n    {\n        confirmations[transactionId][msg.sender] = true;\n        emit LogTransactionConfirmation(msg.sender, transactionId);\n        executeTransaction(transactionId);\n    }\n\n    /**\n     * @dev Allows anyone to execute a confirmed transaction.\n     * @param transactionId Transaction ID.\n     */\n    function executeTransaction(uint256 transactionId)\n        public\n        stopInEmergency\n        onlyFounder\n        confirmed(transactionId)\n        notExecuted(transactionId)\n    {\n        if (_isConfirmed(transactionId)) {\n            Transaction storage txn = transactions[transactionId];\n            txn.executed = true;\n\n            if (txn.txType == TransactionType.External) {\n                if (_externalCall(txn.destination, txn.value, txn.data)) {\n                    emit LogTransactionExecution(transactionId);\n                } else {\n                    emit LogTransactionExecutionFailure(transactionId);\n                    txn.executed = false;\n                }\n            }\n\n            if (txn.txType == TransactionType.NewFounder) {\n                _addNewFounder(txn.destination);\n            }\n\n            if (txn.txType == TransactionType.LaunchVestingSchedule) {\n                _launchVestingSchedule();\n            }\n\n            if (txn.txType == TransactionType.DestroyCompany) {\n                selfdestruct(address(uint160(txn.destination)));\n            }\n        }\n    }\n\n    // Private functions\n    /**\n     * @dev Returns the confirmation status of a transaction.\n     * @param transactionId Transaction ID.\n     * @return Confirmation status.\n     */\n    function _isConfirmed(uint256 transactionId) private view returns (bool) {\n        uint256 count = 0;\n        for (uint256 i = 0; i < founders.length; i++) {\n            if (confirmations[transactionId][founders[i]]) {\n                count += 1;\n            }\n            if (count == founders.length) {\n                return true;\n            }\n        }\n    }\n\n    /**\n     * @dev Sets equal amounts of equities for founders\n     * with the vesting schedule (4 years duration)\n     */\n    function _launchVestingSchedule() private onlyFounder onlyIfNotLaunched {\n        uint256 totalSupply = TOTAL_SUPPLY.mul(10**uint256(decimals()));\n        uint256 founderDistributonSupply = totalSupply.mul(90).div(100); // 90% goes to initial founders / 10% to equity pool\n        equityPool = totalSupply.sub(founderDistributonSupply);\n        uint256 equityAmount = founderDistributonSupply.div(founders.length);\n\n        for (uint256 i = 0; i < founders.length; i++) {\n            equityHolders[founders[i]] = EquityHolder(\n                block.timestamp,\n                0,\n                equityAmount,\n                equityAmount,\n                founders[i]\n            );\n\n            emit LogFounderEquityDistribution(\n                founders[i],\n                equityAmount,\n                TOKEN_VESTING_TIME\n            );\n        }\n        vestingSchedule = true;\n    }\n\n    /**\n     * @param founderAddress new founder address.\n     */\n    function _addNewFounder(address founderAddress) private returns (bool) {\n        require(founderAddress != address(0));\n\n        _addOwner(founderAddress);\n        founders.push(founderAddress);\n    }\n\n    /**\n     * @param txKey Transaction type string.\n     */\n    function _getTransactionEnumValueByKey(string memory txKey)\n        private\n        pure\n        returns (TransactionType)\n    {\n        if (keccak256(bytes(txKey)) == keccak256(\"External\"))\n            return TransactionType.External;\n        if (keccak256(bytes(txKey)) == keccak256(\"NewFounder\"))\n            return TransactionType.NewFounder;\n        if (keccak256(bytes(txKey)) == keccak256(\"LaunchVestingSchedule\"))\n            return TransactionType.LaunchVestingSchedule;\n        if (keccak256(bytes(txKey)) == keccak256(\"DestroyCompany\"))\n            return TransactionType.DestroyCompany;\n        revert();\n    }\n\n    /**\n     * @param holderAddress address of equity holder.\n     */\n    function _releasableEquityAmount(address holderAddress)\n        private\n        view\n        returns (uint256)\n    {\n        EquityHolder memory holder = equityHolders[holderAddress];\n\n        uint256 currentBalance = holder.currentBalance;\n\n        return _vestedEquityAmount(holderAddress).sub(currentBalance);\n    }\n\n    /**\n     * @param holderAddress address of equity holder.\n     */\n    function _vestedEquityAmount(address holderAddress)\n        private\n        view\n        returns (uint256)\n    {\n        EquityHolder memory holder = equityHolders[holderAddress];\n        uint256 totalBalance = holder.totalBalance;\n        uint256 lockTimeStart = holder.lockTimeStart;\n        uint256 durationLeft = block.timestamp.sub(lockTimeStart);\n        uint256 durationFull = lockTimeStart.addYears(TOKEN_VESTING_TIME);\n\n        if (block.timestamp >= durationFull) {\n            return totalBalance;\n        } else {\n            return totalBalance.mul(durationLeft).div(durationFull);\n        }\n    }\n\n    /**\n     * @dev Adds a new transaction to the transaction mapping, if transaction does not exist yet.\n     * @param txType Transaction type.\n     * @param destination Transaction target address.\n     * @param value Transaction ether value.\n     * @param data Transaction data payload.\n     */\n    function _addTransaction(\n        TransactionType txType,\n        address destination,\n        uint256 value,\n        bytes memory data\n    ) private notNull(destination) returns (uint256 transactionId) {\n        transactionId = transactionCount;\n        transactions[transactionId] = Transaction({\n            txType: txType,\n            destination: destination,\n            value: value,\n            data: data,\n            exist: true,\n            executed: false\n        });\n        transactionCount += 1;\n        emit LogTransactionSubmission(txType, transactionId);\n    }\n\n    /**\n     * Call has been separated into its own function in order to take advantage\n     * of the Solidity's code generator to produce a loop that copies tx.data into memory.\n     */\n    function _externalCall(\n        address destination,\n        uint256 value,\n        bytes memory data\n    ) private returns (bool) {\n        bool result;\n        assembly {\n            result := call(\n                gas(),\n                destination,\n                value,\n                add(data, 32), // First 32 bytes are the padded length of data, so exclude that\n                mload(data), // Size of the input (in bytes) - this is what fixes the padding problem\n                0,\n                0 // Output is ignored, therefore the output size is zero\n            )\n        }\n        return result;\n    }\n}\n",
  "sourcePath": "/Users/konstantin/dev/consensys/final-project/startup-3.0/contracts/PrivateCompany.sol",
  "compiler": {
    "name": "solc",
    "version": "0.6.2+commit.bacdbe57.Emscripten.clang"
  },
  "schemaVersion": "3.2.5",
  "updatedAt": "2020-12-03T14:07:46.403Z",
  "devdoc": {
    "author": "Konstantin Zamaraev",
    "details": "Transaction agreement before execution between all founders.Simple vesting schedule of internal token.Internal token(equity) protected. It can only circulate between founders.",
    "methods": {
      "allowance(address,address)": {
        "details": "See {IERC20-allowance}."
      },
      "approve(address,uint256)": {
        "details": "See {IERC20-approve}.     * Requirements:     * - `spender` cannot be the zero address."
      },
      "balanceOf(address)": {
        "details": "See {IERC20-balanceOf}."
      },
      "confirmTransaction(uint256)": {
        "details": "Allows a founder to confirm a transaction.",
        "params": {
          "transactionId": "Transaction ID."
        }
      },
      "constructor": {
        "details": "Contract constructor creates private token and assigning sender as first founder.",
        "params": {
          "_companyName": "Company name.",
          "_token": "Company(token) ticker name."
        }
      },
      "decimals()": {
        "details": "Returns the number of decimals used to get its user representation. For example, if `decimals` equals `2`, a balance of `505` tokens should be displayed to a user as `5,05` (`505 / 10 ** 2`).     * Tokens usually opt for a value of 18, imitating the relationship between Ether and Wei. This is the value {ERC20} uses, unless {_setupDecimals} is called.     * NOTE: This information is only used for _display_ purposes: it in no way affects any of the arithmetic of the contract, including {IERC20-balanceOf} and {IERC20-transfer}."
      },
      "decreaseAllowance(address,uint256)": {
        "details": "Atomically decreases the allowance granted to `spender` by the caller.     * This is an alternative to {approve} that can be used as a mitigation for problems described in {IERC20-approve}.     * Emits an {Approval} event indicating the updated allowance.     * Requirements:     * - `spender` cannot be the zero address. - `spender` must have allowance for the caller of at least `subtractedValue`."
      },
      "executeTransaction(uint256)": {
        "details": "Allows anyone to execute a confirmed transaction.",
        "params": {
          "transactionId": "Transaction ID."
        }
      },
      "getEquityHolderBalance(address)": {
        "params": {
          "holderAddress": "address of equity holder."
        }
      },
      "getRoleAdmin(bytes32)": {
        "details": "Returns the admin role that controls `role`. See {grantRole} and {revokeRole}.     * To change a role's admin, use {_setRoleAdmin}."
      },
      "getRoleMember(bytes32,uint256)": {
        "details": "Returns one of the accounts that have `role`. `index` must be a value between 0 and {getRoleMemberCount}, non-inclusive.     * Role bearers are not sorted in any particular way, and their ordering may change at any point.     * WARNING: When using {getRoleMember} and {getRoleMemberCount}, make sure you perform all queries on the same block. See the following https://forum.openzeppelin.com/t/iterating-over-elements-on-enumerableset-in-openzeppelin-contracts/2296[forum post] for more information."
      },
      "getRoleMemberCount(bytes32)": {
        "details": "Returns the number of accounts that have `role`. Can be used together with {getRoleMember} to enumerate all bearers of a role."
      },
      "getTransactionDetails(uint256)": {
        "details": "Transaction detals(type/confirmation status/execution status).",
        "params": {
          "transactionId": "Transaction ID."
        }
      },
      "getTransactionTypes()": {
        "details": "Return all transaction type strings"
      },
      "grantRole(bytes32,address)": {
        "details": "Grants `role` to `account`.     * If `account` had not been already granted `role`, emits a {RoleGranted} event.     * Requirements:     * - the caller must have ``role``'s admin role."
      },
      "hasRole(bytes32,address)": {
        "details": "Returns `true` if `account` has been granted `role`."
      },
      "increaseAllowance(address,uint256)": {
        "details": "Atomically increases the allowance granted to `spender` by the caller.     * This is an alternative to {approve} that can be used as a mitigation for problems described in {IERC20-approve}.     * Emits an {Approval} event indicating the updated allowance.     * Requirements:     * - `spender` cannot be the zero address."
      },
      "isOwner(address)": {
        "details": "Return `true` if the account belongs to the owner role."
      },
      "name()": {
        "details": "Returns the name of the token."
      },
      "releaseVestedEquity()": {
        "details": "Allows a founder to check if there are tokens to release and mint."
      },
      "renounceRole(bytes32,address)": {
        "details": "Revokes `role` from the calling account.     * Roles are often managed via {grantRole} and {revokeRole}: this function's purpose is to provide a mechanism for accounts to lose their privileges if they are compromised (such as when a trusted device is misplaced).     * If the calling account had been granted `role`, emits a {RoleRevoked} event.     * Requirements:     * - the caller must be `account`."
      },
      "revokeRole(bytes32,address)": {
        "details": "Revokes `role` from `account`.     * If `account` had been granted `role`, emits a {RoleRevoked} event.     * Requirements:     * - the caller must have ``role``'s admin role."
      },
      "stopContract()": {
        "details": "Emergency only! Block transaction submition/confirmation/execution"
      },
      "submitTransaction(string,address,uint256,bytes)": {
        "details": "Allows a founder to submit and confirm a transaction.",
        "params": {
          "data": "Transaction data payload.",
          "destination": "Transaction target address.",
          "txTypeKey": "Transaction type key string.",
          "value": "Transaction ether value."
        }
      },
      "symbol()": {
        "details": "Returns the symbol of the token, usually a shorter version of the name."
      },
      "totalSupply()": {
        "details": "See {IERC20-totalSupply}."
      },
      "transfer(address,uint256)": {
        "details": "See {IERC20-transfer}.     * Requirements:     * - `recipient` cannot be the zero address. - the caller must have a balance of at least `amount`."
      },
      "transferFrom(address,address,uint256)": {
        "details": "See {IERC20-transferFrom}.     * Emits an {Approval} event indicating the updated allowance. This is not required by the EIP. See the note at the beginning of {ERC20};     * Requirements: - `sender` and `recipient` cannot be the zero address. - `sender` must have a balance of at least `amount`. - the caller must have allowance for ``sender``'s tokens of at least `amount`."
      }
    },
    "title": "Private Company contract."
  },
  "userdoc": {
    "methods": {},
    "notice": "This final project for Consensys bootcamp. DO NOT USE IN PRODUCTION."
  }
}