{
  "contractName": "PrivateCompanyFactory",
  "abi": [
    {
      "anonymous": false,
      "inputs": [
        {
          "indexed": false,
          "internalType": "address",
          "name": "sender",
          "type": "address"
        },
        {
          "indexed": false,
          "internalType": "address",
          "name": "instantiation",
          "type": "address"
        }
      ],
      "name": "ContractInstantiation",
      "type": "event"
    },
    {
      "inputs": [
        {
          "internalType": "address",
          "name": "creator",
          "type": "address"
        }
      ],
      "name": "getInstantiationCount",
      "outputs": [
        {
          "internalType": "uint256",
          "name": "",
          "type": "uint256"
        }
      ],
      "stateMutability": "view",
      "type": "function",
      "constant": true
    },
    {
      "inputs": [
        {
          "internalType": "address",
          "name": "",
          "type": "address"
        },
        {
          "internalType": "uint256",
          "name": "",
          "type": "uint256"
        }
      ],
      "name": "instantiations",
      "outputs": [
        {
          "internalType": "address",
          "name": "",
          "type": "address"
        }
      ],
      "stateMutability": "view",
      "type": "function",
      "constant": true
    },
    {
      "inputs": [
        {
          "internalType": "address",
          "name": "",
          "type": "address"
        }
      ],
      "name": "isInstantiation",
      "outputs": [
        {
          "internalType": "bool",
          "name": "",
          "type": "bool"
        }
      ],
      "stateMutability": "view",
      "type": "function",
      "constant": true
    },
    {
      "inputs": [
        {
          "internalType": "string",
          "name": "_companyName",
          "type": "string"
        },
        {
          "internalType": "string",
          "name": "_token",
          "type": "string"
        }
      ],
      "name": "create",
      "outputs": [
        {
          "internalType": "address",
          "name": "companyAddress",
          "type": "address"
        }
      ],
      "stateMutability": "nonpayable",
      "type": "function"
    }
  ],
  "bytecode": "0x608060405234801561001057600080fd5b50615a51806100206000396000f3fe608060405234801561001057600080fd5b5060043610610069576000357c010000000000000000000000000000000000000000000000000000000090048063198e2b8a1461006e5780632f4f33161461020057806357183c821461025c5780638f838478146102ea575b600080fd5b6101be6004803603604081101561008457600080fd5b81019080803590602001906401000000008111156100a157600080fd5b8201836020820111156100b357600080fd5b803590602001918460018302840111640100000000831117156100d557600080fd5b91908080601f016020809104026020016040519081016040528093929190818152602001838380828437600081840152601f19601f8201169050808301925050505050505091929192908035906020019064010000000081111561013857600080fd5b82018360208201111561014a57600080fd5b8035906020019184600183028401116401000000008311171561016c57600080fd5b91908080601f016020809104026020016040519081016040528093929190818152602001838380828437600081840152601f19601f820116905080830192505050505050509192919290505050610342565b604051808273ffffffffffffffffffffffffffffffffffffffff1673ffffffffffffffffffffffffffffffffffffffff16815260200191505060405180910390f35b6102426004803603602081101561021657600080fd5b81019080803573ffffffffffffffffffffffffffffffffffffffff169060200190929190505050610492565b604051808215151515815260200191505060405180910390f35b6102a86004803603604081101561027257600080fd5b81019080803573ffffffffffffffffffffffffffffffffffffffff169060200190929190803590602001909291905050506104b2565b604051808273ffffffffffffffffffffffffffffffffffffffff1673ffffffffffffffffffffffffffffffffffffffff16815260200191505060405180910390f35b61032c6004803603602081101561030057600080fd5b81019080803573ffffffffffffffffffffffffffffffffffffffff1690602001909291905050506104fd565b6040518082815260200191505060405180910390f35b6000828233604051610353906106da565b8080602001806020018473ffffffffffffffffffffffffffffffffffffffff1673ffffffffffffffffffffffffffffffffffffffff168152602001838103835286818151815260200191508051906020019080838360005b838110156103c65780820151818401526020810190506103ab565b50505050905090810190601f1680156103f35780820380516001836020036101000a031916815260200191505b50838103825285818151815260200191508051906020019080838360005b8381101561042c578082015181840152602081019050610411565b50505050905090810190601f1680156104595780820380516001836020036101000a031916815260200191505b5095505050505050604051809103906000f08015801561047d573d6000803e3d6000fd5b50905061048981610549565b80905092915050565b60006020528060005260406000206000915054906101000a900460ff1681565b600160205281600052604060002081815481106104cb57fe5b906000526020600020016000915091509054906101000a900473ffffffffffffffffffffffffffffffffffffffff1681565b6000600160008373ffffffffffffffffffffffffffffffffffffffff1673ffffffffffffffffffffffffffffffffffffffff168152602001908152602001600020805490509050919050565b60016000808373ffffffffffffffffffffffffffffffffffffffff1673ffffffffffffffffffffffffffffffffffffffff16815260200190815260200160002060006101000a81548160ff021916908315150217905550600160003373ffffffffffffffffffffffffffffffffffffffff1673ffffffffffffffffffffffffffffffffffffffff168152602001908152602001600020819080600181540180825580915050600190039060005260206000200160009091909190916101000a81548173ffffffffffffffffffffffffffffffffffffffff021916908373ffffffffffffffffffffffffffffffffffffffff1602179055507f4fb057ad4a26ed17a57957fa69c306f11987596069b89521c511fc9a894e61613382604051808373ffffffffffffffffffffffffffffffffffffffff1673ffffffffffffffffffffffffffffffffffffffff1681526020018273ffffffffffffffffffffffffffffffffffffffff1673ffffffffffffffffffffffffffffffffffffffff1681526020019250505060405180910390a150565b61533380620006e98339019056fe60806040526000600d60006101000a81548160ff0219169083151502179055506000600d60016101000a81548160ff0219169083151502179055506040516200533338038062005333833981810160405260608110156200005f57600080fd5b81019080805160405193929190846401000000008211156200008057600080fd5b838201915060208201858111156200009757600080fd5b8251866001820283011164010000000082111715620000b557600080fd5b8083526020830192505050908051906020019080838360005b83811015620000eb578082015181840152602081019050620000ce565b50505050905090810190601f168015620001195780820380516001836020036101000a031916815260200191505b50604052602001805160405193929190846401000000008211156200013d57600080fd5b838201915060208201858111156200015457600080fd5b82518660018202830111640100000000821117156200017257600080fd5b8083526020830192505050908051906020019080838360005b83811015620001a85780820151818401526020810190506200018b565b50505050905090810190601f168015620001d65780820380516001836020036101000a031916815260200191505b5060405260200180519060200190929190505050808383816003908051906020019062000205929190620005a7565b5080600490805190602001906200021e929190620005a7565b506012600560006101000a81548160ff021916908360ff16021790555050506200028d60405180807f4f574e455200000000000000000000000000000000000000000000000000000081525060050190506040518091039020826200037f640100000000026401000000009004565b6200031260405180807f4f574e45520000000000000000000000000000000000000000000000000000008152506005019050604051809103902060405180807f4f574e4552000000000000000000000000000000000000000000000000000000815250600501905060405180910390206200039e640100000000026401000000009004565b506008819080600181540180825580915050600190039060005260206000200160009091909190916101000a81548173ffffffffffffffffffffffffffffffffffffffff021916908373ffffffffffffffffffffffffffffffffffffffff16021790555050505062000656565b6200039a828262000402640100000000026401000000009004565b5050565b806006600084815260200190815260200160002060020154837fbd79b86ffe0ab8e8776151514217cd7cacd52c909f66475c3af44e129f0b00ff60405160405180910390a48060066000848152602001908152602001600020600201819055505050565b6200043a8160066000858152602001908152602001600020600001620004b86401000000000262003fe5179091906401000000009004565b15620004b45762000459620004f9640100000000026401000000009004565b73ffffffffffffffffffffffffffffffffffffffff168173ffffffffffffffffffffffffffffffffffffffff16837f2f8788117e7eff1d82e926ec794901d17c78024a50270940304540a733656f0d60405160405180910390a45b5050565b6000620004f1836000018373ffffffffffffffffffffffffffffffffffffffff1660010262000501640100000000026401000000009004565b905092915050565b600033905090565b60006200051e838362000584640100000000026401000000009004565b620005795782600001829080600181540180825580915050600190039060005260206000200160009091909190915055826000018054905083600101600084815260200190815260200160002081905550600190506200057e565b600090505b92915050565b600080836001016000848152602001908152602001600020541415905092915050565b828054600181600116156101000203166002900490600052602060002090601f016020900481019282601f10620005ea57805160ff19168380011785556200061b565b828001600101855582156200061b579182015b828111156200061a578251825591602001919060010190620005fd565b5b5090506200062a91906200062e565b5090565b6200065391905b808211156200064f57600081600090555060010162000635565b5090565b90565b614ccd80620006666000396000f3fe608060405260043610610246576000357c0100000000000000000000000000000000000000000000000000000000900480639010d07c11610140578063b77bf600116100c8578063d547741f1161008c578063d547741f14611113578063d8e75f621461116e578063dd62ed3e146111e9578063e58378bb1461126e578063ee22610b14611299576102a5565b8063b77bf60014610fd4578063c01a8c8414610fff578063c4bc5da51461103a578063c99e06c314611051578063ca15c873146110c4576102a5565b80639ace38c21161010f5780639ace38c214610d93578063a217fddf14610eac578063a457c2d714610ed7578063a9059cbb14610f4a578063b500aaed14610fbd576102a5565b80639010d07c14610be0578063902d55a514610c6557806391d1485414610c9057806395d89b4114610d03576102a5565b80632f54bf6e116101ce578063476a4b5811610192578063476a4b581461091e5780634b68044414610af257806370a0823114610b2157806375f12b2114610b865780637dca209d14610bb5576102a5565b80632f54bf6e14610743578063313ce567146107ac5780633411c81c146107dd57806336568abe1461085057806339509351146108ab576102a5565b806318160ddd1161021557806318160ddd1461043e57806323b872dd14610469578063248a9ca3146104fc578063281a99561461054b5780632f2ff15d146106e8576102a5565b806306fdde03146102aa578063095ea7b31461033a5780630fa683d3146103ad57806312253a6c14610427576102a5565b366102a55760003411156102a3573373ffffffffffffffffffffffffffffffffffffffff167f1b851e1031ef35a238e6c67d0c7991162390df915f70eaf9098dbf0b175a6198346040518082815260200191505060405180910390a25b005b600080fd5b3480156102b657600080fd5b506102bf6112d4565b6040518080602001828103825283818151815260200191508051906020019080838360005b838110156102ff5780820151818401526020810190506102e4565b50505050905090810190601f16801561032c5780820380516001836020036101000a031916815260200191505b509250505060405180910390f35b34801561034657600080fd5b506103936004803603604081101561035d57600080fd5b81019080803573ffffffffffffffffffffffffffffffffffffffff16906020019092919080359060200190929190505050611376565b604051808215151515815260200191505060405180910390f35b3480156103b957600080fd5b506103e6600480360360208110156103d057600080fd5b8101908080359060200190929190505050611394565b60405180851515151581526020018415151515815260200183600381111561040a57fe5b60ff16815260200182815260200194505050505060405180910390f35b34801561043357600080fd5b5061043c6116bb565b005b34801561044a57600080fd5b50610453611798565b6040518082815260200191505060405180910390f35b34801561047557600080fd5b506104e26004803603606081101561048c57600080fd5b81019080803573ffffffffffffffffffffffffffffffffffffffff169060200190929190803573ffffffffffffffffffffffffffffffffffffffff169060200190929190803590602001909291905050506117a2565b604051808215151515815260200191505060405180910390f35b34801561050857600080fd5b506105356004803603602081101561051f57600080fd5b810190808035906020019092919050505061187b565b6040518082815260200191505060405180910390f35b34801561055757600080fd5b506106d26004803603608081101561056e57600080fd5b810190808035906020019064010000000081111561058b57600080fd5b82018360208201111561059d57600080fd5b803590602001918460018302840111640100000000831117156105bf57600080fd5b91908080601f016020809104026020016040519081016040528093929190818152602001838380828437600081840152601f19601f820116905080830192505050505050509192919290803573ffffffffffffffffffffffffffffffffffffffff169060200190929190803590602001909291908035906020019064010000000081111561064c57600080fd5b82018360208201111561065e57600080fd5b8035906020019184600183028401116401000000008311171561068057600080fd5b91908080601f016020809104026020016040519081016040528093929190818152602001838380828437600081840152601f19601f82011690508083019250505050505050919291929050505061189b565b6040518082815260200191505060405180910390f35b3480156106f457600080fd5b506107416004803603604081101561070b57600080fd5b8101908080359060200190929190803573ffffffffffffffffffffffffffffffffffffffff169060200190929190505050611978565b005b34801561074f57600080fd5b506107926004803603602081101561076657600080fd5b81019080803573ffffffffffffffffffffffffffffffffffffffff169060200190929190505050611a02565b604051808215151515815260200191505060405180910390f35b3480156107b857600080fd5b506107c1611a4a565b604051808260ff1660ff16815260200191505060405180910390f35b3480156107e957600080fd5b506108366004803603604081101561080057600080fd5b8101908080359060200190929190803573ffffffffffffffffffffffffffffffffffffffff169060200190929190505050611a61565b604051808215151515815260200191505060405180910390f35b34801561085c57600080fd5b506108a96004803603604081101561087357600080fd5b8101908080359060200190929190803573ffffffffffffffffffffffffffffffffffffffff169060200190929190505050611a90565b005b3480156108b757600080fd5b50610904600480360360408110156108ce57600080fd5b81019080803573ffffffffffffffffffffffffffffffffffffffff16906020019092919080359060200190929190505050611b29565b604051808215151515815260200191505060405180910390f35b34801561092a57600080fd5b50610933611bdc565b6040518080602001806020018060200180602001858103855289818151815260200191508051906020019080838360005b8381101561097f578082015181840152602081019050610964565b50505050905090810190601f1680156109ac5780820380516001836020036101000a031916815260200191505b50858103845288818151815260200191508051906020019080838360005b838110156109e55780820151818401526020810190506109ca565b50505050905090810190601f168015610a125780820380516001836020036101000a031916815260200191505b50858103835287818151815260200191508051906020019080838360005b83811015610a4b578082015181840152602081019050610a30565b50505050905090810190601f168015610a785780820380516001836020036101000a031916815260200191505b50858103825286818151815260200191508051906020019080838360005b83811015610ab1578082015181840152602081019050610a96565b50505050905090810190601f168015610ade5780820380516001836020036101000a031916815260200191505b509850505050505050505060405180910390f35b348015610afe57600080fd5b50610b07611d68565b604051808215151515815260200191505060405180910390f35b348015610b2d57600080fd5b50610b7060048036036020811015610b4457600080fd5b81019080803573ffffffffffffffffffffffffffffffffffffffff169060200190929190505050611d7b565b6040518082815260200191505060405180910390f35b348015610b9257600080fd5b50610b9b611dc3565b604051808215151515815260200191505060405180910390f35b348015610bc157600080fd5b50610bca611dd6565b6040518082815260200191505060405180910390f35b348015610bec57600080fd5b50610c2360048036036040811015610c0357600080fd5b810190808035906020019092919080359060200190929190505050611ddc565b604051808273ffffffffffffffffffffffffffffffffffffffff1673ffffffffffffffffffffffffffffffffffffffff16815260200191505060405180910390f35b348015610c7157600080fd5b50610c7a611e0e565b6040518082815260200191505060405180910390f35b348015610c9c57600080fd5b50610ce960048036036040811015610cb357600080fd5b8101908080359060200190929190803573ffffffffffffffffffffffffffffffffffffffff169060200190929190505050611e14565b604051808215151515815260200191505060405180910390f35b348015610d0f57600080fd5b50610d18611e46565b6040518080602001828103825283818151815260200191508051906020019080838360005b83811015610d58578082015181840152602081019050610d3d565b50505050905090810190601f168015610d855780820380516001836020036101000a031916815260200191505b509250505060405180910390f35b348015610d9f57600080fd5b50610dcc60048036036020811015610db657600080fd5b8101908080359060200190929190505050611ee8565b60405180876003811115610ddc57fe5b60ff1681526020018673ffffffffffffffffffffffffffffffffffffffff1673ffffffffffffffffffffffffffffffffffffffff168152602001858152602001806020018415151515815260200183151515158152602001828103825285818151815260200191508051906020019080838360005b83811015610e6c578082015181840152602081019050610e51565b50505050905090810190601f168015610e995780820380516001836020036101000a031916815260200191505b5097505050505050505060405180910390f35b348015610eb857600080fd5b50610ec1612003565b6040518082815260200191505060405180910390f35b348015610ee357600080fd5b50610f3060048036036040811015610efa57600080fd5b81019080803573ffffffffffffffffffffffffffffffffffffffff1690602001909291908035906020019092919050505061200b565b604051808215151515815260200191505060405180910390f35b348015610f5657600080fd5b50610fa360048036036040811015610f6d57600080fd5b81019080803573ffffffffffffffffffffffffffffffffffffffff169060200190929190803590602001909291905050506120d8565b604051808215151515815260200191505060405180910390f35b348015610fc957600080fd5b50610fd26120f6565b005b348015610fe057600080fd5b50610fe96122cd565b6040518082815260200191505060405180910390f35b34801561100b57600080fd5b506110386004803603602081101561102257600080fd5b81019080803590602001909291905050506122d3565b005b34801561104657600080fd5b5061104f61251f565b005b34801561105d57600080fd5b506110a06004803603602081101561107457600080fd5b81019080803573ffffffffffffffffffffffffffffffffffffffff1690602001909291905050506125fc565b60405180848152602001838152602001828152602001935050505060405180910390f35b3480156110d057600080fd5b506110fd600480360360208110156110e757600080fd5b81019080803590602001909291905050506126e0565b6040518082815260200191505060405180910390f35b34801561111f57600080fd5b5061116c6004803603604081101561113657600080fd5b8101908080359060200190929190803573ffffffffffffffffffffffffffffffffffffffff169060200190929190505050612707565b005b34801561117a57600080fd5b506111a76004803603602081101561119157600080fd5b8101908080359060200190929190505050612791565b604051808273ffffffffffffffffffffffffffffffffffffffff1673ffffffffffffffffffffffffffffffffffffffff16815260200191505060405180910390f35b3480156111f557600080fd5b506112586004803603604081101561120c57600080fd5b81019080803573ffffffffffffffffffffffffffffffffffffffff169060200190929190803573ffffffffffffffffffffffffffffffffffffffff1690602001909291905050506127cd565b6040518082815260200191505060405180910390f35b34801561127a57600080fd5b50611283612854565b6040518082815260200191505060405180910390f35b3480156112a557600080fd5b506112d2600480360360208110156112bc57600080fd5b810190808035906020019092919050505061288d565b005b606060038054600181600116156101000203166002900480601f01602080910402602001604051908101604052809291908181526020018280546001816001161561010002031660029004801561136c5780601f106113415761010080835404028352916020019161136c565b820191906000526020600020905b81548152906001019060200180831161134f57829003601f168201915b5050505050905090565b600061138a611383612ca1565b8484612ca9565b6001905092915050565b6000806000806113d960405180807f4f574e45520000000000000000000000000000000000000000000000000000008152506005019050604051809103902033611e14565b61142e576040517f08c379a0000000000000000000000000000000000000000000000000000000008152600401808060200182810382526027815260200180614ab46027913960400191505060405180910390fd5b84600a600082815260200190815260200160002060030160009054906101000a900460ff166114a8576040517f08c379a000000000000000000000000000000000000000000000000000000000815260040180806020018281038252602a815260200180614bf6602a913960400191505060405180910390fd5b6114b06148b2565b600a60008881526020019081526020016000206040518060c00160405290816000820160009054906101000a900460ff1660038111156114ec57fe5b60038111156114f757fe5b81526020016000820160019054906101000a900473ffffffffffffffffffffffffffffffffffffffff1673ffffffffffffffffffffffffffffffffffffffff1673ffffffffffffffffffffffffffffffffffffffff16815260200160018201548152602001600282018054600181600116156101000203166002900480601f0160208091040260200160405190810160405280929190818152602001828054600181600116156101000203166002900480156115f45780601f106115c9576101008083540402835291602001916115f4565b820191906000526020600020905b8154815290600101906020018083116115d757829003601f168201915b505050505081526020016003820160009054906101000a900460ff161515151581526020016003820160019054906101000a900460ff1615151515815250509050600b600088815260200190815260200160002060003373ffffffffffffffffffffffffffffffffffffffff1673ffffffffffffffffffffffffffffffffffffffff16815260200190815260200160002060009054906101000a900460ff1695508060a0015194508060000151935086925085858585955095509550955050509193509193565b6116fa60405180807f4f574e45520000000000000000000000000000000000000000000000000000008152506005019050604051809103902033611e14565b61174f576040517f08c379a0000000000000000000000000000000000000000000000000000000008152600401808060200182810382526027815260200180614ab46027913960400191505060405180910390fd5b6001600d60016101000a81548160ff0219169083151502179055507f271eeaa027ef2b0ef7f9c88ade99794e43f75016f0320df12ea62b72a74e268660405160405180910390a1565b6000600254905090565b60006117af848484612ea0565b611870846117bb612ca1565b61186b85604051806060016040528060288152602001614b8760289139600160008b73ffffffffffffffffffffffffffffffffffffffff1673ffffffffffffffffffffffffffffffffffffffff1681526020019081526020016000206000611821612ca1565b73ffffffffffffffffffffffffffffffffffffffff1673ffffffffffffffffffffffffffffffffffffffff168152602001908152602001600020546131619092919063ffffffff16565b612ca9565b600190509392505050565b600060066000838152602001908152602001600020600201549050919050565b6000600d60019054906101000a900460ff16156118b757600080fd5b6118f660405180807f4f574e45520000000000000000000000000000000000000000000000000000008152506005019050604051809103902033611e14565b61194b576040517f08c379a0000000000000000000000000000000000000000000000000000000008152600401808060200182810382526027815260200180614ab46027913960400191505060405180910390fd5b600061195686613221565b905061196481868686613361565b915061196f826122d3565b50949350505050565b61199f600660008481526020019081526020016000206002015461199a612ca1565b611e14565b6119f4576040517f08c379a000000000000000000000000000000000000000000000000000000000815260040180806020018281038252602f815260200180614a3d602f913960400191505060405180910390fd5b6119fe8282613544565b5050565b6000611a4360405180807f4f574e45520000000000000000000000000000000000000000000000000000008152506005019050604051809103902083611e14565b9050919050565b6000600560009054906101000a900460ff16905090565b600b6020528160005260406000206020528060005260406000206000915091509054906101000a900460ff1681565b611a98612ca1565b73ffffffffffffffffffffffffffffffffffffffff168173ffffffffffffffffffffffffffffffffffffffff1614611b1b576040517f08c379a000000000000000000000000000000000000000000000000000000000815260040180806020018281038252602f815260200180614c69602f913960400191505060405180910390fd5b611b2582826135d8565b5050565b6000611bd2611b36612ca1565b84611bcd8560016000611b47612ca1565b73ffffffffffffffffffffffffffffffffffffffff1673ffffffffffffffffffffffffffffffffffffffff16815260200190815260200160002060008973ffffffffffffffffffffffffffffffffffffffff1673ffffffffffffffffffffffffffffffffffffffff1681526020019081526020016000205461366c90919063ffffffff16565b612ca9565b6001905092915050565b606080606080611c2160405180807f4f574e45520000000000000000000000000000000000000000000000000000008152506005019050604051809103902033611e14565b611c76576040517f08c379a0000000000000000000000000000000000000000000000000000000008152600401808060200182810382526027815260200180614ab46027913960400191505060405180910390fd5b6040518060400160405280600881526020017f45787465726e616c00000000000000000000000000000000000000000000000081525093506040518060400160405280600a81526020017f4e6577466f756e6465720000000000000000000000000000000000000000000081525092506040518060400160405280601581526020017f4c61756e636856657374696e675363686564756c65000000000000000000000081525091506040518060400160405280600e81526020017f44657374726f79436f6d70616e79000000000000000000000000000000000000815250905083838383935093509350935090919293565b600d60009054906101000a900460ff1681565b60008060008373ffffffffffffffffffffffffffffffffffffffff1673ffffffffffffffffffffffffffffffffffffffff168152602001908152602001600020549050919050565b600d60019054906101000a900460ff1681565b60075481565b6000611e0682600660008681526020019081526020016000206000016136f490919063ffffffff16565b905092915050565b61271081565b6000611e3e826006600086815260200190815260200160002060000161370f90919063ffffffff16565b905092915050565b606060048054600181600116156101000203166002900480601f016020809104026020016040519081016040528092919081815260200182805460018160011615610100020316600290048015611ede5780601f10611eb357610100808354040283529160200191611ede565b820191906000526020600020905b815481529060010190602001808311611ec157829003601f168201915b5050505050905090565b600a6020528060005260406000206000915090508060000160009054906101000a900460ff16908060000160019054906101000a900473ffffffffffffffffffffffffffffffffffffffff1690806001015490806002018054600181600116156101000203166002900480601f016020809104026020016040519081016040528092919081815260200182805460018160011615610100020316600290048015611fd35780601f10611fa857610100808354040283529160200191611fd3565b820191906000526020600020905b815481529060010190602001808311611fb657829003601f168201915b5050505050908060030160009054906101000a900460ff16908060030160019054906101000a900460ff16905086565b600060010281565b60006120ce612018612ca1565b846120c985604051806060016040528060258152602001614c446025913960016000612042612ca1565b73ffffffffffffffffffffffffffffffffffffffff1673ffffffffffffffffffffffffffffffffffffffff16815260200190815260200160002060008a73ffffffffffffffffffffffffffffffffffffffff1673ffffffffffffffffffffffffffffffffffffffff168152602001908152602001600020546131619092919063ffffffff16565b612ca9565b6001905092915050565b60006120ec6120e5612ca1565b8484612ea0565b6001905092915050565b61213560405180807f4f574e45520000000000000000000000000000000000000000000000000000008152506005019050604051809103902033611e14565b61218a576040517f08c379a0000000000000000000000000000000000000000000000000000000008152600401808060200182810382526027815260200180614ab46027913960400191505060405180910390fd5b60006121953361373f565b9050600081116121f0576040517f08c379a0000000000000000000000000000000000000000000000000000000008152600401808060200182810382526031815260200180614b0b6031913960400191505060405180910390fd5b6000600960003373ffffffffffffffffffffffffffffffffffffffff1673ffffffffffffffffffffffffffffffffffffffff168152602001908152602001600020905061224a82826001015461366c90919063ffffffff16565b816001018190555061226982826002015461384090919063ffffffff16565b816002018190555061227b338361388a565b3373ffffffffffffffffffffffffffffffffffffffff167fdbc1569abc705e4dab3d58f5fffbdd0ff2ec1982e69899a2c699d7a452081fa8836040518082815260200191505060405180910390a25050565b600c5481565b600d60019054906101000a900460ff16156122ed57600080fd5b61232c60405180807f4f574e45520000000000000000000000000000000000000000000000000000008152506005019050604051809103902033611e14565b612381576040517f08c379a0000000000000000000000000000000000000000000000000000000008152600401808060200182810382526027815260200180614ab46027913960400191505060405180910390fd5b80600a600082815260200190815260200160002060030160009054906101000a900460ff166123fb576040517f08c379a000000000000000000000000000000000000000000000000000000000815260040180806020018281038252602a815260200180614bf6602a913960400191505060405180910390fd5b81600b600082815260200190815260200160002060003373ffffffffffffffffffffffffffffffffffffffff1673ffffffffffffffffffffffffffffffffffffffff16815260200190815260200160002060009054906101000a900460ff161561246457600080fd5b6001600b600085815260200190815260200160002060003373ffffffffffffffffffffffffffffffffffffffff1673ffffffffffffffffffffffffffffffffffffffff16815260200190815260200160002060006101000a81548160ff021916908315150217905550823373ffffffffffffffffffffffffffffffffffffffff167f284a31f48de0c7baa130a1acbe4773f4c39ef557ddcd0b2d6b6ef539af10531b60405160405180910390a361251a8361288d565b505050565b61255e60405180807f4f574e45520000000000000000000000000000000000000000000000000000008152506005019050604051809103902033611e14565b6125b3576040517f08c379a0000000000000000000000000000000000000000000000000000000008152600401808060200182810382526027815260200180614ab46027913960400191505060405180910390fd5b6000600d60016101000a81548160ff0219169083151502179055507f7a0eb486a5792abc0f3f90bb2e49d363e653c325fa01b4e115eb8454f884b92660405160405180910390a1565b6000806000600960008573ffffffffffffffffffffffffffffffffffffffff1673ffffffffffffffffffffffffffffffffffffffff168152602001908152602001600020600101549250600960008573ffffffffffffffffffffffffffffffffffffffff1673ffffffffffffffffffffffffffffffffffffffff168152602001908152602001600020600201549150600960008573ffffffffffffffffffffffffffffffffffffffff1673ffffffffffffffffffffffffffffffffffffffff1681526020019081526020016000206003015490508282829250925092509193909250565b600061270060066000848152602001908152602001600020600001613a51565b9050919050565b61272e6006600084815260200190815260200160002060020154612729612ca1565b611e14565b612783576040517f08c379a0000000000000000000000000000000000000000000000000000000008152600401808060200182810382526030815260200180614adb6030913960400191505060405180910390fd5b61278d82826135d8565b5050565b6008818154811061279e57fe5b906000526020600020016000915054906101000a900473ffffffffffffffffffffffffffffffffffffffff1681565b6000600160008473ffffffffffffffffffffffffffffffffffffffff1673ffffffffffffffffffffffffffffffffffffffff16815260200190815260200160002060008373ffffffffffffffffffffffffffffffffffffffff1673ffffffffffffffffffffffffffffffffffffffff16815260200190815260200160002054905092915050565b60405180807f4f574e45520000000000000000000000000000000000000000000000000000008152506005019050604051809103902081565b600d60019054906101000a900460ff16156128a757600080fd5b6128e660405180807f4f574e45520000000000000000000000000000000000000000000000000000008152506005019050604051809103902033611e14565b61293b576040517f08c379a0000000000000000000000000000000000000000000000000000000008152600401808060200182810382526027815260200180614ab46027913960400191505060405180910390fd5b80600b600082815260200190815260200160002060003373ffffffffffffffffffffffffffffffffffffffff1673ffffffffffffffffffffffffffffffffffffffff16815260200190815260200160002060009054906101000a900460ff166129a357600080fd5b81600a600082815260200190815260200160002060030160019054906101000a900460ff16156129d257600080fd5b6129db83613a66565b15612c9c576000600a6000858152602001908152602001600020905060018160030160016101000a81548160ff02191690831515021790555060006003811115612a2157fe5b8160000160009054906101000a900460ff166003811115612a3e57fe5b1415612b9657612b138160000160019054906101000a900473ffffffffffffffffffffffffffffffffffffffff168260010154836002018054600181600116156101000203166002900480601f016020809104026020016040519081016040528092919081815260200182805460018160011615610100020316600290048015612b095780601f10612ade57610100808354040283529160200191612b09565b820191906000526020600020905b815481529060010190602001808311612aec57829003601f168201915b5050505050613b4e565b15612b4a57837f036687fd39b346666ddc60de603092dbfccf1f0dfef3848eacaf6556f155274960405160405180910390a2612b95565b837fe6be4216c17a494bd52020b62596f189bf4552ad23cbae4913db8f0d9693ec9360405160405180910390a260008160030160016101000a81548160ff0219169083151502179055505b5b60016003811115612ba357fe5b8160000160009054906101000a900460ff166003811115612bc057fe5b1415612bf557612bf38160000160019054906101000a900473ffffffffffffffffffffffffffffffffffffffff16613b6b565b505b60026003811115612c0257fe5b8160000160009054906101000a900460ff166003811115612c1f57fe5b1415612c2e57612c2d613c17565b5b600380811115612c3a57fe5b8160000160009054906101000a900460ff166003811115612c5757fe5b1415612c9a578060000160019054906101000a900473ffffffffffffffffffffffffffffffffffffffff1673ffffffffffffffffffffffffffffffffffffffff16ff5b505b505050565b600033905090565b600073ffffffffffffffffffffffffffffffffffffffff168373ffffffffffffffffffffffffffffffffffffffff161415612d2f576040517f08c379a0000000000000000000000000000000000000000000000000000000008152600401808060200182810382526024815260200180614c206024913960400191505060405180910390fd5b600073ffffffffffffffffffffffffffffffffffffffff168273ffffffffffffffffffffffffffffffffffffffff161415612db5576040517f08c379a0000000000000000000000000000000000000000000000000000000008152600401808060200182810382526022815260200180614a6c6022913960400191505060405180910390fd5b80600160008573ffffffffffffffffffffffffffffffffffffffff1673ffffffffffffffffffffffffffffffffffffffff16815260200190815260200160002060008473ffffffffffffffffffffffffffffffffffffffff1673ffffffffffffffffffffffffffffffffffffffff168152602001908152602001600020819055508173ffffffffffffffffffffffffffffffffffffffff168373ffffffffffffffffffffffffffffffffffffffff167f8c5be1e5ebec7d5bd14f71427d1e84f3dd0314c0f7b2291e5b200ac8c7c3b925836040518082815260200191505060405180910390a3505050565b600073ffffffffffffffffffffffffffffffffffffffff168373ffffffffffffffffffffffffffffffffffffffff161415612f26576040517f08c379a0000000000000000000000000000000000000000000000000000000008152600401808060200182810382526025815260200180614bd16025913960400191505060405180910390fd5b600073ffffffffffffffffffffffffffffffffffffffff168273ffffffffffffffffffffffffffffffffffffffff161415612fac576040517f08c379a0000000000000000000000000000000000000000000000000000000008152600401808060200182810382526023815260200180614a1a6023913960400191505060405180910390fd5b612fb7838383613f77565b61302281604051806060016040528060268152602001614a8e602691396000808773ffffffffffffffffffffffffffffffffffffffff1673ffffffffffffffffffffffffffffffffffffffff168152602001908152602001600020546131619092919063ffffffff16565b6000808573ffffffffffffffffffffffffffffffffffffffff1673ffffffffffffffffffffffffffffffffffffffff168152602001908152602001600020819055506130b5816000808573ffffffffffffffffffffffffffffffffffffffff1673ffffffffffffffffffffffffffffffffffffffff1681526020019081526020016000205461366c90919063ffffffff16565b6000808473ffffffffffffffffffffffffffffffffffffffff1673ffffffffffffffffffffffffffffffffffffffff168152602001908152602001600020819055508173ffffffffffffffffffffffffffffffffffffffff168373ffffffffffffffffffffffffffffffffffffffff167fddf252ad1be2c89b69c2b068fc378daa952ba7f163c4a11628f55a4df523b3ef836040518082815260200191505060405180910390a3505050565b600083831115829061320e576040517f08c379a00000000000000000000000000000000000000000000000000000000081526004018080602001828103825283818151815260200191508051906020019080838360005b838110156131d35780820151818401526020810190506131b8565b50505050905090810190601f1680156132005780820380516001836020036101000a031916815260200191505b509250505060405180910390fd5b5060008385039050809150509392505050565b600060405180807f45787465726e616c0000000000000000000000000000000000000000000000008152506008019050604051809103902082805190602001201415613270576000905061335c565b60405180807f4e6577466f756e64657200000000000000000000000000000000000000000000815250600a0190506040518091039020828051906020012014156132bd576001905061335c565b60405180807f4c61756e636856657374696e675363686564756c650000000000000000000000815250601501905060405180910390208280519060200120141561330a576002905061335c565b60405180807f44657374726f79436f6d70616e79000000000000000000000000000000000000815250600e019050604051809103902082805190602001201415613357576003905061335c565b600080fd5b919050565b600083600073ffffffffffffffffffffffffffffffffffffffff168173ffffffffffffffffffffffffffffffffffffffff16141561339e57600080fd5b600c5491506040518060c001604052808760038111156133ba57fe5b81526020018673ffffffffffffffffffffffffffffffffffffffff16815260200185815260200184815260200160011515815260200160001515815250600a600084815260200190815260200160002060008201518160000160006101000a81548160ff0219169083600381111561342e57fe5b021790555060208201518160000160016101000a81548173ffffffffffffffffffffffffffffffffffffffff021916908373ffffffffffffffffffffffffffffffffffffffff1602179055506040820151816001015560608201518160020190805190602001906134a092919061490d565b5060808201518160030160006101000a81548160ff02191690831515021790555060a08201518160030160016101000a81548160ff0219169083151502179055509050506001600c60008282540192505081905550817fdebc10a4c5b3a068a33d09a2e738b39000cf7a983ba8ade2c06798ba8eb28573876040518082600381111561352857fe5b60ff16815260200191505060405180910390a250949350505050565b61356c8160066000858152602001908152602001600020600001613fe590919063ffffffff16565b156135d457613579612ca1565b73ffffffffffffffffffffffffffffffffffffffff168173ffffffffffffffffffffffffffffffffffffffff16837f2f8788117e7eff1d82e926ec794901d17c78024a50270940304540a733656f0d60405160405180910390a45b5050565b613600816006600085815260200190815260200160002060000161401590919063ffffffff16565b156136685761360d612ca1565b73ffffffffffffffffffffffffffffffffffffffff168173ffffffffffffffffffffffffffffffffffffffff16837ff6391f5c32d9c69d2a47ea670b442974b53935d1edc7fd64eb21e047a839171b60405160405180910390a45b5050565b6000808284019050838110156136ea576040517f08c379a000000000000000000000000000000000000000000000000000000000815260040180806020018281038252601b8152602001807f536166654d6174683a206164646974696f6e206f766572666c6f77000000000081525060200191505060405180910390fd5b8091505092915050565b60006137038360000183614045565b60019004905092915050565b6000613737836000018373ffffffffffffffffffffffffffffffffffffffff166001026140c8565b905092915050565b600061374961498d565b600960008473ffffffffffffffffffffffffffffffffffffffff1673ffffffffffffffffffffffffffffffffffffffff1681526020019081526020016000206040518060a0016040529081600082015481526020016001820154815260200160028201548152602001600382015481526020016004820160009054906101000a900473ffffffffffffffffffffffffffffffffffffffff1673ffffffffffffffffffffffffffffffffffffffff1673ffffffffffffffffffffffffffffffffffffffff1681525050905060008160200151905061383781613829866140eb565b61384090919063ffffffff16565b92505050919050565b600061388283836040518060400160405280601e81526020017f536166654d6174683a207375627472616374696f6e206f766572666c6f770000815250613161565b905092915050565b600073ffffffffffffffffffffffffffffffffffffffff168273ffffffffffffffffffffffffffffffffffffffff16141561392d576040517f08c379a000000000000000000000000000000000000000000000000000000000815260040180806020018281038252601f8152602001807f45524332303a206d696e7420746f20746865207a65726f20616464726573730081525060200191505060405180910390fd5b61393960008383613f77565b61394e8160025461366c90919063ffffffff16565b6002819055506139a5816000808573ffffffffffffffffffffffffffffffffffffffff1673ffffffffffffffffffffffffffffffffffffffff1681526020019081526020016000205461366c90919063ffffffff16565b6000808473ffffffffffffffffffffffffffffffffffffffff1673ffffffffffffffffffffffffffffffffffffffff168152602001908152602001600020819055508173ffffffffffffffffffffffffffffffffffffffff16600073ffffffffffffffffffffffffffffffffffffffff167fddf252ad1be2c89b69c2b068fc378daa952ba7f163c4a11628f55a4df523b3ef836040518082815260200191505060405180910390a35050565b6000613a5f82600001614246565b9050919050565b6000806000905060008090505b600880549050811015613b4657600b6000858152602001908152602001600020600060088381548110613aa257fe5b9060005260206000200160009054906101000a900473ffffffffffffffffffffffffffffffffffffffff1673ffffffffffffffffffffffffffffffffffffffff1673ffffffffffffffffffffffffffffffffffffffff16815260200190815260200160002060009054906101000a900460ff1615613b21576001820191505b600880549050821415613b3957600192505050613b49565b8080600101915050613a73565b50505b919050565b60008060008084516020860187895af19050809150509392505050565b60008073ffffffffffffffffffffffffffffffffffffffff168273ffffffffffffffffffffffffffffffffffffffff161415613ba657600080fd5b613baf82614257565b6008829080600181540180825580915050600190039060005260206000200160009091909190916101000a81548173ffffffffffffffffffffffffffffffffffffffff021916908373ffffffffffffffffffffffffffffffffffffffff160217905550919050565b613c5660405180807f4f574e45520000000000000000000000000000000000000000000000000000008152506005019050604051809103902033611e14565b613cab576040517f08c379a0000000000000000000000000000000000000000000000000000000008152600401808060200182810382526027815260200180614ab46027913960400191505060405180910390fd5b600d60009054906101000a900460ff1615613cc557600080fd5b6000613ce9613cd2611a4a565b60ff16600a0a6127106142f790919063ffffffff16565b90506000613d146064613d06605a856142f790919063ffffffff16565b61437d90919063ffffffff16565b9050613d29818361384090919063ffffffff16565b6007819055506000613d496008805490508361437d90919063ffffffff16565b905060008090505b600880549050811015613f56576040518060a001604052804281526020016000815260200183815260200183815260200160088381548110613d8f57fe5b9060005260206000200160009054906101000a900473ffffffffffffffffffffffffffffffffffffffff1673ffffffffffffffffffffffffffffffffffffffff168152506009600060088481548110613de457fe5b9060005260206000200160009054906101000a900473ffffffffffffffffffffffffffffffffffffffff1673ffffffffffffffffffffffffffffffffffffffff1673ffffffffffffffffffffffffffffffffffffffff1681526020019081526020016000206000820151816000015560208201518160010155604082015181600201556060820151816003015560808201518160040160006101000a81548173ffffffffffffffffffffffffffffffffffffffff021916908373ffffffffffffffffffffffffffffffffffffffff16021790555090505060088181548110613ec857fe5b9060005260206000200160009054906101000a900473ffffffffffffffffffffffffffffffffffffffff1673ffffffffffffffffffffffffffffffffffffffff167f6f1aaf30d5ebfa3a12caac074c49b1c2d49c30cc9107817ca035a011ef935937836004604051808381526020018281526020019250505060405180910390a28080600101915050613d51565b506001600d60006101000a81548160ff021916908315150217905550505050565b613f828383836143c7565b613f8b82611a02565b613fe0576040517f08c379a000000000000000000000000000000000000000000000000000000000815260040180806020018281038252602a815260200180614b3c602a913960400191505060405180910390fd5b505050565b600061400d836000018373ffffffffffffffffffffffffffffffffffffffff166001026143cc565b905092915050565b600061403d836000018373ffffffffffffffffffffffffffffffffffffffff1660010261443c565b905092915050565b6000818360000180549050116140a6576040517f08c379a00000000000000000000000000000000000000000000000000000000081526004018080602001828103825260228152602001806149f86022913960400191505060405180910390fd5b8260000182815481106140b557fe5b9060005260206000200154905092915050565b600080836001016000848152602001908152602001600020541415905092915050565b60006140f561498d565b600960008473ffffffffffffffffffffffffffffffffffffffff1673ffffffffffffffffffffffffffffffffffffffff1681526020019081526020016000206040518060a0016040529081600082015481526020016001820154815260200160028201548152602001600382015481526020016004820160009054906101000a900473ffffffffffffffffffffffffffffffffffffffff1673ffffffffffffffffffffffffffffffffffffffff1673ffffffffffffffffffffffffffffffffffffffff1681525050905060008160600151905060008260000151905060006141e6824261384090919063ffffffff16565b905060006141fe60048461452490919063ffffffff16565b9050804210614214578395505050505050614241565b6142398161422b84876142f790919063ffffffff16565b61437d90919063ffffffff16565b955050505050505b919050565b600081600001805490509050919050565b61426033611a02565b6142b5576040517f08c379a0000000000000000000000000000000000000000000000000000000008152600401808060200182810382526022815260200180614baf6022913960400191505060405180910390fd5b6142f460405180807f4f574e45520000000000000000000000000000000000000000000000000000008152506005019050604051809103902082611978565b50565b60008083141561430a5760009050614377565b600082840290508284828161431b57fe5b0414614372576040517f08c379a0000000000000000000000000000000000000000000000000000000008152600401808060200182810382526021815260200180614b666021913960400191505060405180910390fd5b809150505b92915050565b60006143bf83836040518060400160405280601a81526020017f536166654d6174683a206469766973696f6e206279207a65726f00000000000081525061459b565b905092915050565b505050565b60006143d883836140c8565b614431578260000182908060018154018082558091505060019003906000526020600020016000909190919091505582600001805490508360010160008481526020019081526020016000208190555060019050614436565b600090505b92915050565b60008083600101600084815260200190815260200160002054905060008114614518576000600182039050600060018660000180549050039050600086600001828154811061448757fe5b90600052602060002001549050808760000184815481106144a457fe5b90600052602060002001819055506001830187600101600083815260200190815260200160002081905550866000018054806144dc57fe5b6001900381819060005260206000200160009055905586600101600087815260200190815260200160002060009055600194505050505061451e565b60009150505b92915050565b60008060008061453f62015180878161453957fe5b04614661565b925092509250848301925060006145568484614735565b905080821115614564578091505b62015180878161457057fe5b06620151806145808686866147c0565b020194508685101561459157600080fd5b5050505092915050565b60008083118290614647576040517f08c379a00000000000000000000000000000000000000000000000000000000081526004018080602001828103825283818151815260200191508051906020019080838360005b8381101561460c5780820151818401526020810190506145f1565b50505050905090810190601f1680156146395780820380516001836020036101000a031916815260200191505b509250505060405180910390fd5b50600083858161465357fe5b049050809150509392505050565b600080600080849050600062253d8c62010bd98301019050600062023ab1826004028161468a57fe5b059050600460038262023ab102018161469f57fe5b0582039150600062164b0960018401610fa002816146b957fe5b059050601f6004826105b502816146cc57fe5b058403019250600061098f84605002816146e257fe5b059050600060508261098f02816146f557fe5b0585039050600b828161470457fe5b05945084600c0260028301039150848360318603606402010192508298508197508096505050505050509193909250565b600060018214806147465750600382145b806147515750600582145b8061475c5750600782145b806147675750600882145b806147725750600a82145b8061477d5750600c82145b1561478b57601f90506147ba565b6002821461479c57601e90506147b9565b6147a58361486f565b6147b057601c6147b3565b601d5b60ff1690505b5b92915050565b60006107b28410156147d157600080fd5b600084905060008490506000849050600062253d8c60046064600c600e8703816147f757fe5b056113248801018161480557fe5b056003028161481057fe5b05600c80600c600e88038161482157fe5b0502600287030361016f028161483357fe5b056004600c600e88038161484357fe5b056112c08901016105b5028161485557fe5b05617d4b8603010103039050809450505050509392505050565b6000806004838161487c57fe5b06148015614895575060006064838161489157fe5b0614155b806148ab5750600061019083816148a857fe5b06145b9050919050565b6040518060c00160405280600060038111156148ca57fe5b8152602001600073ffffffffffffffffffffffffffffffffffffffff16815260200160008152602001606081526020016000151581526020016000151581525090565b828054600181600116156101000203166002900490600052602060002090601f016020900481019282601f1061494e57805160ff191683800117855561497c565b8280016001018555821561497c579182015b8281111561497b578251825591602001919060010190614960565b5b50905061498991906149d2565b5090565b6040518060a0016040528060008152602001600081526020016000815260200160008152602001600073ffffffffffffffffffffffffffffffffffffffff1681525090565b6149f491905b808211156149f05760008160009055506001016149d8565b5090565b9056fe456e756d657261626c655365743a20696e646578206f7574206f6620626f756e647345524332303a207472616e7366657220746f20746865207a65726f2061646472657373416363657373436f6e74726f6c3a2073656e646572206d75737420626520616e2061646d696e20746f206772616e7445524332303a20617070726f766520746f20746865207a65726f206164647265737345524332303a207472616e7366657220616d6f756e7420657863656564732062616c616e636550726976617465436f6d70616e793a2073656e646572206973206e6f74206120666f756e646572416363657373436f6e74726f6c3a2073656e646572206d75737420626520616e2061646d696e20746f207265766f6b6550726976617465436f6d70616e793a206e6f20746f6b656e7320746f2072656c6561736520617420746869732074696d654552433230507269766174653a20746f6b656e207472616e7366657220746f206f776e6572206f6e6c79536166654d6174683a206d756c7469706c69636174696f6e206f766572666c6f7745524332303a207472616e7366657220616d6f756e74206578636565647320616c6c6f77616e63654552433230507269766174653a205265737472696374656420746f206f776e65727345524332303a207472616e736665722066726f6d20746865207a65726f206164647265737350726976617465436f6d70616e793a207472616e73616374696f6e20646f6573206e6f7420657869737445524332303a20617070726f76652066726f6d20746865207a65726f206164647265737345524332303a2064656372656173656420616c6c6f77616e63652062656c6f77207a65726f416363657373436f6e74726f6c3a2063616e206f6e6c792072656e6f756e636520726f6c657320666f722073656c66a2646970667358221220b1302ce54aac0c3f95c93ba128d7866127b998f8385b5915e1bf68f7ed80a3e664736f6c63430006020033a2646970667358221220fc15858a65a1466ab2fea0700f1256ba8d72374372bb11088e87fa5a5101a18464736f6c63430006020033",
  "source": "// SPDX-License-Identifier: MIT\npragma solidity >0.6.0;\n\nimport \"./PrivateCompany.sol\";\nimport \"./Factory.sol\";\n\ncontract PrivateCompanyFactory is Factory {\n    // Public functions\n    /**\n     * @dev @dev Allows creation of Private Company instance.\n     * @param _companyName Company name.\n     * @param _token Company(token) ticker name.\n     */\n    function create(\n        string memory _companyName,\n        string memory _token\n    ) public returns (address companyAddress) {\n        companyAddress = address(\n            new PrivateCompany(_companyName, _token, msg.sender)\n        );\n        register(companyAddress);\n        return companyAddress;\n    }\n}\n",
  "sourcePath": "/Users/konstantin/dev/consensys/final-project/startup-3.0/contracts/PrivateCompanyFactory.sol",
  "compiler": {
    "name": "solc",
    "version": "0.6.2+commit.bacdbe57.Emscripten.clang"
  },
  "schemaVersion": "3.2.5",
  "updatedAt": "2020-12-05T13:58:58.284Z",
  "networkType": "ethereum",
  "devdoc": {
    "methods": {
      "create(string,string)": {
        "details": "@dev Allows creation of Private Company instance.",
        "params": {
          "_companyName": "Company name.",
          "_token": "Company(token) ticker name."
        }
      },
      "getInstantiationCount(address)": {
        "params": {
          "creator": "Contract creator address."
        },
        "returns": {
          "_0": "Returns number of instantiations by creator."
        }
      }
    }
  },
  "userdoc": {
    "methods": {}
  }
}