{
  "contractName": "PrivateCompany",
  "abi": [
    {
      "inputs": [
        {
          "internalType": "string",
          "name": "_companyName",
          "type": "string"
        },
        {
          "internalType": "string",
          "name": "_token",
          "type": "string"
        },
        {
          "internalType": "address",
          "name": "_founder",
          "type": "address"
        }
      ],
      "stateMutability": "payable",
      "type": "constructor"
    },
    {
      "anonymous": false,
      "inputs": [
        {
          "indexed": true,
          "internalType": "address",
          "name": "owner",
          "type": "address"
        },
        {
          "indexed": true,
          "internalType": "address",
          "name": "spender",
          "type": "address"
        },
        {
          "indexed": false,
          "internalType": "uint256",
          "name": "value",
          "type": "uint256"
        }
      ],
      "name": "Approval",
      "type": "event"
    },
    {
      "anonymous": false,
      "inputs": [],
      "name": "LogContractResume",
      "type": "event"
    },
    {
      "anonymous": false,
      "inputs": [],
      "name": "LogContractStopped",
      "type": "event"
    },
    {
      "anonymous": false,
      "inputs": [
        {
          "indexed": true,
          "internalType": "address",
          "name": "sender",
          "type": "address"
        },
        {
          "indexed": false,
          "internalType": "uint256",
          "name": "value",
          "type": "uint256"
        }
      ],
      "name": "LogDeposit",
      "type": "event"
    },
    {
      "anonymous": false,
      "inputs": [
        {
          "indexed": true,
          "internalType": "address",
          "name": "founderAddress",
          "type": "address"
        },
        {
          "indexed": false,
          "internalType": "uint256",
          "name": "equityAmount",
          "type": "uint256"
        },
        {
          "indexed": false,
          "internalType": "uint256",
          "name": "vestingTime",
          "type": "uint256"
        }
      ],
      "name": "LogFounderEquityDistribution",
      "type": "event"
    },
    {
      "anonymous": false,
      "inputs": [
        {
          "indexed": true,
          "internalType": "address",
          "name": "founderAddress",
          "type": "address"
        },
        {
          "indexed": false,
          "internalType": "uint256",
          "name": "equityAmount",
          "type": "uint256"
        }
      ],
      "name": "LogReleasedEquityForHolder",
      "type": "event"
    },
    {
      "anonymous": false,
      "inputs": [
        {
          "indexed": true,
          "internalType": "address",
          "name": "sender",
          "type": "address"
        },
        {
          "indexed": true,
          "internalType": "uint256",
          "name": "transactionId",
          "type": "uint256"
        }
      ],
      "name": "LogTransactionConfirmation",
      "type": "event"
    },
    {
      "anonymous": false,
      "inputs": [
        {
          "indexed": true,
          "internalType": "uint256",
          "name": "transactionId",
          "type": "uint256"
        }
      ],
      "name": "LogTransactionExecution",
      "type": "event"
    },
    {
      "anonymous": false,
      "inputs": [
        {
          "indexed": true,
          "internalType": "uint256",
          "name": "transactionId",
          "type": "uint256"
        }
      ],
      "name": "LogTransactionExecutionFailure",
      "type": "event"
    },
    {
      "anonymous": false,
      "inputs": [
        {
          "indexed": false,
          "internalType": "enum PrivateCompany.TransactionType",
          "name": "txType",
          "type": "uint8"
        },
        {
          "indexed": true,
          "internalType": "uint256",
          "name": "transactionId",
          "type": "uint256"
        }
      ],
      "name": "LogTransactionSubmission",
      "type": "event"
    },
    {
      "anonymous": false,
      "inputs": [
        {
          "indexed": true,
          "internalType": "bytes32",
          "name": "role",
          "type": "bytes32"
        },
        {
          "indexed": true,
          "internalType": "bytes32",
          "name": "previousAdminRole",
          "type": "bytes32"
        },
        {
          "indexed": true,
          "internalType": "bytes32",
          "name": "newAdminRole",
          "type": "bytes32"
        }
      ],
      "name": "RoleAdminChanged",
      "type": "event"
    },
    {
      "anonymous": false,
      "inputs": [
        {
          "indexed": true,
          "internalType": "bytes32",
          "name": "role",
          "type": "bytes32"
        },
        {
          "indexed": true,
          "internalType": "address",
          "name": "account",
          "type": "address"
        },
        {
          "indexed": true,
          "internalType": "address",
          "name": "sender",
          "type": "address"
        }
      ],
      "name": "RoleGranted",
      "type": "event"
    },
    {
      "anonymous": false,
      "inputs": [
        {
          "indexed": true,
          "internalType": "bytes32",
          "name": "role",
          "type": "bytes32"
        },
        {
          "indexed": true,
          "internalType": "address",
          "name": "account",
          "type": "address"
        },
        {
          "indexed": true,
          "internalType": "address",
          "name": "sender",
          "type": "address"
        }
      ],
      "name": "RoleRevoked",
      "type": "event"
    },
    {
      "anonymous": false,
      "inputs": [
        {
          "indexed": true,
          "internalType": "address",
          "name": "from",
          "type": "address"
        },
        {
          "indexed": true,
          "internalType": "address",
          "name": "to",
          "type": "address"
        },
        {
          "indexed": false,
          "internalType": "uint256",
          "name": "value",
          "type": "uint256"
        }
      ],
      "name": "Transfer",
      "type": "event"
    },
    {
      "inputs": [],
      "name": "DEFAULT_ADMIN_ROLE",
      "outputs": [
        {
          "internalType": "bytes32",
          "name": "",
          "type": "bytes32"
        }
      ],
      "stateMutability": "view",
      "type": "function"
    },
    {
      "inputs": [],
      "name": "OWNER_ROLE",
      "outputs": [
        {
          "internalType": "bytes32",
          "name": "",
          "type": "bytes32"
        }
      ],
      "stateMutability": "view",
      "type": "function"
    },
    {
      "inputs": [],
      "name": "TOTAL_SUPPLY",
      "outputs": [
        {
          "internalType": "uint256",
          "name": "",
          "type": "uint256"
        }
      ],
      "stateMutability": "view",
      "type": "function"
    },
    {
      "inputs": [
        {
          "internalType": "address",
          "name": "owner",
          "type": "address"
        },
        {
          "internalType": "address",
          "name": "spender",
          "type": "address"
        }
      ],
      "name": "allowance",
      "outputs": [
        {
          "internalType": "uint256",
          "name": "",
          "type": "uint256"
        }
      ],
      "stateMutability": "view",
      "type": "function"
    },
    {
      "inputs": [
        {
          "internalType": "address",
          "name": "spender",
          "type": "address"
        },
        {
          "internalType": "uint256",
          "name": "amount",
          "type": "uint256"
        }
      ],
      "name": "approve",
      "outputs": [
        {
          "internalType": "bool",
          "name": "",
          "type": "bool"
        }
      ],
      "stateMutability": "nonpayable",
      "type": "function"
    },
    {
      "inputs": [
        {
          "internalType": "address",
          "name": "account",
          "type": "address"
        }
      ],
      "name": "balanceOf",
      "outputs": [
        {
          "internalType": "uint256",
          "name": "",
          "type": "uint256"
        }
      ],
      "stateMutability": "view",
      "type": "function"
    },
    {
      "inputs": [
        {
          "internalType": "uint256",
          "name": "",
          "type": "uint256"
        },
        {
          "internalType": "address",
          "name": "",
          "type": "address"
        }
      ],
      "name": "confirmations",
      "outputs": [
        {
          "internalType": "bool",
          "name": "",
          "type": "bool"
        }
      ],
      "stateMutability": "view",
      "type": "function"
    },
    {
      "inputs": [],
      "name": "decimals",
      "outputs": [
        {
          "internalType": "uint8",
          "name": "",
          "type": "uint8"
        }
      ],
      "stateMutability": "view",
      "type": "function"
    },
    {
      "inputs": [
        {
          "internalType": "address",
          "name": "spender",
          "type": "address"
        },
        {
          "internalType": "uint256",
          "name": "subtractedValue",
          "type": "uint256"
        }
      ],
      "name": "decreaseAllowance",
      "outputs": [
        {
          "internalType": "bool",
          "name": "",
          "type": "bool"
        }
      ],
      "stateMutability": "nonpayable",
      "type": "function"
    },
    {
      "inputs": [],
      "name": "equityPool",
      "outputs": [
        {
          "internalType": "uint256",
          "name": "",
          "type": "uint256"
        }
      ],
      "stateMutability": "view",
      "type": "function"
    },
    {
      "inputs": [
        {
          "internalType": "uint256",
          "name": "",
          "type": "uint256"
        }
      ],
      "name": "founders",
      "outputs": [
        {
          "internalType": "address",
          "name": "",
          "type": "address"
        }
      ],
      "stateMutability": "view",
      "type": "function"
    },
    {
      "inputs": [
        {
          "internalType": "bytes32",
          "name": "role",
          "type": "bytes32"
        }
      ],
      "name": "getRoleAdmin",
      "outputs": [
        {
          "internalType": "bytes32",
          "name": "",
          "type": "bytes32"
        }
      ],
      "stateMutability": "view",
      "type": "function"
    },
    {
      "inputs": [
        {
          "internalType": "bytes32",
          "name": "role",
          "type": "bytes32"
        },
        {
          "internalType": "uint256",
          "name": "index",
          "type": "uint256"
        }
      ],
      "name": "getRoleMember",
      "outputs": [
        {
          "internalType": "address",
          "name": "",
          "type": "address"
        }
      ],
      "stateMutability": "view",
      "type": "function"
    },
    {
      "inputs": [
        {
          "internalType": "bytes32",
          "name": "role",
          "type": "bytes32"
        }
      ],
      "name": "getRoleMemberCount",
      "outputs": [
        {
          "internalType": "uint256",
          "name": "",
          "type": "uint256"
        }
      ],
      "stateMutability": "view",
      "type": "function"
    },
    {
      "inputs": [
        {
          "internalType": "bytes32",
          "name": "role",
          "type": "bytes32"
        },
        {
          "internalType": "address",
          "name": "account",
          "type": "address"
        }
      ],
      "name": "grantRole",
      "outputs": [],
      "stateMutability": "nonpayable",
      "type": "function"
    },
    {
      "inputs": [
        {
          "internalType": "bytes32",
          "name": "role",
          "type": "bytes32"
        },
        {
          "internalType": "address",
          "name": "account",
          "type": "address"
        }
      ],
      "name": "hasRole",
      "outputs": [
        {
          "internalType": "bool",
          "name": "",
          "type": "bool"
        }
      ],
      "stateMutability": "view",
      "type": "function"
    },
    {
      "inputs": [
        {
          "internalType": "address",
          "name": "spender",
          "type": "address"
        },
        {
          "internalType": "uint256",
          "name": "addedValue",
          "type": "uint256"
        }
      ],
      "name": "increaseAllowance",
      "outputs": [
        {
          "internalType": "bool",
          "name": "",
          "type": "bool"
        }
      ],
      "stateMutability": "nonpayable",
      "type": "function"
    },
    {
      "inputs": [
        {
          "internalType": "address",
          "name": "account",
          "type": "address"
        }
      ],
      "name": "isOwner",
      "outputs": [
        {
          "internalType": "bool",
          "name": "",
          "type": "bool"
        }
      ],
      "stateMutability": "view",
      "type": "function"
    },
    {
      "inputs": [],
      "name": "name",
      "outputs": [
        {
          "internalType": "string",
          "name": "",
          "type": "string"
        }
      ],
      "stateMutability": "view",
      "type": "function"
    },
    {
      "inputs": [
        {
          "internalType": "bytes32",
          "name": "role",
          "type": "bytes32"
        },
        {
          "internalType": "address",
          "name": "account",
          "type": "address"
        }
      ],
      "name": "renounceRole",
      "outputs": [],
      "stateMutability": "nonpayable",
      "type": "function"
    },
    {
      "inputs": [
        {
          "internalType": "bytes32",
          "name": "role",
          "type": "bytes32"
        },
        {
          "internalType": "address",
          "name": "account",
          "type": "address"
        }
      ],
      "name": "revokeRole",
      "outputs": [],
      "stateMutability": "nonpayable",
      "type": "function"
    },
    {
      "inputs": [],
      "name": "stopped",
      "outputs": [
        {
          "internalType": "bool",
          "name": "",
          "type": "bool"
        }
      ],
      "stateMutability": "view",
      "type": "function"
    },
    {
      "inputs": [],
      "name": "symbol",
      "outputs": [
        {
          "internalType": "string",
          "name": "",
          "type": "string"
        }
      ],
      "stateMutability": "view",
      "type": "function"
    },
    {
      "inputs": [],
      "name": "totalSupply",
      "outputs": [
        {
          "internalType": "uint256",
          "name": "",
          "type": "uint256"
        }
      ],
      "stateMutability": "view",
      "type": "function"
    },
    {
      "inputs": [],
      "name": "transactionCount",
      "outputs": [
        {
          "internalType": "uint256",
          "name": "",
          "type": "uint256"
        }
      ],
      "stateMutability": "view",
      "type": "function"
    },
    {
      "inputs": [
        {
          "internalType": "uint256",
          "name": "",
          "type": "uint256"
        }
      ],
      "name": "transactions",
      "outputs": [
        {
          "internalType": "enum PrivateCompany.TransactionType",
          "name": "txType",
          "type": "uint8"
        },
        {
          "internalType": "address",
          "name": "destination",
          "type": "address"
        },
        {
          "internalType": "uint256",
          "name": "value",
          "type": "uint256"
        },
        {
          "internalType": "bytes",
          "name": "data",
          "type": "bytes"
        },
        {
          "internalType": "bool",
          "name": "exist",
          "type": "bool"
        },
        {
          "internalType": "bool",
          "name": "executed",
          "type": "bool"
        }
      ],
      "stateMutability": "view",
      "type": "function"
    },
    {
      "inputs": [
        {
          "internalType": "address",
          "name": "recipient",
          "type": "address"
        },
        {
          "internalType": "uint256",
          "name": "amount",
          "type": "uint256"
        }
      ],
      "name": "transfer",
      "outputs": [
        {
          "internalType": "bool",
          "name": "",
          "type": "bool"
        }
      ],
      "stateMutability": "nonpayable",
      "type": "function"
    },
    {
      "inputs": [
        {
          "internalType": "address",
          "name": "sender",
          "type": "address"
        },
        {
          "internalType": "address",
          "name": "recipient",
          "type": "address"
        },
        {
          "internalType": "uint256",
          "name": "amount",
          "type": "uint256"
        }
      ],
      "name": "transferFrom",
      "outputs": [
        {
          "internalType": "bool",
          "name": "",
          "type": "bool"
        }
      ],
      "stateMutability": "nonpayable",
      "type": "function"
    },
    {
      "inputs": [],
      "name": "vestingSchedule",
      "outputs": [
        {
          "internalType": "bool",
          "name": "",
          "type": "bool"
        }
      ],
      "stateMutability": "view",
      "type": "function"
    },
    {
      "stateMutability": "payable",
      "type": "receive"
    },
    {
      "inputs": [],
      "name": "stopContract",
      "outputs": [],
      "stateMutability": "nonpayable",
      "type": "function"
    },
    {
      "inputs": [],
      "name": "resumeContract",
      "outputs": [],
      "stateMutability": "nonpayable",
      "type": "function"
    },
    {
      "inputs": [],
      "name": "getTransactionTypes",
      "outputs": [
        {
          "internalType": "string",
          "name": "externalType",
          "type": "string"
        },
        {
          "internalType": "string",
          "name": "newFounderType",
          "type": "string"
        },
        {
          "internalType": "string",
          "name": "launchVestingScheduleType",
          "type": "string"
        },
        {
          "internalType": "string",
          "name": "destroyCompanyType",
          "type": "string"
        }
      ],
      "stateMutability": "view",
      "type": "function"
    },
    {
      "inputs": [
        {
          "internalType": "uint256",
          "name": "transactionId",
          "type": "uint256"
        }
      ],
      "name": "getTransactionDetails",
      "outputs": [
        {
          "internalType": "bool",
          "name": "isConfirmedByMe",
          "type": "bool"
        },
        {
          "internalType": "bool",
          "name": "isExecuted",
          "type": "bool"
        },
        {
          "internalType": "enum PrivateCompany.TransactionType",
          "name": "txType",
          "type": "uint8"
        },
        {
          "internalType": "uint256",
          "name": "txId",
          "type": "uint256"
        },
        {
          "internalType": "address",
          "name": "destination",
          "type": "address"
        },
        {
          "internalType": "uint256",
          "name": "value",
          "type": "uint256"
        }
      ],
      "stateMutability": "view",
      "type": "function"
    },
    {
      "inputs": [
        {
          "internalType": "address",
          "name": "holderAddress",
          "type": "address"
        }
      ],
      "name": "getEquityHolderBalance",
      "outputs": [
        {
          "internalType": "uint256",
          "name": "currentBalance",
          "type": "uint256"
        },
        {
          "internalType": "uint256",
          "name": "lockedBalance",
          "type": "uint256"
        },
        {
          "internalType": "uint256",
          "name": "totalBalance",
          "type": "uint256"
        },
        {
          "internalType": "uint256",
          "name": "lockTimeStart",
          "type": "uint256"
        }
      ],
      "stateMutability": "view",
      "type": "function"
    },
    {
      "inputs": [],
      "name": "releaseVestedEquity",
      "outputs": [],
      "stateMutability": "nonpayable",
      "type": "function"
    },
    {
      "inputs": [
        {
          "internalType": "string",
          "name": "txTypeKey",
          "type": "string"
        },
        {
          "internalType": "address",
          "name": "destination",
          "type": "address"
        },
        {
          "internalType": "uint256",
          "name": "value",
          "type": "uint256"
        },
        {
          "internalType": "bytes",
          "name": "data",
          "type": "bytes"
        }
      ],
      "name": "submitTransaction",
      "outputs": [
        {
          "internalType": "uint256",
          "name": "transactionId",
          "type": "uint256"
        }
      ],
      "stateMutability": "nonpayable",
      "type": "function"
    },
    {
      "inputs": [
        {
          "internalType": "uint256",
          "name": "transactionId",
          "type": "uint256"
        }
      ],
      "name": "confirmTransaction",
      "outputs": [],
      "stateMutability": "nonpayable",
      "type": "function"
    },
    {
      "inputs": [
        {
          "internalType": "uint256",
          "name": "transactionId",
          "type": "uint256"
        }
      ],
      "name": "executeTransaction",
      "outputs": [],
      "stateMutability": "nonpayable",
      "type": "function"
    }
  ],
  "bytecode": "0x60806040526000600d60006101000a81548160ff0219169083151502179055506000600d60016101000a81548160ff0219169083151502179055506040516200527938038062005279833981810160405260608110156200005f57600080fd5b81019080805160405193929190846401000000008211156200008057600080fd5b838201915060208201858111156200009757600080fd5b8251866001820283011164010000000082111715620000b557600080fd5b8083526020830192505050908051906020019080838360005b83811015620000eb578082015181840152602081019050620000ce565b50505050905090810190601f168015620001195780820380516001836020036101000a031916815260200191505b50604052602001805160405193929190846401000000008211156200013d57600080fd5b838201915060208201858111156200015457600080fd5b82518660018202830111640100000000821117156200017257600080fd5b8083526020830192505050908051906020019080838360005b83811015620001a85780820151818401526020810190506200018b565b50505050905090810190601f168015620001d65780820380516001836020036101000a031916815260200191505b5060405260200180519060200190929190505050808383816003908051906020019062000205929190620005a7565b5080600490805190602001906200021e929190620005a7565b506012600560006101000a81548160ff021916908360ff16021790555050506200028d60405180807f4f574e455200000000000000000000000000000000000000000000000000000081525060050190506040518091039020826200037f640100000000026401000000009004565b6200031260405180807f4f574e45520000000000000000000000000000000000000000000000000000008152506005019050604051809103902060405180807f4f574e4552000000000000000000000000000000000000000000000000000000815250600501905060405180910390206200039e640100000000026401000000009004565b506008819080600181540180825580915050600190039060005260206000200160009091909190916101000a81548173ffffffffffffffffffffffffffffffffffffffff021916908373ffffffffffffffffffffffffffffffffffffffff16021790555050505062000656565b6200039a828262000402640100000000026401000000009004565b5050565b806006600084815260200190815260200160002060020154837fbd79b86ffe0ab8e8776151514217cd7cacd52c909f66475c3af44e129f0b00ff60405160405180910390a48060066000848152602001908152602001600020600201819055505050565b6200043a8160066000858152602001908152602001600020600001620004b864010000000002620047b7179091906401000000009004565b15620004b45762000459620004f9640100000000026401000000009004565b73ffffffffffffffffffffffffffffffffffffffff168173ffffffffffffffffffffffffffffffffffffffff16837f2f8788117e7eff1d82e926ec794901d17c78024a50270940304540a733656f0d60405160405180910390a45b5050565b6000620004f1836000018373ffffffffffffffffffffffffffffffffffffffff1660010262000501640100000000026401000000009004565b905092915050565b600033905090565b60006200051e838362000584640100000000026401000000009004565b620005795782600001829080600181540180825580915050600190039060005260206000200160009091909190915055826000018054905083600101600084815260200190815260200160002081905550600190506200057e565b600090505b92915050565b600080836001016000848152602001908152602001600020541415905092915050565b828054600181600116156101000203166002900490600052602060002090601f016020900481019282601f10620005ea57805160ff19168380011785556200061b565b828001600101855582156200061b579182015b828111156200061a578251825591602001919060010190620005fd565b5b5090506200062a91906200062e565b5090565b6200065391905b808211156200064f57600081600090555060010162000635565b5090565b90565b614c1380620006666000396000f3fe608060405260043610610246576000357c0100000000000000000000000000000000000000000000000000000000900480639010d07c11610140578063b77bf600116100c8578063d547741f1161008c578063d547741f14611154578063d8e75f62146111af578063dd62ed3e1461122a578063e58378bb146112af578063ee22610b146112da576102a5565b8063b77bf6001461100e578063c01a8c8414611039578063c4bc5da514611074578063c99e06c31461108b578063ca15c87314611105576102a5565b80639ace38c21161010f5780639ace38c214610dcd578063a217fddf14610ee6578063a457c2d714610f11578063a9059cbb14610f84578063b500aaed14610ff7576102a5565b80639010d07c14610c1a578063902d55a514610c9f57806391d1485414610cca57806395d89b4114610d3d576102a5565b80632f54bf6e116101ce578063476a4b5811610192578063476a4b58146109585780634b68044414610b2c57806370a0823114610b5b57806375f12b2114610bc05780637dca209d14610bef576102a5565b80632f54bf6e1461077d578063313ce567146107e65780633411c81c1461081757806336568abe1461088a57806339509351146108e5576102a5565b806318160ddd1161021557806318160ddd1461047857806323b872dd146104a3578063248a9ca314610536578063281a9956146105855780632f2ff15d14610722576102a5565b806306fdde03146102aa578063095ea7b31461033a5780630fa683d3146103ad57806312253a6c14610461576102a5565b366102a55760003411156102a3573373ffffffffffffffffffffffffffffffffffffffff167f1b851e1031ef35a238e6c67d0c7991162390df915f70eaf9098dbf0b175a6198346040518082815260200191505060405180910390a25b005b600080fd5b3480156102b657600080fd5b506102bf611315565b6040518080602001828103825283818151815260200191508051906020019080838360005b838110156102ff5780820151818401526020810190506102e4565b50505050905090810190601f16801561032c5780820380516001836020036101000a031916815260200191505b509250505060405180910390f35b34801561034657600080fd5b506103936004803603604081101561035d57600080fd5b81019080803573ffffffffffffffffffffffffffffffffffffffff169060200190929190803590602001909291905050506113b7565b604051808215151515815260200191505060405180910390f35b3480156103b957600080fd5b506103e6600480360360208110156103d057600080fd5b81019080803590602001909291905050506113d5565b60405180871515151581526020018615151515815260200185600381111561040a57fe5b60ff1681526020018481526020018373ffffffffffffffffffffffffffffffffffffffff1673ffffffffffffffffffffffffffffffffffffffff168152602001828152602001965050505050505060405180910390f35b34801561046d57600080fd5b50610476611715565b005b34801561048457600080fd5b5061048d6117f2565b6040518082815260200191505060405180910390f35b3480156104af57600080fd5b5061051c600480360360608110156104c657600080fd5b81019080803573ffffffffffffffffffffffffffffffffffffffff169060200190929190803573ffffffffffffffffffffffffffffffffffffffff169060200190929190803590602001909291905050506117fc565b604051808215151515815260200191505060405180910390f35b34801561054257600080fd5b5061056f6004803603602081101561055957600080fd5b81019080803590602001909291905050506118d5565b6040518082815260200191505060405180910390f35b34801561059157600080fd5b5061070c600480360360808110156105a857600080fd5b81019080803590602001906401000000008111156105c557600080fd5b8201836020820111156105d757600080fd5b803590602001918460018302840111640100000000831117156105f957600080fd5b91908080601f016020809104026020016040519081016040528093929190818152602001838380828437600081840152601f19601f820116905080830192505050505050509192919290803573ffffffffffffffffffffffffffffffffffffffff169060200190929190803590602001909291908035906020019064010000000081111561068657600080fd5b82018360208201111561069857600080fd5b803590602001918460018302840111640100000000831117156106ba57600080fd5b91908080601f016020809104026020016040519081016040528093929190818152602001838380828437600081840152601f19601f8201169050808301925050505050505091929192905050506118f5565b6040518082815260200191505060405180910390f35b34801561072e57600080fd5b5061077b6004803603604081101561074557600080fd5b8101908080359060200190929190803573ffffffffffffffffffffffffffffffffffffffff1690602001909291905050506119d2565b005b34801561078957600080fd5b506107cc600480360360208110156107a057600080fd5b81019080803573ffffffffffffffffffffffffffffffffffffffff1690602001909291905050506119d6565b604051808215151515815260200191505060405180910390f35b3480156107f257600080fd5b506107fb611a1e565b604051808260ff1660ff16815260200191505060405180910390f35b34801561082357600080fd5b506108706004803603604081101561083a57600080fd5b8101908080359060200190929190803573ffffffffffffffffffffffffffffffffffffffff169060200190929190505050611a35565b604051808215151515815260200191505060405180910390f35b34801561089657600080fd5b506108e3600480360360408110156108ad57600080fd5b8101908080359060200190929190803573ffffffffffffffffffffffffffffffffffffffff169060200190929190505050611a64565b005b3480156108f157600080fd5b5061093e6004803603604081101561090857600080fd5b81019080803573ffffffffffffffffffffffffffffffffffffffff16906020019092919080359060200190929190505050611afd565b604051808215151515815260200191505060405180910390f35b34801561096457600080fd5b5061096d611bb0565b6040518080602001806020018060200180602001858103855289818151815260200191508051906020019080838360005b838110156109b957808201518184015260208101905061099e565b50505050905090810190601f1680156109e65780820380516001836020036101000a031916815260200191505b50858103845288818151815260200191508051906020019080838360005b83811015610a1f578082015181840152602081019050610a04565b50505050905090810190601f168015610a4c5780820380516001836020036101000a031916815260200191505b50858103835287818151815260200191508051906020019080838360005b83811015610a85578082015181840152602081019050610a6a565b50505050905090810190601f168015610ab25780820380516001836020036101000a031916815260200191505b50858103825286818151815260200191508051906020019080838360005b83811015610aeb578082015181840152602081019050610ad0565b50505050905090810190601f168015610b185780820380516001836020036101000a031916815260200191505b509850505050505050505060405180910390f35b348015610b3857600080fd5b50610b41611d3c565b604051808215151515815260200191505060405180910390f35b348015610b6757600080fd5b50610baa60048036036020811015610b7e57600080fd5b81019080803573ffffffffffffffffffffffffffffffffffffffff169060200190929190505050611d4f565b6040518082815260200191505060405180910390f35b348015610bcc57600080fd5b50610bd5611d97565b604051808215151515815260200191505060405180910390f35b348015610bfb57600080fd5b50610c04611daa565b6040518082815260200191505060405180910390f35b348015610c2657600080fd5b50610c5d60048036036040811015610c3d57600080fd5b810190808035906020019092919080359060200190929190505050611db0565b604051808273ffffffffffffffffffffffffffffffffffffffff1673ffffffffffffffffffffffffffffffffffffffff16815260200191505060405180910390f35b348015610cab57600080fd5b50610cb4611de2565b6040518082815260200191505060405180910390f35b348015610cd657600080fd5b50610d2360048036036040811015610ced57600080fd5b8101908080359060200190929190803573ffffffffffffffffffffffffffffffffffffffff169060200190929190505050611de8565b604051808215151515815260200191505060405180910390f35b348015610d4957600080fd5b50610d52611e1a565b6040518080602001828103825283818151815260200191508051906020019080838360005b83811015610d92578082015181840152602081019050610d77565b50505050905090810190601f168015610dbf5780820380516001836020036101000a031916815260200191505b509250505060405180910390f35b348015610dd957600080fd5b50610e0660048036036020811015610df057600080fd5b8101908080359060200190929190505050611ebc565b60405180876003811115610e1657fe5b60ff1681526020018673ffffffffffffffffffffffffffffffffffffffff1673ffffffffffffffffffffffffffffffffffffffff168152602001858152602001806020018415151515815260200183151515158152602001828103825285818151815260200191508051906020019080838360005b83811015610ea6578082015181840152602081019050610e8b565b50505050905090810190601f168015610ed35780820380516001836020036101000a031916815260200191505b5097505050505050505060405180910390f35b348015610ef257600080fd5b50610efb611fd7565b6040518082815260200191505060405180910390f35b348015610f1d57600080fd5b50610f6a60048036036040811015610f3457600080fd5b81019080803573ffffffffffffffffffffffffffffffffffffffff16906020019092919080359060200190929190505050611fdf565b604051808215151515815260200191505060405180910390f35b348015610f9057600080fd5b50610fdd60048036036040811015610fa757600080fd5b81019080803573ffffffffffffffffffffffffffffffffffffffff169060200190929190803590602001909291905050506120ac565b604051808215151515815260200191505060405180910390f35b34801561100357600080fd5b5061100c6120ca565b005b34801561101a57600080fd5b506110236122a1565b6040518082815260200191505060405180910390f35b34801561104557600080fd5b506110726004803603602081101561105c57600080fd5b81019080803590602001909291905050506122a7565b005b34801561108057600080fd5b506110896124f3565b005b34801561109757600080fd5b506110da600480360360208110156110ae57600080fd5b81019080803573ffffffffffffffffffffffffffffffffffffffff1690602001909291905050506125d0565b6040518085815260200184815260200183815260200182815260200194505050505060405180910390f35b34801561111157600080fd5b5061113e6004803603602081101561112857600080fd5b81019080803590602001909291905050506126fd565b6040518082815260200191505060405180910390f35b34801561116057600080fd5b506111ad6004803603604081101561117757600080fd5b8101908080359060200190929190803573ffffffffffffffffffffffffffffffffffffffff169060200190929190505050612724565b005b3480156111bb57600080fd5b506111e8600480360360208110156111d257600080fd5b8101908080359060200190929190505050612728565b604051808273ffffffffffffffffffffffffffffffffffffffff1673ffffffffffffffffffffffffffffffffffffffff16815260200191505060405180910390f35b34801561123657600080fd5b506112996004803603604081101561124d57600080fd5b81019080803573ffffffffffffffffffffffffffffffffffffffff169060200190929190803573ffffffffffffffffffffffffffffffffffffffff169060200190929190505050612764565b6040518082815260200191505060405180910390f35b3480156112bb57600080fd5b506112c46127eb565b6040518082815260200191505060405180910390f35b3480156112e657600080fd5b50611313600480360360208110156112fd57600080fd5b8101908080359060200190929190505050612824565b005b606060038054600181600116156101000203166002900480601f0160208091040260200160405190810160405280929190818152602001828054600181600116156101000203166002900480156113ad5780601f10611382576101008083540402835291602001916113ad565b820191906000526020600020905b81548152906001019060200180831161139057829003601f168201915b5050505050905090565b60006113cb6113c4612c38565b8484612c40565b6001905092915050565b60008060008060008061141d60405180807f4f574e45520000000000000000000000000000000000000000000000000000008152506005019050604051809103902033611de8565b611472576040517f08c379a0000000000000000000000000000000000000000000000000000000008152600401808060200182810382526027815260200180614a2a6027913960400191505060405180910390fd5b86600a600082815260200190815260200160002060030160009054906101000a900460ff166114ec576040517f08c379a000000000000000000000000000000000000000000000000000000000815260040180806020018281038252602a815260200180614b3c602a913960400191505060405180910390fd5b6114f4614857565b600a60008a81526020019081526020016000206040518060c00160405290816000820160009054906101000a900460ff16600381111561153057fe5b600381111561153b57fe5b81526020016000820160019054906101000a900473ffffffffffffffffffffffffffffffffffffffff1673ffffffffffffffffffffffffffffffffffffffff1673ffffffffffffffffffffffffffffffffffffffff16815260200160018201548152602001600282018054600181600116156101000203166002900480601f0160208091040260200160405190810160405280929190818152602001828054600181600116156101000203166002900480156116385780601f1061160d57610100808354040283529160200191611638565b820191906000526020600020905b81548152906001019060200180831161161b57829003601f168201915b505050505081526020016003820160009054906101000a900460ff161515151581526020016003820160019054906101000a900460ff1615151515815250509050600b60008a815260200190815260200160002060003373ffffffffffffffffffffffffffffffffffffffff1673ffffffffffffffffffffffffffffffffffffffff16815260200190815260200160002060009054906101000a900460ff1697508060a001519650806000015195508060200151935080604001519250889450878787878787975097509750975097509750505091939550919395565b61175460405180807f4f574e45520000000000000000000000000000000000000000000000000000008152506005019050604051809103902033611de8565b6117a9576040517f08c379a0000000000000000000000000000000000000000000000000000000008152600401808060200182810382526027815260200180614a2a6027913960400191505060405180910390fd5b6001600d60016101000a81548160ff0219169083151502179055507f271eeaa027ef2b0ef7f9c88ade99794e43f75016f0320df12ea62b72a74e268660405160405180910390a1565b6000600254905090565b6000611809848484612e37565b6118ca84611815612c38565b6118c585604051806060016040528060288152602001614acd60289139600160008b73ffffffffffffffffffffffffffffffffffffffff1673ffffffffffffffffffffffffffffffffffffffff168152602001908152602001600020600061187b612c38565b73ffffffffffffffffffffffffffffffffffffffff1673ffffffffffffffffffffffffffffffffffffffff168152602001908152602001600020546130f89092919063ffffffff16565b612c40565b600190509392505050565b600060066000838152602001908152602001600020600201549050919050565b6000600d60019054906101000a900460ff161561191157600080fd5b61195060405180807f4f574e45520000000000000000000000000000000000000000000000000000008152506005019050604051809103902033611de8565b6119a5576040517f08c379a0000000000000000000000000000000000000000000000000000000008152600401808060200182810382526027815260200180614a2a6027913960400191505060405180910390fd5b60006119b0866131b8565b90506119be818686866132f8565b91506119c9826122a7565b50949350505050565b5050565b6000611a1760405180807f4f574e45520000000000000000000000000000000000000000000000000000008152506005019050604051809103902083611de8565b9050919050565b6000600560009054906101000a900460ff16905090565b600b6020528160005260406000206020528060005260406000206000915091509054906101000a900460ff1681565b611a6c612c38565b73ffffffffffffffffffffffffffffffffffffffff168173ffffffffffffffffffffffffffffffffffffffff1614611aef576040517f08c379a000000000000000000000000000000000000000000000000000000000815260040180806020018281038252602f815260200180614baf602f913960400191505060405180910390fd5b611af982826134db565b5050565b6000611ba6611b0a612c38565b84611ba18560016000611b1b612c38565b73ffffffffffffffffffffffffffffffffffffffff1673ffffffffffffffffffffffffffffffffffffffff16815260200190815260200160002060008973ffffffffffffffffffffffffffffffffffffffff1673ffffffffffffffffffffffffffffffffffffffff1681526020019081526020016000205461356f90919063ffffffff16565b612c40565b6001905092915050565b606080606080611bf560405180807f4f574e45520000000000000000000000000000000000000000000000000000008152506005019050604051809103902033611de8565b611c4a576040517f08c379a0000000000000000000000000000000000000000000000000000000008152600401808060200182810382526027815260200180614a2a6027913960400191505060405180910390fd5b6040518060400160405280600881526020017f45787465726e616c00000000000000000000000000000000000000000000000081525093506040518060400160405280600a81526020017f4e6577466f756e6465720000000000000000000000000000000000000000000081525092506040518060400160405280601581526020017f4c61756e636856657374696e675363686564756c65000000000000000000000081525091506040518060400160405280600e81526020017f44657374726f79436f6d70616e79000000000000000000000000000000000000815250905083838383935093509350935090919293565b600d60009054906101000a900460ff1681565b60008060008373ffffffffffffffffffffffffffffffffffffffff1673ffffffffffffffffffffffffffffffffffffffff168152602001908152602001600020549050919050565b600d60019054906101000a900460ff1681565b60075481565b6000611dda82600660008681526020019081526020016000206000016135f790919063ffffffff16565b905092915050565b61271081565b6000611e12826006600086815260200190815260200160002060000161361290919063ffffffff16565b905092915050565b606060048054600181600116156101000203166002900480601f016020809104026020016040519081016040528092919081815260200182805460018160011615610100020316600290048015611eb25780601f10611e8757610100808354040283529160200191611eb2565b820191906000526020600020905b815481529060010190602001808311611e9557829003601f168201915b5050505050905090565b600a6020528060005260406000206000915090508060000160009054906101000a900460ff16908060000160019054906101000a900473ffffffffffffffffffffffffffffffffffffffff1690806001015490806002018054600181600116156101000203166002900480601f016020809104026020016040519081016040528092919081815260200182805460018160011615610100020316600290048015611fa75780601f10611f7c57610100808354040283529160200191611fa7565b820191906000526020600020905b815481529060010190602001808311611f8a57829003601f168201915b5050505050908060030160009054906101000a900460ff16908060030160019054906101000a900460ff16905086565b600060010281565b60006120a2611fec612c38565b8461209d85604051806060016040528060258152602001614b8a6025913960016000612016612c38565b73ffffffffffffffffffffffffffffffffffffffff1673ffffffffffffffffffffffffffffffffffffffff16815260200190815260200160002060008a73ffffffffffffffffffffffffffffffffffffffff1673ffffffffffffffffffffffffffffffffffffffff168152602001908152602001600020546130f89092919063ffffffff16565b612c40565b6001905092915050565b60006120c06120b9612c38565b8484612e37565b6001905092915050565b61210960405180807f4f574e45520000000000000000000000000000000000000000000000000000008152506005019050604051809103902033611de8565b61215e576040517f08c379a0000000000000000000000000000000000000000000000000000000008152600401808060200182810382526027815260200180614a2a6027913960400191505060405180910390fd5b600061216933613642565b9050600081116121c4576040517f08c379a0000000000000000000000000000000000000000000000000000000008152600401808060200182810382526031815260200180614a516031913960400191505060405180910390fd5b6000600960003373ffffffffffffffffffffffffffffffffffffffff1673ffffffffffffffffffffffffffffffffffffffff168152602001908152602001600020905061221e82826001015461356f90919063ffffffff16565b816001018190555061223d82826002015461374390919063ffffffff16565b816002018190555061224f338361378d565b3373ffffffffffffffffffffffffffffffffffffffff167fdbc1569abc705e4dab3d58f5fffbdd0ff2ec1982e69899a2c699d7a452081fa8836040518082815260200191505060405180910390a25050565b600c5481565b600d60019054906101000a900460ff16156122c157600080fd5b61230060405180807f4f574e45520000000000000000000000000000000000000000000000000000008152506005019050604051809103902033611de8565b612355576040517f08c379a0000000000000000000000000000000000000000000000000000000008152600401808060200182810382526027815260200180614a2a6027913960400191505060405180910390fd5b80600a600082815260200190815260200160002060030160009054906101000a900460ff166123cf576040517f08c379a000000000000000000000000000000000000000000000000000000000815260040180806020018281038252602a815260200180614b3c602a913960400191505060405180910390fd5b81600b600082815260200190815260200160002060003373ffffffffffffffffffffffffffffffffffffffff1673ffffffffffffffffffffffffffffffffffffffff16815260200190815260200160002060009054906101000a900460ff161561243857600080fd5b6001600b600085815260200190815260200160002060003373ffffffffffffffffffffffffffffffffffffffff1673ffffffffffffffffffffffffffffffffffffffff16815260200190815260200160002060006101000a81548160ff021916908315150217905550823373ffffffffffffffffffffffffffffffffffffffff167f284a31f48de0c7baa130a1acbe4773f4c39ef557ddcd0b2d6b6ef539af10531b60405160405180910390a36124ee83612824565b505050565b61253260405180807f4f574e45520000000000000000000000000000000000000000000000000000008152506005019050604051809103902033611de8565b612587576040517f08c379a0000000000000000000000000000000000000000000000000000000008152600401808060200182810382526027815260200180614a2a6027913960400191505060405180910390fd5b6000600d60016101000a81548160ff0219169083151502179055507f7a0eb486a5792abc0f3f90bb2e49d363e653c325fa01b4e115eb8454f884b92660405160405180910390a1565b600080600080600960008673ffffffffffffffffffffffffffffffffffffffff1673ffffffffffffffffffffffffffffffffffffffff168152602001908152602001600020600101549350600960008673ffffffffffffffffffffffffffffffffffffffff1673ffffffffffffffffffffffffffffffffffffffff168152602001908152602001600020600201549250600960008673ffffffffffffffffffffffffffffffffffffffff1673ffffffffffffffffffffffffffffffffffffffff168152602001908152602001600020600301549150600960008673ffffffffffffffffffffffffffffffffffffffff1673ffffffffffffffffffffffffffffffffffffffff1681526020019081526020016000206000015490508383838393509350935093509193509193565b600061271d60066000848152602001908152602001600020600001613954565b9050919050565b5050565b6008818154811061273557fe5b906000526020600020016000915054906101000a900473ffffffffffffffffffffffffffffffffffffffff1681565b6000600160008473ffffffffffffffffffffffffffffffffffffffff1673ffffffffffffffffffffffffffffffffffffffff16815260200190815260200160002060008373ffffffffffffffffffffffffffffffffffffffff1673ffffffffffffffffffffffffffffffffffffffff16815260200190815260200160002054905092915050565b60405180807f4f574e45520000000000000000000000000000000000000000000000000000008152506005019050604051809103902081565b600d60019054906101000a900460ff161561283e57600080fd5b61287d60405180807f4f574e45520000000000000000000000000000000000000000000000000000008152506005019050604051809103902033611de8565b6128d2576040517f08c379a0000000000000000000000000000000000000000000000000000000008152600401808060200182810382526027815260200180614a2a6027913960400191505060405180910390fd5b80600b600082815260200190815260200160002060003373ffffffffffffffffffffffffffffffffffffffff1673ffffffffffffffffffffffffffffffffffffffff16815260200190815260200160002060009054906101000a900460ff1661293a57600080fd5b81600a600082815260200190815260200160002060030160019054906101000a900460ff161561296957600080fd5b61297283613969565b15612c33576000600a6000858152602001908152602001600020905060018160030160016101000a81548160ff021916908315150217905550600060038111156129b857fe5b8160000160009054906101000a900460ff1660038111156129d557fe5b1415612b2d57612aaa8160000160019054906101000a900473ffffffffffffffffffffffffffffffffffffffff168260010154836002018054600181600116156101000203166002900480601f016020809104026020016040519081016040528092919081815260200182805460018160011615610100020316600290048015612aa05780601f10612a7557610100808354040283529160200191612aa0565b820191906000526020600020905b815481529060010190602001808311612a8357829003601f168201915b5050505050613a51565b15612ae157837f036687fd39b346666ddc60de603092dbfccf1f0dfef3848eacaf6556f155274960405160405180910390a2612b2c565b837fe6be4216c17a494bd52020b62596f189bf4552ad23cbae4913db8f0d9693ec9360405160405180910390a260008160030160016101000a81548160ff0219169083151502179055505b5b60016003811115612b3a57fe5b8160000160009054906101000a900460ff166003811115612b5757fe5b1415612b8c57612b8a8160000160019054906101000a900473ffffffffffffffffffffffffffffffffffffffff16613a6e565b505b60026003811115612b9957fe5b8160000160009054906101000a900460ff166003811115612bb657fe5b1415612bc557612bc4613b1a565b5b600380811115612bd157fe5b8160000160009054906101000a900460ff166003811115612bee57fe5b1415612c31578060000160019054906101000a900473ffffffffffffffffffffffffffffffffffffffff1673ffffffffffffffffffffffffffffffffffffffff16ff5b505b505050565b600033905090565b600073ffffffffffffffffffffffffffffffffffffffff168373ffffffffffffffffffffffffffffffffffffffff161415612cc6576040517f08c379a0000000000000000000000000000000000000000000000000000000008152600401808060200182810382526024815260200180614b666024913960400191505060405180910390fd5b600073ffffffffffffffffffffffffffffffffffffffff168273ffffffffffffffffffffffffffffffffffffffff161415612d4c576040517f08c379a00000000000000000000000000000000000000000000000000000000081526004018080602001828103825260228152602001806149e26022913960400191505060405180910390fd5b80600160008573ffffffffffffffffffffffffffffffffffffffff1673ffffffffffffffffffffffffffffffffffffffff16815260200190815260200160002060008473ffffffffffffffffffffffffffffffffffffffff1673ffffffffffffffffffffffffffffffffffffffff168152602001908152602001600020819055508173ffffffffffffffffffffffffffffffffffffffff168373ffffffffffffffffffffffffffffffffffffffff167f8c5be1e5ebec7d5bd14f71427d1e84f3dd0314c0f7b2291e5b200ac8c7c3b925836040518082815260200191505060405180910390a3505050565b600073ffffffffffffffffffffffffffffffffffffffff168373ffffffffffffffffffffffffffffffffffffffff161415612ebd576040517f08c379a0000000000000000000000000000000000000000000000000000000008152600401808060200182810382526025815260200180614b176025913960400191505060405180910390fd5b600073ffffffffffffffffffffffffffffffffffffffff168273ffffffffffffffffffffffffffffffffffffffff161415612f43576040517f08c379a00000000000000000000000000000000000000000000000000000000081526004018080602001828103825260238152602001806149bf6023913960400191505060405180910390fd5b612f4e838383613e7a565b612fb981604051806060016040528060268152602001614a04602691396000808773ffffffffffffffffffffffffffffffffffffffff1673ffffffffffffffffffffffffffffffffffffffff168152602001908152602001600020546130f89092919063ffffffff16565b6000808573ffffffffffffffffffffffffffffffffffffffff1673ffffffffffffffffffffffffffffffffffffffff1681526020019081526020016000208190555061304c816000808573ffffffffffffffffffffffffffffffffffffffff1673ffffffffffffffffffffffffffffffffffffffff1681526020019081526020016000205461356f90919063ffffffff16565b6000808473ffffffffffffffffffffffffffffffffffffffff1673ffffffffffffffffffffffffffffffffffffffff168152602001908152602001600020819055508173ffffffffffffffffffffffffffffffffffffffff168373ffffffffffffffffffffffffffffffffffffffff167fddf252ad1be2c89b69c2b068fc378daa952ba7f163c4a11628f55a4df523b3ef836040518082815260200191505060405180910390a3505050565b60008383111582906131a5576040517f08c379a00000000000000000000000000000000000000000000000000000000081526004018080602001828103825283818151815260200191508051906020019080838360005b8381101561316a57808201518184015260208101905061314f565b50505050905090810190601f1680156131975780820380516001836020036101000a031916815260200191505b509250505060405180910390fd5b5060008385039050809150509392505050565b600060405180807f45787465726e616c000000000000000000000000000000000000000000000000815250600801905060405180910390208280519060200120141561320757600090506132f3565b60405180807f4e6577466f756e64657200000000000000000000000000000000000000000000815250600a01905060405180910390208280519060200120141561325457600190506132f3565b60405180807f4c61756e636856657374696e675363686564756c65000000000000000000000081525060150190506040518091039020828051906020012014156132a157600290506132f3565b60405180807f44657374726f79436f6d70616e79000000000000000000000000000000000000815250600e0190506040518091039020828051906020012014156132ee57600390506132f3565b600080fd5b919050565b600083600073ffffffffffffffffffffffffffffffffffffffff168173ffffffffffffffffffffffffffffffffffffffff16141561333557600080fd5b600c5491506040518060c0016040528087600381111561335157fe5b81526020018673ffffffffffffffffffffffffffffffffffffffff16815260200185815260200184815260200160011515815260200160001515815250600a600084815260200190815260200160002060008201518160000160006101000a81548160ff021916908360038111156133c557fe5b021790555060208201518160000160016101000a81548173ffffffffffffffffffffffffffffffffffffffff021916908373ffffffffffffffffffffffffffffffffffffffff1602179055506040820151816001015560608201518160020190805190602001906134379291906148b2565b5060808201518160030160006101000a81548160ff02191690831515021790555060a08201518160030160016101000a81548160ff0219169083151502179055509050506001600c60008282540192505081905550817fdebc10a4c5b3a068a33d09a2e738b39000cf7a983ba8ade2c06798ba8eb2857387604051808260038111156134bf57fe5b60ff16815260200191505060405180910390a250949350505050565b6135038160066000858152602001908152602001600020600001613ee890919063ffffffff16565b1561356b57613510612c38565b73ffffffffffffffffffffffffffffffffffffffff168173ffffffffffffffffffffffffffffffffffffffff16837ff6391f5c32d9c69d2a47ea670b442974b53935d1edc7fd64eb21e047a839171b60405160405180910390a45b5050565b6000808284019050838110156135ed576040517f08c379a000000000000000000000000000000000000000000000000000000000815260040180806020018281038252601b8152602001807f536166654d6174683a206164646974696f6e206f766572666c6f77000000000081525060200191505060405180910390fd5b8091505092915050565b60006136068360000183613f18565b60019004905092915050565b600061363a836000018373ffffffffffffffffffffffffffffffffffffffff16600102613f9b565b905092915050565b600061364c614932565b600960008473ffffffffffffffffffffffffffffffffffffffff1673ffffffffffffffffffffffffffffffffffffffff1681526020019081526020016000206040518060a0016040529081600082015481526020016001820154815260200160028201548152602001600382015481526020016004820160009054906101000a900473ffffffffffffffffffffffffffffffffffffffff1673ffffffffffffffffffffffffffffffffffffffff1673ffffffffffffffffffffffffffffffffffffffff1681525050905060008160200151905061373a8161372c86613fbe565b61374390919063ffffffff16565b92505050919050565b600061378583836040518060400160405280601e81526020017f536166654d6174683a207375627472616374696f6e206f766572666c6f7700008152506130f8565b905092915050565b600073ffffffffffffffffffffffffffffffffffffffff168273ffffffffffffffffffffffffffffffffffffffff161415613830576040517f08c379a000000000000000000000000000000000000000000000000000000000815260040180806020018281038252601f8152602001807f45524332303a206d696e7420746f20746865207a65726f20616464726573730081525060200191505060405180910390fd5b61383c60008383613e7a565b6138518160025461356f90919063ffffffff16565b6002819055506138a8816000808573ffffffffffffffffffffffffffffffffffffffff1673ffffffffffffffffffffffffffffffffffffffff1681526020019081526020016000205461356f90919063ffffffff16565b6000808473ffffffffffffffffffffffffffffffffffffffff1673ffffffffffffffffffffffffffffffffffffffff168152602001908152602001600020819055508173ffffffffffffffffffffffffffffffffffffffff16600073ffffffffffffffffffffffffffffffffffffffff167fddf252ad1be2c89b69c2b068fc378daa952ba7f163c4a11628f55a4df523b3ef836040518082815260200191505060405180910390a35050565b600061396282600001614119565b9050919050565b6000806000905060008090505b600880549050811015613a4957600b60008581526020019081526020016000206000600883815481106139a557fe5b9060005260206000200160009054906101000a900473ffffffffffffffffffffffffffffffffffffffff1673ffffffffffffffffffffffffffffffffffffffff1673ffffffffffffffffffffffffffffffffffffffff16815260200190815260200160002060009054906101000a900460ff1615613a24576001820191505b600880549050821415613a3c57600192505050613a4c565b8080600101915050613976565b50505b919050565b60008060008084516020860187895af19050809150509392505050565b60008073ffffffffffffffffffffffffffffffffffffffff168273ffffffffffffffffffffffffffffffffffffffff161415613aa957600080fd5b613ab28261412a565b6008829080600181540180825580915050600190039060005260206000200160009091909190916101000a81548173ffffffffffffffffffffffffffffffffffffffff021916908373ffffffffffffffffffffffffffffffffffffffff160217905550919050565b613b5960405180807f4f574e45520000000000000000000000000000000000000000000000000000008152506005019050604051809103902033611de8565b613bae576040517f08c379a0000000000000000000000000000000000000000000000000000000008152600401808060200182810382526027815260200180614a2a6027913960400191505060405180910390fd5b600d60009054906101000a900460ff1615613bc857600080fd5b6000613bec613bd5611a1e565b60ff16600a0a6127106141ca90919063ffffffff16565b90506000613c176064613c09605a856141ca90919063ffffffff16565b61425090919063ffffffff16565b9050613c2c818361374390919063ffffffff16565b6007819055506000613c4c6008805490508361425090919063ffffffff16565b905060008090505b600880549050811015613e59576040518060a001604052804281526020016000815260200183815260200183815260200160088381548110613c9257fe5b9060005260206000200160009054906101000a900473ffffffffffffffffffffffffffffffffffffffff1673ffffffffffffffffffffffffffffffffffffffff168152506009600060088481548110613ce757fe5b9060005260206000200160009054906101000a900473ffffffffffffffffffffffffffffffffffffffff1673ffffffffffffffffffffffffffffffffffffffff1673ffffffffffffffffffffffffffffffffffffffff1681526020019081526020016000206000820151816000015560208201518160010155604082015181600201556060820151816003015560808201518160040160006101000a81548173ffffffffffffffffffffffffffffffffffffffff021916908373ffffffffffffffffffffffffffffffffffffffff16021790555090505060088181548110613dcb57fe5b9060005260206000200160009054906101000a900473ffffffffffffffffffffffffffffffffffffffff1673ffffffffffffffffffffffffffffffffffffffff167f6f1aaf30d5ebfa3a12caac074c49b1c2d49c30cc9107817ca035a011ef935937836004604051808381526020018281526020019250505060405180910390a28080600101915050613c54565b506001600d60006101000a81548160ff021916908315150217905550505050565b613e8583838361429a565b613e8e826119d6565b613ee3576040517f08c379a000000000000000000000000000000000000000000000000000000000815260040180806020018281038252602a815260200180614a82602a913960400191505060405180910390fd5b505050565b6000613f10836000018373ffffffffffffffffffffffffffffffffffffffff1660010261429f565b905092915050565b600081836000018054905011613f79576040517f08c379a000000000000000000000000000000000000000000000000000000000815260040180806020018281038252602281526020018061499d6022913960400191505060405180910390fd5b826000018281548110613f8857fe5b9060005260206000200154905092915050565b600080836001016000848152602001908152602001600020541415905092915050565b6000613fc8614932565b600960008473ffffffffffffffffffffffffffffffffffffffff1673ffffffffffffffffffffffffffffffffffffffff1681526020019081526020016000206040518060a0016040529081600082015481526020016001820154815260200160028201548152602001600382015481526020016004820160009054906101000a900473ffffffffffffffffffffffffffffffffffffffff1673ffffffffffffffffffffffffffffffffffffffff1673ffffffffffffffffffffffffffffffffffffffff1681525050905060008160600151905060008260000151905060006140b9824261374390919063ffffffff16565b905060006140d160048461438790919063ffffffff16565b90508042106140e7578395505050505050614114565b61410c816140fe84876141ca90919063ffffffff16565b61425090919063ffffffff16565b955050505050505b919050565b600081600001805490509050919050565b614133336119d6565b614188576040517f08c379a0000000000000000000000000000000000000000000000000000000008152600401808060200182810382526022815260200180614af56022913960400191505060405180910390fd5b6141c760405180807f4f574e455200000000000000000000000000000000000000000000000000000081525060050190506040518091039020826143fe565b50565b6000808314156141dd576000905061424a565b60008284029050828482816141ee57fe5b0414614245576040517f08c379a0000000000000000000000000000000000000000000000000000000008152600401808060200182810382526021815260200180614aac6021913960400191505060405180910390fd5b809150505b92915050565b600061429283836040518060400160405280601a81526020017f536166654d6174683a206469766973696f6e206279207a65726f00000000000081525061440c565b905092915050565b505050565b6000808360010160008481526020019081526020016000205490506000811461437b57600060018203905060006001866000018054905003905060008660000182815481106142ea57fe5b906000526020600020015490508087600001848154811061430757fe5b906000526020600020018190555060018301876001016000838152602001908152602001600020819055508660000180548061433f57fe5b60019003818190600052602060002001600090559055866001016000878152602001908152602001600020600090556001945050505050614381565b60009150505b92915050565b6000806000806143a262015180878161439c57fe5b046144d2565b925092509250848301925060006143b984846145a6565b9050808211156143c7578091505b6201518087816143d357fe5b06620151806143e3868686614631565b02019450868510156143f457600080fd5b5050505092915050565b61440882826146e0565b5050565b600080831182906144b8576040517f08c379a00000000000000000000000000000000000000000000000000000000081526004018080602001828103825283818151815260200191508051906020019080838360005b8381101561447d578082015181840152602081019050614462565b50505050905090810190601f1680156144aa5780820380516001836020036101000a031916815260200191505b509250505060405180910390fd5b5060008385816144c457fe5b049050809150509392505050565b600080600080849050600062253d8c62010bd98301019050600062023ab182600402816144fb57fe5b059050600460038262023ab102018161451057fe5b0582039150600062164b0960018401610fa0028161452a57fe5b059050601f6004826105b5028161453d57fe5b058403019250600061098f846050028161455357fe5b059050600060508261098f028161456657fe5b0585039050600b828161457557fe5b05945084600c0260028301039150848360318603606402010192508298508197508096505050505050509193909250565b600060018214806145b75750600382145b806145c25750600582145b806145cd5750600782145b806145d85750600882145b806145e35750600a82145b806145ee5750600c82145b156145fc57601f905061462b565b6002821461460d57601e905061462a565b61461683614774565b61462157601c614624565b601d5b60ff1690505b5b92915050565b60006107b284101561464257600080fd5b600084905060008490506000849050600062253d8c60046064600c600e87038161466857fe5b056113248801018161467657fe5b056003028161468157fe5b05600c80600c600e88038161469257fe5b0502600287030361016f02816146a457fe5b056004600c600e8803816146b457fe5b056112c08901016105b502816146c657fe5b05617d4b8603010103039050809450505050509392505050565b61470881600660008581526020019081526020016000206000016147b790919063ffffffff16565b1561477057614715612c38565b73ffffffffffffffffffffffffffffffffffffffff168173ffffffffffffffffffffffffffffffffffffffff16837f2f8788117e7eff1d82e926ec794901d17c78024a50270940304540a733656f0d60405160405180910390a45b5050565b6000806004838161478157fe5b0614801561479a575060006064838161479657fe5b0614155b806147b05750600061019083816147ad57fe5b06145b9050919050565b60006147df836000018373ffffffffffffffffffffffffffffffffffffffff166001026147e7565b905092915050565b60006147f38383613f9b565b61484c578260000182908060018154018082558091505060019003906000526020600020016000909190919091505582600001805490508360010160008481526020019081526020016000208190555060019050614851565b600090505b92915050565b6040518060c001604052806000600381111561486f57fe5b8152602001600073ffffffffffffffffffffffffffffffffffffffff16815260200160008152602001606081526020016000151581526020016000151581525090565b828054600181600116156101000203166002900490600052602060002090601f016020900481019282601f106148f357805160ff1916838001178555614921565b82800160010185558215614921579182015b82811115614920578251825591602001919060010190614905565b5b50905061492e9190614977565b5090565b6040518060a0016040528060008152602001600081526020016000815260200160008152602001600073ffffffffffffffffffffffffffffffffffffffff1681525090565b61499991905b8082111561499557600081600090555060010161497d565b5090565b9056fe456e756d657261626c655365743a20696e646578206f7574206f6620626f756e647345524332303a207472616e7366657220746f20746865207a65726f206164647265737345524332303a20617070726f766520746f20746865207a65726f206164647265737345524332303a207472616e7366657220616d6f756e7420657863656564732062616c616e636550726976617465436f6d70616e793a2073656e646572206973206e6f74206120666f756e64657250726976617465436f6d70616e793a206e6f20746f6b656e7320746f2072656c6561736520617420746869732074696d654552433230507269766174653a20746f6b656e207472616e7366657220746f206f776e6572206f6e6c79536166654d6174683a206d756c7469706c69636174696f6e206f766572666c6f7745524332303a207472616e7366657220616d6f756e74206578636565647320616c6c6f77616e63654552433230507269766174653a205265737472696374656420746f206f776e65727345524332303a207472616e736665722066726f6d20746865207a65726f206164647265737350726976617465436f6d70616e793a207472616e73616374696f6e20646f6573206e6f7420657869737445524332303a20617070726f76652066726f6d20746865207a65726f206164647265737345524332303a2064656372656173656420616c6c6f77616e63652062656c6f77207a65726f416363657373436f6e74726f6c3a2063616e206f6e6c792072656e6f756e636520726f6c657320666f722073656c66a2646970667358221220f7834b7e1c7fda6c83b03d4bb3ebead63ce146f2af12015e8c14da1e822a99ee64736f6c63430006020033",
  "source": "// SPDX-License-Identifier: MIT\npragma solidity >0.6.0;\n\nimport \"./ERC20Private.sol\";\nimport \"./DateTimeLibrary.sol\";\nimport \"@openzeppelin/contracts/math/SafeMath.sol\";\n\n/**\n * @title Private Company contract.\n * @dev Transaction agreement before execution between all founders.\n * @dev Simple vesting schedule of internal token.\n * @dev Internal token(equity) protected. It can only circulate between founders.\n * @author Konstantin Zamaraev\n * @notice This final project for Consensys bootcamp. DO NOT USE IN PRODUCTION.\n */\ncontract PrivateCompany is ERC20Private {\n    // Libraries\n    using SafeMath for uint256;\n    using BokkyPooBahsDateTimeLibrary for uint256;\n\n    // Constants\n    uint256 public constant TOTAL_SUPPLY = 10000;\n    uint256 internal constant TOKEN_VESTING_TIME = 4; // 4 years for the full vesting\n\n    // Events\n    event LogDeposit(address indexed sender, uint256 value);\n    event LogFounderEquityDistribution(\n        address indexed founderAddress,\n        uint256 equityAmount,\n        uint256 vestingTime\n    );\n    event LogReleasedEquityForHolder(\n        address indexed founderAddress,\n        uint256 equityAmount\n    );\n    event LogTransactionSubmission(\n        TransactionType txType,\n        uint256 indexed transactionId\n    );\n    event LogTransactionExecution(uint256 indexed transactionId);\n    event LogTransactionExecutionFailure(uint256 indexed transactionId);\n    event LogTransactionConfirmation(\n        address indexed sender,\n        uint256 indexed transactionId\n    );\n    event LogContractStopped();\n    event LogContractResume();\n\n    // Storage\n    uint256 public equityPool;\n    address[] public founders;\n    mapping(address => EquityHolder) equityHolders;\n    mapping(uint256 => Transaction) public transactions;\n    mapping(uint256 => mapping(address => bool)) public confirmations;\n    uint256 public transactionCount;\n    bool public vestingSchedule = false;\n    bool public stopped = false;\n\n    // Enums\n    enum TransactionType {\n        External,\n        NewFounder,\n        LaunchVestingSchedule,\n        DestroyCompany\n    }\n\n    // Structs\n    struct EquityHolder {\n        uint256 lockTimeStart;\n        uint256 currentBalance;\n        uint256 lockedBalance;\n        uint256 totalBalance;\n        address holderAddress;\n    }\n\n    struct Transaction {\n        TransactionType txType;\n        address destination;\n        uint256 value;\n        bytes data;\n        bool exist;\n        bool executed;\n    }\n\n    // Modifiers\n    modifier onlyIfNotLaunched {\n        require(!vestingSchedule);\n        _;\n    }\n\n    modifier stopInEmergency {\n        require(!stopped);\n        _;\n    }\n\n    modifier notNull(address _address) {\n        require(_address != address(0));\n        _;\n    }\n\n    modifier transactionExists(uint256 transactionId) {\n        require(\n            transactions[transactionId].exist,\n            \"PrivateCompany: transaction does not exist\"\n        );\n        _;\n    }\n\n    modifier confirmed(uint256 transactionId) {\n        require(confirmations[transactionId][msg.sender]);\n        _;\n    }\n\n    modifier notConfirmed(uint256 transactionId) {\n        require(!confirmations[transactionId][msg.sender]);\n        _;\n    }\n\n    modifier notExecuted(uint256 transactionId) {\n        require(!transactions[transactionId].executed);\n        _;\n    }\n\n    modifier onlyFounder() {\n        require(\n            hasRole(OWNER_ROLE, msg.sender),\n            \"PrivateCompany: sender is not a founder\"\n        );\n        _;\n    }\n\n    /**\n     * @dev Receive function allows to deposit ether.\n     */\n    receive() external payable {\n        if (msg.value > 0) LogDeposit(msg.sender, msg.value);\n    }\n\n    // Public functions\n    /**\n     * @dev Contract constructor creates private token and\n     * assigning sender as first founder.\n     * @param _companyName Company name.\n     * @param _token Company(token) ticker name.\n     * @param _founder First founder -- contract creator.\n     */\n    constructor(\n        string memory _companyName,\n        string memory _token,\n        address _founder\n    ) public payable ERC20(_companyName, _token) ERC20Private(_founder) {\n        founders.push(_founder);\n    }\n\n    /**\n     * @dev Emergency only! Block transaction submition/confirmation/execution\n     */\n    function stopContract() public onlyFounder {\n        stopped = true;\n        emit LogContractStopped();\n    }\n\n    function resumeContract() public onlyFounder {\n        stopped = false;\n        emit LogContractResume();\n    }\n\n    /**\n     * @dev Return all transaction type strings\n     */\n    function getTransactionTypes()\n        public\n        view\n        onlyFounder\n        returns (\n            string memory externalType,\n            string memory newFounderType,\n            string memory launchVestingScheduleType,\n            string memory destroyCompanyType\n        )\n    {\n        externalType = \"External\";\n        newFounderType = \"NewFounder\";\n        launchVestingScheduleType = \"LaunchVestingSchedule\";\n        destroyCompanyType = \"DestroyCompany\";\n\n        return (\n            externalType,\n            newFounderType,\n            launchVestingScheduleType,\n            destroyCompanyType\n        );\n    }\n\n    /**\n     * @param transactionId Transaction ID.\n     * @dev Transaction detals(type/confirmation status/execution status).\n     */\n    function getTransactionDetails(uint256 transactionId)\n        public\n        view\n        onlyFounder\n        transactionExists(transactionId)\n        returns (\n            bool isConfirmedByMe,\n            bool isExecuted,\n            TransactionType txType,\n            uint256 txId,\n            address destination,\n            uint256 value\n        )\n    {\n        Transaction memory txById = transactions[transactionId];\n        isConfirmedByMe = confirmations[transactionId][msg.sender];\n        isExecuted = txById.executed;\n        txType = txById.txType;\n        destination = txById.destination;\n        value = txById.value;\n        txId = transactionId;\n\n        return (isConfirmedByMe, isExecuted, txType, txId, destination, value);\n    }\n\n    /**\n     * @param holderAddress address of equity holder.\n     */\n    function getEquityHolderBalance(address holderAddress)\n        public\n        view\n        returns (\n            uint256 currentBalance,\n            uint256 lockedBalance,\n            uint256 totalBalance,\n            uint256 lockTimeStart\n        )\n    {\n        currentBalance = equityHolders[holderAddress].currentBalance;\n        lockedBalance = equityHolders[holderAddress].lockedBalance;\n        totalBalance = equityHolders[holderAddress].totalBalance;\n        lockTimeStart = equityHolders[holderAddress].lockTimeStart;\n\n        return (currentBalance, lockedBalance, totalBalance, lockTimeStart);\n    }\n\n    /**\n     * @dev Allows a founder to check if there are tokens to release and mint.\n     */\n    function releaseVestedEquity() public onlyFounder {\n        uint256 unreleasedAmount = _releasableEquityAmount(msg.sender);\n\n        require(\n            unreleasedAmount > 0,\n            \"PrivateCompany: no tokens to release at this time\"\n        );\n\n        EquityHolder storage equityHolder = equityHolders[msg.sender];\n\n        equityHolder.currentBalance = equityHolder.currentBalance.add(\n            unreleasedAmount\n        );\n\n        equityHolder.lockedBalance = equityHolder.lockedBalance.sub(\n            unreleasedAmount\n        );\n\n        _mint(msg.sender, unreleasedAmount);\n        emit LogReleasedEquityForHolder(msg.sender, unreleasedAmount);\n    }\n\n    /**\n     * @dev Allows a founder to submit and confirm a transaction.\n     * @param txTypeKey Transaction type key string.\n     * @param destination Transaction target address.\n     * @param value Transaction ether value.\n     * @param data Transaction data payload.\n     */\n    function submitTransaction(\n        string memory txTypeKey,\n        address destination,\n        uint256 value,\n        bytes memory data\n    ) public stopInEmergency onlyFounder returns (uint256 transactionId) {\n        TransactionType txType = _getTransactionEnumValueByKey(txTypeKey);\n        transactionId = _addTransaction(txType, destination, value, data);\n        confirmTransaction(transactionId);\n    }\n\n    /**\n     * @dev Allows a founder to confirm a transaction.\n     * @param transactionId Transaction ID.\n     */\n    function confirmTransaction(uint256 transactionId)\n        public\n        stopInEmergency\n        onlyFounder\n        transactionExists(transactionId)\n        notConfirmed(transactionId)\n    {\n        confirmations[transactionId][msg.sender] = true;\n        emit LogTransactionConfirmation(msg.sender, transactionId);\n        executeTransaction(transactionId);\n    }\n\n    /**\n     * @dev Allows anyone to execute a confirmed transaction.\n     * @param transactionId Transaction ID.\n     */\n    function executeTransaction(uint256 transactionId)\n        public\n        stopInEmergency\n        onlyFounder\n        confirmed(transactionId)\n        notExecuted(transactionId)\n    {\n        if (_isConfirmed(transactionId)) {\n            Transaction storage txn = transactions[transactionId];\n            txn.executed = true;\n\n            if (txn.txType == TransactionType.External) {\n                if (_externalCall(txn.destination, txn.value, txn.data)) {\n                    emit LogTransactionExecution(transactionId);\n                } else {\n                    emit LogTransactionExecutionFailure(transactionId);\n                    txn.executed = false;\n                }\n            }\n\n            if (txn.txType == TransactionType.NewFounder) {\n                _addNewFounder(txn.destination);\n            }\n\n            if (txn.txType == TransactionType.LaunchVestingSchedule) {\n                _launchVestingSchedule();\n            }\n\n            if (txn.txType == TransactionType.DestroyCompany) {\n                selfdestruct(address(uint160(txn.destination)));\n            }\n        }\n    }\n\n    // Private functions\n    /**\n     * @dev Returns the confirmation status of a transaction.\n     * @param transactionId Transaction ID.\n     * @return Confirmation status.\n     */\n    function _isConfirmed(uint256 transactionId) private view returns (bool) {\n        uint256 count = 0;\n        for (uint256 i = 0; i < founders.length; i++) {\n            if (confirmations[transactionId][founders[i]]) {\n                count += 1;\n            }\n            if (count == founders.length) {\n                return true;\n            }\n        }\n    }\n\n    /**\n     * @dev Sets equal amounts of equities for founders\n     * with the vesting schedule (4 years duration)\n     */\n    function _launchVestingSchedule() private onlyFounder onlyIfNotLaunched {\n        uint256 totalSupply = TOTAL_SUPPLY.mul(10**uint256(decimals()));\n        uint256 founderDistributonSupply = totalSupply.mul(90).div(100); // 90% goes to initial founders / 10% to equity pool\n        equityPool = totalSupply.sub(founderDistributonSupply);\n        uint256 equityAmount = founderDistributonSupply.div(founders.length);\n\n        for (uint256 i = 0; i < founders.length; i++) {\n            equityHolders[founders[i]] = EquityHolder(\n                block.timestamp,\n                0,\n                equityAmount,\n                equityAmount,\n                founders[i]\n            );\n\n            emit LogFounderEquityDistribution(\n                founders[i],\n                equityAmount,\n                TOKEN_VESTING_TIME\n            );\n        }\n        vestingSchedule = true;\n    }\n\n    /**\n     * @param founderAddress new founder address.\n     */\n    function _addNewFounder(address founderAddress) private returns (bool) {\n        require(founderAddress != address(0));\n\n        _addOwner(founderAddress);\n        founders.push(founderAddress);\n    }\n\n    /**\n     * @param txKey Transaction type string.\n     */\n    function _getTransactionEnumValueByKey(string memory txKey)\n        private\n        pure\n        returns (TransactionType)\n    {\n        if (keccak256(bytes(txKey)) == keccak256(\"External\"))\n            return TransactionType.External;\n        if (keccak256(bytes(txKey)) == keccak256(\"NewFounder\"))\n            return TransactionType.NewFounder;\n        if (keccak256(bytes(txKey)) == keccak256(\"LaunchVestingSchedule\"))\n            return TransactionType.LaunchVestingSchedule;\n        if (keccak256(bytes(txKey)) == keccak256(\"DestroyCompany\"))\n            return TransactionType.DestroyCompany;\n        revert();\n    }\n\n    /**\n     * @param holderAddress address of equity holder.\n     */\n    function _releasableEquityAmount(address holderAddress)\n        private\n        view\n        returns (uint256)\n    {\n        EquityHolder memory holder = equityHolders[holderAddress];\n\n        uint256 currentBalance = holder.currentBalance;\n\n        return _vestedEquityAmount(holderAddress).sub(currentBalance);\n    }\n\n    /**\n     * @param holderAddress address of equity holder.\n     */\n    function _vestedEquityAmount(address holderAddress)\n        private\n        view\n        returns (uint256)\n    {\n        EquityHolder memory holder = equityHolders[holderAddress];\n        uint256 totalBalance = holder.totalBalance;\n        uint256 lockTimeStart = holder.lockTimeStart;\n        uint256 durationLeft = block.timestamp.sub(lockTimeStart);\n        uint256 durationFull = lockTimeStart.addYears(TOKEN_VESTING_TIME);\n\n        if (block.timestamp >= durationFull) {\n            return totalBalance;\n        } else {\n            return totalBalance.mul(durationLeft).div(durationFull);\n        }\n    }\n\n    /**\n     * @dev Adds a new transaction to the transaction mapping, if transaction does not exist yet.\n     * @param txType Transaction type.\n     * @param destination Transaction target address.\n     * @param value Transaction ether value.\n     * @param data Transaction data payload.\n     */\n    function _addTransaction(\n        TransactionType txType,\n        address destination,\n        uint256 value,\n        bytes memory data\n    ) private notNull(destination) returns (uint256 transactionId) {\n        transactionId = transactionCount;\n        transactions[transactionId] = Transaction({\n            txType: txType,\n            destination: destination,\n            value: value,\n            data: data,\n            exist: true,\n            executed: false\n        });\n        transactionCount += 1;\n        emit LogTransactionSubmission(txType, transactionId);\n    }\n\n    /**\n     * Call has been separated into its own function in order to take advantage\n     * of the Solidity's code generator to produce a loop that copies tx.data into memory.\n     */\n    function _externalCall(\n        address destination,\n        uint256 value,\n        bytes memory data\n    ) private returns (bool) {\n        bool result;\n        assembly {\n            result := call(\n                gas(),\n                destination,\n                value,\n                add(data, 32), // First 32 bytes are the padded length of data, so exclude that\n                mload(data), // Size of the input (in bytes) - this is what fixes the padding problem\n                0,\n                0 // Output is ignored, therefore the output size is zero\n            )\n        }\n        return result;\n    }\n}\n",
  "sourcePath": "/Users/konstantin/dev/consensys/final-project/startup-3.0/contracts/PrivateCompany.sol",
  "compiler": {
    "name": "solc",
    "version": "0.6.2+commit.bacdbe57.Emscripten.clang"
  },
  "schemaVersion": "3.2.5",
  "updatedAt": "2020-12-12T23:28:48.273Z",
  "devdoc": {
    "author": "Konstantin Zamaraev",
    "details": "Transaction agreement before execution between all founders.Simple vesting schedule of internal token.Internal token(equity) protected. It can only circulate between founders.",
    "methods": {
      "allowance(address,address)": {
        "details": "See {IERC20-allowance}."
      },
      "approve(address,uint256)": {
        "details": "See {IERC20-approve}.     * Requirements:     * - `spender` cannot be the zero address."
      },
      "balanceOf(address)": {
        "details": "See {IERC20-balanceOf}."
      },
      "confirmTransaction(uint256)": {
        "details": "Allows a founder to confirm a transaction.",
        "params": {
          "transactionId": "Transaction ID."
        }
      },
      "constructor": {
        "details": "Contract constructor creates private token and assigning sender as first founder.",
        "params": {
          "_companyName": "Company name.",
          "_founder": "First founder -- contract creator.",
          "_token": "Company(token) ticker name."
        }
      },
      "decimals()": {
        "details": "Returns the number of decimals used to get its user representation. For example, if `decimals` equals `2`, a balance of `505` tokens should be displayed to a user as `5,05` (`505 / 10 ** 2`).     * Tokens usually opt for a value of 18, imitating the relationship between Ether and Wei. This is the value {ERC20} uses, unless {_setupDecimals} is called.     * NOTE: This information is only used for _display_ purposes: it in no way affects any of the arithmetic of the contract, including {IERC20-balanceOf} and {IERC20-transfer}."
      },
      "decreaseAllowance(address,uint256)": {
        "details": "Atomically decreases the allowance granted to `spender` by the caller.     * This is an alternative to {approve} that can be used as a mitigation for problems described in {IERC20-approve}.     * Emits an {Approval} event indicating the updated allowance.     * Requirements:     * - `spender` cannot be the zero address. - `spender` must have allowance for the caller of at least `subtractedValue`."
      },
      "executeTransaction(uint256)": {
        "details": "Allows anyone to execute a confirmed transaction.",
        "params": {
          "transactionId": "Transaction ID."
        }
      },
      "getEquityHolderBalance(address)": {
        "params": {
          "holderAddress": "address of equity holder."
        }
      },
      "getRoleAdmin(bytes32)": {
        "details": "Returns the admin role that controls `role`. See {grantRole} and {revokeRole}.     * To change a role's admin, use {_setRoleAdmin}."
      },
      "getRoleMember(bytes32,uint256)": {
        "details": "Returns one of the accounts that have `role`. `index` must be a value between 0 and {getRoleMemberCount}, non-inclusive.     * Role bearers are not sorted in any particular way, and their ordering may change at any point.     * WARNING: When using {getRoleMember} and {getRoleMemberCount}, make sure you perform all queries on the same block. See the following https://forum.openzeppelin.com/t/iterating-over-elements-on-enumerableset-in-openzeppelin-contracts/2296[forum post] for more information."
      },
      "getRoleMemberCount(bytes32)": {
        "details": "Returns the number of accounts that have `role`. Can be used together with {getRoleMember} to enumerate all bearers of a role."
      },
      "getTransactionDetails(uint256)": {
        "details": "Transaction detals(type/confirmation status/execution status).",
        "params": {
          "transactionId": "Transaction ID."
        }
      },
      "getTransactionTypes()": {
        "details": "Return all transaction type strings"
      },
      "grantRole(bytes32,address)": {
        "details": "Override to block this behaivourAdding new role only available thru {_addOwner}"
      },
      "hasRole(bytes32,address)": {
        "details": "Returns `true` if `account` has been granted `role`."
      },
      "increaseAllowance(address,uint256)": {
        "details": "Atomically increases the allowance granted to `spender` by the caller.     * This is an alternative to {approve} that can be used as a mitigation for problems described in {IERC20-approve}.     * Emits an {Approval} event indicating the updated allowance.     * Requirements:     * - `spender` cannot be the zero address."
      },
      "isOwner(address)": {
        "details": "Return `true` if the account belongs to the owner role."
      },
      "name()": {
        "details": "Returns the name of the token."
      },
      "releaseVestedEquity()": {
        "details": "Allows a founder to check if there are tokens to release and mint."
      },
      "renounceRole(bytes32,address)": {
        "details": "Revokes `role` from the calling account.     * Roles are often managed via {grantRole} and {revokeRole}: this function's purpose is to provide a mechanism for accounts to lose their privileges if they are compromised (such as when a trusted device is misplaced).     * If the calling account had been granted `role`, emits a {RoleRevoked} event.     * Requirements:     * - the caller must be `account`."
      },
      "revokeRole(bytes32,address)": {
        "details": "Override to block this behaivour"
      },
      "stopContract()": {
        "details": "Emergency only! Block transaction submition/confirmation/execution"
      },
      "submitTransaction(string,address,uint256,bytes)": {
        "details": "Allows a founder to submit and confirm a transaction.",
        "params": {
          "data": "Transaction data payload.",
          "destination": "Transaction target address.",
          "txTypeKey": "Transaction type key string.",
          "value": "Transaction ether value."
        }
      },
      "symbol()": {
        "details": "Returns the symbol of the token, usually a shorter version of the name."
      },
      "totalSupply()": {
        "details": "See {IERC20-totalSupply}."
      },
      "transfer(address,uint256)": {
        "details": "See {IERC20-transfer}.     * Requirements:     * - `recipient` cannot be the zero address. - the caller must have a balance of at least `amount`."
      },
      "transferFrom(address,address,uint256)": {
        "details": "See {IERC20-transferFrom}.     * Emits an {Approval} event indicating the updated allowance. This is not required by the EIP. See the note at the beginning of {ERC20};     * Requirements: - `sender` and `recipient` cannot be the zero address. - `sender` must have a balance of at least `amount`. - the caller must have allowance for ``sender``'s tokens of at least `amount`."
      }
    },
    "title": "Private Company contract."
  },
  "userdoc": {
    "methods": {},
    "notice": "This final project for Consensys bootcamp. DO NOT USE IN PRODUCTION."
  }
}