{
  "contractName": "PrivateCompany",
  "abi": [
    {
      "inputs": [
        {
          "internalType": "string",
          "name": "_companyName",
          "type": "string"
        },
        {
          "internalType": "string",
          "name": "_token",
          "type": "string"
        },
        {
          "internalType": "address",
          "name": "_founder",
          "type": "address"
        }
      ],
      "stateMutability": "payable",
      "type": "constructor"
    },
    {
      "anonymous": false,
      "inputs": [
        {
          "indexed": true,
          "internalType": "address",
          "name": "owner",
          "type": "address"
        },
        {
          "indexed": true,
          "internalType": "address",
          "name": "spender",
          "type": "address"
        },
        {
          "indexed": false,
          "internalType": "uint256",
          "name": "value",
          "type": "uint256"
        }
      ],
      "name": "Approval",
      "type": "event"
    },
    {
      "anonymous": false,
      "inputs": [],
      "name": "LogContractResume",
      "type": "event"
    },
    {
      "anonymous": false,
      "inputs": [],
      "name": "LogContractStopped",
      "type": "event"
    },
    {
      "anonymous": false,
      "inputs": [
        {
          "indexed": true,
          "internalType": "address",
          "name": "sender",
          "type": "address"
        },
        {
          "indexed": false,
          "internalType": "uint256",
          "name": "value",
          "type": "uint256"
        }
      ],
      "name": "LogDeposit",
      "type": "event"
    },
    {
      "anonymous": false,
      "inputs": [
        {
          "indexed": true,
          "internalType": "address",
          "name": "founderAddress",
          "type": "address"
        },
        {
          "indexed": false,
          "internalType": "uint256",
          "name": "equityAmount",
          "type": "uint256"
        },
        {
          "indexed": false,
          "internalType": "uint256",
          "name": "vestingTime",
          "type": "uint256"
        }
      ],
      "name": "LogFounderEquityDistribution",
      "type": "event"
    },
    {
      "anonymous": false,
      "inputs": [
        {
          "indexed": true,
          "internalType": "address",
          "name": "founderAddress",
          "type": "address"
        },
        {
          "indexed": false,
          "internalType": "uint256",
          "name": "equityAmount",
          "type": "uint256"
        }
      ],
      "name": "LogReleasedEquityForHolder",
      "type": "event"
    },
    {
      "anonymous": false,
      "inputs": [
        {
          "indexed": true,
          "internalType": "address",
          "name": "sender",
          "type": "address"
        },
        {
          "indexed": true,
          "internalType": "uint256",
          "name": "transactionId",
          "type": "uint256"
        }
      ],
      "name": "LogTransactionConfirmation",
      "type": "event"
    },
    {
      "anonymous": false,
      "inputs": [
        {
          "indexed": true,
          "internalType": "uint256",
          "name": "transactionId",
          "type": "uint256"
        }
      ],
      "name": "LogTransactionExecution",
      "type": "event"
    },
    {
      "anonymous": false,
      "inputs": [
        {
          "indexed": true,
          "internalType": "uint256",
          "name": "transactionId",
          "type": "uint256"
        }
      ],
      "name": "LogTransactionExecutionFailure",
      "type": "event"
    },
    {
      "anonymous": false,
      "inputs": [
        {
          "indexed": false,
          "internalType": "enum PrivateCompany.TransactionType",
          "name": "txType",
          "type": "uint8"
        },
        {
          "indexed": true,
          "internalType": "uint256",
          "name": "transactionId",
          "type": "uint256"
        }
      ],
      "name": "LogTransactionSubmission",
      "type": "event"
    },
    {
      "anonymous": false,
      "inputs": [
        {
          "indexed": true,
          "internalType": "bytes32",
          "name": "role",
          "type": "bytes32"
        },
        {
          "indexed": true,
          "internalType": "bytes32",
          "name": "previousAdminRole",
          "type": "bytes32"
        },
        {
          "indexed": true,
          "internalType": "bytes32",
          "name": "newAdminRole",
          "type": "bytes32"
        }
      ],
      "name": "RoleAdminChanged",
      "type": "event"
    },
    {
      "anonymous": false,
      "inputs": [
        {
          "indexed": true,
          "internalType": "bytes32",
          "name": "role",
          "type": "bytes32"
        },
        {
          "indexed": true,
          "internalType": "address",
          "name": "account",
          "type": "address"
        },
        {
          "indexed": true,
          "internalType": "address",
          "name": "sender",
          "type": "address"
        }
      ],
      "name": "RoleGranted",
      "type": "event"
    },
    {
      "anonymous": false,
      "inputs": [
        {
          "indexed": true,
          "internalType": "bytes32",
          "name": "role",
          "type": "bytes32"
        },
        {
          "indexed": true,
          "internalType": "address",
          "name": "account",
          "type": "address"
        },
        {
          "indexed": true,
          "internalType": "address",
          "name": "sender",
          "type": "address"
        }
      ],
      "name": "RoleRevoked",
      "type": "event"
    },
    {
      "anonymous": false,
      "inputs": [
        {
          "indexed": true,
          "internalType": "address",
          "name": "from",
          "type": "address"
        },
        {
          "indexed": true,
          "internalType": "address",
          "name": "to",
          "type": "address"
        },
        {
          "indexed": false,
          "internalType": "uint256",
          "name": "value",
          "type": "uint256"
        }
      ],
      "name": "Transfer",
      "type": "event"
    },
    {
      "inputs": [],
      "name": "DEFAULT_ADMIN_ROLE",
      "outputs": [
        {
          "internalType": "bytes32",
          "name": "",
          "type": "bytes32"
        }
      ],
      "stateMutability": "view",
      "type": "function"
    },
    {
      "inputs": [],
      "name": "OWNER_ROLE",
      "outputs": [
        {
          "internalType": "bytes32",
          "name": "",
          "type": "bytes32"
        }
      ],
      "stateMutability": "view",
      "type": "function"
    },
    {
      "inputs": [],
      "name": "TOTAL_SUPPLY",
      "outputs": [
        {
          "internalType": "uint256",
          "name": "",
          "type": "uint256"
        }
      ],
      "stateMutability": "view",
      "type": "function"
    },
    {
      "inputs": [
        {
          "internalType": "address",
          "name": "owner",
          "type": "address"
        },
        {
          "internalType": "address",
          "name": "spender",
          "type": "address"
        }
      ],
      "name": "allowance",
      "outputs": [
        {
          "internalType": "uint256",
          "name": "",
          "type": "uint256"
        }
      ],
      "stateMutability": "view",
      "type": "function"
    },
    {
      "inputs": [
        {
          "internalType": "address",
          "name": "spender",
          "type": "address"
        },
        {
          "internalType": "uint256",
          "name": "amount",
          "type": "uint256"
        }
      ],
      "name": "approve",
      "outputs": [
        {
          "internalType": "bool",
          "name": "",
          "type": "bool"
        }
      ],
      "stateMutability": "nonpayable",
      "type": "function"
    },
    {
      "inputs": [
        {
          "internalType": "address",
          "name": "account",
          "type": "address"
        }
      ],
      "name": "balanceOf",
      "outputs": [
        {
          "internalType": "uint256",
          "name": "",
          "type": "uint256"
        }
      ],
      "stateMutability": "view",
      "type": "function"
    },
    {
      "inputs": [
        {
          "internalType": "uint256",
          "name": "",
          "type": "uint256"
        },
        {
          "internalType": "address",
          "name": "",
          "type": "address"
        }
      ],
      "name": "confirmations",
      "outputs": [
        {
          "internalType": "bool",
          "name": "",
          "type": "bool"
        }
      ],
      "stateMutability": "view",
      "type": "function"
    },
    {
      "inputs": [],
      "name": "decimals",
      "outputs": [
        {
          "internalType": "uint8",
          "name": "",
          "type": "uint8"
        }
      ],
      "stateMutability": "view",
      "type": "function"
    },
    {
      "inputs": [
        {
          "internalType": "address",
          "name": "spender",
          "type": "address"
        },
        {
          "internalType": "uint256",
          "name": "subtractedValue",
          "type": "uint256"
        }
      ],
      "name": "decreaseAllowance",
      "outputs": [
        {
          "internalType": "bool",
          "name": "",
          "type": "bool"
        }
      ],
      "stateMutability": "nonpayable",
      "type": "function"
    },
    {
      "inputs": [],
      "name": "equityPool",
      "outputs": [
        {
          "internalType": "uint256",
          "name": "",
          "type": "uint256"
        }
      ],
      "stateMutability": "view",
      "type": "function"
    },
    {
      "inputs": [
        {
          "internalType": "uint256",
          "name": "",
          "type": "uint256"
        }
      ],
      "name": "founders",
      "outputs": [
        {
          "internalType": "address",
          "name": "",
          "type": "address"
        }
      ],
      "stateMutability": "view",
      "type": "function"
    },
    {
      "inputs": [
        {
          "internalType": "bytes32",
          "name": "role",
          "type": "bytes32"
        }
      ],
      "name": "getRoleAdmin",
      "outputs": [
        {
          "internalType": "bytes32",
          "name": "",
          "type": "bytes32"
        }
      ],
      "stateMutability": "view",
      "type": "function"
    },
    {
      "inputs": [
        {
          "internalType": "bytes32",
          "name": "role",
          "type": "bytes32"
        },
        {
          "internalType": "uint256",
          "name": "index",
          "type": "uint256"
        }
      ],
      "name": "getRoleMember",
      "outputs": [
        {
          "internalType": "address",
          "name": "",
          "type": "address"
        }
      ],
      "stateMutability": "view",
      "type": "function"
    },
    {
      "inputs": [
        {
          "internalType": "bytes32",
          "name": "role",
          "type": "bytes32"
        }
      ],
      "name": "getRoleMemberCount",
      "outputs": [
        {
          "internalType": "uint256",
          "name": "",
          "type": "uint256"
        }
      ],
      "stateMutability": "view",
      "type": "function"
    },
    {
      "inputs": [
        {
          "internalType": "bytes32",
          "name": "role",
          "type": "bytes32"
        },
        {
          "internalType": "address",
          "name": "account",
          "type": "address"
        }
      ],
      "name": "grantRole",
      "outputs": [],
      "stateMutability": "nonpayable",
      "type": "function"
    },
    {
      "inputs": [
        {
          "internalType": "bytes32",
          "name": "role",
          "type": "bytes32"
        },
        {
          "internalType": "address",
          "name": "account",
          "type": "address"
        }
      ],
      "name": "hasRole",
      "outputs": [
        {
          "internalType": "bool",
          "name": "",
          "type": "bool"
        }
      ],
      "stateMutability": "view",
      "type": "function"
    },
    {
      "inputs": [
        {
          "internalType": "address",
          "name": "spender",
          "type": "address"
        },
        {
          "internalType": "uint256",
          "name": "addedValue",
          "type": "uint256"
        }
      ],
      "name": "increaseAllowance",
      "outputs": [
        {
          "internalType": "bool",
          "name": "",
          "type": "bool"
        }
      ],
      "stateMutability": "nonpayable",
      "type": "function"
    },
    {
      "inputs": [
        {
          "internalType": "address",
          "name": "account",
          "type": "address"
        }
      ],
      "name": "isOwner",
      "outputs": [
        {
          "internalType": "bool",
          "name": "",
          "type": "bool"
        }
      ],
      "stateMutability": "view",
      "type": "function"
    },
    {
      "inputs": [],
      "name": "name",
      "outputs": [
        {
          "internalType": "string",
          "name": "",
          "type": "string"
        }
      ],
      "stateMutability": "view",
      "type": "function"
    },
    {
      "inputs": [
        {
          "internalType": "bytes32",
          "name": "role",
          "type": "bytes32"
        },
        {
          "internalType": "address",
          "name": "account",
          "type": "address"
        }
      ],
      "name": "renounceRole",
      "outputs": [],
      "stateMutability": "nonpayable",
      "type": "function"
    },
    {
      "inputs": [
        {
          "internalType": "bytes32",
          "name": "role",
          "type": "bytes32"
        },
        {
          "internalType": "address",
          "name": "account",
          "type": "address"
        }
      ],
      "name": "revokeRole",
      "outputs": [],
      "stateMutability": "nonpayable",
      "type": "function"
    },
    {
      "inputs": [],
      "name": "stopped",
      "outputs": [
        {
          "internalType": "bool",
          "name": "",
          "type": "bool"
        }
      ],
      "stateMutability": "view",
      "type": "function"
    },
    {
      "inputs": [],
      "name": "symbol",
      "outputs": [
        {
          "internalType": "string",
          "name": "",
          "type": "string"
        }
      ],
      "stateMutability": "view",
      "type": "function"
    },
    {
      "inputs": [],
      "name": "totalSupply",
      "outputs": [
        {
          "internalType": "uint256",
          "name": "",
          "type": "uint256"
        }
      ],
      "stateMutability": "view",
      "type": "function"
    },
    {
      "inputs": [],
      "name": "transactionCount",
      "outputs": [
        {
          "internalType": "uint256",
          "name": "",
          "type": "uint256"
        }
      ],
      "stateMutability": "view",
      "type": "function"
    },
    {
      "inputs": [
        {
          "internalType": "uint256",
          "name": "",
          "type": "uint256"
        }
      ],
      "name": "transactions",
      "outputs": [
        {
          "internalType": "enum PrivateCompany.TransactionType",
          "name": "txType",
          "type": "uint8"
        },
        {
          "internalType": "address",
          "name": "destination",
          "type": "address"
        },
        {
          "internalType": "uint256",
          "name": "value",
          "type": "uint256"
        },
        {
          "internalType": "bytes",
          "name": "data",
          "type": "bytes"
        },
        {
          "internalType": "bool",
          "name": "exist",
          "type": "bool"
        },
        {
          "internalType": "bool",
          "name": "executed",
          "type": "bool"
        }
      ],
      "stateMutability": "view",
      "type": "function"
    },
    {
      "inputs": [
        {
          "internalType": "address",
          "name": "recipient",
          "type": "address"
        },
        {
          "internalType": "uint256",
          "name": "amount",
          "type": "uint256"
        }
      ],
      "name": "transfer",
      "outputs": [
        {
          "internalType": "bool",
          "name": "",
          "type": "bool"
        }
      ],
      "stateMutability": "nonpayable",
      "type": "function"
    },
    {
      "inputs": [
        {
          "internalType": "address",
          "name": "sender",
          "type": "address"
        },
        {
          "internalType": "address",
          "name": "recipient",
          "type": "address"
        },
        {
          "internalType": "uint256",
          "name": "amount",
          "type": "uint256"
        }
      ],
      "name": "transferFrom",
      "outputs": [
        {
          "internalType": "bool",
          "name": "",
          "type": "bool"
        }
      ],
      "stateMutability": "nonpayable",
      "type": "function"
    },
    {
      "inputs": [],
      "name": "vestingSchedule",
      "outputs": [
        {
          "internalType": "bool",
          "name": "",
          "type": "bool"
        }
      ],
      "stateMutability": "view",
      "type": "function"
    },
    {
      "stateMutability": "payable",
      "type": "receive"
    },
    {
      "inputs": [],
      "name": "stopContract",
      "outputs": [],
      "stateMutability": "nonpayable",
      "type": "function"
    },
    {
      "inputs": [],
      "name": "resumeContract",
      "outputs": [],
      "stateMutability": "nonpayable",
      "type": "function"
    },
    {
      "inputs": [],
      "name": "getTransactionTypes",
      "outputs": [
        {
          "internalType": "string",
          "name": "externalType",
          "type": "string"
        },
        {
          "internalType": "string",
          "name": "newFounderType",
          "type": "string"
        },
        {
          "internalType": "string",
          "name": "launchVestingScheduleType",
          "type": "string"
        },
        {
          "internalType": "string",
          "name": "destroyCompanyType",
          "type": "string"
        }
      ],
      "stateMutability": "view",
      "type": "function"
    },
    {
      "inputs": [
        {
          "internalType": "uint256",
          "name": "transactionId",
          "type": "uint256"
        }
      ],
      "name": "getTransactionDetails",
      "outputs": [
        {
          "internalType": "bool",
          "name": "isConfirmedByMe",
          "type": "bool"
        },
        {
          "internalType": "bool",
          "name": "isExecuted",
          "type": "bool"
        },
        {
          "internalType": "enum PrivateCompany.TransactionType",
          "name": "txType",
          "type": "uint8"
        },
        {
          "internalType": "uint256",
          "name": "txId",
          "type": "uint256"
        },
        {
          "internalType": "address",
          "name": "destination",
          "type": "address"
        },
        {
          "internalType": "uint256",
          "name": "value",
          "type": "uint256"
        }
      ],
      "stateMutability": "view",
      "type": "function"
    },
    {
      "inputs": [
        {
          "internalType": "address",
          "name": "holderAddress",
          "type": "address"
        }
      ],
      "name": "getEquityHolderBalance",
      "outputs": [
        {
          "internalType": "uint256",
          "name": "currentBalance",
          "type": "uint256"
        },
        {
          "internalType": "uint256",
          "name": "lockedBalance",
          "type": "uint256"
        },
        {
          "internalType": "uint256",
          "name": "totalBalance",
          "type": "uint256"
        },
        {
          "internalType": "uint256",
          "name": "lockTimeStart",
          "type": "uint256"
        }
      ],
      "stateMutability": "view",
      "type": "function"
    },
    {
      "inputs": [],
      "name": "releaseVestedEquity",
      "outputs": [],
      "stateMutability": "nonpayable",
      "type": "function"
    },
    {
      "inputs": [
        {
          "internalType": "string",
          "name": "txTypeKey",
          "type": "string"
        },
        {
          "internalType": "address",
          "name": "destination",
          "type": "address"
        },
        {
          "internalType": "uint256",
          "name": "value",
          "type": "uint256"
        },
        {
          "internalType": "bytes",
          "name": "data",
          "type": "bytes"
        }
      ],
      "name": "submitTransaction",
      "outputs": [
        {
          "internalType": "uint256",
          "name": "transactionId",
          "type": "uint256"
        }
      ],
      "stateMutability": "nonpayable",
      "type": "function"
    },
    {
      "inputs": [
        {
          "internalType": "uint256",
          "name": "transactionId",
          "type": "uint256"
        }
      ],
      "name": "confirmTransaction",
      "outputs": [],
      "stateMutability": "nonpayable",
      "type": "function"
    }
  ],
  "bytecode": "0x60806040526000600d60006101000a81548160ff0219169083151502179055506000600d60016101000a81548160ff0219169083151502179055506040516200531638038062005316833981810160405260608110156200005f57600080fd5b81019080805160405193929190846401000000008211156200008057600080fd5b838201915060208201858111156200009757600080fd5b8251866001820283011164010000000082111715620000b557600080fd5b8083526020830192505050908051906020019080838360005b83811015620000eb578082015181840152602081019050620000ce565b50505050905090810190601f168015620001195780820380516001836020036101000a031916815260200191505b50604052602001805160405193929190846401000000008211156200013d57600080fd5b838201915060208201858111156200015457600080fd5b82518660018202830111640100000000821117156200017257600080fd5b8083526020830192505050908051906020019080838360005b83811015620001a85780820151818401526020810190506200018b565b50505050905090810190601f168015620001d65780820380516001836020036101000a031916815260200191505b5060405260200180519060200190929190505050808383816003908051906020019062000205929190620005a7565b5080600490805190602001906200021e929190620005a7565b506012600560006101000a81548160ff021916908360ff16021790555050506200028d60405180807f4f574e455200000000000000000000000000000000000000000000000000000081525060050190506040518091039020826200037f640100000000026401000000009004565b6200031260405180807f4f574e45520000000000000000000000000000000000000000000000000000008152506005019050604051809103902060405180807f4f574e4552000000000000000000000000000000000000000000000000000000815250600501905060405180910390206200039e640100000000026401000000009004565b506008819080600181540180825580915050600190039060005260206000200160009091909190916101000a81548173ffffffffffffffffffffffffffffffffffffffff021916908373ffffffffffffffffffffffffffffffffffffffff16021790555050505062000656565b6200039a828262000402640100000000026401000000009004565b5050565b806006600084815260200190815260200160002060020154837fbd79b86ffe0ab8e8776151514217cd7cacd52c909f66475c3af44e129f0b00ff60405160405180910390a48060066000848152602001908152602001600020600201819055505050565b6200043a8160066000858152602001908152602001600020600001620004b86401000000000262004854179091906401000000009004565b15620004b45762000459620004f9640100000000026401000000009004565b73ffffffffffffffffffffffffffffffffffffffff168173ffffffffffffffffffffffffffffffffffffffff16837f2f8788117e7eff1d82e926ec794901d17c78024a50270940304540a733656f0d60405160405180910390a45b5050565b6000620004f1836000018373ffffffffffffffffffffffffffffffffffffffff1660010262000501640100000000026401000000009004565b905092915050565b600033905090565b60006200051e838362000584640100000000026401000000009004565b620005795782600001829080600181540180825580915050600190039060005260206000200160009091909190915055826000018054905083600101600084815260200190815260200160002081905550600190506200057e565b600090505b92915050565b600080836001016000848152602001908152602001600020541415905092915050565b828054600181600116156101000203166002900490600052602060002090601f016020900481019282601f10620005ea57805160ff19168380011785556200061b565b828001600101855582156200061b579182015b828111156200061a578251825591602001919060010190620005fd565b5b5090506200062a91906200062e565b5090565b6200065391905b808211156200064f57600081600090555060010162000635565b5090565b90565b614cb080620006666000396000f3fe60806040526004361061023b576000357c0100000000000000000000000000000000000000000000000000000000900480637dca209d11610140578063b500aaed116100c8578063ca15c8731161008c578063ca15c873146110fa578063d547741f14611149578063d8e75f62146111a4578063dd62ed3e1461121f578063e58378bb146112a45761029a565b8063b500aaed14610fec578063b77bf60014611003578063c01a8c841461102e578063c4bc5da514611069578063c99e06c3146110805761029a565b806395d89b411161010f57806395d89b4114610d325780639ace38c214610dc2578063a217fddf14610edb578063a457c2d714610f06578063a9059cbb14610f795761029a565b80637dca209d14610be45780639010d07c14610c0f578063902d55a514610c9457806391d1485414610cbf5761029a565b80632f54bf6e116101c3578063395093511161019257806339509351146108da578063476a4b581461094d5780634b68044414610b2157806370a0823114610b5057806375f12b2114610bb55761029a565b80632f54bf6e14610772578063313ce567146107db5780633411c81c1461080c57806336568abe1461087f5761029a565b806318160ddd1161020a57806318160ddd1461046d57806323b872dd14610498578063248a9ca31461052b578063281a99561461057a5780632f2ff15d146107175761029a565b806306fdde031461029f578063095ea7b31461032f5780630fa683d3146103a257806312253a6c146104565761029a565b3661029a576000341115610298573373ffffffffffffffffffffffffffffffffffffffff167f1b851e1031ef35a238e6c67d0c7991162390df915f70eaf9098dbf0b175a6198346040518082815260200191505060405180910390a25b005b600080fd5b3480156102ab57600080fd5b506102b46112cf565b6040518080602001828103825283818151815260200191508051906020019080838360005b838110156102f45780820151818401526020810190506102d9565b50505050905090810190601f1680156103215780820380516001836020036101000a031916815260200191505b509250505060405180910390f35b34801561033b57600080fd5b506103886004803603604081101561035257600080fd5b81019080803573ffffffffffffffffffffffffffffffffffffffff16906020019092919080359060200190929190505050611371565b604051808215151515815260200191505060405180910390f35b3480156103ae57600080fd5b506103db600480360360208110156103c557600080fd5b810190808035906020019092919050505061138f565b6040518087151515158152602001861515151581526020018560038111156103ff57fe5b60ff1681526020018481526020018373ffffffffffffffffffffffffffffffffffffffff1673ffffffffffffffffffffffffffffffffffffffff168152602001828152602001965050505050505060405180910390f35b34801561046257600080fd5b5061046b6116cf565b005b34801561047957600080fd5b506104826117ac565b6040518082815260200191505060405180910390f35b3480156104a457600080fd5b50610511600480360360608110156104bb57600080fd5b81019080803573ffffffffffffffffffffffffffffffffffffffff169060200190929190803573ffffffffffffffffffffffffffffffffffffffff169060200190929190803590602001909291905050506117b6565b604051808215151515815260200191505060405180910390f35b34801561053757600080fd5b506105646004803603602081101561054e57600080fd5b810190808035906020019092919050505061188f565b6040518082815260200191505060405180910390f35b34801561058657600080fd5b506107016004803603608081101561059d57600080fd5b81019080803590602001906401000000008111156105ba57600080fd5b8201836020820111156105cc57600080fd5b803590602001918460018302840111640100000000831117156105ee57600080fd5b91908080601f016020809104026020016040519081016040528093929190818152602001838380828437600081840152601f19601f820116905080830192505050505050509192919290803573ffffffffffffffffffffffffffffffffffffffff169060200190929190803590602001909291908035906020019064010000000081111561067b57600080fd5b82018360208201111561068d57600080fd5b803590602001918460018302840111640100000000831117156106af57600080fd5b91908080601f016020809104026020016040519081016040528093929190818152602001838380828437600081840152601f19601f8201169050808301925050505050505091929192905050506118af565b6040518082815260200191505060405180910390f35b34801561072357600080fd5b506107706004803603604081101561073a57600080fd5b8101908080359060200190929190803573ffffffffffffffffffffffffffffffffffffffff16906020019092919050505061198c565b005b34801561077e57600080fd5b506107c16004803603602081101561079557600080fd5b81019080803573ffffffffffffffffffffffffffffffffffffffff169060200190929190505050611990565b604051808215151515815260200191505060405180910390f35b3480156107e757600080fd5b506107f06119d8565b604051808260ff1660ff16815260200191505060405180910390f35b34801561081857600080fd5b506108656004803603604081101561082f57600080fd5b8101908080359060200190929190803573ffffffffffffffffffffffffffffffffffffffff1690602001909291905050506119ef565b604051808215151515815260200191505060405180910390f35b34801561088b57600080fd5b506108d8600480360360408110156108a257600080fd5b8101908080359060200190929190803573ffffffffffffffffffffffffffffffffffffffff169060200190929190505050611a1e565b005b3480156108e657600080fd5b50610933600480360360408110156108fd57600080fd5b81019080803573ffffffffffffffffffffffffffffffffffffffff16906020019092919080359060200190929190505050611ab7565b604051808215151515815260200191505060405180910390f35b34801561095957600080fd5b50610962611b6a565b6040518080602001806020018060200180602001858103855289818151815260200191508051906020019080838360005b838110156109ae578082015181840152602081019050610993565b50505050905090810190601f1680156109db5780820380516001836020036101000a031916815260200191505b50858103845288818151815260200191508051906020019080838360005b83811015610a145780820151818401526020810190506109f9565b50505050905090810190601f168015610a415780820380516001836020036101000a031916815260200191505b50858103835287818151815260200191508051906020019080838360005b83811015610a7a578082015181840152602081019050610a5f565b50505050905090810190601f168015610aa75780820380516001836020036101000a031916815260200191505b50858103825286818151815260200191508051906020019080838360005b83811015610ae0578082015181840152602081019050610ac5565b50505050905090810190601f168015610b0d5780820380516001836020036101000a031916815260200191505b509850505050505050505060405180910390f35b348015610b2d57600080fd5b50610b36611cf6565b604051808215151515815260200191505060405180910390f35b348015610b5c57600080fd5b50610b9f60048036036020811015610b7357600080fd5b81019080803573ffffffffffffffffffffffffffffffffffffffff169060200190929190505050611d09565b6040518082815260200191505060405180910390f35b348015610bc157600080fd5b50610bca611d51565b604051808215151515815260200191505060405180910390f35b348015610bf057600080fd5b50610bf9611d64565b6040518082815260200191505060405180910390f35b348015610c1b57600080fd5b50610c5260048036036040811015610c3257600080fd5b810190808035906020019092919080359060200190929190505050611d6a565b604051808273ffffffffffffffffffffffffffffffffffffffff1673ffffffffffffffffffffffffffffffffffffffff16815260200191505060405180910390f35b348015610ca057600080fd5b50610ca9611d9c565b6040518082815260200191505060405180910390f35b348015610ccb57600080fd5b50610d1860048036036040811015610ce257600080fd5b8101908080359060200190929190803573ffffffffffffffffffffffffffffffffffffffff169060200190929190505050611da2565b604051808215151515815260200191505060405180910390f35b348015610d3e57600080fd5b50610d47611dd4565b6040518080602001828103825283818151815260200191508051906020019080838360005b83811015610d87578082015181840152602081019050610d6c565b50505050905090810190601f168015610db45780820380516001836020036101000a031916815260200191505b509250505060405180910390f35b348015610dce57600080fd5b50610dfb60048036036020811015610de557600080fd5b8101908080359060200190929190505050611e76565b60405180876003811115610e0b57fe5b60ff1681526020018673ffffffffffffffffffffffffffffffffffffffff1673ffffffffffffffffffffffffffffffffffffffff168152602001858152602001806020018415151515815260200183151515158152602001828103825285818151815260200191508051906020019080838360005b83811015610e9b578082015181840152602081019050610e80565b50505050905090810190601f168015610ec85780820380516001836020036101000a031916815260200191505b5097505050505050505060405180910390f35b348015610ee757600080fd5b50610ef0611f91565b6040518082815260200191505060405180910390f35b348015610f1257600080fd5b50610f5f60048036036040811015610f2957600080fd5b81019080803573ffffffffffffffffffffffffffffffffffffffff16906020019092919080359060200190929190505050611f99565b604051808215151515815260200191505060405180910390f35b348015610f8557600080fd5b50610fd260048036036040811015610f9c57600080fd5b81019080803573ffffffffffffffffffffffffffffffffffffffff16906020019092919080359060200190929190505050612066565b604051808215151515815260200191505060405180910390f35b348015610ff857600080fd5b50611001612084565b005b34801561100f57600080fd5b506110186122aa565b6040518082815260200191505060405180910390f35b34801561103a57600080fd5b506110676004803603602081101561105157600080fd5b81019080803590602001909291905050506122b0565b005b34801561107557600080fd5b5061107e6124fc565b005b34801561108c57600080fd5b506110cf600480360360208110156110a357600080fd5b81019080803573ffffffffffffffffffffffffffffffffffffffff1690602001909291905050506125d9565b6040518085815260200184815260200183815260200182815260200194505050505060405180910390f35b34801561110657600080fd5b506111336004803603602081101561111d57600080fd5b810190808035906020019092919050505061279a565b6040518082815260200191505060405180910390f35b34801561115557600080fd5b506111a26004803603604081101561116c57600080fd5b8101908080359060200190929190803573ffffffffffffffffffffffffffffffffffffffff1690602001909291905050506127c1565b005b3480156111b057600080fd5b506111dd600480360360208110156111c757600080fd5b81019080803590602001909291905050506127c5565b604051808273ffffffffffffffffffffffffffffffffffffffff1673ffffffffffffffffffffffffffffffffffffffff16815260200191505060405180910390f35b34801561122b57600080fd5b5061128e6004803603604081101561124257600080fd5b81019080803573ffffffffffffffffffffffffffffffffffffffff169060200190929190803573ffffffffffffffffffffffffffffffffffffffff169060200190929190505050612801565b6040518082815260200191505060405180910390f35b3480156112b057600080fd5b506112b9612888565b6040518082815260200191505060405180910390f35b606060038054600181600116156101000203166002900480601f0160208091040260200160405190810160405280929190818152602001828054600181600116156101000203166002900480156113675780601f1061133c57610100808354040283529160200191611367565b820191906000526020600020905b81548152906001019060200180831161134a57829003601f168201915b5050505050905090565b600061138561137e6128c1565b84846128c9565b6001905092915050565b6000806000806000806113d760405180807f4f574e45520000000000000000000000000000000000000000000000000000008152506005019050604051809103902033611da2565b61142c576040517f08c379a0000000000000000000000000000000000000000000000000000000008152600401808060200182810382526027815260200180614ac76027913960400191505060405180910390fd5b86600a600082815260200190815260200160002060030160009054906101000a900460ff166114a6576040517f08c379a000000000000000000000000000000000000000000000000000000000815260040180806020018281038252602a815260200180614bd9602a913960400191505060405180910390fd5b6114ae6148f4565b600a60008a81526020019081526020016000206040518060c00160405290816000820160009054906101000a900460ff1660038111156114ea57fe5b60038111156114f557fe5b81526020016000820160019054906101000a900473ffffffffffffffffffffffffffffffffffffffff1673ffffffffffffffffffffffffffffffffffffffff1673ffffffffffffffffffffffffffffffffffffffff16815260200160018201548152602001600282018054600181600116156101000203166002900480601f0160208091040260200160405190810160405280929190818152602001828054600181600116156101000203166002900480156115f25780601f106115c7576101008083540402835291602001916115f2565b820191906000526020600020905b8154815290600101906020018083116115d557829003601f168201915b505050505081526020016003820160009054906101000a900460ff161515151581526020016003820160019054906101000a900460ff1615151515815250509050600b60008a815260200190815260200160002060003373ffffffffffffffffffffffffffffffffffffffff1673ffffffffffffffffffffffffffffffffffffffff16815260200190815260200160002060009054906101000a900460ff1697508060a001519650806000015195508060200151935080604001519250889450878787878787975097509750975097509750505091939550919395565b61170e60405180807f4f574e45520000000000000000000000000000000000000000000000000000008152506005019050604051809103902033611da2565b611763576040517f08c379a0000000000000000000000000000000000000000000000000000000008152600401808060200182810382526027815260200180614ac76027913960400191505060405180910390fd5b6001600d60016101000a81548160ff0219169083151502179055507f271eeaa027ef2b0ef7f9c88ade99794e43f75016f0320df12ea62b72a74e268660405160405180910390a1565b6000600254905090565b60006117c3848484612ac0565b611884846117cf6128c1565b61187f85604051806060016040528060288152602001614b6a60289139600160008b73ffffffffffffffffffffffffffffffffffffffff1673ffffffffffffffffffffffffffffffffffffffff16815260200190815260200160002060006118356128c1565b73ffffffffffffffffffffffffffffffffffffffff1673ffffffffffffffffffffffffffffffffffffffff16815260200190815260200160002054612d819092919063ffffffff16565b6128c9565b600190509392505050565b600060066000838152602001908152602001600020600201549050919050565b6000600d60019054906101000a900460ff16156118cb57600080fd5b61190a60405180807f4f574e45520000000000000000000000000000000000000000000000000000008152506005019050604051809103902033611da2565b61195f576040517f08c379a0000000000000000000000000000000000000000000000000000000008152600401808060200182810382526027815260200180614ac76027913960400191505060405180910390fd5b600061196a86612e41565b905061197881868686612f81565b9150611983826122b0565b50949350505050565b5050565b60006119d160405180807f4f574e45520000000000000000000000000000000000000000000000000000008152506005019050604051809103902083611da2565b9050919050565b6000600560009054906101000a900460ff16905090565b600b6020528160005260406000206020528060005260406000206000915091509054906101000a900460ff1681565b611a266128c1565b73ffffffffffffffffffffffffffffffffffffffff168173ffffffffffffffffffffffffffffffffffffffff1614611aa9576040517f08c379a000000000000000000000000000000000000000000000000000000000815260040180806020018281038252602f815260200180614c4c602f913960400191505060405180910390fd5b611ab38282613164565b5050565b6000611b60611ac46128c1565b84611b5b8560016000611ad56128c1565b73ffffffffffffffffffffffffffffffffffffffff1673ffffffffffffffffffffffffffffffffffffffff16815260200190815260200160002060008973ffffffffffffffffffffffffffffffffffffffff1673ffffffffffffffffffffffffffffffffffffffff168152602001908152602001600020546131f890919063ffffffff16565b6128c9565b6001905092915050565b606080606080611baf60405180807f4f574e45520000000000000000000000000000000000000000000000000000008152506005019050604051809103902033611da2565b611c04576040517f08c379a0000000000000000000000000000000000000000000000000000000008152600401808060200182810382526027815260200180614ac76027913960400191505060405180910390fd5b6040518060400160405280600881526020017f45787465726e616c00000000000000000000000000000000000000000000000081525093506040518060400160405280600a81526020017f4e6577466f756e6465720000000000000000000000000000000000000000000081525092506040518060400160405280601581526020017f4c61756e636856657374696e675363686564756c65000000000000000000000081525091506040518060400160405280600e81526020017f44657374726f79436f6d70616e79000000000000000000000000000000000000815250905083838383935093509350935090919293565b600d60009054906101000a900460ff1681565b60008060008373ffffffffffffffffffffffffffffffffffffffff1673ffffffffffffffffffffffffffffffffffffffff168152602001908152602001600020549050919050565b600d60019054906101000a900460ff1681565b60075481565b6000611d94826006600086815260200190815260200160002060000161328090919063ffffffff16565b905092915050565b61271081565b6000611dcc826006600086815260200190815260200160002060000161329b90919063ffffffff16565b905092915050565b606060048054600181600116156101000203166002900480601f016020809104026020016040519081016040528092919081815260200182805460018160011615610100020316600290048015611e6c5780601f10611e4157610100808354040283529160200191611e6c565b820191906000526020600020905b815481529060010190602001808311611e4f57829003601f168201915b5050505050905090565b600a6020528060005260406000206000915090508060000160009054906101000a900460ff16908060000160019054906101000a900473ffffffffffffffffffffffffffffffffffffffff1690806001015490806002018054600181600116156101000203166002900480601f016020809104026020016040519081016040528092919081815260200182805460018160011615610100020316600290048015611f615780601f10611f3657610100808354040283529160200191611f61565b820191906000526020600020905b815481529060010190602001808311611f4457829003601f168201915b5050505050908060030160009054906101000a900460ff16908060030160019054906101000a900460ff16905086565b600060010281565b600061205c611fa66128c1565b8461205785604051806060016040528060258152602001614c276025913960016000611fd06128c1565b73ffffffffffffffffffffffffffffffffffffffff1673ffffffffffffffffffffffffffffffffffffffff16815260200190815260200160002060008a73ffffffffffffffffffffffffffffffffffffffff1673ffffffffffffffffffffffffffffffffffffffff16815260200190815260200160002054612d819092919063ffffffff16565b6128c9565b6001905092915050565b600061207a6120736128c1565b8484612ac0565b6001905092915050565b6120c360405180807f4f574e45520000000000000000000000000000000000000000000000000000008152506005019050604051809103902033611da2565b612118576040517f08c379a0000000000000000000000000000000000000000000000000000000008152600401808060200182810382526027815260200180614ac76027913960400191505060405180910390fd5b6000612123336132cb565b9050600d60029054906101000a900460ff161580156121425750600081115b612197576040517f08c379a0000000000000000000000000000000000000000000000000000000008152600401808060200182810382526031815260200180614aee6031913960400191505060405180910390fd5b6001600d60026101000a81548160ff0219169083151502179055506000600960003373ffffffffffffffffffffffffffffffffffffffff1673ffffffffffffffffffffffffffffffffffffffff168152602001908152602001600020905061220c8282600101546131f890919063ffffffff16565b816001018190555061222b8282600201546133cc90919063ffffffff16565b816002018190555061223d3383613416565b3373ffffffffffffffffffffffffffffffffffffffff167fdbc1569abc705e4dab3d58f5fffbdd0ff2ec1982e69899a2c699d7a452081fa8836040518082815260200191505060405180910390a26000600d60026101000a81548160ff0219169083151502179055505050565b600c5481565b600d60019054906101000a900460ff16156122ca57600080fd5b61230960405180807f4f574e45520000000000000000000000000000000000000000000000000000008152506005019050604051809103902033611da2565b61235e576040517f08c379a0000000000000000000000000000000000000000000000000000000008152600401808060200182810382526027815260200180614ac76027913960400191505060405180910390fd5b80600a600082815260200190815260200160002060030160009054906101000a900460ff166123d8576040517f08c379a000000000000000000000000000000000000000000000000000000000815260040180806020018281038252602a815260200180614bd9602a913960400191505060405180910390fd5b81600b600082815260200190815260200160002060003373ffffffffffffffffffffffffffffffffffffffff1673ffffffffffffffffffffffffffffffffffffffff16815260200190815260200160002060009054906101000a900460ff161561244157600080fd5b6001600b600085815260200190815260200160002060003373ffffffffffffffffffffffffffffffffffffffff1673ffffffffffffffffffffffffffffffffffffffff16815260200190815260200160002060006101000a81548160ff021916908315150217905550823373ffffffffffffffffffffffffffffffffffffffff167f284a31f48de0c7baa130a1acbe4773f4c39ef557ddcd0b2d6b6ef539af10531b60405160405180910390a36124f7836135dd565b505050565b61253b60405180807f4f574e45520000000000000000000000000000000000000000000000000000008152506005019050604051809103902033611da2565b612590576040517f08c379a0000000000000000000000000000000000000000000000000000000008152600401808060200182810382526027815260200180614ac76027913960400191505060405180910390fd5b6000600d60016101000a81548160ff0219169083151502179055507f7a0eb486a5792abc0f3f90bb2e49d363e653c325fa01b4e115eb8454f884b92660405160405180910390a1565b60008060008061261e60405180807f4f574e45520000000000000000000000000000000000000000000000000000008152506005019050604051809103902033611da2565b612673576040517f08c379a0000000000000000000000000000000000000000000000000000000008152600401808060200182810382526027815260200180614ac76027913960400191505060405180910390fd5b600960008673ffffffffffffffffffffffffffffffffffffffff1673ffffffffffffffffffffffffffffffffffffffff168152602001908152602001600020600101549350600960008673ffffffffffffffffffffffffffffffffffffffff1673ffffffffffffffffffffffffffffffffffffffff168152602001908152602001600020600201549250600960008673ffffffffffffffffffffffffffffffffffffffff1673ffffffffffffffffffffffffffffffffffffffff168152602001908152602001600020600301549150600960008673ffffffffffffffffffffffffffffffffffffffff1673ffffffffffffffffffffffffffffffffffffffff1681526020019081526020016000206000015490508383838393509350935093509193509193565b60006127ba600660008481526020019081526020016000206000016139f1565b9050919050565b5050565b600881815481106127d257fe5b906000526020600020016000915054906101000a900473ffffffffffffffffffffffffffffffffffffffff1681565b6000600160008473ffffffffffffffffffffffffffffffffffffffff1673ffffffffffffffffffffffffffffffffffffffff16815260200190815260200160002060008373ffffffffffffffffffffffffffffffffffffffff1673ffffffffffffffffffffffffffffffffffffffff16815260200190815260200160002054905092915050565b60405180807f4f574e45520000000000000000000000000000000000000000000000000000008152506005019050604051809103902081565b600033905090565b600073ffffffffffffffffffffffffffffffffffffffff168373ffffffffffffffffffffffffffffffffffffffff16141561294f576040517f08c379a0000000000000000000000000000000000000000000000000000000008152600401808060200182810382526024815260200180614c036024913960400191505060405180910390fd5b600073ffffffffffffffffffffffffffffffffffffffff168273ffffffffffffffffffffffffffffffffffffffff1614156129d5576040517f08c379a0000000000000000000000000000000000000000000000000000000008152600401808060200182810382526022815260200180614a7f6022913960400191505060405180910390fd5b80600160008573ffffffffffffffffffffffffffffffffffffffff1673ffffffffffffffffffffffffffffffffffffffff16815260200190815260200160002060008473ffffffffffffffffffffffffffffffffffffffff1673ffffffffffffffffffffffffffffffffffffffff168152602001908152602001600020819055508173ffffffffffffffffffffffffffffffffffffffff168373ffffffffffffffffffffffffffffffffffffffff167f8c5be1e5ebec7d5bd14f71427d1e84f3dd0314c0f7b2291e5b200ac8c7c3b925836040518082815260200191505060405180910390a3505050565b600073ffffffffffffffffffffffffffffffffffffffff168373ffffffffffffffffffffffffffffffffffffffff161415612b46576040517f08c379a0000000000000000000000000000000000000000000000000000000008152600401808060200182810382526025815260200180614bb46025913960400191505060405180910390fd5b600073ffffffffffffffffffffffffffffffffffffffff168273ffffffffffffffffffffffffffffffffffffffff161415612bcc576040517f08c379a0000000000000000000000000000000000000000000000000000000008152600401808060200182810382526023815260200180614a5c6023913960400191505060405180910390fd5b612bd7838383613a06565b612c4281604051806060016040528060268152602001614aa1602691396000808773ffffffffffffffffffffffffffffffffffffffff1673ffffffffffffffffffffffffffffffffffffffff16815260200190815260200160002054612d819092919063ffffffff16565b6000808573ffffffffffffffffffffffffffffffffffffffff1673ffffffffffffffffffffffffffffffffffffffff16815260200190815260200160002081905550612cd5816000808573ffffffffffffffffffffffffffffffffffffffff1673ffffffffffffffffffffffffffffffffffffffff168152602001908152602001600020546131f890919063ffffffff16565b6000808473ffffffffffffffffffffffffffffffffffffffff1673ffffffffffffffffffffffffffffffffffffffff168152602001908152602001600020819055508173ffffffffffffffffffffffffffffffffffffffff168373ffffffffffffffffffffffffffffffffffffffff167fddf252ad1be2c89b69c2b068fc378daa952ba7f163c4a11628f55a4df523b3ef836040518082815260200191505060405180910390a3505050565b6000838311158290612e2e576040517f08c379a00000000000000000000000000000000000000000000000000000000081526004018080602001828103825283818151815260200191508051906020019080838360005b83811015612df3578082015181840152602081019050612dd8565b50505050905090810190601f168015612e205780820380516001836020036101000a031916815260200191505b509250505060405180910390fd5b5060008385039050809150509392505050565b600060405180807f45787465726e616c0000000000000000000000000000000000000000000000008152506008019050604051809103902082805190602001201415612e905760009050612f7c565b60405180807f4e6577466f756e64657200000000000000000000000000000000000000000000815250600a019050604051809103902082805190602001201415612edd5760019050612f7c565b60405180807f4c61756e636856657374696e675363686564756c6500000000000000000000008152506015019050604051809103902082805190602001201415612f2a5760029050612f7c565b60405180807f44657374726f79436f6d70616e79000000000000000000000000000000000000815250600e019050604051809103902082805190602001201415612f775760039050612f7c565b600080fd5b919050565b600083600073ffffffffffffffffffffffffffffffffffffffff168173ffffffffffffffffffffffffffffffffffffffff161415612fbe57600080fd5b600c5491506040518060c00160405280876003811115612fda57fe5b81526020018673ffffffffffffffffffffffffffffffffffffffff16815260200185815260200184815260200160011515815260200160001515815250600a600084815260200190815260200160002060008201518160000160006101000a81548160ff0219169083600381111561304e57fe5b021790555060208201518160000160016101000a81548173ffffffffffffffffffffffffffffffffffffffff021916908373ffffffffffffffffffffffffffffffffffffffff1602179055506040820151816001015560608201518160020190805190602001906130c092919061494f565b5060808201518160030160006101000a81548160ff02191690831515021790555060a08201518160030160016101000a81548160ff0219169083151502179055509050506001600c60008282540192505081905550817fdebc10a4c5b3a068a33d09a2e738b39000cf7a983ba8ade2c06798ba8eb28573876040518082600381111561314857fe5b60ff16815260200191505060405180910390a250949350505050565b61318c8160066000858152602001908152602001600020600001613a7490919063ffffffff16565b156131f4576131996128c1565b73ffffffffffffffffffffffffffffffffffffffff168173ffffffffffffffffffffffffffffffffffffffff16837ff6391f5c32d9c69d2a47ea670b442974b53935d1edc7fd64eb21e047a839171b60405160405180910390a45b5050565b600080828401905083811015613276576040517f08c379a000000000000000000000000000000000000000000000000000000000815260040180806020018281038252601b8152602001807f536166654d6174683a206164646974696f6e206f766572666c6f77000000000081525060200191505060405180910390fd5b8091505092915050565b600061328f8360000183613aa4565b60019004905092915050565b60006132c3836000018373ffffffffffffffffffffffffffffffffffffffff16600102613b27565b905092915050565b60006132d56149cf565b600960008473ffffffffffffffffffffffffffffffffffffffff1673ffffffffffffffffffffffffffffffffffffffff1681526020019081526020016000206040518060a0016040529081600082015481526020016001820154815260200160028201548152602001600382015481526020016004820160009054906101000a900473ffffffffffffffffffffffffffffffffffffffff1673ffffffffffffffffffffffffffffffffffffffff1673ffffffffffffffffffffffffffffffffffffffff168152505090506000816020015190506133c3816133b586613b4a565b6133cc90919063ffffffff16565b92505050919050565b600061340e83836040518060400160405280601e81526020017f536166654d6174683a207375627472616374696f6e206f766572666c6f770000815250612d81565b905092915050565b600073ffffffffffffffffffffffffffffffffffffffff168273ffffffffffffffffffffffffffffffffffffffff1614156134b9576040517f08c379a000000000000000000000000000000000000000000000000000000000815260040180806020018281038252601f8152602001807f45524332303a206d696e7420746f20746865207a65726f20616464726573730081525060200191505060405180910390fd5b6134c560008383613a06565b6134da816002546131f890919063ffffffff16565b600281905550613531816000808573ffffffffffffffffffffffffffffffffffffffff1673ffffffffffffffffffffffffffffffffffffffff168152602001908152602001600020546131f890919063ffffffff16565b6000808473ffffffffffffffffffffffffffffffffffffffff1673ffffffffffffffffffffffffffffffffffffffff168152602001908152602001600020819055508173ffffffffffffffffffffffffffffffffffffffff16600073ffffffffffffffffffffffffffffffffffffffff167fddf252ad1be2c89b69c2b068fc378daa952ba7f163c4a11628f55a4df523b3ef836040518082815260200191505060405180910390a35050565b600d60019054906101000a900460ff16156135f757600080fd5b61363660405180807f4f574e45520000000000000000000000000000000000000000000000000000008152506005019050604051809103902033611da2565b61368b576040517f08c379a0000000000000000000000000000000000000000000000000000000008152600401808060200182810382526027815260200180614ac76027913960400191505060405180910390fd5b80600b600082815260200190815260200160002060003373ffffffffffffffffffffffffffffffffffffffff1673ffffffffffffffffffffffffffffffffffffffff16815260200190815260200160002060009054906101000a900460ff166136f357600080fd5b81600a600082815260200190815260200160002060030160019054906101000a900460ff161561372257600080fd5b61372b83613ca5565b156139ec576000600a6000858152602001908152602001600020905060018160030160016101000a81548160ff0219169083151502179055506000600381111561377157fe5b8160000160009054906101000a900460ff16600381111561378e57fe5b14156138e6576138638160000160019054906101000a900473ffffffffffffffffffffffffffffffffffffffff168260010154836002018054600181600116156101000203166002900480601f0160208091040260200160405190810160405280929190818152602001828054600181600116156101000203166002900480156138595780601f1061382e57610100808354040283529160200191613859565b820191906000526020600020905b81548152906001019060200180831161383c57829003601f168201915b5050505050613d8d565b1561389a57837f036687fd39b346666ddc60de603092dbfccf1f0dfef3848eacaf6556f155274960405160405180910390a26138e5565b837fe6be4216c17a494bd52020b62596f189bf4552ad23cbae4913db8f0d9693ec9360405160405180910390a260008160030160016101000a81548160ff0219169083151502179055505b5b600160038111156138f357fe5b8160000160009054906101000a900460ff16600381111561391057fe5b1415613945576139438160000160019054906101000a900473ffffffffffffffffffffffffffffffffffffffff16613daa565b505b6002600381111561395257fe5b8160000160009054906101000a900460ff16600381111561396f57fe5b141561397e5761397d613e56565b5b60038081111561398a57fe5b8160000160009054906101000a900460ff1660038111156139a757fe5b14156139ea578060000160019054906101000a900473ffffffffffffffffffffffffffffffffffffffff1673ffffffffffffffffffffffffffffffffffffffff16ff5b505b505050565b60006139ff826000016141b6565b9050919050565b613a118383836141c7565b613a1a82611990565b613a6f576040517f08c379a000000000000000000000000000000000000000000000000000000000815260040180806020018281038252602a815260200180614b1f602a913960400191505060405180910390fd5b505050565b6000613a9c836000018373ffffffffffffffffffffffffffffffffffffffff166001026141cc565b905092915050565b600081836000018054905011613b05576040517f08c379a0000000000000000000000000000000000000000000000000000000008152600401808060200182810382526022815260200180614a3a6022913960400191505060405180910390fd5b826000018281548110613b1457fe5b9060005260206000200154905092915050565b600080836001016000848152602001908152602001600020541415905092915050565b6000613b546149cf565b600960008473ffffffffffffffffffffffffffffffffffffffff1673ffffffffffffffffffffffffffffffffffffffff1681526020019081526020016000206040518060a0016040529081600082015481526020016001820154815260200160028201548152602001600382015481526020016004820160009054906101000a900473ffffffffffffffffffffffffffffffffffffffff1673ffffffffffffffffffffffffffffffffffffffff1673ffffffffffffffffffffffffffffffffffffffff168152505090506000816060015190506000826000015190506000613c4582426133cc90919063ffffffff16565b90506000613c5d6004846142b490919063ffffffff16565b9050804210613c73578395505050505050613ca0565b613c9881613c8a848761432b90919063ffffffff16565b6143b190919063ffffffff16565b955050505050505b919050565b6000806000905060008090505b600880549050811015613d8557600b6000858152602001908152602001600020600060088381548110613ce157fe5b9060005260206000200160009054906101000a900473ffffffffffffffffffffffffffffffffffffffff1673ffffffffffffffffffffffffffffffffffffffff1673ffffffffffffffffffffffffffffffffffffffff16815260200190815260200160002060009054906101000a900460ff1615613d60576001820191505b600880549050821415613d7857600192505050613d88565b8080600101915050613cb2565b50505b919050565b60008060008084516020860187895af19050809150509392505050565b60008073ffffffffffffffffffffffffffffffffffffffff168273ffffffffffffffffffffffffffffffffffffffff161415613de557600080fd5b613dee826143fb565b6008829080600181540180825580915050600190039060005260206000200160009091909190916101000a81548173ffffffffffffffffffffffffffffffffffffffff021916908373ffffffffffffffffffffffffffffffffffffffff160217905550919050565b613e9560405180807f4f574e45520000000000000000000000000000000000000000000000000000008152506005019050604051809103902033611da2565b613eea576040517f08c379a0000000000000000000000000000000000000000000000000000000008152600401808060200182810382526027815260200180614ac76027913960400191505060405180910390fd5b600d60009054906101000a900460ff1615613f0457600080fd5b6000613f28613f116119d8565b60ff16600a0a61271061432b90919063ffffffff16565b90506000613f536064613f45605a8561432b90919063ffffffff16565b6143b190919063ffffffff16565b9050613f6881836133cc90919063ffffffff16565b6007819055506000613f88600880549050836143b190919063ffffffff16565b905060008090505b600880549050811015614195576040518060a001604052804281526020016000815260200183815260200183815260200160088381548110613fce57fe5b9060005260206000200160009054906101000a900473ffffffffffffffffffffffffffffffffffffffff1673ffffffffffffffffffffffffffffffffffffffff16815250600960006008848154811061402357fe5b9060005260206000200160009054906101000a900473ffffffffffffffffffffffffffffffffffffffff1673ffffffffffffffffffffffffffffffffffffffff1673ffffffffffffffffffffffffffffffffffffffff1681526020019081526020016000206000820151816000015560208201518160010155604082015181600201556060820151816003015560808201518160040160006101000a81548173ffffffffffffffffffffffffffffffffffffffff021916908373ffffffffffffffffffffffffffffffffffffffff1602179055509050506008818154811061410757fe5b9060005260206000200160009054906101000a900473ffffffffffffffffffffffffffffffffffffffff1673ffffffffffffffffffffffffffffffffffffffff167f6f1aaf30d5ebfa3a12caac074c49b1c2d49c30cc9107817ca035a011ef935937836004604051808381526020018281526020019250505060405180910390a28080600101915050613f90565b506001600d60006101000a81548160ff021916908315150217905550505050565b600081600001805490509050919050565b505050565b600080836001016000848152602001908152602001600020549050600081146142a8576000600182039050600060018660000180549050039050600086600001828154811061421757fe5b906000526020600020015490508087600001848154811061423457fe5b906000526020600020018190555060018301876001016000838152602001908152602001600020819055508660000180548061426c57fe5b600190038181906000526020600020016000905590558660010160008781526020019081526020016000206000905560019450505050506142ae565b60009150505b92915050565b6000806000806142cf6201518087816142c957fe5b0461449b565b925092509250848301925060006142e6848461456f565b9050808211156142f4578091505b62015180878161430057fe5b06620151806143108686866145fa565b020194508685101561432157600080fd5b5050505092915050565b60008083141561433e57600090506143ab565b600082840290508284828161434f57fe5b04146143a6576040517f08c379a0000000000000000000000000000000000000000000000000000000008152600401808060200182810382526021815260200180614b496021913960400191505060405180910390fd5b809150505b92915050565b60006143f383836040518060400160405280601a81526020017f536166654d6174683a206469766973696f6e206279207a65726f0000000000008152506146a9565b905092915050565b61440433611990565b614459576040517f08c379a0000000000000000000000000000000000000000000000000000000008152600401808060200182810382526022815260200180614b926022913960400191505060405180910390fd5b61449860405180807f4f574e4552000000000000000000000000000000000000000000000000000000815250600501905060405180910390208261476f565b50565b600080600080849050600062253d8c62010bd98301019050600062023ab182600402816144c457fe5b059050600460038262023ab10201816144d957fe5b0582039150600062164b0960018401610fa002816144f357fe5b059050601f6004826105b5028161450657fe5b058403019250600061098f846050028161451c57fe5b059050600060508261098f028161452f57fe5b0585039050600b828161453e57fe5b05945084600c0260028301039150848360318603606402010192508298508197508096505050505050509193909250565b600060018214806145805750600382145b8061458b5750600582145b806145965750600782145b806145a15750600882145b806145ac5750600a82145b806145b75750600c82145b156145c557601f90506145f4565b600282146145d657601e90506145f3565b6145df8361477d565b6145ea57601c6145ed565b601d5b60ff1690505b5b92915050565b60006107b284101561460b57600080fd5b600084905060008490506000849050600062253d8c60046064600c600e87038161463157fe5b056113248801018161463f57fe5b056003028161464a57fe5b05600c80600c600e88038161465b57fe5b0502600287030361016f028161466d57fe5b056004600c600e88038161467d57fe5b056112c08901016105b5028161468f57fe5b05617d4b8603010103039050809450505050509392505050565b60008083118290614755576040517f08c379a00000000000000000000000000000000000000000000000000000000081526004018080602001828103825283818151815260200191508051906020019080838360005b8381101561471a5780820151818401526020810190506146ff565b50505050905090810190601f1680156147475780820380516001836020036101000a031916815260200191505b509250505060405180910390fd5b50600083858161476157fe5b049050809150509392505050565b61477982826147c0565b5050565b6000806004838161478a57fe5b061480156147a3575060006064838161479f57fe5b0614155b806147b95750600061019083816147b657fe5b06145b9050919050565b6147e8816006600085815260200190815260200160002060000161485490919063ffffffff16565b15614850576147f56128c1565b73ffffffffffffffffffffffffffffffffffffffff168173ffffffffffffffffffffffffffffffffffffffff16837f2f8788117e7eff1d82e926ec794901d17c78024a50270940304540a733656f0d60405160405180910390a45b5050565b600061487c836000018373ffffffffffffffffffffffffffffffffffffffff16600102614884565b905092915050565b60006148908383613b27565b6148e95782600001829080600181540180825580915050600190039060005260206000200160009091909190915055826000018054905083600101600084815260200190815260200160002081905550600190506148ee565b600090505b92915050565b6040518060c001604052806000600381111561490c57fe5b8152602001600073ffffffffffffffffffffffffffffffffffffffff16815260200160008152602001606081526020016000151581526020016000151581525090565b828054600181600116156101000203166002900490600052602060002090601f016020900481019282601f1061499057805160ff19168380011785556149be565b828001600101855582156149be579182015b828111156149bd5782518255916020019190600101906149a2565b5b5090506149cb9190614a14565b5090565b6040518060a0016040528060008152602001600081526020016000815260200160008152602001600073ffffffffffffffffffffffffffffffffffffffff1681525090565b614a3691905b80821115614a32576000816000905550600101614a1a565b5090565b9056fe456e756d657261626c655365743a20696e646578206f7574206f6620626f756e647345524332303a207472616e7366657220746f20746865207a65726f206164647265737345524332303a20617070726f766520746f20746865207a65726f206164647265737345524332303a207472616e7366657220616d6f756e7420657863656564732062616c616e636550726976617465436f6d70616e793a2073656e646572206973206e6f74206120666f756e64657250726976617465436f6d70616e793a206e6f20746f6b656e7320746f2072656c6561736520617420746869732074696d654552433230507269766174653a20746f6b656e207472616e7366657220746f206f776e6572206f6e6c79536166654d6174683a206d756c7469706c69636174696f6e206f766572666c6f7745524332303a207472616e7366657220616d6f756e74206578636565647320616c6c6f77616e63654552433230507269766174653a205265737472696374656420746f206f776e65727345524332303a207472616e736665722066726f6d20746865207a65726f206164647265737350726976617465436f6d70616e793a207472616e73616374696f6e20646f6573206e6f7420657869737445524332303a20617070726f76652066726f6d20746865207a65726f206164647265737345524332303a2064656372656173656420616c6c6f77616e63652062656c6f77207a65726f416363657373436f6e74726f6c3a2063616e206f6e6c792072656e6f756e636520726f6c657320666f722073656c66a2646970667358221220299dae9ab5da35a83d330cc44443ba13cc94e9a9e7a910a8bbe4a755debccf8964736f6c63430006020033",
  "source": "// SPDX-License-Identifier: MIT\npragma solidity >0.6.0;\n\nimport \"./ERC20Private.sol\";\nimport \"./DateTimeLibrary.sol\";\nimport \"@openzeppelin/contracts/math/SafeMath.sol\";\n\n/**\n * @title Private Company contract.\n * @dev Transaction agreement before execution between all founders.\n * @dev Simple vesting schedule of internal token.\n * @dev Internal token(equity) protected. It can only circulate between founders.\n * @author Konstantin Zamaraev\n * @notice This final project for Consensys bootcamp. DO NOT USE IN PRODUCTION.\n */\ncontract PrivateCompany is ERC20Private {\n    /// Libraries\n    using SafeMath for uint256;\n    using BokkyPooBahsDateTimeLibrary for uint256;\n\n    /// Constants\n    uint256 public constant TOTAL_SUPPLY = 10000;\n    uint256 internal constant TOKEN_VESTING_TIME = 4; // 4 years for the full vesting\n\n    /// Events\n    event LogDeposit(address indexed sender, uint256 value);\n    event LogFounderEquityDistribution(\n        address indexed founderAddress,\n        uint256 equityAmount,\n        uint256 vestingTime\n    );\n    event LogReleasedEquityForHolder(\n        address indexed founderAddress,\n        uint256 equityAmount\n    );\n    event LogTransactionSubmission(\n        TransactionType txType,\n        uint256 indexed transactionId\n    );\n    event LogTransactionExecution(uint256 indexed transactionId);\n    event LogTransactionExecutionFailure(uint256 indexed transactionId);\n    event LogTransactionConfirmation(\n        address indexed sender,\n        uint256 indexed transactionId\n    );\n    event LogContractStopped();\n    event LogContractResume();\n\n    /// Storage\n    uint256 public equityPool;\n    address[] public founders;\n    mapping(address => EquityHolder) equityHolders;\n    mapping(uint256 => Transaction) public transactions;\n    mapping(uint256 => mapping(address => bool)) public confirmations;\n    uint256 public transactionCount;\n    bool public vestingSchedule = false;\n    bool public stopped = false;\n    bool private lockEquityHolderBalance;\n\n    /// Enums\n    enum TransactionType {\n        External,\n        NewFounder,\n        LaunchVestingSchedule,\n        DestroyCompany\n    }\n\n    /// Structs\n    struct EquityHolder {\n        uint256 lockTimeStart;\n        uint256 currentBalance;\n        uint256 lockedBalance;\n        uint256 totalBalance;\n        address holderAddress;\n    }\n\n    struct Transaction {\n        TransactionType txType;\n        address destination;\n        uint256 value;\n        bytes data;\n        bool exist;\n        bool executed;\n    }\n\n    /// Modifiers\n    modifier onlyIfNotLaunched {\n        require(!vestingSchedule);\n        _;\n    }\n\n    modifier stopInEmergency {\n        require(!stopped);\n        _;\n    }\n\n    modifier notNull(address _address) {\n        require(_address != address(0));\n        _;\n    }\n\n    modifier transactionExists(uint256 transactionId) {\n        require(\n            transactions[transactionId].exist,\n            \"PrivateCompany: transaction does not exist\"\n        );\n        _;\n    }\n\n    modifier confirmed(uint256 transactionId) {\n        require(confirmations[transactionId][msg.sender]);\n        _;\n    }\n\n    modifier notConfirmed(uint256 transactionId) {\n        require(!confirmations[transactionId][msg.sender]);\n        _;\n    }\n\n    modifier notExecuted(uint256 transactionId) {\n        require(!transactions[transactionId].executed);\n        _;\n    }\n\n    modifier onlyFounder() {\n        require(\n            hasRole(OWNER_ROLE, msg.sender),\n            \"PrivateCompany: sender is not a founder\"\n        );\n        _;\n    }\n\n    /**\n     * @dev Receive function allows to deposit ether.\n     */\n    receive() external payable {\n        if (msg.value > 0) LogDeposit(msg.sender, msg.value);\n    }\n\n    /// Public functions\n    /**\n     * @dev Contract constructor creates private token and\n     * assigning sender as first founder.\n     * @param _companyName Company name.\n     * @param _token Company(token) ticker name.\n     * @param _founder First founder -- contract creator.\n     */\n    constructor(\n        string memory _companyName,\n        string memory _token,\n        address _founder\n    ) public payable ERC20(_companyName, _token) ERC20Private(_founder) {\n        founders.push(_founder);\n    }\n\n    /**\n     * @dev Emergency only! Block transaction submition/confirmation/execution\n     */\n    function stopContract() public onlyFounder {\n        stopped = true;\n        emit LogContractStopped();\n    }\n\n    function resumeContract() public onlyFounder {\n        stopped = false;\n        emit LogContractResume();\n    }\n\n    /**\n     * @dev Return all transaction type strings\n     */\n    function getTransactionTypes()\n        public\n        view\n        onlyFounder\n        returns (\n            string memory externalType,\n            string memory newFounderType,\n            string memory launchVestingScheduleType,\n            string memory destroyCompanyType\n        )\n    {\n        externalType = \"External\";\n        newFounderType = \"NewFounder\";\n        launchVestingScheduleType = \"LaunchVestingSchedule\";\n        destroyCompanyType = \"DestroyCompany\";\n\n        return (\n            externalType,\n            newFounderType,\n            launchVestingScheduleType,\n            destroyCompanyType\n        );\n    }\n\n    /**\n     * @param transactionId Transaction ID.\n     * @dev Transaction details.\n     */\n    function getTransactionDetails(uint256 transactionId)\n        public\n        view\n        onlyFounder\n        transactionExists(transactionId)\n        returns (\n            bool isConfirmedByMe,\n            bool isExecuted,\n            TransactionType txType,\n            uint256 txId,\n            address destination,\n            uint256 value\n        )\n    {\n        Transaction memory txById = transactions[transactionId];\n        isConfirmedByMe = confirmations[transactionId][msg.sender];\n        isExecuted = txById.executed;\n        txType = txById.txType;\n        destination = txById.destination;\n        value = txById.value;\n        txId = transactionId;\n\n        return (isConfirmedByMe, isExecuted, txType, txId, destination, value);\n    }\n\n    /**\n     * @param holderAddress address of equity holder.\n     */\n    function getEquityHolderBalance(address holderAddress)\n        public\n        view\n        onlyFounder\n        returns (\n            uint256 currentBalance,\n            uint256 lockedBalance,\n            uint256 totalBalance,\n            uint256 lockTimeStart\n        )\n    {\n        currentBalance = equityHolders[holderAddress].currentBalance;\n        lockedBalance = equityHolders[holderAddress].lockedBalance;\n        totalBalance = equityHolders[holderAddress].totalBalance;\n        lockTimeStart = equityHolders[holderAddress].lockTimeStart;\n\n        return (currentBalance, lockedBalance, totalBalance, lockTimeStart);\n    }\n\n    /**\n     * @dev Allows a founder to check if there are tokens to release and mint.\n     */\n    function releaseVestedEquity() public onlyFounder {\n        uint256 unreleasedAmount = _releasableEquityAmount(msg.sender);\n\n        require(\n            !lockEquityHolderBalance && unreleasedAmount > 0,\n            \"PrivateCompany: no tokens to release at this time\"\n        );\n\n        lockEquityHolderBalance = true;\n        EquityHolder storage equityHolder = equityHolders[msg.sender];\n\n        equityHolder.currentBalance = equityHolder.currentBalance.add(\n            unreleasedAmount\n        );\n\n        equityHolder.lockedBalance = equityHolder.lockedBalance.sub(\n            unreleasedAmount\n        );\n\n        _mint(msg.sender, unreleasedAmount);\n        emit LogReleasedEquityForHolder(msg.sender, unreleasedAmount);\n        lockEquityHolderBalance = false;\n    }\n\n    /**\n     * @dev Allows a founder to submit and confirm a transaction.\n     * @param txTypeKey Transaction type key string.\n     * @param destination Transaction target address.\n     * @param value Transaction ether value.\n     * @param data Transaction data payload.\n     */\n    function submitTransaction(\n        string memory txTypeKey,\n        address destination,\n        uint256 value,\n        bytes memory data\n    ) public stopInEmergency onlyFounder returns (uint256 transactionId) {\n        TransactionType txType = _getTransactionEnumValueByKey(txTypeKey);\n        transactionId = _addTransaction(txType, destination, value, data);\n        confirmTransaction(transactionId);\n    }\n\n    /**\n     * @dev Allows a founder to confirm a transaction.\n     * @param transactionId Transaction ID.\n     */\n    function confirmTransaction(uint256 transactionId)\n        public\n        stopInEmergency\n        onlyFounder\n        transactionExists(transactionId)\n        notConfirmed(transactionId)\n    {\n        confirmations[transactionId][msg.sender] = true;\n        emit LogTransactionConfirmation(msg.sender, transactionId);\n        _executeTransaction(transactionId);\n    }\n\n    /// Private functions\n    /**\n     * @dev Allows anyone to execute a confirmed transaction.\n     * @param transactionId Transaction ID.\n     */\n    function _executeTransaction(uint256 transactionId)\n        private\n        stopInEmergency\n        onlyFounder\n        confirmed(transactionId)\n        notExecuted(transactionId)\n    {\n        if (_isConfirmed(transactionId)) {\n            Transaction storage txn = transactions[transactionId];\n            txn.executed = true;\n\n            if (txn.txType == TransactionType.External) {\n                if (_externalCall(txn.destination, txn.value, txn.data)) {\n                    emit LogTransactionExecution(transactionId);\n                } else {\n                    emit LogTransactionExecutionFailure(transactionId);\n                    txn.executed = false;\n                }\n            }\n\n            if (txn.txType == TransactionType.NewFounder) {\n                _addNewFounder(txn.destination);\n            }\n\n            if (txn.txType == TransactionType.LaunchVestingSchedule) {\n                _launchVestingSchedule();\n            }\n\n            if (txn.txType == TransactionType.DestroyCompany) {\n                selfdestruct(address(uint160(txn.destination)));\n            }\n        }\n    }\n\n    /**\n     * @dev Returns the confirmation status of a transaction.\n     * @param transactionId Transaction ID.\n     * @return Confirmation status.\n     */\n    function _isConfirmed(uint256 transactionId) private view returns (bool) {\n        uint256 count = 0;\n        for (uint256 i = 0; i < founders.length; i++) {\n            if (confirmations[transactionId][founders[i]]) {\n                count += 1;\n            }\n            if (count == founders.length) {\n                return true;\n            }\n        }\n    }\n\n    /**\n     * @dev Sets equal amounts of equities for founders\n     * with the vesting schedule (4 years duration)\n     * 90% to initial founders\n     * 10% to equity pool\n     */\n    function _launchVestingSchedule() private onlyFounder onlyIfNotLaunched {\n        uint256 supply = TOTAL_SUPPLY.mul(10**uint256(decimals()));\n        uint256 founderDistributonSupply = supply.mul(90).div(100);\n        equityPool = supply.sub(founderDistributonSupply);\n        uint256 equityAmount = founderDistributonSupply.div(founders.length);\n\n        for (uint256 i = 0; i < founders.length; i++) {\n            equityHolders[founders[i]] = EquityHolder(\n                block.timestamp,\n                0,\n                equityAmount,\n                equityAmount,\n                founders[i]\n            );\n\n            emit LogFounderEquityDistribution(\n                founders[i],\n                equityAmount,\n                TOKEN_VESTING_TIME\n            );\n        }\n        vestingSchedule = true;\n    }\n\n    /**\n     * @param founderAddress new founder address.\n     */\n    function _addNewFounder(address founderAddress) private returns (bool) {\n        require(founderAddress != address(0));\n\n        _addOwner(founderAddress);\n        founders.push(founderAddress);\n    }\n\n    /**\n     * @param txKey Transaction type string.\n     */\n    function _getTransactionEnumValueByKey(string memory txKey)\n        private\n        pure\n        returns (TransactionType)\n    {\n        if (keccak256(bytes(txKey)) == keccak256(\"External\"))\n            return TransactionType.External;\n        if (keccak256(bytes(txKey)) == keccak256(\"NewFounder\"))\n            return TransactionType.NewFounder;\n        if (keccak256(bytes(txKey)) == keccak256(\"LaunchVestingSchedule\"))\n            return TransactionType.LaunchVestingSchedule;\n        if (keccak256(bytes(txKey)) == keccak256(\"DestroyCompany\"))\n            return TransactionType.DestroyCompany;\n        revert();\n    }\n\n    /**\n     * @param holderAddress address of equity holder.\n     */\n    function _releasableEquityAmount(address holderAddress)\n        private\n        view\n        returns (uint256)\n    {\n        EquityHolder memory holder = equityHolders[holderAddress];\n\n        uint256 currentBalance = holder.currentBalance;\n\n        return _vestedEquityAmount(holderAddress).sub(currentBalance);\n    }\n\n    /**\n     * @param holderAddress address of equity holder.\n     */\n    function _vestedEquityAmount(address holderAddress)\n        private\n        view\n        returns (uint256)\n    {\n        EquityHolder memory holder = equityHolders[holderAddress];\n        uint256 totalBalance = holder.totalBalance;\n        uint256 lockTimeStart = holder.lockTimeStart;\n        uint256 durationLeft = block.timestamp.sub(lockTimeStart);\n        uint256 durationFull = lockTimeStart.addYears(TOKEN_VESTING_TIME);\n\n        if (block.timestamp >= durationFull) {\n            return totalBalance;\n        } else {\n            return totalBalance.mul(durationLeft).div(durationFull);\n        }\n    }\n\n    /**\n     * @dev Adds a new transaction to the transaction mapping, if transaction does not exist yet.\n     * @param txType Transaction type.\n     * @param destination Transaction target address.\n     * @param value Transaction ether value.\n     * @param data Transaction data payload.\n     */\n    function _addTransaction(\n        TransactionType txType,\n        address destination,\n        uint256 value,\n        bytes memory data\n    ) private notNull(destination) returns (uint256 transactionId) {\n        transactionId = transactionCount;\n        transactions[transactionId] = Transaction({\n            txType: txType,\n            destination: destination,\n            value: value,\n            data: data,\n            exist: true,\n            executed: false\n        });\n        transactionCount += 1;\n        emit LogTransactionSubmission(txType, transactionId);\n    }\n\n    /**\n     * Call has been separated into its own function in order to take advantage\n     * of the Solidity's code generator to produce a loop that copies tx.data into memory.\n     */\n    function _externalCall(\n        address destination,\n        uint256 value,\n        bytes memory data\n    ) private returns (bool) {\n        bool result;\n        assembly {\n            result := call(\n                gas(),\n                destination,\n                value,\n                add(data, 32), // First 32 bytes are the padded length of data, so exclude that\n                mload(data), // Size of the input (in bytes) - this is what fixes the padding problem\n                0,\n                0 // Output is ignored, therefore the output size is zero\n            )\n        }\n        return result;\n    }\n}\n",
  "sourcePath": "/Users/konstantin/dev/consensys/final-project/startup-3.0/contracts/PrivateCompany.sol",
  "compiler": {
    "name": "solc",
    "version": "0.6.2+commit.bacdbe57.Emscripten.clang"
  },
  "schemaVersion": "3.2.5",
  "updatedAt": "2020-12-13T20:49:49.092Z",
  "devdoc": {
    "author": "Konstantin Zamaraev",
    "details": "Transaction agreement before execution between all founders.Simple vesting schedule of internal token.Internal token(equity) protected. It can only circulate between founders.",
    "methods": {
      "allowance(address,address)": {
        "details": "See {IERC20-allowance}."
      },
      "approve(address,uint256)": {
        "details": "See {IERC20-approve}.     * Requirements:     * - `spender` cannot be the zero address."
      },
      "balanceOf(address)": {
        "details": "See {IERC20-balanceOf}."
      },
      "confirmTransaction(uint256)": {
        "details": "Allows a founder to confirm a transaction.",
        "params": {
          "transactionId": "Transaction ID."
        }
      },
      "constructor": {
        "details": "Contract constructor creates private token and assigning sender as first founder.",
        "params": {
          "_companyName": "Company name.",
          "_founder": "First founder -- contract creator.",
          "_token": "Company(token) ticker name."
        }
      },
      "decimals()": {
        "details": "Returns the number of decimals used to get its user representation. For example, if `decimals` equals `2`, a balance of `505` tokens should be displayed to a user as `5,05` (`505 / 10 ** 2`).     * Tokens usually opt for a value of 18, imitating the relationship between Ether and Wei. This is the value {ERC20} uses, unless {_setupDecimals} is called.     * NOTE: This information is only used for _display_ purposes: it in no way affects any of the arithmetic of the contract, including {IERC20-balanceOf} and {IERC20-transfer}."
      },
      "decreaseAllowance(address,uint256)": {
        "details": "Atomically decreases the allowance granted to `spender` by the caller.     * This is an alternative to {approve} that can be used as a mitigation for problems described in {IERC20-approve}.     * Emits an {Approval} event indicating the updated allowance.     * Requirements:     * - `spender` cannot be the zero address. - `spender` must have allowance for the caller of at least `subtractedValue`."
      },
      "getEquityHolderBalance(address)": {
        "params": {
          "holderAddress": "address of equity holder."
        }
      },
      "getRoleAdmin(bytes32)": {
        "details": "Returns the admin role that controls `role`. See {grantRole} and {revokeRole}.     * To change a role's admin, use {_setRoleAdmin}."
      },
      "getRoleMember(bytes32,uint256)": {
        "details": "Returns one of the accounts that have `role`. `index` must be a value between 0 and {getRoleMemberCount}, non-inclusive.     * Role bearers are not sorted in any particular way, and their ordering may change at any point.     * WARNING: When using {getRoleMember} and {getRoleMemberCount}, make sure you perform all queries on the same block. See the following https://forum.openzeppelin.com/t/iterating-over-elements-on-enumerableset-in-openzeppelin-contracts/2296[forum post] for more information."
      },
      "getRoleMemberCount(bytes32)": {
        "details": "Returns the number of accounts that have `role`. Can be used together with {getRoleMember} to enumerate all bearers of a role."
      },
      "getTransactionDetails(uint256)": {
        "details": "Transaction details.",
        "params": {
          "transactionId": "Transaction ID."
        }
      },
      "getTransactionTypes()": {
        "details": "Return all transaction type strings"
      },
      "grantRole(bytes32,address)": {
        "details": "Override to block this behaivourAdding new role only available thru {_addOwner}"
      },
      "hasRole(bytes32,address)": {
        "details": "Returns `true` if `account` has been granted `role`."
      },
      "increaseAllowance(address,uint256)": {
        "details": "Atomically increases the allowance granted to `spender` by the caller.     * This is an alternative to {approve} that can be used as a mitigation for problems described in {IERC20-approve}.     * Emits an {Approval} event indicating the updated allowance.     * Requirements:     * - `spender` cannot be the zero address."
      },
      "isOwner(address)": {
        "details": "Return `true` if the account belongs to the owner role."
      },
      "name()": {
        "details": "Returns the name of the token."
      },
      "releaseVestedEquity()": {
        "details": "Allows a founder to check if there are tokens to release and mint."
      },
      "renounceRole(bytes32,address)": {
        "details": "Revokes `role` from the calling account.     * Roles are often managed via {grantRole} and {revokeRole}: this function's purpose is to provide a mechanism for accounts to lose their privileges if they are compromised (such as when a trusted device is misplaced).     * If the calling account had been granted `role`, emits a {RoleRevoked} event.     * Requirements:     * - the caller must be `account`."
      },
      "revokeRole(bytes32,address)": {
        "details": "Override to block this behaivour"
      },
      "stopContract()": {
        "details": "Emergency only! Block transaction submition/confirmation/execution"
      },
      "submitTransaction(string,address,uint256,bytes)": {
        "details": "Allows a founder to submit and confirm a transaction.",
        "params": {
          "data": "Transaction data payload.",
          "destination": "Transaction target address.",
          "txTypeKey": "Transaction type key string.",
          "value": "Transaction ether value."
        }
      },
      "symbol()": {
        "details": "Returns the symbol of the token, usually a shorter version of the name."
      },
      "totalSupply()": {
        "details": "See {IERC20-totalSupply}."
      },
      "transfer(address,uint256)": {
        "details": "See {IERC20-transfer}.     * Requirements:     * - `recipient` cannot be the zero address. - the caller must have a balance of at least `amount`."
      },
      "transferFrom(address,address,uint256)": {
        "details": "See {IERC20-transferFrom}.     * Emits an {Approval} event indicating the updated allowance. This is not required by the EIP. See the note at the beginning of {ERC20};     * Requirements: - `sender` and `recipient` cannot be the zero address. - `sender` must have a balance of at least `amount`. - the caller must have allowance for ``sender``'s tokens of at least `amount`."
      }
    },
    "title": "Private Company contract."
  },
  "userdoc": {
    "methods": {},
    "notice": "This final project for Consensys bootcamp. DO NOT USE IN PRODUCTION."
  }
}